:100000000C94CA000C94E7000C94E7000C94E700F1
:100010000C94E7000C94E7000C94E7000C94E700C4
:100020000C94E7000C94E7000C94E7000C94E700B4
:100030000C94E7000C94E7000C94E7000C94E700A4
:100040000C94E7000C94E7000C94E7000C94E70094
:100050000C94E7000C94E7000C94E7000C94E70084
:100060000C94E7000C94E700036EDB363D9A9999F7
:10007000993DABAAAA2A3E000000803F084AD73B20
:100080003BCE016E84BCBFFDC12F3D6C74319ABD67
:1000900056833DDA3D00C77F11BED9E4BB4C3E918B
:1000A0006BAAAABE000000803F07634236B79BD808
:1000B000A71A39685618AEBAAB558C1D3CB7CC5749
:1000C00063BD6DEDFD753EF6177231BF0000008017
:1000D0003F072C7AA5BA6CC590DA3B9365FC8BBCC4
:1000E00053F810FD3C5692834DBD879D3AB63DCBEB
:1000F000C9BF5BBE73DA0FC93F05A84CCDB2D44E61
:10010000B93836A9020C50B9918688083CA6AAAA2B
:100110002ABE000000803F08000000BE9224491261
:100120003EABAAAA2ABECDCCCC4C3E00000080BE7D
:10013000ABAAAAAA3E00000000BF000000803F005A
:1001400000000000084178D3BB4387D1133D190E4E
:100150003CC3BD4282AD2B3E68EC8276BED98FE1B6
:10016000A93E4C80EFFFBE01C4FF7F3F00000000AE
:10017000000664EC1B3C04BC163E3BE5B93CC93CA4
:1001800037C29E5A3D660498083EEA69AAAA3E0014
:100190000000803F11241FBECFEFD8E0DEBFCDBFEF
:1001A00011E0A0E0B1E0EEE7FCE102C005900D92A5
:1001B000AA3EB107D9F722E0AAEEB1E001C01D9234
:1001C000A931B207E1F70E943F020C943D0E0C9456
:1001D0000000FC01A481B5818C91968141E050E042
:1001E0009A0101C0220F9A95EAF7209528232C93B3
:1001F000A081B1818C91968101C0440F9A95EAF754
:10020000482B4C930895FC01A281B3812C9130E0DE
:10021000868102C0359527958A95E2F720FD18C0A2
:100220002FEF80E792E0215080409040E1F700C03E
:100230000000A281B3819C91892F90E0268102C0A9
:10024000959587952A95E2F7809590958170089508
:1002500080E0089510921502109216021092170273
:1002600010921802109211021092120210921302B0
:1002700010921402109210021092F0011092EF01ED
:100280001092EE011092EC011092EB011092ED0130
:100290008DEC9CECACECBDE38093000190930101EC
:1002A000A0930201B09303010E9405028AE691E047
:1002B0000C943302E0EFF1E001900020E9F740E117
:1002C00052E04E1B5F0BBC0180EF91E00C94480B99
:1002D000E0EFF1E001900020E9F7E15FF140EF315C
:1002E000F10520F4E051FE4F808311820895CF93F1
:1002F000DF9300D0CDB7DEB7805D89831A82CE014F
:1003000001960E945A010F900F90DF91CF910895AE
:10031000289895B19F7095B925B1982F907F922B11
:1003200095B9299A35E03A95F1F700002998EFE15F
:10033000F3E03197F1F700C0000095B19F7095B9D7
:1003400025B1F0E18F9FC0011124822B85B9299A34
:1003500035E03A95F1F7000029988FE39FE1019786
:10036000F1F700C000000895289A95B19F7095B9E3
:1003700025B1982F907F922B95B9299A35E03A951F
:10038000F1F700002998EFE1F3E03197F1F700C0B1
:10039000000095B19F7095B925B1F0E18F9FC00124
:1003A0001124822B85B9299A35E03A95F1F700009E
:1003B00029988FE39FE10197F1F700C000000895AD
:1003C00084B18F6384B92FEF89EF90E02150804092
:1003D0009040E1F700C0000083E30E94880182E3BF
:1003E0000E94880188E20E9488018CE00E948801B6
:1003F00086E00E94880181E00E9488018FE39FE1EE
:100400000197F1F700C00000089581E00E94880183
:100410008FE39FE10197F1F700C0000008950F936B
:100420001F93CF93DF9300D000D0CDB7DEB70091FC
:10043000660110916701209168013091690109837B
:100440001A832B833C83FE01E60FF11D9181890FF6
:1004500080680F900F900F900F90DF91CF911F91B8
:100460000F910C948801CF93DF93EC018991811156
:1004700003C0DF91CF9108950E94B401F7CFCF93CD
:10048000DF93CDB7DEB762970FB6F894DEBF0FBE2D
:10049000CDBF0E94E0018AE691E00E94330289E12B
:1004A00091E00E94E90082E191E00E94E9008BE086
:1004B00091E00E94E90084E091E00E94E90086E674
:1004C000E82E81E0F82E00E211E0C8010E94E90068
:1004D000095F1F4FE016F106C1F701E089E191E0E5
:1004E0000E9403018823C1F08091ED01811114C0A5
:1004F0000093ED018EE20E9468010E94050280EFE8
:1005000091E00E9433022FEF83EC99E0215080406C
:100510009040E1F700C0000084E091E00E940301F8
:10052000882379F18091EC0181112BC00093EC01BB
:1005300010921102109212021092130210921402E1
:100540001092F0011092EB011092ED018DEC9CECF9
:10055000ACECBDE38093000190930101A0930201F4
:10056000B09303010E94050288E791E00E943302E4
:100570009FEFA3ECB9E09150A040B040E1F700C07C
:10058000000080E291E09A8B898B312C212C122D76
:1005900089899A890E940301882309F4A8C080915F
:1005A000EC01882309F47EC18091EB01811164C0C4
:1005B0001150173068F4E12FF0E0EF51FD4F0C942B
:1005C000AF06EC02F002F4020F0313031503170346
:1005D00093E79093EA010BC0A3E6A093EA0107C05A
:1005E000B4E7B093EA0103C023E52093EA01009346
:1005F000EB018091EA018337E1F48FE891E00E94FA
:100600005A010E94050280EF91E00E9433022FEF11
:1006100083EC99E0215080409040E1F766C083E48C
:100620008093EA01E4CF94E5D4CFA5E6D6CFBCE62B
:10063000D8CF833619F485E991E0E1CF843719F4F6
:100640008BE991E0DCCF833519F48EE891E0D7CFC8
:10065000833419F484E991E0D2CF843519F48AE91E
:1006600091E0CDCF853619F480EA91E0C8CF8C3681
:1006700041F685EA91E0C3CFB101032C000C880B51
:10068000990B0E9435082B013C018090110290903B
:100690001202A0901302B09014028091ED0181111A
:1006A000D6C020E030E040E251E4C501B4010E9430
:1006B0004A0AA30192010E94C70660931102709337
:1006C00012028093130290931402812F0E947701EB
:1006D0000E94050280EF91E00E943302AFEFB3EC7D
:1006E00029E0A150B0402040E1F700C00000AFEF8A
:1006F0002A1A3A0A89899A8907969A8B898B9AE0ED
:100700002916310409F043CF8091EC01811141C0D9
:1007100082E191E00E9403018823D9F180911102C6
:1007200090911202A0911302B091140280931502CD
:1007300090931602A0931702B09318021092110220
:100740001092120210921302109214021092ED01F4
:100750008DEC9CECACECBDE3809300019093010127
:10076000A0930201B09303010093EF010E940502E0
:100770008AEA91E00E945A0180EF91E00E943302E0
:100780009FEFA3ECB9E09150A040B040E1F700C06A
:1007900000008BE091E00E940301882309F450C01F
:1007A0008091EC01882309F473C21091EA01133798
:1007B00009F07DC125E33AEF4EE85CE36091110258
:1007C0007091120280911302909114020E944A0AC1
:1007D0000E94B70A6B017C0189E20E9468010E94B5
:1007E000050280EF91E00E943302FF92EF92DF92C8
:1007F000CF9284ED91E09F938F931F9280E18F932E
:1008000081E090E08C0F9D1F9F938F930E94580B67
:1008100061E080E00E940F02CE0101960E94330247
:100820009FEFABE7B2E99150A040B040E1F700C0C4
:1008300000000E942A010FB6F894DEBF0FBECDBFA4
:10084000AFE3BCE91197F1F700C0000047CEC090BC
:100850000001D0900101E0900201F0900301A3019A
:100860009201C701B6010E944A0AA50194010E94A3
:10087000C706609311027093120280931302909343
:1008800014022DEC3CEC4CEC5DE3C701B6010E9478
:100890004A0A6093000170930101809302019093D2
:1008A000030113CFC0901102D0901202E090130206
:1008B000F09014028091EF0181115DC0B101032C11
:1008C000000C880B990B0E9435082B013C0180918C
:1008D000ED01811125C020E030E040E251E4C70184
:1008E000B6010E944A0AA30192010E94C7066093C2
:1008F0001102709312028093130290931402812FBD
:100900000E9477010E94050280EF91E00E9433026D
:100910008FEF93ECA9E081509040A040E1F7E5CE45
:100920008090000190900101A0900201B09003011D
:10093000A3019201C501B4010E944A0AA7019601D0
:100940000E94C706609311027093120280931302F3
:10095000909314022DEC3CEC4CEC5DE3C501B4012A
:100960000E944A0A60930001709301018093020182
:1009700090930301C4CF8091EE01811148C01230E1
:10098000F1F1133009F43FC01130A9F1BBE2B0938B
:1009900010020093EE01C0921502D0921602E0926E
:1009A0001702F09218021092110210921202109285
:1009B0001302109214021092ED018DEC9CECACEC41
:1009C000BDE38093000190930101A0930201B093D5
:1009D0000301809110020E9468010E94050280EFCD
:1009E00091E00E9433029FEFA3ECB9E09150A04048
:1009F000B040E1F77ACE2DE220931002CACF8AE20E
:100A000080931002C6CF9FE290931002C2CFB10133
:100A1000032C000C880B990B0E9435082B013C011C
:100A20008091ED01811118C020E030E040E251E4F6
:100A3000C701B6010E944A0AA30192010E94C7069B
:100A40006093110270931202809313029093140228
:100A5000812F0E947701D5CD8090000190900101F7
:100A6000A0900201B0900301A3019201C501B4015D
:100A70000E944A0AA70196010E94C70660931102CC
:100A80007093120280931302909314022DEC3CECAD
:100A90004CEC5DE3C501B4010E944A0A6093000179
:100AA000709301018093020190930301D1CF13361B
:100AB00089F425E33AEF4EE85CE36091110270910E
:100AC000120280911302909114020E944A0A0E941D
:100AD000820780CE143709F04FC025E33AEF4EE885
:100AE0005CE3609111027091120280911302909167
:100AF00014020E944A0A0E94090B6B017C014B01FF
:100B00005C01E894B7F820E034E244E759E4C50119
:100B1000B4010E947F091816ECF0A7019601C701E5
:100B2000B6010E942E0B811115C02FEF3FEF4FE74A
:100B30005FE7C501B4010E942E0B81114DCE2FEF4E
:100B40003FEF4FE75FE7C501B4010E947D0718162C
:100B50000CF042CE0E9405028FEA91E00E9433021F
:100B60002FEF8BE792E9215080409040E1F700C0E1
:100B700000000E942A01B2CC1335A1F56091110248
:100B80007091120280911302909114020E94330717
:100B900020EE3EE245E652E40E944A0A6B017C01E7
:100BA000AC019B010E942E0B811164C046015701CC
:100BB000E894B7F82FEF3FEF4FE75FE7C501B401C7
:100BC0000E942E0B81110BC02FEF3FEF4FE75FE725
:100BD000C501B4010E947D0718160CF44BC01C36E9
:100BE000C9F1FACD133459F46091110270911202D7
:100BF00080911302909114020E94B506C9CF14355A
:100C000059F4609111027091120280911302909137
:100C100014020E944E07BCCF153659F460911102A0
:100C20007091120280911302909114020E940108A7
:100C3000D1CDC12CD12C76011C3689F660911102E0
:100C40007091120280911302909114020E94CE09B9
:100C50006B017C0120E030E0A901609111027091EC
:100C6000120280911302909114020E947D071816BF
:100C70000CF4B2CD0E94050280EC91E00E94330298
:100C8000AFEFBBE722E9A150B0402040E1F76FCFC2
:100C90008091EF01882309F4D3CD8091EE01882360
:100CA00009F4CECDC0901102D0901202E090130250
:100CB000F0901402209110022F32B9F420E030E0BD
:100CC000A901C701B6010E947D07811134C00E94AD
:100CD000050289ED91E00E9433029FEFABE7B2E994
:100CE0009150A040B040E1F742CF60911502709161
:100CF000160280911702909118022A32A9F02D3223
:100D000039F5A70196010E94C606162FF72EE82E88
:100D1000D92E0E94050280EF91E00E943302DF92FB
:100D2000EF92FF921F9365CD9B01AC01C701B60105
:100D30000E944A0AEACFA7019601609115027091BC
:100D4000160280911702909118020E948707DDCF4A
:100D50009B01AC01C701B6010E94C706D6CFEE0FBA
:100D6000FF1F0590F491E02D09949F939F770E94B7
:100D700070080F90002042F49058A2EA2AED3FE05C
:100D800049E450E40E94DE060C9431095058BB2718
:100D9000AA270E94DE060C9431090E94F80838F058
:100DA0000E94FF0820F039F49F3F19F426F40C94B8
:100DB000BA080EF4E095E7FB0C94B408E92F0E9402
:100DC000560958F3BA17620773078407950720F08E
:100DD00079F4A6F50C9478090EF4E0950B2EBA2F51
:100DE000A02D0B01B90190010C01CA01A001112431
:100DF000FF27591B99F0593F50F4503E68F11A16DD
:100E0000F040A22F232F342F4427585FF3CF46956D
:100E100037952795A795F0405395C9F77EF41F168F
:100E2000BA0B620B730B840BBAF09150A1F0FF0F59
:100E3000BB1F661F771F881FC2F70EC0BA0F621F45
:100E4000731F841F48F4879577956795B795F79535
:100E50009E3F08F0B0CF9395880F08F09927EE0FCA
:100E60009795879508959F939F77EEE389379E071F
:100E700028F4E8E6F0E00E94E4080CC00E94700844
:100E80009058A2EA2AED3FE049EC5FE30E94DE06BB
:100E90000E9431090F9007FC90580895DF93DD27D9
:100EA000B92FBF7740E85FE31616170648075B07C0
:100EB00018F4D92F0E9484099F938F937F936F9387
:100EC0000E94050BECE7F0E00E94BD080E9431098A
:100ED0002F913F914F915F910E945D0ADD2351F068
:100EE0009058A2EA2AED3FE049EC5FE3D0785D2715
:100EF0000E94DE06DF910C9431090E94900808F4EC
:100F000081E008950E940809E3950C9442090E942B
:100F10009B070C9431090E94FF0858F00E94F808C2
:100F200040F029F45F3F29F00C94B40851110C945F
:100F300079090C94BA080E94560968F39923B1F311
:100F4000552391F3951B550BBB27AA2762177307EF
:100F5000840738F09F5F5F4F220F331F441FAA1F83
:100F6000A9F335D00E2E3AF0E0E832D0915050403F
:100F7000E695001CCAF72BD0FE2F29D0660F771FED
:100F8000881FBB1F261737074807AB07B0E809F0D3
:100F9000BB0B802DBF01FF2793585F4F3AF09E3F58
:100FA000510578F00C94B4080C9479095F3FE4F390
:100FB000983ED4F3869577956795B795F7959F5F9B
:100FC000C9F7880F911D9695879597F90895E1E0E7
:100FD000660F771F881FBB1F621773078407BA0746
:100FE00020F0621B730B840BBA0BEE1F88F7E095A1
:100FF000089529F416F00C94B4080C9478090C9414
:10100000BA080E945E09A8F39638A0F707F80F9275
:10101000E8942BE33AEA48EB5FE70E94600A0F92FC
:101020000F920F924DB75EB70F920E94160AE9EA2F
:10103000F0E00E94BD084F915F91EF91FF91E5951F
:10104000EE1FFF1F49F0FE57E0684427EE0F441FD4
:10105000FA95E1F74195550B0E9490090F9007FE14
:101060000C9484090895E89409C097FB3EF4909588
:101070008095709561957F4F8F4F9F4F9923A9F071
:10108000F92F96E9BB279395F69587957795679500
:10109000B795F111F8CFFAF4BB0F11F460FF1BC044
:1010A0006F5F7F4F8F4F9F4F16C0882311F096E9D7
:1010B00011C0772321F09EE8872F762F05C0662385
:1010C00071F096E8862F70E060E02AF09A95660F3E
:1010D000771F881FDAF7880F9695879597F90895F7
:1010E000DF93CF931F930F938B01EC01E1EDF0E0C1
:1010F0000E94BD080E9431099801AE018B01EC01EC
:1011000060E070E080E89FE30E94C6060E94C50A86
:101110009801AE010F911F91CF91DF910C945D0A60
:10112000990F0008550FAA0BE0E8FEEF16161706F8
:10113000E807F907C0F012161306E407F50798F060
:10114000621B730B840B950B39F40A2661F0232B79
:10115000242B252B21F408950A2609F4A140A695F5
:101160008FEF811D811D089597F99F6780E870E0DA
:1011700060E008959FEF80EC0895DF93CF931F9375
:101180000F93FF92EF92DF927B018C01689406C06F
:10119000DA2EEF010E945D0AFE01E894A5912591E7
:1011A000359145915591A6F3EF010E94DE06FE01AF
:1011B0009701A801DA9469F7DF90EF90FF900F9103
:1011C0001F91CF91DF9108959F938F937F936F939A
:1011D000FF93EF939B01AC010E944A0AEF91FF91AC
:1011E0000E94BD082F913F914F915F910C944A0A44
:1011F00000240A94161617061806090608950024F6
:101200000A94121613061406050608950C94BA08DB
:101210000E945E09D8F3E894E0E0BB279F57F0F006
:101220002AED3FE049EC06C0EE0FBB0F661F771FAB
:10123000881F28F0B23A62077307840728F0B25A71
:10124000620B730B840BE3959A9572F7803830F438
:101250009A95BB0F661F771F881FD2F790480C9492
:10126000350B092E0394000C11F4882352F0BB0FA8
:1012700040F4BF2B11F460FF04C06F5F7F4F8F4FAE
:101280009F4F0895EF93E0FF07C0A2EA2AED3FE0E9
:1012900049EC5FEB0E94DE060E9431090F90039437
:1012A00001FC9058E9EFF0E00C94E40857FD9058E9
:1012B000440F551F59F05F3F71F04795880F97FB1A
:1012C000991F61F09F3F79F08795089512161306D4
:1012D0001406551FF2CF4695F1DF08C01616170603
:1012E0001806991FF1CF8695710561050894089538
:1012F000E894BB2766277727CB0197F908950E94CA
:10130000900808F48FEF08959B01AC0160E070E055
:1013100080E89FE30C9487070C94B4080C94330B7B
:101320000E945E09D8F39923C9F3940F511DA3F3CA
:101330009150504094F059F0882332F0660F771F97
:10134000881F91505040C1F79E3F51052CF7880FE0
:10135000911D9695879597F908955F3FACF0983E5B
:101360009CF0BB27869577956795B79508F4B16093
:101370009395C1F7BB0F58F711F460FFE8CF6F5F8B
:101380007F4F8F4F9F4FE3CF0C94790916F00C9449
:10139000330B0C94BA0868940C94B4080E945E094C
:1013A000A8F39923C1F3AEF3DF93CF931F930F9369
:1013B000FF92C92FDD2788232AF02197660F771F18
:1013C000881FDAF720E030E040E85FEB9FE38839E0
:1013D00020F0803E38F021968F770E94C706E7E123
:1013E000F1E004C00E94C706E4E4F1E00E94BD08F9
:1013F0008B01BE01EC01FB2E6F5771097595771FAC
:10140000880B990B0E94350828E132E741E35FE33E
:101410000E945D0AAF2D9801AE01FF900F911F91C0
:10142000CF91DF910E94DE060C943109FA01DC01B4
:10143000AA0FBB1F9B01AC01BF5728F422273327FB
:101440004427507820C0B75190F4AB2F0024469524
:1014500037952795011CA395D2F3002071F0220F38
:10146000331F441FB395DAF30ED00C94C6066130D7
:101470007105A0E88A07B94630F49B01AC016627E4
:10148000772788279078309621F020833183428314
:10149000538308950E945D0A0C9431090E94F80854
:1014A00038F00E94FF0820F0952311F00C94B40846
:1014B0000C94BA0811240C9479090E94560970F30F
:1014C000959FC1F3950F50E0551F629FF001729FE9
:1014D000BB27F00DB11D639FAA27F00DB11DAA1FF8
:1014E000649F6627B00DA11D661F829F2227B00D45
:1014F000A11D621F739FB00DA11D621F839FA00DD0
:10150000611D221F749F3327A00D611D231F849F1F
:10151000600D211D822F762F6A2F11249F57504076
:101520009AF0F1F088234AF0EE0FFF1FBB1F661FF1
:10153000771F881F91505040A9F79E3F510580F0BA
:101540000C94B4080C9479095F3FE4F3983ED4F30B
:10155000869577956795B795F795E7959F5FC1F75E
:10156000FE2B880F911D9695879597F908959F9367
:101570000E9408090F9007FCEE5F0C94420919F4D1
:1015800016F40C94BA080C94330B0E945E09B8F35D
:101590009923C9F3B6F39F57550B87FF0E94410B60
:1015A0000024A0E640EA900180585695979528F4CB
:1015B000805C660F771F881F20F0261737074807C3
:1015C00030F4621B730B840B202931294A2BA6951A
:1015D00017940794202531254A2758F7660F771F5F
:1015E000881F20F026173707480730F4620B730B6B
:1015F000840B200D311D411DA09581F7B901842F69
:101600009158880F9695879508959B01AC010C948D
:101610004A0ADF93D92F0E940809E695D7952AED4B
:101620003FE049E45FE3B33A620773078407950735
:10163000D7953AF0A2EA49EC90680E94DE060E9433
:101640003109E1E7F1E00E94E408DD0F13F00E94A8
:101650008409DD0F0BF49058DF9108950E949008E3
:10166000880B990B08959F3F31F0915020F4879596
:1016700077956795B795880F911D9695879597F9FA
:10168000089591505040660F771F881FD2F7089534
:10169000FB01DC010D900020E9F71197415050400B
:1016A00028F0019000200D92C9F708951C9208952A
:1016B000AEE0B0E0EEE5FBE00C94140E0D891E895F
:1016C0008F89988D26E02C831A83098397FF02C0A7
:1016D00080E090E801979E838D83AE01455E5F4F69
:1016E000698D7A8DCE0101960E94880B4D815E81B5
:1016F00057FD0AC02F813885421753070CF49A0111
:10170000020F131FF80110822E96E4E00C94300EA5
:10171000ABE0B0E0EEE8FBE00C94060E7C013B0190
:101720008A01FC0117821682838181FFC8C1CE0124
:1017300001965C01F7019381F30193FD859193FF7D
:1017400081913F01882309F453C1853239F493FD17
:10175000859193FF81913F01853229F4B70190E093
:101760000E94780DE7CF912C212C312CFFE1F3154D
:1017700038F08B3211F190F4803209F1833229F183
:1017800037FC3CC020ED280F2A3050F536FE20C033
:101790008AE0989E200D1124922E06C08D3291F081
:1017A000803371F7689430F8F30193FD859193FFCE
:1017B00081913F018111DACF21C0689431F868949A
:1017C00032F8F2CF689433F8EFCF689434F8ECCF66
:1017D000EAE02E9E200D1124222E689435F8E4CFE5
:1017E0008E3229F436FC04C1689436F8DDCF8C368D
:1017F00019F4689437F8D8CF8836B1F2982F9F7DC6
:1018000095549330E0F08336A1F18337C1F18335ED
:1018100009F063C02801F2E04F0E511CF801C080AE
:10182000D180692D70E036FC02C06FEF7FEFC601FA
:101830000E94620D4C01689437F882010AC00C5F67
:101840001F4FFFE3F98388248394912C6501E8946A
:1018500037F833FE2DC0522C8114910471F55520B8
:1018600009F468CFB70180E290E00E94780D5A94A5
:10187000F6CFF801808189830E5F1F4FE4CF2801E6
:10188000F2E04F0E511CF801C080D180692D70E04C
:1018900036FC02C06FEF7FEFC6010E946D0D4C0158
:1018A0008201D5CFB70180E290E00E94780D2A94A2
:1018B0002814190409F0B0F7CECFF60137FC859152
:1018C00037FE81916F01B70190E00E94780D5110B1
:1018D0005A94F1E08F1A9108BFCF843619F08936F7
:1018E00009F077C0F80137FE6BC060817181828199
:1018F00093810C5F1F4FF32DFF763F2E97FF09C09A
:1019000090958095709561957F4F8F4F9F4F68940C
:1019100037F82AE030E0A5010E94A80DC82ECA18A9
:101920008C2C432C36FE0CC0E89440F8C91440F4CB
:1019300034FE05C032FC03C0F32DFE7E4F2E892CF1
:1019400044FE95C0FE01EC0DF11D8081803309F04D
:1019500087C0242D297E422E842D8870582E43FC6A
:1019600095C040FE8FC09C2C821418F42C0C922C35
:10197000981844FE91C0B70180E390E00E94780D72
:1019800042FE09C088E790E041FE02C088E590E091
:10199000B7010E94780DC91408F48AC0CA94D12CEA
:1019A0009FEFC91AD90ACA0CDB1CF60182916F019C
:1019B000B70190E00E94780DAC14BD04B1F74FCF91
:1019C00060817181072E000C880B990B0E5F1F4FF1
:1019D00092CFD32CE894D4F82AE030E0853739F15F
:1019E000232D297FD22E8F3601F148F48835A9F0B6
:1019F000F701868197812B96E2E10C94220E8037C5
:101A000049F08837A9F7D4FE02C06894D2F820E1E3
:101A100030E00DC06894D4F8F6CF34FE03C0822FB6
:101A20008660D82E20E132E002C028E030E0F801E4
:101A3000D7FE0FC060817181828193810C5F1F4F3F
:101A4000A5010E94A80DC82ECA183D2CE89437F8AD
:101A500067CF6081718190E080E00E5F1F4FF0CF13
:101A600042FC02C0839478CF8394839475CF842DF5
:101A7000867809F471CFF6CFB70180E290E00E943A
:101A8000780D83948214C0F3512C73CF522C5818C4
:101A9000821408F46ECFF8CF842D867809F47BCFBA
:101AA0008BE241FE80E247FC8DE2B70190E071CF0E
:101AB000B70180E390E00E94780D9A946CCF8FEF8D
:101AC0009FEF99CFFC010590615070400110D8F74D
:101AD000809590958E0F9F1F0895FC016150704076
:101AE00001900110D8F7809590958E0F9F1F089553
:101AF0000F931F93CF93DF93182F092FEB018B8147
:101B000081FD09C01FEF0FEF812F902FDF91CF9143
:101B10001F910F91089582FF14C02E813F818C8107
:101B20009D81281739073CF4E881F981CF0101969E
:101B30009983888310838E819F8101969F838E83F2
:101B4000E3CFE885F985812F0995892BA1F3DACFB9
:101B5000FA01AA27283051F1203181F1E8946F93DE
:101B60006E7F6E5F7F4F8F4F9F4FAF4FB1E03ED084
:101B7000B4E03CD0670F781F891F9A1FA11D680F22
:101B8000791F8A1F911DA11D6A0F711D811D911D55
:101B9000A11D20D009F468943F912AE0269F1124CA
:101BA0003019305D3193DEF6CF010895462F47702E
:101BB000405D4193B3E00FD0C9F7F6CF462F4F7089
:101BC000405D4A3318F0495D31FD4052419302D0E7
:101BD000A9F7EACFB4E0A69597958795779567958D
:101BE000BA95C9F700976105710508959B01AC018D
:101BF0000A2E06945795479537952795BA95C9F7B4
:101C0000620F731F841F951FA01D08952F923F928E
:101C10004F925F926F927F928F929F92AF92BF92FC
:101C2000CF92DF92EF92FF920F931F93CF93DF93A8
:101C3000CDB7DEB7CA1BDB0B0FB6F894DEBF0FBE05
:101C4000CDBF09942A88398848885F846E847D8452
:101C50008C849B84AA84B984C884DF80EE80FD8054
:101C60000C811B81AA81B981CE0FD11D0FB6F894CA
:0E1C7000DEBF0FBECDBFED010895F894FFCF8B
:101C7E00CDCCCC3D280026002700032800260027C7
:101C8E000002280026002700012800260027000059
:101C9E002B0029002A00002B0029002A00012B000E
:101CAE0029002A00022B0029002A00032B002900FC
:101CBE002A00042B0029002A00052B0029002A00E7
:101CCE00062B0029002A00072500230024000025EA
:101CDE0000230024000100401454456E74657220E8
:101CEE006E756D6265723A0053696E676C654F7002
:101CFE003A2050726573732064696769740061736A
:101D0E00696E280061636F7328006174616E28002C
:101D1E0065787028006C6F672800204F703F004573
:101D2E0072726F723A20556E646566696E656400F4
:101D3E004572726F723A204F7574206F6620726111
:101D4E006E676500252E3466004572726F723A20FA
:0A1D5E00446976206279203000000D
:00000001FF
