:100000000C9445010C9462010C9462010C94620101
:100010000C9462010C9462010C9462010C946201D4
:100020000C9462010C9462010C9462010C946201C4
:100030000C9462010C9462010C9462010C946201B4
:100040000C9462010C9462010C9462010C946201A4
:100050000C9462010C9462010C9462010C94620194
:100060000C9462010C946201036EDB363D9A9999FF
:10007000993DABAAAA2A3E000000803F084AD73B20
:100080003BCE016E84BCBFFDC12F3D6C74319ABD67
:1000900056833DDA3D00C77F11BED9E4BB4C3E918B
:1000A0006BAAAABE000000803F072C7AA5BA6CC5D7
:1000B00090DA3B9365FC8BBC53F810FD3C56928361
:1000C0004DBD879D3AB63DCBC9BF5BBE73DA0FC944
:1000D0003F08000000BE922449123EABAAAA2ABEE5
:1000E000CDCCCC4C3E00000080BEABAAAAAA3E00FC
:1000F000000000BF000000803F0000000000084139
:1001000078D3BB4387D1133D190E3CC3BD4282ADAA
:100110002B3E68EC8276BED98FE1A93E4C80EFFF82
:10012000BE01C4FF7F3F000000000007634236B7F6
:100130009BD8A71A39685618AEBAAB558C1D3CB778
:10014000CC5763BD6DEDFD753EF6177231BF0000F3
:1001500000803F004E414E494E495459494E46CDCC
:10016000CCCC3D0AD7233C17B7D13877CC2B32956E
:1001700095E6241FB14F0A000020410000C842004C
:10018000401C4620BCBE4CCA1B0E5AAEC59D740016
:10019000407A10F35A00A0724E18090010A5D4E856
:1001A0000000E87648170000E40B54020000CA9AE9
:1001B0003B000000E1F5050000809698000000403B
:1001C000420F000000A08601000000102700000080
:1001D00000E803000000006400000000000A0000C6
:1001E0000000000100000000002C76D888DC674F7A
:1001F0000823DFC1DFAE59E1B1B796E5E3E453C6AA
:100200003AE651997696E8E6C28426EB898C9B62A1
:10021000ED407C6FFCEFBC9C9F40F2BAA56FA5F44B
:1002200090055A2AF75C936B6CF9676DC11BFCE073
:10023000E40D47FEF520E6B500D0ED902E030094C6
:100240003577050080841E080000204E0A0000005B
:10025000C80C333333330F986E12831141EF8D2165
:1002600014893BE65516CFFEE6DB18D1844B381BCC
:10027000F77C1D901DA4BBE424203284725E228191
:1002800000C9F124ECA1E53D270011241FBECFEFEA
:10029000D8E0DEBFCDBF11E0A0E0B1E0E0ECF6E3D6
:1002A00002C005900D92AC39B107D9F721E0ACE955
:1002B000B1E001C01D92A03CB207E1F70E94B00F6F
:1002C0000C945E1B0C9400002F923F924F925F9211
:1002D0006F927F928F929F92AF92BF92CF92DF9256
:1002E000EF92FF920F931F93CF93DF93CDB7DEB7BB
:1002F00063970FB6F894DEBF0FBECDBF2BED3FE086
:1003000049E450E469837A838B839C8369817A8191
:100310008B819C810E94481420E030E044E353E448
:1003200069837A838B839C8369817A818B819C81A9
:100330000E940E122BED3FE049EC50E469837A8372
:100340008B839C8369817A818B819C810E94C112FD
:100350008B0189879D8320E030E0A90169831A839E
:100360008B839C8369817A818B819C810E94091295
:1003700087FF0DC02BED3FE049EC50E469817A81A5
:100380008B819C810E9482108B0189879D832AE04A
:1003900037ED43E25CE309831A83A985AB83BD8112
:1003A000BC8369817A818B819C810E940E12698352
:1003B0007A838B839C8369817A818B819C810E9463
:1003C00080127E876D87B12CA12C1A8A1B8A10E8B7
:1003D0000FE3C12CD12C76018D859E85A816B90618
:1003E000DCF0C701B60163960FB6F894DEBF0FBE0E
:1003F000CDBFDF91CF911F910F91FF90EF90DF90D4
:10040000CF90BF90AF909F908F907F906F905F90B4
:100410004F903F902F900895D701C601B05889831F
:100420009A83AB83BC832AE037ED43EA5BE3BC01EC
:10043000CD010E9448142A893B89412F502F69839E
:100440007A838B839C8369817A818B819C810E94D2
:1004500082101B012C012AE037ED43EA5BE39A8905
:100460009983AB89AA831B830C8369817A818B81F1
:100470009C810E944814A701960169837A838B832B
:100480009C8369817A818B819C810E948210DC012E
:10049000CB01B05889839A83AB83BC832AE037EDC4
:1004A00043EA5BE3BC01CD010E9448142A893B89E1
:1004B000412F502F69877A878B879C8769857A853A
:1004C0008B859C850E9482103B014C012AE037ED10
:1004D00043EA5BE329863A864B865C8669857A85A2
:1004E0008B859C850E944814A701960169877A87AD
:1004F0008B879C8769857A858B859C850E94821075
:10050000DC01CB01B05889879A87AB87BC87910102
:10051000A2012D823E824F8258866D817E818F811D
:1005200098850E9482102A893B89412F502F6D8324
:100530007E838F8398876D817E818F8198850E94CD
:1005400082101B012C019301A4016D827E828F8297
:1005500098866D817E818F8198850E9482109B0193
:10056000AC012D823E824F8258866D817E818F81C3
:1005700098850E9482101B012C012AE037ED43E28E
:100580005CE369857A858B859C850E9448142A895D
:100590003B89412F502F6D837E838F8398876D8198
:1005A0007E818F8198850E9482109B01AC012D82F3
:1005B0003E824F8258866D817E818F8198850E9410
:1005C00082102AE037ED43E25CE36D837E838F8304
:1005D00098876D817E818F8198850E94481420E0E4
:1005E00030E040EC50E46D837E838F8398876D818B
:1005F0007E818F8198850E940E12A70196016D83DE
:100600007E838F8398876D817E818F8198850E94FC
:1006100082106D837F87888B998B29813A814B81EA
:100620005C81CA01B9010E948210A7019601698309
:100630007A838B839C8369817A818B819C810E94E0
:1006400081101B012C0129853A854B855C85CA01E7
:10065000B9010E9482109B01AC0129823A824B822F
:100660005C8269817A818B819C810E9482101B014E
:100670002C012AE037ED43E25CE369827A828B82C7
:100680009C8269817A818B819C810E944814A70198
:10069000960169837A838B839C8369817A818B81BC
:1006A0009C810E9482109B01AC0129823A824B827C
:1006B0005C8269817A818B819C810E9481102AE011
:1006C00037ED43E25CE369837A838B839C836981A2
:1006D0007A818B819C810E94481420E030E040ECBC
:1006E00050E469837A838B839C8369817A818B81CF
:1006F0009C810E940E129B01AC019A899983AB895F
:10070000AA831B830C8369817A818B819C810E94DF
:1007100082106A8B7B8B182F092FBFEFAB1ABB0A95
:10072000CD80DF84E888F98857CE2F923F924F9290
:100730005F926F927F928F929F92AF92BF92CF9271
:10074000DF92EF92FF920F931F93CF93DF93CDB77A
:10075000DEB763970FB6F894DEBF0FBECDBF2BEDAB
:100760003FE049E450E469837A838B839C83698109
:100770007A818B819C810E94481420E030E044E320
:1007800053E469837A838B839C8369817A818B812B
:100790009C810E940E122BED3FE049EC50E46983EE
:1007A0007A838B839C8369817A818B819C810E946F
:1007B000C1128B0189879D8320E030E0A901698304
:1007C0001A838B839C8369817A818B819C810E94AF
:1007D000091287FF0DC02BED3FE049EC50E4698121
:1007E0007A818B819C810E9482108B0189879D83F5
:1007F0002AE037ED43E25CE309831A83A985AB83E2
:10080000BD81BC8369817A818B819C810E940E129B
:1008100069837A838B839C8369817A818B819C81B4
:100820000E9480127E876D87B12CA12C1A8A1B8AA8
:1008300010E000E0C12CD12C80E8E82E8FE3F82EE8
:100840008D859E85A816B906DCF0C701B6016396B2
:100850000FB6F894DEBF0FBECDBFDF91CF911F91D1
:100860000F91FF90EF90DF90CF90BF90AF909F904F
:100870008F907F906F905F904F903F902F90089552
:10088000D701C601B05889839A83AB83BC832AE021
:1008900037ED43EA5BE3BC01CD010E9448142A898D
:1008A0003B89412F502F69837A838B839C83698195
:1008B0007A818B819C810E9482101B012C012AE08D
:1008C00037ED43EA5BE39A899983AB89AA831B835B
:1008D0000C8369817A818B819C810E944814A701D5
:1008E000960169837A838B839C8369817A818B816A
:1008F0009C810E948210DC01CB01B05889839A83CD
:10090000AB83BC832AE037ED43EA5BE3BC01CD0156
:100910000E9448142A893B89412F502F69877A8782
:100920008B879C8769857A858B859C850E94821040
:100930003B014C012AE037ED43EA5BE329863A8626
:100940004B865C8669857A858B859C850E944814D8
:10095000A701960169877A878B879C8769857A8545
:100960008B859C850E948210DC01CB01B058898761
:100970009A87AB87BC879101A2012D823E824F826C
:1009800058866D817E818F8198850E9482102A8988
:100990003B89412F502F6D837E838F8398876D8194
:1009A0007E818F8198850E9482101B012C0193010A
:1009B000A4016D827E828F8298866D817E818F8177
:1009C00098850E9482109B01AC012D823E824F824D
:1009D00058866D817E818F8198850E9482101B01CF
:1009E0002C012AE037ED43E25CE369857A858B854B
:1009F0009C850E9448142A893B89412F502F6D8382
:100A00007E838F8398876D817E818F8198850E94F8
:100A100082109B01AC012D823E824F8258866D81EF
:100A20007E818F8198850E9482102AE037ED43E213
:100A30005CE36D837E838F8398876D817E818F8158
:100A400098850E94481420E030E040EC50E46D832B
:100A50007E838F8398876D817E818F8198850E94A8
:100A60000E12A70196016D837E838F8398876D8117
:100A70007E818F8198850E9482106D837F87888B0D
:100A8000998B29813A814B815C81CA01B9010E940D
:100A90008210A701960169837A838B839C83698185
:100AA0007A818B819C810E9481101B012C012985F8
:100AB0003A854B855C85CA01B9010E9482109B0171
:100AC000AC0129823A824B825C8269817A818B8176
:100AD0009C810E9482101B012C012AE037ED43E229
:100AE0005CE369827A828B829C8269817A818B81C4
:100AF0009C810E944814A701960169837A838B83A5
:100B00009C8369817A818B819C810E9482109B01E8
:100B1000AC0129823A824B825C8269817A818B8125
:100B20009C810E9481102AE037ED43E25CE36983F7
:100B30007A838B839C8369817A818B819C810E94DB
:100B4000481420E030E040EC50E469837A838B83E2
:100B50009C8369817A818B819C810E940E129B010A
:100B6000AC019A899983AB89AA831B830C83698121
:100B70007A818B819C810E9482106A8B7B8B182FDB
:100B8000092FBFEFAB1ABB0ACD80DF84E888F98854
:100B900057CE2F923F924F925F926F927F928F9299
:100BA0009F92AF92BF92CF92DF92EF92FF920F93FC
:100BB0001F93CF93DF93CDB7DEB72C970FB6F89482
:100BC000DEBF0FBECDBF2BED3FE049E450E46983AB
:100BD0007A838B839C8369817A818B819C810E943B
:100BE000481420E030E044E353E469837A838B8344
:100BF0009C8369817A818B819C810E940E122BEDEE
:100C00003FE049E450E469837A838B839C83698164
:100C10007A818B819C810E94C1128B018E839D837E
:100C20002BED3FE049EC5FE369831A838B839C8360
:100C300069817A818B819C810E948110DC01CB01CA
:100C4000BF7789839A83AB83BC832DEC3CEC4CEC5F
:100C50005DE3BC01CD010E94091287FDA5C120E022
:100C600030E0A90109831A839E819B83AD81AC8307
:100C700069817A818B819C810E94091287FF0DC056
:100C80002BED3FE049E450E469817A818B819C81BE
:100C90000E9482108B018E839D832AE037ED43E210
:100CA0005CE309831A839E819B83AD81AC83698158
:100CB0007A818B819C810E940E1269837A838B8357
:100CC0009C8369817A818B819C810E9480127B0147
:100CD000B12CA12C00E010E01C861B86AE14BF04D2
:100CE0001CF109831A83AC85AB83BB85BC83698106
:100CF0007A818B819C812C960FB6F894DEBF0FBE53
:100D0000CDBFDF91CF911F910F91FF90EF90DF90BA
:100D1000CF90BF90AF909F908F907F906F905F909B
:100D20004F903F902F90089598014C855B850983E3
:100D30001A83BC85BB838B858C8369817A818B8187
:100D40009C810E94481420E030E040E85FE3698322
:100D50007A838B839C8369817A818B819C810E94B9
:100D600082101B018D839E832AE037ED43EA5BE30B
:100D700069833A828B839C8369817A818B819C8190
:100D80000E94481498014C855B8569837A838B8324
:100D90009C8369817A818B819C810E9482109B0156
:100DA000AC0169837A838B839C8369817A818B818F
:100DB0009C810E94481420E030E040E85FE36983B2
:100DC0007A838B839C8369817A818B819C810E9449
:100DD00082102B013C012AE037ED43EA5BE3698393
:100DE0005A828B837C8269817A818B819C810E946B
:100DF000481498014C855B8569837A838B839C8337
:100E000069817A818B819C810E9482109B01AC0157
:100E100069837A838B839C8369817A818B819C81AE
:100E20000E94481420E030E040E85FE369837A8361
:100E30008B839C8369817A818B819C810E94821043
:100E40004B016C012AE037ED43E25CE369839A824F
:100E50008B83DC8269817A818B819C810E9448141A
:100E600098014C855B8569837A838B839C83698138
:100E70007A818B819C810E9482106F837887898719
:100E80009A879201A30149825A826B827C8269818E
:100E90007A818B819C810E94821091014D815E81BB
:100EA00069837A838B839C8369817A818B819C811E
:100EB0000E9482103B01582E492E9401A60189827E
:100EC0009A82CB82DC8269817A818B819C810E94AB
:100ED00082109B01AC0169827A825B824C826981BB
:100EE0007A818B819C810E9482104B016C012F8141
:100EF000388549855A859F819983A885AA83B985B4
:100F0000BB838A858C8369817A818B819C810E94D5
:100F1000481420E030E040E85FE369837A838B8304
:100F20009C8369817A818B819C810E9482109B01C4
:100F3000AC0189829A82CB82DC8269817A818B8141
:100F40009C810E9482102AE037ED43E25CE36983D2
:100F50007A838B839C8369817A818B819C810E94B7
:100F6000481420E030E040EC50E469837A838B83BE
:100F70009C8369817A818B819C810E940E129B01E6
:100F8000AC0109831A839C859B83AB85AC83698103
:100F90007A818B819C810E9482108B018C879B8738
:100FA000BFEFAB1ABB0A9ACE00E010E080E88C8756
:100FB0009FE79B8796CE80FF17C0429A81FF16C09D
:100FC000439A82FF15C0449A83FF14C0459A2C9A15
:100FD00085E08A95F1F700002C9887EC90E0019766
:100FE000F1F700C0000008954298E8CF4398E9CF98
:100FF0004498EACF4598EBCFCF93C82F662391F062
:101000002D9A8C2F82958F700E94DB078C2F8F700A
:101010000E94DB0787EC90E00197F1F700C0000029
:10102000CF9108952D98EDCF60E081E00E94FC07FC
:101030008FE39FE10197F1F700C00000089560E0A1
:1010400082E00E94FC078FE39FE10197F1F700C067
:1010500000000895CF93DF9300D0CDB7DEB720E036
:1010600030E43A832983FE01E60FF11D9181890F57
:1010700060E080680F900F90DF91CF910C94FC0797
:10108000259A249A3A9A3B9A3C9A3D9A2FEF80E708
:1010900092E0215080409040E1F700C000002D9880
:1010A0002C9883E00E94DB078FE19EE40197F1F723
:1010B00000C0000083E00E94DB078FE19EE40197FF
:1010C000F1F700C0000083E00E94DB078FE99FE09A
:1010D0000197F1F700C0000082E00E94DB078FE972
:1010E0009FE00197F1F700C0000060E088E20E94F5
:1010F000FC0760E08CE00E94FC0760E086E00E9454
:10110000FC070C94140861E00C94FC07CF93DF9368
:10111000EC018991811103C0DF91CF9108950E9464
:101120008308F7CF569A579A209A219A399A5E9A4D
:101130005F9A289A299A419A5298539854985598A8
:1011400038985A9A5B9A5C9A5D9A409A08952F92C1
:101150003F924F925F926F927F928F929F92AF9247
:10116000BF92CF92DF92EF92FF920F931F93CF9394
:10117000DF93CDB7DEB76E970FB6F894DEBF0FBE24
:10118000CDBF85E0E9E1F1E0DE015A9601900D92D4
:101190008A95E1F78AE0EEE1F1E0DE011B9601902D
:1011A0000D928A95E1F785E0E2E3F1E0DE015596E4
:1011B00001900D928A95E1F78AE0E8E2F1E0DE0124
:1011C000119601900D928A95E1F71E016BE0260EB3
:1011D000311CBE01665E7F4F30E020E0882483949E
:1011E000912CD101ED91FD911D019081DB018D913B
:1011F000BD01540101C0AA0C8A95EAF75A2C8A2D28
:101200008095892380838E010F5F1F4F7E01B5E19A
:10121000EB0EF11C50E040E0D801CD90DD908D0147
:10122000D6018C91D7014D907D0190E0042C02C035
:10123000959587950A94E2F780FD3FC0BFEF60E780
:1012400082E0B15060408040E1F700C0000061E002
:1012500070E002C0660F771F4A94E2F7D6018C91C6
:1012600090E086239723892BC9F38081582A5082E6
:1012700065E0629FC001639F900D112480509F4FD5
:10128000480F591FFA0180816E960FB6F894DEBFA1
:101290000FBECDBFDF91CF911F910F91FF90EF90C7
:1012A000DF90CF90BF90AF909F908F907F906F9086
:1012B0005F904F903F902F9008954F5F5F4F453064
:1012C000510509F0A9CF8081A82AA0822F5F3F4F46
:1012D0002530310509F085CF80E0D6CFE0919D0122
:1012E000EF3168F491E09E0F90939D01F0E0E2569B
:1012F000FE4F8083E92FF0E0E256FE4F1082089502
:10130000CF93DF93FC01919180919D01A82FB0E0D4
:10131000A256BE4F992311F08F3120F01C92DF911D
:10132000CF9108958F5F80939D01EF012197888170
:101330008C93E9CF0C946D16CF92DF92EF92FF92CF
:101340000F931F93CF93DF93CDB7DEB7C45AD10964
:101350000FB6F894DEBF0FBECDBFBC018E010F5794
:101360001F4FC8010E947C161A821982FE01339613
:101370008EE3DF011D928A95E9F77801D701DC90B1
:10138000D1105AC0BE016F5F7F4FC8010E947C160A
:1013900066E471E0C8010E94AB16DC01892B09F4F8
:1013A00087C023961FAE1EAE23979E012D5B3F4F35
:1013B0008EE0F90111928A95E9F71596FE01EF5B2F
:1013C000FF4F81E090E02D91222319F0009709F062
:1013D00064C01082CE018F5B9F4F0E949C09CF5545
:1013E000DF4F6883C15AD040CE55DF4F7883C25A51
:1013F000D040CD55DF4F8883C35AD040CC55DF4F06
:101400009883C45AD040CF55DF4F688179818A8153
:101410009B81C15AD040CC55DF4F0FB6F894DEBF48
:101420000FBECDBFDF91CF911F910F91FF90EF9035
:10143000DF90CF900C944411B5E6DB120AC067E34D
:1014400071E0CE0101960E947116EFEFEE1AFE0ACE
:1014500095CF47E050E06EE371E0C7010E9483162C
:10146000892B51F46EE371E0CE0101960E94711652
:10147000F7E0EF0EF11C82CF2296DFAE2297239683
:101480001FAE2397BE016F5B7F4FCE0101960E9476
:1014900071168FEFE81AF80A71CF283219F4019605
:1014A000219391CF2932E1F7019709F48CCFF8CF3E
:1014B0006CE471E0C8010E94AB16DC01892B09F4D1
:1014C00055C023961FAE1EAE23979E012D5B3F4F46
:1014D0008EE0F90111928A95E9F71596FE01EF5B0E
:1014E000FF4F81E090E02D91222311F0009799F5B4
:1014F0001082CE018F5B9F4F0E949C09CF55DF4F1A
:101500006883C15AD040CE55DF4F7883C25AD0404D
:10151000CD55DF4F8883C35AD040CC55DF4F9883D9
:10152000C45AD040CF55DF4F688179818A819B8131
:10153000C15AD040CC55DF4F0FB6F894DEBF0FBE76
:10154000CDBFDF91CF911F910F91FF90EF90DF9072
:10155000CF900C940B15283219F401962193C3CF28
:101560002932E1F7019709F4BECFF8CF62E571E0C7
:10157000C8010E94AB16DC01892B09F455C02396E3
:101580001FAE1EAE23979E012D5B3F4F8EE0F901EB
:1015900011928A95E9F71496FE01EF5BFF4F81E007
:1015A00090E02D91222311F0009799F51082CE0141
:1015B0008F5B9F4F0E949C09CF55DF4F6883C15AB4
:1015C000D040CE55DF4F7883C25AD040CD55DF4F43
:1015D0008883C35AD040CC55DF4F9883C45AD0403B
:1015E000CF55DF4F688179818A819B81C15AD04074
:1015F000CC55DF4F0FB6F894DEBF0FBECDBFDF91E5
:10160000CF911F910F91FF90EF90DF90CF900C94AE
:10161000F013283219F401962193C3CF2932E1F750
:10162000019709F4BECFF8CF67E571E0C8010E94C9
:10163000AB16DC01892B09F455C023961FAE1EAEF4
:1016400023979E012D5B3F4F8EE0F90111928A9501
:10165000E9F71396FE01EF5BFF4F81E090E02D91DB
:10166000222311F0009799F51082CE018F5B9F4FD6
:101670000E949C09CF55DF4F6883C15AD040CE5598
:10168000DF4F7883C25AD040CD55DF4F8883C35A8D
:10169000D040CC55DF4F9883C45AD040CF55DF4F50
:1016A000688179818A819B81C15AD040CC55DF4FB6
:1016B0000FB6F894DEBF0FBECDBFDF91CF911F9163
:1016C0000F91FF90EF90DF90CF900C940014283290
:1016D00019F401962193C3CF2932E1F7019709F458
:1016E000BECFF8CF6BE571E0C8010E94AB16DC01FC
:1016F000892B09F48CC023961FAE1EAE23979E0142
:101700002D5B3F4F8EE0F90111928A95E9F715960E
:10171000FE01EF5BFF4F81E090E02D91222319F055
:10172000009709F069C01082CE018F5B9F4F0E9425
:101730009C09CF55DF4F6883C15AD040CE55DF4F4B
:101740007883C25AD040CD55DF4F8883C35AD040EA
:10175000CC55DF4F9883C45AD040CF55DF4F6881B6
:1017600079818A819B81C15AD0400E94EE1020E08D
:1017700030E044E353E4CF55DF4F6883C15AD04093
:10178000CE55DF4F7883C25AD040CD55DF4F888386
:10179000C35AD040CC55DF4F9883C45AD040CF5560
:1017A000DF4F688179818A819B81C15AD0400E9434
:1017B00048142BED3FE049E450E4CF55DF4F6883F8
:1017C000C15AD040CE55DF4F7883C25AD040CD5554
:1017D000DF4F8883C35AD040CC55DF4F9883C45A1B
:1017E000D040CF55DF4F688179818A819B81C15A72
:1017F000D0400E940E123DC2283219F40196219366
:101800008CCF2932E1F7019709F487CFF8CF61E651
:1018100071E0C8010E94AB16DC01892B09F446C0B7
:1018200023961FAE1EAE23979E012D5B3F4F8EE089
:10183000F90111928A95E9F71596FE01EF5BFF4FCA
:1018400081E090E02D91222311F0009729F510827C
:10185000CE018F5B9F4F0E949C09CF55DF4F68835D
:10186000C15AD040CE55DF4F7883C25AD040CD55B3
:10187000DF4F8883C35AD040CC55DF4F9883C45A7A
:10188000D040CF55DF4F688179818A819B81C15AD1
:10189000D0400E9470106BCF283219F4019621932A
:1018A000D1CF2932E1F7019769F2F9CF67E671E00C
:1018B000C8010E94AB16DC01892B09F446C02396AF
:1018C0001FAE1EAE23979E012D5B3F4F8EE0F901A8
:1018D00011928A95E9F71596FE01EF5BFF4F81E0C3
:1018E00090E02D91222311F0009729F51082CE016E
:1018F0008F5B9F4F0E949C09CF55DF4F6883C15A71
:10190000D040CE55DF4F7883C25AD040CD55DF4FFF
:101910008883C35AD040CC55DF4F9883C45AD040F7
:10192000CF55DF4F688179818A819B81C15AD04030
:101930000E9409111CCF283219F401962193D1CFAE
:101940002932E1F7019769F2F9CF6CE571E0C8013E
:101950000E94AB16DC01892B09F455C023961FAEFB
:101960001EAE23979E012D5B3F4F8EE0F901119231
:101970008A95E9F71496FE01EF5BFF4F81E090E056
:101980002D91222311F0009799F51082CE018F5BE3
:101990009F4F0E949C09CF55DF4F6883C15AD040AA
:1019A000CE55DF4F7883C25AD040CD55DF4F888364
:1019B000C35AD040CC55DF4F9883C45AD040CF553E
:1019C000DF4F688179818A819B81C15AD040CC5593
:1019D000DF4F0FB6F894DEBF0FBECDBFDF91CF91C2
:1019E0001F910F91FF90EF90DF90CF900C946401C6
:1019F000283219F401962193C3CF2932E1F70197D8
:101A000009F4BECFF8CF62E671E0C8010E94AB16C0
:101A1000DC01892B09F455C023961FAE1EAE239717
:101A20009E012D5B3F4F8EE0F90111928A95E9F7F7
:101A30001496FE01EF5BFF4F81E090E02D91222391
:101A400011F0009799F51082CE018F5B9F4F0E9495
:101A50009C09CF55DF4F6883C15AD040CE55DF4F28
:101A60007883C25AD040CD55DF4F8883C35AD040C7
:101A7000CC55DF4F9883C45AD040CF55DF4F688193
:101A800079818A819B81C15AD040CC55DF4F0FB6F6
:101A9000F894DEBF0FBECDBFDF91CF911F910F91A4
:101AA000FF90EF90DF90CF900C949503283219F4BB
:101AB00001962193C3CF2932E1F7019709F4BECFF4
:101AC000F8CF68E671E0C8010E94AB16DC01892BF3
:101AD00009F455C023961FAE1EAE23979E012D5BC1
:101AE0003F4F8EE0F90111928A95E9F71496FE01B5
:101AF000EF5BFF4F81E090E02D91222311F00097E2
:101B000099F51082CE018F5B9F4F0E949C09CF55A3
:101B1000DF4F6883C15AD040CE55DF4F7883C25A19
:101B2000D040CD55DF4F8883C35AD040CC55DF4FCE
:101B30009883C45AD040CF55DF4F688179818A811C
:101B40009B81C15AD040CC55DF4F0FB6F894DEBF11
:101B50000FBECDBFDF91CF911F910F91FF90EF90FE
:101B6000DF90CF900C94C905283219F40196219387
:101B7000C3CF2932E1F7019709F4BECFF8CF6BE26A
:101B800070E0C8010E94A0167C016DE270E0C801FF
:101B90000E94A0169C01F80131968017910709F464
:101BA000A0C0E114F10409F4A5C02115310509F024
:101BB0002AC1FE01EF59FF4F119211928EE1DF0110
:101BC000982F1D929A95E9F723961FAE1EAE239784
:101BD000FE01ED5BFF4FDF011D928A95E9F767017A
:101BE000C01AD10AA601B801CE018F599F4F0E9499
:101BF0009116E1E6F0E0EC0FFD1FEC0DFD1D1082EB
:101C0000B7016F5F7F4FCE018F5B9F4F0E947C16A5
:101C1000CE018F599F4F0E949C096B018C01CE0110
:101C20008F5B9F4F0E949C09F70120812B3209F0A6
:101C3000F0C09B01AC01CF55DF4FC882C15AD040E4
:101C4000CE55DF4FD882C25AD040CD55DF4F0883E2
:101C5000C35AD040CC55DF4F1883C45AD040CF551B
:101C6000DF4F688179818A819B81C15AD0400E946F
:101C70008210CF55DF4F6883C15AD040CE55DF4F19
:101C80007883C25AD040CD55DF4F8883C35AD040A5
:101C9000CC55DF4F9883C45AD040CF55DF4F688171
:101CA00079818A819B81C15AD040CC55DF4F0FB6D4
:101CB000F894DEBF0FBECDBFDF91CF911F910F9182
:101CC000FF90EF90DF90CF9008958D3251F4DF01B7
:101CD00012978C918A3229F08F3219F08E3509F0E3
:101CE0003AC19F0181918111F0CFE114F10409F013
:101CF00060CF03C0892B09F08AC06AE270E0C80196
:101D00000E94A0166C016FE270E0C8010E94A0164C
:101D10007C01C114D10409F09DC0892B09F0A0C039
:101D20006EE570E0C8010E94A0167C01892B09F4C1
:101D30000EC1FE01EF59FF4F119211928EE1DF01AA
:101D4000982F1D929A95E9F723961FAE1EAE239702
:101D5000FE01ED5BFF4FDF011D928A95E9F76701F8
:101D6000C01AD10AA601B801CE018F599F4F0E9417
:101D70009116E1E6F0E0EC0FFD1FEC0DFD1D108269
:101D8000B7016F5F7F4FCE018F5B9F4F0E947C1624
:101D9000CE018F599F4F0E949C097B018C01CE017F
:101DA0008F5B9F4F0E949C099B01AC01CF55DF4F79
:101DB000E882C15AD040CE55DF4FF882C25AD04097
:101DC000CD55DF4F0883C35AD040CC55DF4F188321
:101DD000C45AD040CF55DF4F688179818A819B8179
:101DE000C15AD040CC55DF4F0FB6F894DEBF0FBEBE
:101DF000CDBFDF91CF911F910F91FF90EF90DF90BA
:101E0000CF900C94B514E216F30608F0D2CE790107
:101E1000D0CE9B01AC01CF55DF4FC882C15AD04014
:101E2000CE55DF4FD882C25AD040CD55DF4F088300
:101E3000C35AD040CC55DF4F1883C45AD040CF5539
:101E4000DF4F688179818A819B81C15AD0400E948D
:101E500081100FCF009719F08C159D0508F47601BD
:101E6000FE01EF59FF4F119211928EE1DF01982F81
:101E70001D929A95E9F723961FAE1EAE2397FE0199
:101E8000ED5BFF4FDF011D928A95E9F76701C01AEC
:101E9000D10AA601B801CE018F599F4F0E94911619
:101EA000E1E6F0E0EC0FFD1FEC0DFD1D1082B70127
:101EB0006F5F7F4FCE018F5B9F4F0E947C16CE01DC
:101EC0008F599F4F0E949C096B018C01CE018F5B43
:101ED0009F4F0E949C09F70120812A3209F59B013E
:101EE000AC01CF55DF4FC882C15AD040CE55DF4F2D
:101EF000D882C25AD040CD55DF4F0883C35AD04054
:101F0000CC55DF4F1883C45AD040CF55DF4F68817E
:101F100079818A819B81C15AD0400E944814A9CE00
:101F20009B01AC01CF55DF4FC882C15AD040CE557E
:101F3000DF4FD882C25AD040CD55DF4F0883C35AF5
:101F4000D040CC55DF4F1883C45AD0404ACCC8018A
:101F50000E946D168ECEE114F10409F026CE57CF03
:101F6000CDB7DEB764970FB6F894DEBF0FBECDBF16
:101F70000E9440080E94920886E791E00E9486082D
:101F80000E94A7088823E1F3833449F40E941408CF
:101F900010929D0110929E0186E891E0EFCF83356B
:101FA000D9F481E090919C01911180E080939C0193
:101FB0000E94140861E080E00E942A088FE891E006
:101FC0000E94860880919C01811103C081E791E005
:101FD000D5CF8DE691E0D2CF8D33C1F58EE991E07A
:101FE0000E949C096B017C010E9414089601A701C4
:101FF000C98ADA8AEB8AFC8A69897A898B899C8901
:102000000E944F15882319F087E991E0B7CF8EE938
:1020100091E00E9486088DE30E9483088E010F5F85
:102020001F4F22E044E0C98ADA8AEB8AFC8A698978
:102030007A898B899C890E944016C8010E94860873
:1020400010929D01C8010E9480099ACF90919C0135
:10205000992351F1833749F48BE591E00E9480097F
:102060000E9414088EE991E089CF833619F481E645
:1020700091E0F4CF843719F487E691E0EFCF8C3606
:1020800021F485E60E946E09EBCF873619F482E5CC
:1020900091E0E4CF823719F486E491E0DFCF8E320D
:1020A00089F78EE391E0DACF833719F48CE591E07C
:1020B000D5CF833619F482E691E0D0CF843719F476
:1020C00088E691E0CBCF823719F48CE491E0C6CF5B
:1020D0008C3619F487E591E0C1CF873699F6D7CFD2
:1020E0009F939F770E940A130F90002042F490580C
:1020F000A2EA2AED3FE049E450E40E9499100C94D2
:10210000AE135058BB27AA270E9499100C94AE1307
:102110000E94A01338F00E94A71320F039F49F3FCB
:1021200019F426F40C9462130EF4E095E7FB0C947A
:102130004E13E92F0E94BF1358F3BA1762077307B3
:102140008407950720F079F4A6F50C94E1130EF4BA
:10215000E0950B2EBA2FA02D0B01B90190010C01B7
:10216000CA01A0011124FF27591B99F0593F50F4CF
:10217000503E68F11A16F040A22F232F342F442727
:10218000585FF3CF469537952795A795F04053951F
:10219000C9F77EF41F16BA0B620B730B840BBAF0EF
:1021A0009150A1F0FF0FBB1F661F771F881FC2F75A
:1021B0000EC0BA0F621F731F841F48F4879577956E
:1021C0006795B795F7959E3F08F0B0CF9395880F28
:1021D00008F09927EE0F9795879508959F939F771D
:1021E000EEE389379E0728F4E8E6F0E00E948C13BE
:1021F0000CC00E940A139058A2EA2AED3FE049EC75
:102200005FE30E9499100E94AE130F9007FC905854
:102210000895DF93DD27B92FBF7740E85FE31616F7
:10222000170648075B0718F4D92F0E94E8139F93FD
:102230008F937F936F930E944B15ECE7F0E00E9421
:1022400065130E94AE132F913F914F915F910E94B1
:102250005B14DD2351F09058A2EA2AED3FE049ECEF
:102260005FE3D0785D270E949910DF910C94AE1344
:10227000492FE5E593959E9F912DE3E0E99F401955
:10228000EE2708950C9454130E94C713D8F3992392
:10229000C9F3DF93CF931F930F93FF92EF92DF92D7
:1022A000CF92BF92AF929F928F929F5780F4919559
:1022B00088232AF09395660F771F881FDAF7D8DFF7
:1022C0004A951AF009F44E5F9395919501C0D0DFBD
:1022D00091589F93FF27FF248F019F014F01DF013A
:1022E000EF01660F771F881FAA1F4A95D2F798E063
:1022F000000F111F000F111FEE0FA801AA244E0F8F
:10230000511DA11C6A01EA2C440F551FAA1C4C0D3B
:102310005D1DAE1C4160A41BB50BCA0920F4A40FBF
:10232000B51FCA1D07C0AF01440F551F040F151F6D
:102330000160E16043E0660F771F881FAA1FBB1F83
:10234000CC1F4A95C1F79A9599F690E1000F111F9D
:10235000221F331F881C991C1094C1F7EE0FFF1F1A
:10236000FF1C0024A00150016001EE24400F511F0A
:10237000A21EB31EC81CD91CE11C4E0F5F1FAF1C50
:10238000B11CC11CD11CE11C009441F0440F551F2D
:10239000AA1CBB1CCC1CDD1CEE1CE8CFA41BB50B7F
:1023A000CA09DB096C097D098E0940F4A40FB51F29
:1023B000CA1DDB1D6C1D7D1D8E1D0AC00E0F1F1F4B
:1023C0002F1D311D811C911C0094C1F70160E1603B
:1023D00043E0AA0FBB1FCC1FDD1F661F771F881F9E
:1023E0004A95B9F79A9509F0B1CFBF018F2D9F910A
:1023F000880F9695879597F98F909F90AF90BF9093
:10240000CF90DF90EF90FF900F911F91CF91DF91D0
:1024100008950E942A1308F481E008950E94221270
:102420000C94AE130E94A71358F00E94A01340F022
:1024300029F45F3F29F00C944E1351110C94E213D0
:102440000C9462130E94BF1368F39923B1F35523D0
:1024500091F3951B550BBB27AA27621773078407B7
:1024600038F09F5F5F4F220F331F441FAA1FA9F34D
:1024700035D00E2E3AF0E0E832D091505040E6953B
:10248000001CCAF72BD0FE2F29D0660F771F881F9C
:10249000BB1F261737074807AB07B0E809F0BB0B8F
:1024A000802DBF01FF2793585F4F3AF09E3F5105A3
:1024B00078F00C944E130C94E2135F3FE4F3983ED3
:1024C000D4F3869577956795B795F7959F5FC9F78C
:1024D000880F911D9695879597F90895E1E0660F0D
:1024E000771F881FBB1F621773078407BA0720F086
:1024F000621B730B840BBA0BEE1F88F7E0950895EF
:102500000E9487126894B1110C94E21308950E94FE
:10251000C71388F09F5798F0B92F9927B751B0F09B
:10252000E1F0660F771F881F991F1AF0BA95C9F757
:1025300014C0B13091F00E94E113B1E008950C9401
:10254000E113672F782F8827B85F39F0B93FCCF3B4
:10255000869577956795B395D9F73EF490958095D4
:10256000709561957F4F8F4F9F4F08950E94A013E4
:1025700020F019F00E94A71350F40C9462130C94ED
:10258000E213E92F0E94BF1388F35523B1F3E7FB51
:102590006217730784079507A8F189F3E92FFF27CE
:1025A00088232AF03197660F771F881FDAF7952F57
:1025B0005527442332F091505040220F331F441FBF
:1025C000D2F7BB27E91BF50B621B730B840BB10918
:1025D000B1F222F4620F731F841FB11D31972AF0EC
:1025E000660F771F881FBB1FEFCF9150504062F0DE
:1025F00041F0882332F0660F771F881F91505040BA
:10260000C1F793950C9454138695779567959F5FC2
:10261000D9F7F7CFDF93CF931F930F938B01EC0183
:10262000E9EAF0E00E9465130E94AE139801AE0142
:102630008B01EC0160E070E080E89FE30E94811074
:102640000E940B159801AE010F911F91CF91DF9160
:102650000C945B14990F0008550FAA0BE0E8FEEFED
:1026600016161706E807F907C0F012161306E40756
:10267000F50798F0621B730B840B950B39F40A264F
:1026800061F0232B242B252B21F408950A2609F42D
:10269000A140A6958FEF811D811D089597F99F6731
:1026A00080E870E060E008959F3F31F0915020F4A1
:1026B000879577956795B795880F911D969587951E
:1026C00097F908959FEF80EC0895DF93CF931F93C0
:1026D0000F93FF92EF92DF927B018C01689406C00A
:1026E000DA2EEF010E945B14FE01E894A59125917A
:1026F000359145915591A6F3EF010E949910FE0185
:102700009701A801DA9469F7DF90EF90FF900F919D
:102710001F91CF91DF9108959F938F937F936F9334
:10272000FF93EF939B01AC010E944814EF91FF913E
:102730000E9465132F913F914F915F910C94481423
:1027400000240A9416161706180609060895002490
:102750000A9412161306140605060895092E03940A
:10276000000C11F4882352F0BB0F40F4BF2B11F47E
:1027700060FF04C06F5F7F4F8F4F9F4F089557FDDD
:102780009058440F551F59F05F3F71F04795880FDF
:1027900097FB991F61F09F3F79F087950895121676
:1027A00013061406551FF2CF4695F1DF08C0161622
:1027B00017061806991FF1CF8695710561050894D3
:1027C0000895E894BB2766277727CB0197F90895EA
:1027D0009B01AC0160E070E080E89FE30C940E1276
:1027E0000E94001429ED3BE54EED5EE30C94481485
:1027F00016F00C9454130C94621368940C944E13BA
:102800000E94C713A8F39923C1F3AEF3DF93CF93CC
:102810001F930F93FF92C92FDD2788232AF021975A
:10282000660F771F881FDAF720E030E040E85FEBA3
:102830009FE3883920F0803E38F021968F770E9400
:102840008210E1EDF0E004C00E948210EEEFF0E0B3
:102850000E9465138B01BE01EC01FB2E6F577109BD
:102860007595771F880B990B0E94901528E132E728
:1028700041E35FE30E945B14AF2D9801AE01FF902E
:102880000F911F91CF91DF910E9499100C94AE137C
:102890000E945B140C94AE130E94A01338F00E94A7
:1028A000A71320F0952311F00C944E130C9462138F
:1028B00011240C94E2130E94BF1370F3959FC1F38F
:1028C000950F50E0551F629FF001729FBB27F00DDE
:1028D000B11D639FAA27F00DB11DAA1F649F662733
:1028E000B00DA11D661F829F2227B00DA11D621F82
:1028F000739FB00DA11D621F839FA00D611D221F3C
:10290000749F3327A00D611D231F849F600D211D1F
:10291000822F762F6A2F11249F5750409AF0F1F0A2
:1029200088234AF0EE0FFF1FBB1F661F771F881F0B
:1029300091505040A9F79E3F510580F00C944E13E2
:102940000C94E2135F3FE4F3983ED4F386957795B9
:102950006795B795F795E7959F5FC1F7FE2B880FB1
:10296000911D9695879597F90895FA01EE0FFF1F2F
:10297000309621053105A1F16115710561F48038AA
:10298000BFE39B0749F168949038810561F0803876
:10299000BFEF9B0741F099234AF5FF3FE105310561
:1029A000210519F1E8940894E795D901AA2329F49F
:1029B000AB2FBE2FF85FD0F310C0FF5F70F4A69569
:1029C000E0F7F73950F019F0FF3A38F49F779F930A
:1029D0000DD00F9007FC9058089546F00C946213A8
:1029E00060E070E080E89FE308954FE79F775F9392
:1029F0004F933F932F930E9400142F913F914F913B
:102A00005F910E9448140C945C1519F416F40C9410
:102A100062130C9454130E94C713B8F39923C9F39B
:102A2000B6F39F57550B87FF0E94CB150024A0E6F5
:102A300040EA900180585695979528F4805C660F7F
:102A4000771F881F20F026173707480730F4621BCE
:102A5000730B840B202931294A2BA69517940794D0
:102A6000202531254A2758F7660F771F881F20F049
:102A700026173707480730F4620B730B840B200DC1
:102A8000311D411DA09581F7B901842F9158880F00
:102A90009695879508959B01AC010C9448140E946B
:102AA0002A13880B990B089529F416F00C944E13F1
:102AB0000C94E1130C9462130E94C713A8F3963888
:102AC000A0F707F80F92E8942BE33AEA48EB5FE7A8
:102AD0000E945E140F920F920F924DB75EB70F9245
:102AE0000E940C16EBE2F1E00E9465134F915F919A
:102AF000EF91FF91E595EE1FFF1F49F0FE57E0684B
:102B00004427EE0F441FFA95E1F74195550B0E94BB
:102B1000D6150F9007FE0C94E8130895E89409C0A9
:102B200097FB3EF490958095709561957F4F8F4F00
:102B30009F4F9923A9F0F92F96E9BB279395F69516
:102B4000879577956795B795F111F8CFFAF4BB0F94
:102B500011F460FF1BC06F5F7F4F8F4F9F4F16C0F8
:102B6000882311F096E911C0772321F09EE8872F82
:102B7000762F05C0662371F096E8862F70E060E03E
:102B80002AF09A95660F771F881FDAF7880F9695B7
:102B9000879597F9089591505040660F771F881FC9
:102BA000D2F708950C944E130C9454130E94C7133B
:102BB000D8F39923C9F3940F511DA3F391505040BA
:102BC00094F059F0882332F0660F771F881F9150D8
:102BD0005040C1F79E3F51052CF7880F911D9695E7
:102BE000879597F908955F3FACF0983E9CF0BB271E
:102BF000869577956795B79508F4B1609395C1F779
:102C0000BB0F58F711F460FFE8CF6F5F7F4F8F4F16
:102C10009F4FE3CF0C94E213FA01DC01AA0FBB1F14
:102C20009B01AC01BF5728F4222733274427507853
:102C300020C0B75190F4AB2F0024469537952795C7
:102C4000011CA395D2F3002071F0220F331F441F03
:102C5000B395DAF30ED00C94811061307105A0E8C1
:102C60008A07B94630F49B01AC016627772788278D
:102C70009078309621F020833183428353830895E6
:102C8000EF920F931F93CF93DF9300D000D00F925A
:102C9000CDB7DEB7322F0D8354E047FD54E1242F2A
:102CA00027FD2195E52E032F4D81512F69837A83CE
:102CB0008B839C8369817A818B819C810E94C5165C
:102CC0008D81912F0F900F900F900F900F90DF91AB
:102CD000CF911F910F91EF900895662777270C945D
:102CE0006418FB01DC010D900020E9F711970190B9
:102CF0000D920020E1F70895FB01DC0101900D9297
:102D00000020E1F70895FB01DC014150504030F014
:102D10008D910190801919F40020B9F7881B990B47
:102D20000895FB01DC014150504048F001900D92A4
:102D30000020C9F701C01D9241505040E0F70895AE
:102D4000FC0181E090E00190061609F4CF0100201B
:102D5000D1F701970895FB0151915523A9F0BF01C7
:102D6000DC014D9145174111E1F759F4CD01019076
:102D7000002049F04D9140154111C9F3FB0141116B
:102D8000EFCF81E090E0019708956F927F929F923C
:102D9000AF92BF92CF92DF92EF92FF920F931F9369
:102DA000CF93DF93CDB7DEB72D970FB6F894DEBF84
:102DB0000FBECDBF6A01122FB02EFBE36F2E60163F
:102DC00008F40BE3FF24F394F00E0F2D27E0AE017F
:102DD0004F5F5F4F6A877B878C879D876A857B857E
:102DE0008C859D850E94111AAC01A9808A2D89705D
:102DF0003DE2813039F03BE2E1FC04C03E2D317010
:102E0000E0FC30E20E2D0071EA2DE870A3FE59C0FF
:102E100083E0311184E08117A8F5181B002309F421
:102E20003FC0332319F0F60131936F01F601339659
:102E3000E2FE3BC08EE4D6018C9391E411969C9304
:102E4000119712968C93812F9E2F2F2F30E2811194
:102E500031C0E10FF11D10828EEF9FEF2D960FB65E
:102E6000F894DEBF0FBECDBFDF91CF911F910F91C0
:102E7000FF90EF90DF90CF90BF90AF909F907F90AA
:102E80006F90089510E0CACFE92FF22F419381503F
:102E90009E2F2F2F8111F8CFC10ED11C10E0C1CF72
:102EA000812F9C2D2D2D40E2F5CF8EE6D6018C93FF
:102EB00091E6C4CFA92FB22F3D9381509A2F2B2F8B
:102EC000C6CF2A2D2470A2FE47C083E0311184E0D2
:102ED000811710F4E12FE81B002349F1332319F087
:102EE000D6013D936D01C6010396E2FE25C029E49B
:102EF000D6012C932EE411962C93119726E412966A
:102F00002C932E2F382F492F50E221111EC0E80F8D
:102F1000F92FF11DA0CFA92FB22F4D9381509A2FD9
:102F20002B2F8111F8CFCE0ED11CE0E0D7CF8E2F02
:102F30009C2D2D2D40E2F5CF29E6D6012C932EE6CF
:102F400011962C93119726E6DACFA32FB42F5D9319
:102F500021503A2F4B2FD9CFBA0157FF02C070E052
:102F600060E0E1E0F0E0311102C0F0E0E0E0CB0130
:102F70000196E80FF91F8B2D90E0DC011196B1103E
:102F800002C0B0E0A0E0EA0FFB1F1E171F0619F0F9
:102F900014F0212F2E1B011194C0D601E22FF0E274
:102FA000E3FE51C0332329F0F60131936F01011183
:102FB00008C0F601322FA0E331114BC0C20ED11C64
:102FC00020E00F2D040F3A81FA2DF071BF2EA4FEE0
:102FD00003C0313309F401501016F4F5093008F03C
:102FE00008E0DB017A01E01AF10800271127081B2D
:102FF000190BEEE29E2E4A175B0784F1EA16FB06D8
:103000006CF5FA01EA1BFB0B66246394712C6C0EC1
:103010007D1EE60DF71DA18011973601EFEF6E1AA8
:103020007E0AA017B107ECF0F601A082AF3FBA0705
:1030300031F43601E2E06E0E711CF60191826301FB
:10304000DACFFD93E150E111FCCFC20ED11C20E09C
:10305000A9CFA1933150B0CF01E0C3CFE0E3AE2EB2
:10306000DBCF80959095861797070CF5861B970BFD
:10307000019661507109860F971F4817590741F44F
:10308000363320F4353321F4B11002C081E3A82E89
:10309000D601AC92822F962D372D40E281110AC0C5
:1030A000F301E20FF11D108290E080E0D7CE90E0B6
:1030B00080E0DFCFA92FB32F4D9381509A2F3B2F64
:1030C000EDCF311171CF7DCFA8E0B0E0EAE6F8E1B5
:1030D0000C94201B8D839E836B016115710529F073
:1030E000ED81FE81DB01ED93FC93ED80FE80970185
:1030F0002F5F3F4F3E832D83D7010C91802F90E0AF
:103100000E94E91A5C01892B81F70D32D9F5ED8116
:10311000FE81008197012E5F3F4F3E832D8311E09A
:10312000ED80FE80F1E0EF1AF10843E050E06CE53D
:1031300071E0C7010E94F21A892B79F5ED80FE80BB
:1031400022E0E20EF11C45E050E067E571E0C701C6
:103150000E94F21A892B29F4ED80FE8037E0E30EFD
:10316000F11CC114D10419F0D601ED92FC9220E0BB
:1031700030E040E85FE7112339F120E030E040E83B
:103180005FEF22C00B3239F4AD81BE810C91F701A3
:103190003296FE83ED8310E0C3CF43E050E064E558
:1031A00071E0C7010E94F21A892BD1F4C114D10435
:1031B00009F42EC1ED81FE813296D601ED93FC9388
:1031C00020E030E040EC5FE729833A834B835C8367
:1031D00069817A818B819C812896EAE00C943C1B62
:1031E000F12CE12C19821A821B821C82F0EDF00F67
:1031F000FA30B8F5E12FE260812F887012FF0CC021
:10320000811103C03FEFE31AF30AAD81BE810D9136
:10321000BE83AD831E2FEACF882319F041E0E41A64
:10322000F108A5E0B0E029813A814B815C810E94E0
:103230000D1BDC01CB01880F991FAA1FBB1F9C012E
:10324000AD012F0F311D411D511D29833A834B8341
:103250005C832839394949495941B8F2E12FE66080
:10326000D4CFFE3F29F413FD25C0E12FE860CDCF78
:103270000F7D0534F9F4ED81FE8180818D3241F4BA
:1032800010619F012E5F3F4F818142E050E009C0F5
:103290002D813E818B3209F455C02F5F3F4F41E0B5
:1032A00050E080538A3008F456C0F901E41BF50B56
:1032B000FE83ED8311FF0AC0C114D10439F02D81C2
:1032C0003E8121503109F6013183208369817A8161
:1032D0008B819C810E948E15462F572FBC014D83F8
:1032E0005E836F8378871370133039F4DC01CA0171
:1032F000B0588D839E83AF83B8872D813E814F81E7
:10330000588529833A834B835C8320E030E0A90110
:103310006D817E818F8198850E940912882309F42E
:1033200057CFF7FE70C0F194E194F10843E751E004
:103330005E834D83CD80DE8038E1C31AD10800E280
:1033400010E038C02E5F3F4FAD81BE8111968C9149
:103350009CCF2D813E81F0E8AF16FCE0BF065CF407
:10336000A501440F551F440F551FA40EB51EAA0CEE
:10337000BB1CA80EB11CD9018D91BE83AD838053B7
:103380008A3038F314FF03C0B194A194B108EA0C59
:10339000FB1C90CF259135914591549169817A819B
:1033A0008B819C810E94481469837A838B839C83E0
:1033B000E01AF10A89819A81AB81BC81ED81FE819D
:1033C000E016F1063CF73497FE83ED8315950795DB
:1033D000EC15FD0579F78A2F880F8B2F881F8F3FFB
:1033E00059F020E030E0A90169817A818B819C81CC
:1033F0000E9409128111ECCE82E290E09093BF010D
:103400008093BE01E5CE2BE831E03E832D8392CF41
:1034100080E090E0A0ECBFE789839A83AB83BC8314
:10342000D7CE283008F027E03327DA01990F311D75
:1034300087FD916000966105710539F432602E5F59
:103440003D9330E32A95E1F708959F3F30F08038AF
:103450007105610509F03C5F3C5F3D93913008F0D8
:103460008068911DDF93CF931F930F93FF92EF928C
:10347000192F987F9695E92F96959695E90FFF2736
:10348000E751FE4F99273327EE24FF24A701E701D8
:1034900005900894079428F4360FE71EF81E491F7C
:1034A000511D660F771F881F991F0694A1F705907D
:1034B000079428F4E70EF81E491F561FC11D770F09
:1034C000881F991F661F0694A1F70590079428F49A
:1034D000F80E491F561FC71FD11D880F991F661F61
:1034E000771F0694A1F70590079420F4490F561F03
:1034F000C71FD81F990F661F771F881F0694A9F74B
:1035000084911095177041F0D695C79557954795BA
:10351000F794E7941A95C1F7EFE8F1E068941590F5
:10352000159135916591959105907FE27395E1181C
:10353000F10A430B560BC90BD009C0F7E10CF11E81
:10354000431F561FC91FD01D7EF4703311F48A9596
:10355000E6CFE894015030F0080F0AF40027021774
:1035600008F4202F2395022F7A3328F079E37D93F6
:103570002A95E9F710C07D932A9589F606949795C8
:103580006795379517951794E118F10A430B560B79
:10359000C90BD00998F023957E9173957A3308F082
:1035A00070E37C932013B8F77E9170617D9330F0C7
:1035B000839571E37D9370E32A95E1F71124EF90F1
:1035C000FF900F911F91CF91DF91992787FD9095E3
:1035D000089591110C940A1B803219F0895085507E
:1035E000C8F70895FB01DC014150504088F08D91EF
:1035F00081341CF08B350CF4805E659161341CF0D5
:103600006B350CF4605E861B611171F3990B0895A4
:10361000881BFCCF9927882708950E944F1BA59FE0
:10362000900DB49F900DA49F800D911D11240895BD
:103630002F923F924F925F926F927F928F929F92C2
:10364000AF92BF92CF92DF92EF92FF920F931F93B0
:10365000CF93DF93CDB7DEB7CA1BDB0B0FB6F89461
:10366000DEBF0FBECDBF09942A88398848885F84A1
:103670006E847D848C849B84AA84B984C884DF8012
:10368000EE80FD800C811B81AA81B981CE0FD11DF6
:103690000FB6F894DEBF0FBECDBFED010895A29F17
:1036A000B001B39FC001A39F700D811D1124911D16
:1036B000B29F700D811D1124911D0895F894FFCFC4
:1036C000313233343536373839302B2D2A2F3D5EA1
:1036D000726C67537363742E4306070001012B005D
:1036E0002B00250025002800290029002900290099
:1036F00026000203040500322E3731383300332E02
:103700003134313539006362727428007371727418
:1037100028006C6F6728006C6E28006173696E2842
:103720000061636F7328006174616E28004F6E2022
:10373000004F666620005363692043616C6320522A
:10374000656164792100436C656172656421005391
:0C375000686966743A20004E614E00006B
:00000001FF
