:100000000C94CF000C94EC000C94EC000C94EC00DD
:100010000C94EC000C94EC000C94EC000C94EC00B0
:100020000C94EC000C94EC000C94EC000C94EC00A0
:100030000C94EC000C94EC000C94EC000C94EC0090
:100040000C94EC000C94EC000C94EC000C94EC0080
:100050000C94EC000C94EC000C94EC000C94EC0070
:100060000C94EC000C94EC004E414E494E4954590E
:10007000494E46CDCCCC3D0AD7233C17B7D1387773
:10008000CC2B329595E6241FB14F0A000020410089
:1000900000C84200401C4620BCBE4CCA1B0E5AAED3
:1000A000C59D7400407A10F35A00A0724E180900E2
:1000B00010A5D4E80000E87648170000E40B5402CD
:1000C0000000CA9A3B000000E1F505000080969808
:1000D00000000040420F000000A086010000001058
:1000E0002700000000E8030000000064000000009A
:1000F000000A00000000000100000000002C76D87B
:1001000088DC674F0823DFC1DFAE59E1B1B796E560
:10011000E3E453C63AE651997696E8E6C28426EBC4
:10012000898C9B62ED407C6FFCEFBC9C9F40F2BAD7
:10013000A56FA5F490055A2AF75C936B6CF9676D6F
:10014000C11BFCE0E40D47FEF520E6B500D0ED90C4
:100150002E0300943577050080841E080000204E91
:100160000A000000C80C333333330F986E1283112A
:1001700041EF8D2114893BE65516CFFEE6DB18D101
:10018000844B381BF77C1D901DA4BBE424203284D3
:10019000725E228100C9F124ECA1E53D2700112403
:1001A0001FBECFEFD8E0DEBFCDBF11E0A0E0B1E0D1
:1001B000E0EFF1E202C005900D92A03BB107D9F744
:1001C00021E0A0EBB1E001C01D92A43DB207E1F730
:1001D0000E943D0A0C94F6100C9400005B9A85ED89
:1001E0008A95F1F700005B9808959BB193709BB9D5
:1001F00084FD5C9A85FD5D9A86FD5E9A87FD5F9A17
:100200000C94EE00CF93C82F0E94F5008C2F82959E
:10021000807FCF910C94F5005A980C9402015A9A61
:100220000C94020183E30E940C0182E30E940C0102
:1002300088E20E940C018CE00E940C0186E00E9482
:100240000C0181E00E940C018FED9EE20197F1F715
:1002500000C00000089581E00E940C018FED9EE235
:100260000197F1F700C000000895CF93DF93EC01F0
:100270008991811103C0DF91CF9108950E940F01F0
:10028000F7CFCF93DF93CDB7DEB728970FB6F894AB
:10029000DEBF0FBECDBF1A821982FE01339626E063
:1002A000DF011D922A95E9F74AE0BE016F5F7F4F9B
:1002B0000E94C50CCE0101960E94350128960FB60A
:1002C000F894DEBF0FBECDBFDF91CF9108958F921E
:1002D0009F92AF92BF92CF92DF92EF92FF920F93D5
:1002E0001F93CF93DF938B01D82FC92F20E030E0ED
:1002F000A9010E94AF0A87FD67C020E030E0A90194
:10030000B8018D2F9C2F0E94AF0A882309F449C0A1
:1003100020E030E040E85FE3B8018D2F9C2F0E9481
:10032000AF0A882309F43DC020E030E040E05FE3FD
:10033000B8018D2F9C2F0E94DD0B4B017C01940195
:10034000A701B8018D2F9C2F0E94B40A9401A70128
:100350000E94430A20E030E040E05FE30E94DD0BB2
:100360005B016C019B01AC01B401C7010E94420A10
:1003700027E137EB41ED58E30E94D80B18160CF13A
:100380009401A701B501C6010E94420A27E137EB9B
:1003900041ED58E30E94D80B18169CF08501DC2D26
:1003A000CD2DB8018D2F9C2FDF91CF911F910F91F3
:1003B000FF90EF90DF90CF90BF90AF909F908F9085
:1003C000089545017601BBCF00E010E0D0E0C0E029
:1003D000E8CF4F925F926F927F928F929F92AF92EF
:1003E000BF92CF92DF92EF92FF92CF93DF936B0198
:1003F0007C012BED3FE049E450E40E94D80B181635
:100400000CF452C02BED3FE049E450ECC701B601BB
:100410000E94AF0A87FD51C0A7019601C701B6012E
:1004200090580E94DD0B2B013C01C2E0D0E0812CF2
:10043000912C5401A7019601C501B4010E94430A01
:100440004B015C01CE0101968C9FB0018D9F700D18
:100450009C9F700D1124072E000C880B990B0E9495
:10046000280B9B01AC01C301B2010E94B40A9B019D
:10047000AC01C701B6010E94DD0B6B017C01229625
:10048000C631D105B9F6C501B401DF91CF91FF9016
:10049000EF90DF90CF90BF90AF909F908F907F9024
:1004A0006F905F904F9008952BED3FE049EC50E442
:1004B000C701B6010E94420A9ACF2BED3FE049ECFA
:1004C00050E4C701B6010E94430A6B017C019ACF38
:1004D0004F925F926F927F928F929F92AF92BF9254
:1004E000CF92DF92EF92FF92CF93DF936B017C016B
:1004F0002BED3FE049E450E40E94D80B18160CF4B1
:1005000058C02BED3FE049E450ECC701B6010E9412
:10051000AF0A87FD57C0C701B6019058A7019601E1
:100520000E94DD0B2B013C01C2E0D0E0812C912C1C
:1005300080E8A82E8FE3B82EC12CD12C7601A5011E
:100540009401C701B6010E94430A6B017C01CE01F0
:1005500001978C9FB0018D9F700D9C9F700D112491
:10056000072E000C880B990B0E94280B9B01AC01F5
:10057000C301B2010E94B40A9B01AC01C501B401E0
:100580000E94DD0B4B015C012296C631D105B9F604
:10059000C701B601DF91CF91FF90EF90DF90CF9030
:1005A000BF90AF909F908F907F906F905F904F9093
:1005B00008952BED3FE049EC50E4C701B6010E94DD
:1005C000420A94CF2BED3FE049EC50E4C701B6015D
:1005D0000E94430A6B017C0194CF8F929F92AF924D
:1005E000BF92CF92DF92EF92FF924B015C010E948B
:1005F00068026B017C0120E030E0A9010E94AF0A93
:10060000882389F0C501B4010E94E901A701960180
:100610000E94B40AFF90EF90DF90CF90BF90AF9010
:100620009F908F90089560E070E0CB01F3CF2F9200
:100630003F924F925F926F927F928F929F92AF9272
:10064000BF92CF92DF92EF92FF920F931F93CF93BF
:10065000DF9300D000D0CDB7DEB78B018C839B83B6
:1006600020E030E040E85FEB0E94AF0A87FD84C0E5
:1006700020E030E040E85FE3B8018C819B810E947C
:10068000D80B18160CF478C098014C815B81B80126
:100690008C819B810E94DD0B2B013C01D02EC12E51
:1006A0003C802B80EE24E394F12CC70101969A83C1
:1006B0008983B7010F2C000C880B990B0E94280B23
:1006C0004B015C0192E0E90EF11CA5019401C3010C
:1006D000B2010E94DD0BA50194010E94DD0B4B01CC
:1006E0005C0189819A81E89EB001E99E700DF89EB7
:1006F000700D1124072E000C880B990B0E94280BFB
:100700009B01AC01C501B4010E94B40A9B01AC017C
:10071000B8018C819B810E94DD0B8B018C839B83B4
:100720009B01AC016D2D7C2D832D922D0E94430ADF
:10073000D62EC72E382E292E97E2E916F10409F09D
:10074000B4CF6D2D7C2D832D922D0F900F900F9097
:100750000F90DF91CF911F910F91FF90EF90DF905D
:10076000CF90BF90AF909F908F907F906F905F9051
:100770004F903F902F900895D12CC12C312C212CDB
:10078000E0CF0E9417039B01AC016BED7FE089EC89
:100790009FE30E94420A08954F925F926F927F9268
:1007A000AF92BF92CF92DF92EF92FF920F931F937F
:1007B000CF93DF938B01D82FC92F20E030E040E8A2
:1007C0005FEB0E94AF0A87FD0CC020E030E040E8FC
:1007D0005FE3B8018D2F9C2F0E94D80B18160CF0E8
:1007E0003EC020E030E0A901B8018D2F9C2F0E946F
:1007F000D80B4BEDC42E4FE0D42E49ECE42E4FEB3A
:10080000F42E181644F43BEDC32E3FE0D32E39EC02
:10081000E32E3FE3F32E98014D2F5C2F60E070E054
:1008200080E89FE30E94B40A0E94CC039B01AC01C4
:10083000C701B6010E94420A6B017C01B601C701E3
:10084000DF91CF911F910F91FF90EF90DF90CF90AC
:10085000BF90AF907F906F905F904F9008959801F8
:100860004D2F5C2FB8018D2F9C2F0E94DD0B68014E
:10087000ED2EFC2E23E0A22EB12C2B013C0177FAA9
:10088000709477F87094A3019201B8018D2F9C2F7A
:100890000E94DD0B8B01D82FC92FB5010B2C000C4A
:1008A000880B990B0E94280B9B01AC01B8018D2F7E
:1008B0009C2F0E94B40A9B01AC01B601C7010E94A3
:1008C000430A6B017C0182E0A80EB11C89E2A816E4
:1008D000B104C9F6B3CF4F925F926F927F928F921D
:1008E0009F92AF92BF92CF92DF92EF92FF92CF93FF
:1008F000DF932B013C01C1E0D0E0812C912C80E8FA
:10090000A82E8FE3B82E75016401BE010D2E000CD8
:10091000880B990B0E94280B9B01AC01C301B2010B
:100920000E94B40A9B01AC01C501B4010E94DD0B19
:100930004B015C01AC019B01C701B6010E94430A57
:100940006B017C012196C431D105F9F6DF91CF917D
:10095000FF90EF90DF90CF90BF90AF909F908F90DF
:100960007F906F905F904F9008954F925F926F923B
:100970007F928F929F92AF92BF92CF92DF92EF922F
:10098000FF92CF93DF934B015C0120E030E0A9019F
:100990000E94AF0AC12CD12C760118160CF048C069
:1009A00020E030E040EC5FE3C501B4010E94D80BC9
:1009B00087FF4FC020E030E040E05FE3C501B401B5
:1009C0000E94AF0A18160CF059C020E030E040E851
:1009D0005FE3C501B4010E94420A4B015C01C2E021
:1009E000D0E02B013C0177FA709477F870949B016A
:1009F000AC01C701B6010E94430A6B017C01A3014F
:100A00009201C501B4010E94DD0B4B015C01BE01E6
:100A10000D2E000C880B990B0E94280B9B01AC013A
:100A2000C501B4010E94B40A2196C531D105F9F679
:100A3000C701B601DF91CF91FF90EF90DF90CF908B
:100A4000BF90AF909F908F907F906F905F904F90EE
:100A5000089524E538EF4DE250E4C501B4010E9449
:100A6000B40A4B015C0120E030E040E85FE3C701DD
:100A7000B6010E94430A6B017C0192CF24E538EF56
:100A80004DE250E4C501B4010E94DD0B4B015C0155
:100A900020E030E040E85FE3C701B6010E94420A6F
:100AA0006B017C0187CFCF92DF92EF92FF926B01B7
:100AB0007C0120E030E0A9010E94AF0A18167CF406
:100AC000C701B6010E94B5042EE83DE543E150E4BC
:100AD0000E94B40AFF90EF90DF90CF90089560E0FD
:100AE00070E0CB01F7CF8F929F92AF92BF92CF92DF
:100AF000DF92EF92FF926B017C0149015A0120E0E5
:100B000030E0A9010E94AF0A1816A4F4C701B6018B
:100B10000E94B5049B01AC01C501B4010E94DD0B2C
:100B2000FF90EF90DF90CF90BF90AF909F908F900D
:100B30000C946B0460E070E0CB01FF90EF90DF90CD
:100B4000CF90BF90AF909F908F9008950E94120118
:100B5000E0E4F1E041E050E021913191DF011297B2
:100B6000283031058CF167B128503109CA0101C024
:100B7000880F2A95EAF78095862387B988B12D9149
:100B80003C9128503109BA0102C0660F771F2A959F
:100B9000E2F7862B88B971E0E435F707E9F687B10B
:100BA00087B988B188B925982D9A84E591E00E948B
:100BB00035018FEF93ED20E3815090402040E1F725
:100BC00000C000000C942B0134B1CA0101C0880F91
:100BD0002A95EAF78095832384B985B19A010C9010
:100BE00002C0220F331F0A94E2F7822B85B9D3CFBC
:100BF000CF93DF93CDB7DEB7A2970FB6F894DEBFE1
:100C00000FBECDBF0E942B0182EB91E0FC01019051
:100C10000020E9F7CF01835B9140419768F482EBB4
:100C200091E00E943501A2960FB6F894DEBF0FBE88
:100C3000CDBFDF91CF91089540E150E062EB71E0CC
:100C4000CE0142960E949C0C1AA2CE0142960E94AE
:100C5000350180EC0E940C0140E150E062EC71E053
:100C6000CE0101960E949C0C198ACE010196D9CF23
:100C7000AC01FB0120813181FA01E20FF31F908169
:100C8000903219F0993009F008952F5F3F4FFB0122
:100C900031832083EECFAF92BF92CF92DF92EF925B
:100CA000FF920F931F93CF93DF93CDB7DEB7649777
:100CB0000FB6F894DEBF0FBECDBF7C018B010E9442
:100CC0003806F801C080D1805701AC0CBD1CF5017D
:100CD00080818832C9F4FFEFCF1ADF0AF801D18290
:100CE000C082B801C7010E943708F8012081318114
:100CF000F701E20FF31F4081493291F42F5F3F4F1C
:100D0000F801318320830CC08536D9F4FFEFCF1A68
:100D1000DF0AF801D182C08264E578EF8DE290E4C9
:100D200064960FB6F894DEBF0FBECDBFDF91CF91B2
:100D30001F910F91FF90EF90DF90CF90BF90AF90F9
:100D4000089542E050E065E671E0C5010E948E0C16
:100D5000892B59F4F2E0CF0ED11CF801D182C08268
:100D60006BED7FE089E490E4DBCF44E050E069E69E
:100D700071E0C5010E948E0C892B69F4F4E0CF0E5E
:100D8000D11CF801D182C082B801C7010E94370886
:100D90000E94E901AACF44E050E06FE671E0C5018E
:100DA0000E948E0C892B69F4F4E0CF0ED11CF8015F
:100DB000D182C082B801C7010E9437080E94680230
:100DC00094CF44E050E065E771E0C5010E948E0CCD
:100DD000892B69F4F4E0CF0ED11CF801D182C082D6
:100DE000B801C7010E9437080E94ED027ECF45E09E
:100DF00050E068E671E0C5010E948E0C892B69F411
:100E0000F5E0CF0ED11CF801D182C082B801C70134
:100E10000E9437080E94170368CF45E050E06EE655
:100E200071E0C5010E948E0C892B69F4F5E0CF0EAC
:100E3000D11CF801D182C082B801C7010E943708D5
:100E40000E94C10352CF45E050E064E771E0C50164
:100E50000E948E0C892B69F4F5E0CF0ED11CF801AD
:100E6000D182C082B801C7010E9437080E94CC031A
:100E70003CCF44E050E06AE771E0C5010E948E0C6F
:100E8000892B69F4F4E0CF0ED11CF801D182C08225
:100E9000B801C7010E9437080E94530526CF43E0DE
:100EA00050E06FE771E0C5010E948E0C892B69F458
:100EB000F3E0CF0ED11CF801D182C082B801C70186
:100EC0000E9437080E94B50410CF45E050E063E867
:100ED00071E0C5010E948E0C892B69F4F5E0CF0EFC
:100EE000D11CF801D182C082B801C7010E94370825
:100EF0000E946701FACE43E050E069E871E0C50165
:100F00000E948E0C892BD9F0CE010196DC016D0177
:100F1000C81AD90AF80120813181B701620F731F05
:100F2000FB01408150ED540F5A30B0F04E32A1F029
:100F3000F601E80FF91F10820E94680CF1CEF3E071
:100F4000CF0ED11CF801D182C082B801C7010E9426
:100F500037080E946B04C9CE2F5F3F4FF8013183E1
:100F60002083FB0120812D93D2CFCF92DF92EF928D
:100F7000FF920F931F93CF93DF938C01EB010E949D
:100F80003806BE01C8010E944B066B017C01BE0100
:100F9000C8010E94380688819981F801E80FF91F7D
:100FA00020812E35A9F4019699838883BE01C8015A
:100FB0000E94B5079B01AC01C701B601DF91CF913B
:100FC0001F910F91FF90EF90DF90CF900C947305DD
:100FD000C701B601DF91CF911F910F91FF90EF9064
:100FE000DF90CF900895BF92CF92DF92EF92FF9261
:100FF0000F931F93CF93DF938C01EB010E94380670
:10100000BE01C8010E94B5076B017C01BE01C80189
:101010000E94380688819981F801E80FF91F208124
:101020002A3271F02F3261F0C701B601DF91CF9102
:101030001F910F91FF90EF90DF90CF90BF90089598
:10104000019699838883B080BE01C8010E94B507CC
:101050009B01AC018AE2B81205C0C701B6010E942B
:10106000DD0BD2CFC701B6010E94B40ACDCFBF922B
:10107000CF92DF92EF92FF920F931F93CF93DF9364
:101080008C01EB010E943806BE01C8010E94F307E3
:101090006B017C01BE01C8010E94380688819981DC
:1010A000F801E80FF91F20812B3271F02D3261F029
:1010B000C701B601DF91CF911F910F91FF90EF9083
:1010C000DF90CF90BF900895019699838883B08078
:1010D000BE01C8010E94F3079B01AC018BE2B8126C
:1010E00005C0C701B6010E94430AD2CFC701B601AD
:1010F0000E94420ACDCFCF93DF9300D0CDB7DEB7A9
:101100001A821982BE016F5F7F4F0E9437080F90CD
:101110000F90DF91CF910895AF92BF92CF92DF925F
:10112000EF92FF920F931F93CF93DF93CDB7DEB76C
:10113000E1970FB6F894DEBF0FBECDBF89AB8C33FD
:1011400009F051C08091B201882399F182E1EAE26D
:10115000F1E0DE01119601900D928A95E1F702EB24
:1011600011E0F80101900020E9F78F01035B1140C5
:10117000CE0101967C016E0193E1C90ED11CF701ED
:10118000A190B1907F01B50182EB91E00E94AB0C80
:10119000F50101900020E9F73197EA19FB09980160
:1011A0002E1B3F0B2E543E4F82179307A9F4FC01D0
:1011B00010820E94F805E1960FB6F894DEBF0FBECC
:1011C000CDBFDF91CF911F910F91FF90EF90DF90F6
:1011D000CF90BF90AF900895EC14FD0481F6F80114
:1011E000EF54FE4FE5CF8D3351F562EB71E0CE0148
:1011F00001960E94770C82EB91E00E947B088E01A1
:101200000F5D1F4F23E043E00E944A0C6DE871E040
:1012100082EB91E00E946C0CB80182EB91E00E949D
:101220006C0C0E94F805FFEF2BE782E9F15020409B
:101230008040E1F700C000001092B201BACF41E057
:1012400050E0BE016F5C7F4F82EB91E00E947E0C0C
:10125000B0CF6F927F928F929F92AF92BF92CF92B8
:10126000DF92EF92FF920F931F93CF93DF9386B19C
:1012700080910101813011F48093B101109201013C
:1012800093B181E0292F207295FF80E090910001B9
:10129000913021F4211102C09093B001809300019C
:1012A00030E4E32E31E0F32ECAE0D0E04AE2C42E6F
:1012B00041E0D42E5AE0A52EB12C10E000E06AE106
:1012C000662E61E0762E75E0872E912CF701219134
:1012D00031917F012830310514F166B1A9014850E0
:1012E000510981E090E0FC0102C0EE0FFF1F4A951A
:1012F000E2F7AF01862F8E2309F4B4C0219731F7AE
:10130000DF91CF911F910F91FF90EF90DF90CF90E1
:10131000BF90AF909F908F907F906F90089563B132
:1013200041E050E0022E01C0440F0A94EAF7862FF4
:10133000842321F7FFEF60E782E0F15060408040B6
:10134000E1F700C0000083B18423C1F6A901485031
:101350005109283031057CF186B190E0042E02C09D
:10136000959587950A94E2F780959095817089F715
:101370008091B001882309F445C0C5018C1B9D0BE9
:101380008530910508F5F801EC1BFD0BEE0FFF1FF2
:10139000EE5FFE4F6489758982EB91E00E946C0CD0
:1013A0006BE871E082EB91E00E946C0C1092B0014E
:1013B0000E94F805A3CF83B190E0022E02C095955C
:1013C00087950A94E2F7D0CF94012C1B3D0B223075
:1013D000310550F4F801EC1BFD0BEE0FFF1FEE5F23
:1013E000FE4F64897589DECF68EA71E00797D1F214
:1013F00041E050E0B6016C1B7D0B82EB91E00E9456
:101400007E0CD4CF8091B101882311F1C5018C1BD2
:101410009D0B069748F4F301EC1BFD0B82850E949F
:101420008C081092B101C4CFF801EC1BFD0BEE0F3C
:10143000FF1FEE5EFE4F6085718582EB91E00E949A
:101440006C0C6BE871E082EB91E00E946C0CE9CFD0
:1014500041E050E0B6016C1B7D0B82EB91E00E94F5
:101460007E0CA6CF9FEFE0E7F2E09150E040F04025
:10147000E1F700C0000086B167CF0E94A6050E9478
:101480002909FDCF5058BB27AA270E945A0A0C945D
:101490009E0B0E94900B38F00E94970B20F039F4BD
:1014A0009F3F19F426F40C948D0B0EF4E095E7FBA6
:1014B0000C94870BE92F0E94AF0B58F3BA17620701
:1014C00073078407950720F079F4A6F50C94D10BE7
:1014D0000EF4E0950B2EBA2FA02D0B01B90190014F
:1014E0000C01CA01A0011124FF27591B99F0593F93
:1014F00050F4503E68F11A16F040A22F232F342FDB
:101500004427585FF3CF469537952795A795F04028
:101510005395C9F77EF41F16BA0B620B730B840B3D
:10152000BAF09150A1F0FF0FBB1F661F771F881FF5
:10153000C2F70EC0BA0F621F731F841F48F487954D
:1015400077956795B795F7959E3F08F0B0CF93953F
:10155000880F08F09927EE0F9795879508950E94B8
:10156000630B08F481E008950E94C80A0C949E0B56
:101570000E94970B58F00E94900B40F029F45F3FB7
:1015800029F00C94870B51110C94D20B0C948D0BF9
:101590000E94AF0B68F39923B1F3552391F3951B88
:1015A000550BBB27AA2762177307840738F09F5F84
:1015B0005F4F220F331F441FAA1FA9F335D00E2EF1
:1015C0003AF0E0E832D091505040E695001CCAF75E
:1015D0002BD0FE2F29D0660F771F881FBB1F261721
:1015E00037074807AB07B0E809F0BB0B802DBF01F8
:1015F000FF2793585F4F3AF09E3F510578F00C94C7
:10160000870B0C94D20B5F3FE4F3983ED4F386959E
:1016100077956795B795F7959F5FC9F7880F911DE7
:101620009695879597F90895E1E0660F771F881FD3
:10163000BB1F621773078407BA0720F0621B730B86
:10164000840BBA0BEE1F88F7E0950895E89409C063
:1016500097FB3EF490958095709561957F4F8F4FE5
:101660009F4F9923A9F0F92F96E9BB279395F695FB
:10167000879577956795B795F111F8CFFAF4BB0F79
:1016800011F460FF1BC06F5F7F4F8F4F9F4F16C0DD
:10169000882311F096E911C0772321F09EE8872F67
:1016A000762F05C0662371F096E8862F70E060E023
:1016B0002AF09A95660F771F881FDAF7880F96959C
:1016C000879597F90895990F0008550FAA0BE0E840
:1016D000FEEF16161706E807F907C0F012161306F4
:1016E000E407F50798F0621B730B840B950B39F434
:1016F0000A2661F0232B242B252B21F408950A269A
:1017000009F4A140A6958FEF811D811D089597F9D9
:101710009F6780E870E060E008959FEF80EC089597
:1017200000240A94161617061806090608950024C0
:101730000A9412161306140605060895092E03943A
:10174000000C11F4882352F0BB0F40F4BF2B11F4AE
:1017500060FF04C06F5F7F4F8F4F9F4F089557FD0D
:101760009058440F551F59F05F3F71F04795880F0F
:1017700097FB991F61F09F3F79F0879508951216A6
:1017800013061406551FF2CF4695F1DF08C0161652
:1017900017061806991FF1CF869571056105089403
:1017A0000895E894BB2766277727CB0197F908951A
:1017B0000E94630B08F48FEF08950E94F00B0C94C5
:1017C0009E0B0E94900B38F00E94970B20F09523FF
:1017D00011F00C94870B0C948D0B11240C94D20BEC
:1017E0000E94AF0B70F3959FC1F3950F50E0551F0A
:1017F000629FF001729FBB27F00DB11D639FAA2766
:10180000F00DB11DAA1F649F6627B00DA11D661FB4
:10181000829F2227B00DA11D621F739FB00DA11DD5
:10182000621F839FA00D611D221F749F3327A00D8F
:10183000611D231F849F600D211D822F762F6A2F2B
:1018400011249F5750409AF0F1F088234AF0EE0F90
:10185000FF1FBB1F661F771F881F91505040A9F7BD
:101860009E3F510580F00C94870B0C94D20B5F3F88
:10187000E4F3983ED4F3869577956795B795F795F9
:10188000E7959F5FC1F7FE2B880F911D9695879571
:1018900097F90895EF920F931F93CF93DF93E80189
:1018A00034E047FD34E1042E000C550B57FF03C014
:1018B000519541955109E32E022F242FAE010E942C
:1018C000EA0CCE01DF91CF911F910F91EF90089517
:1018D000662777270C94490EFB01DC010D90002050
:1018E000E9F7119701900D920020E1F70895FB01AF
:1018F000DC0101900D920020E1F70895FB01DC016D
:101900000D900020E9F711974150504028F00190C8
:1019100000200D92C9F708951C920895FB01DC0187
:101920004150504030F08D910190801919F4002001
:10193000B9F7881B990B0895FB01DC014150504019
:1019400048F001900D920020C9F701C01D9241504E
:101950005040E0F70895FB0151915523A9F0BF01D4
:10196000DC014D9145174111E1F759F4CD0101908A
:10197000002049F04D9140154111C9F3FB0141117F
:10198000EFCF81E090E001970895BB274A3031F412
:10199000992322F4BDE2909581959F4F0C94D10C30
:1019A000BB27FB015527AA27880F991FAA1FA41739
:1019B00010F0A41B83955051B9F7A05DAA3308F02D
:1019C000A95DA193009779F7B111B1931192CB0161
:1019D0000C949210A9E0B0E0E0EFFCE00C94B6109B
:1019E0006A01F22EB02E102FFBE3AF2EA01608F4E2
:1019F0001BE31F5F012F27E0AE014F5F5F4F0E9487
:101A0000990FBC018981982F9970913009F43FC0DA
:101A10009BE2E1FC04C09E2D9170E0FC3AC05E2D7B
:101A20005071E82FE87083FF46C084E0911101C037
:101A300083E0EF2DE81B8F1508F0E0E0D6018E2F34
:101A400020E2552351F1992329F0D6019C93C60138
:101A500001966C0196012D5F3F4FE2FE24C08EE49B
:101A6000D6018C9391E411969C93119712968C93C6
:101A7000D9018E2F90E281111BC0E20FF32FF11DCF
:101A800010828EEF9FEF2996ECE00C94D2109DE22D
:101A9000C6CF90E2C4CF2D9381508111FCCFCE0EE2
:101AA000D11CE0E0D0CF8EE6D6018C9391E6DBCF5F
:101AB0009D938150E0CF482F447082FF3DC084E069
:101AC000911101C083E08F1510F4EF2DE81BD601B2
:101AD0008E2F20E2552309F1992329F0D6019C93FA
:101AE000C60101966C0196012D5F3F4FE2FE1BC0BF
:101AF00089E4D6018C938EE411968C93119786E439
:101B000012968C93D9018E2F90E2882309F4B5CFD9
:101B10009D938150FACF2D9381508111FCCFCE0E31
:101B2000D11CE0E0D9CF89E6D6018C938EE61196E0
:101B30008C93119786E6E4CF9B0177FF02C030E0DB
:101B400020E0A1E0B0E0911102C0B0E0A0E0F90116
:101B50003196AE0FBF1F8B2C912CBB2009F461C0B6
:101B60005401EFEFAE1ABE0AAA0DBB1DFA161B06F2
:101B700019F014F04F2D4A1B511188C0E3FC59C0D5
:101B80007601A42FB0E2A1114FC0C40ED11C99233D
:101B900009F45BC040E0D6011196F60190836D0117
:101BA000552309F448C0012F060F9A81582F507110
:101BB00084FF03C0913309F4015010160CF047C0A4
:101BC000093008F008E0EEE2FE2E5B01A01AB10831
:101BD00085019194819491082F3F320729F4D60111
:101BE000FC92F60131966F016217730794F10217A8
:101BF00013077CF5DB01A21BB30BAA24A394B12C21
:101C0000AC0EBD1EAA0DBB1D11968C912150310941
:101C1000D601119628153905F4F0F60180836D017F
:101C2000DBCFB12CA12CA0CFF701B1937F01A15044
:101C3000AACF9111B0CFD601942F50E302C05D938B
:101C400091509111FCCFC40ED11C40E0ACCF01E00B
:101C5000BACF80E3DBCF6217730731F4963388F491
:101C6000953311F4552369F0F6018083FD01842F2B
:101C700090E2811108C0A40FB11D1C9290E080E099
:101C800002CF81E3F1CF91938150F3CF911183CFB4
:101C90008ACFB0E0A0E0EFE4FEE00C94B6105C0167
:101CA0007B016115710519F0DB018D939C93850112
:101CB0000F5F1F4FF501D0818D2F90E00E947110B2
:101CC0006C01892BB9F5DD32B9F50F5F1F4FD501D6
:101CD0001196DC91C1E05801F1E0AF1AB10843E080
:101CE00050E060E770E0C5010E947A10892B69F529
:101CF000680182E0C80ED11C45E050E06BE670E060
:101D0000C6010E947A10892B21F4680197E0C90E60
:101D1000D11CE114F10419F0D701CD92DC9260E0FE
:101D200070E080E89FEFC111FFC060E070E080E8E4
:101D30009FE7FAC05801BBCFDB3229F485010E5F63
:101D40001F4FF501D181C0E0C6CF43E050E068E607
:101D500070E0C5010E947A10892BE9F0F80110E0CB
:101D600000E020E030E0A9015F01B0ED8B2E8D0E88
:101D700089E08815C8F19C2E689491F88C2F8870A2
:101D8000C2FF16C0811102C00F5F1F4F3196D501EF
:101D9000DC91C92DE9CFE114F10429F00E5F1F4F4A
:101DA000F7011183008360E070E080EC9FE7BCC026
:101DB000882311F001501109A5E0B0E00E94A510A0
:101DC0009B01AC01220F331F441F551F280D311DED
:101DD000411D511D283999E93907490799E15907EA
:101DE000A8F2C6609C2ED2CFAEEF8A1206C0C3FD09
:101DF0003CC09C2E689493F8C9CFDF7DD534A9F5FB
:101E000080818D3239F4C061DF011296818162E0F8
:101E100070E006C0DF018B32C1F3119661E070E023
:101E200080535D01A61AB70A8A30F8F4E0E8CE16AE
:101E3000ECE0DE065CF4B601660F771F660F771FD5
:101E4000C60ED71ECC0CDD1CC80ED11C5D01FFEFE9
:101E5000AF1ABF0A8C9180538A30A8F1C4FF03C027
:101E6000D194C194D1080C0D1D1DC1FF09C0E1140E
:101E7000F10431F081E0A81AB108D701AD92BC920B
:101E8000CA01B9010E94260BC370C33009F49058EF
:101E90004B015C0120E030E0A9010E94AF0A8823D9
:101EA00009F440C0CFE9D0E017FF05C011950195B6
:101EB0001109C7E8D0E06E01B8E1CB1AD10880E281
:101EC000E82EF12C0FC0D501B1CFFE01259135913F
:101ED000459154910E191F09C501B4010E94DD0BF3
:101EE0004B015C01D501C4010E151F0574F7249741
:101EF000F594E794CC16DD06A9F78A2F880F8B2F6F
:101F0000881F8F3F49F020E030E0A901C501B401EE
:101F10000E94AF0A811106C082E290E09093D30143
:101F20008093D201C501B401CDB7DEB7ECE00C94CB
:101F3000D210283008F027E03327DA01990F311D3D
:101F400087FD916000966105710539F432602E5F5E
:101F50003D9330E32A95E1F708959F3F30F08038B4
:101F60007105610509F03C5F3C5F3D93913008F0DD
:101F70008068911DDF93CF931F930F93FF92EF9291
:101F8000192F987F9695E92F96959695E90FFF273B
:101F9000E350FF4F99273327EE24FF24A701E701E1
:101FA00005900894079428F4360FE71EF81E491F81
:101FB000511D660F771F881F991F0694A1F7059082
:101FC000079428F4E70EF81E491F561FC11D770F0E
:101FD000881F991F661F0694A1F70590079428F49F
:101FE000F80E491F561FC71FD11D880F991F661F66
:101FF000771F0694A1F70590079420F4490F561F08
:10200000C71FD81F990F661F771F881F0694A9F74F
:1020100084911095177041F0D695C79557954795BF
:10202000F794E7941A95C1F7E3EAF0E06894159005
:10203000159135916591959105907FE27395E11821
:10204000F10A430B560BC90BD009C0F7E10CF11E86
:10205000431F561FC91FD01D7EF4703311F48A959B
:10206000E6CFE894015030F0080F0AF40027021779
:1020700008F4202F2395022F7A3328F079E37D93FB
:102080002A95E9F710C07D932A9589F606949795CD
:102090006795379517951794E118F10A430B560B7E
:1020A000C90BD00998F023957E9173957A3308F087
:1020B00070E37C932013B8F77E9170617D9330F0CC
:1020C000839571E37D9370E32A95E1F71124EF90F6
:1020D000FF900F911F91CF91DF91992787FD9095E8
:1020E000089591110C94A210803219F089508550F6
:1020F000C8F70895FB01DC014150504088F08D91F4
:1021000081341CF08B350CF4805E659161341CF0D9
:102110006B350CF4605E861B611171F3990B0895A9
:10212000881BFCCFDC01FC01672F71917723E1F75D
:10213000329704C07C916D9370836291AE17BF0794
:10214000C8F308959927882708950E94E710A59F4E
:10215000900DB49F900DA49F800D911D11240895A2
:102160002F923F924F925F926F927F928F929F92A7
:10217000AF92BF92CF92DF92EF92FF920F931F9395
:10218000CF93DF93CDB7DEB7CA1BDB0B0FB6F89446
:10219000DEBF0FBECDBF09942A88398848885F8486
:1021A0006E847D848C849B84AA84B984C884DF80F7
:1021B000EE80FD800C811B81AA81B981CE0FD11DDB
:1021C0000FB6F894DEBF0FBECDBFED010895A29FFC
:1021D000B001B39FC001A39F700D811D1124911DFB
:1021E000B29F700D811D1124911D0895F894FFCFA9
:1021F00001018F01940199019E01A2018B01A501AA
:10220000A80190019501A701AA012B2D2A2F3D3C81
:102210003031323334353637383969016F0189014D
:10222000830168016E0174017A017F0105000500D8
:102230000000010002000300040000000100020091
:102240000300040043616C63756C61746F7220520B
:1022500065616479007069006173696E280061636B
:102260006F7328006174616E28006C6F6728006CC2
:102270006E2800737172742800655E28003D00614D
:1022800073696E0061636F73006174616E006C6FDF
:1022900067006C6E002900655E0073717274000047
:00000001FF
