:100000000C9434000C9451000C9451000C94510049
:100010000C9451000C9451000C9451000C9451001C
:100020000C9451000C9451000C9451000C947600E7
:100030000C9451000C9451000C9451000C945100FC
:100040000C9451000C9451000C9451000C945100EC
:100050000C9451000C9451000C9451000C945100DC
:100060000C9451000C94510011241FBECFEFD8E026
:10007000DEBFCDBF11E0A0E0B1E0E4EAF6E002C0EF
:1000800005900D92A230B107D9F721E0A2E0B1E0CE
:1000900001C01D92A631B207E1F70E9421030C9422
:1000A00050030C9400008AB18C638AB98BB1837CB5
:1000B0008BB98FEF87B918B88BB1806C8BB985B1CC
:1000C000836085B9E1E8F0E080818D60808389E01C
:1000D0009DE39093890080938800EFE6F0E08081B3
:1000E000826080833F9A4798789408951F920F9278
:1000F0000FB60F9211245F936F937F938F939F930B
:10010000AF93BF9388B1805888B9809104019091D2
:100110000501892B99F580911401909115010196A3
:100120009093150180931401809114019091150111
:10013000CC9721F5109215011092140180911201B3
:100140009091130101969093130180931201809175
:10015000120190911301CC9789F41092130110921F
:1001600012018091000190910101019668E170E017
:100170000E94280390930101809300018091040163
:1001800090910501019709F055C08091020190916D
:100190000301892B09F44EC0809110019091110147
:1001A0001816190674F080910E0190910F0118161F
:1001B00019063CF080910C0190910D01181619065A
:1001C000CCF58091100190911101892B51F580910E
:1001D0000E0190910F011816190664F480910E011A
:1001E00090910F01019790930F0180930E018BE383
:1001F00090E01CC080910C0190910D011816190619
:10020000CCF480910C0190910D01019790930D0118
:1002100080930C018BE390E090930F0180930E018B
:1002200005C08091100190911101019790931101E7
:100230008093100180910401909105010297C9F506
:100240008091020190910301892B99F180910A011B
:1002500090910B01019690930B0180930A0180917C
:100260000A0190910B01CC9721F510920B0110928D
:100270000A0180910801909109010196909309016A
:10028000809308018091080190910901CC9789F42D
:1002900010920901109208018091060190910701C6
:1002A000019668E170E00E94280390930701809313
:1002B0000601BF91AF919F918F917F916F915F9157
:1002C0000F900FBE0F901F9018952BB1880F991F9C
:1002D000880F991F8C73237C282B2BB90895CF92FC
:1002E000DF92EF92FF920F931F93CF93DF93CDB7DF
:1002F000DEB72C970FB6F894DEBF0FBECDBF80914E
:10030000040190910501892B09F041C08091000101
:10031000909101012AE030E0B9010E9428037A831C
:1003200069838091000190910101B9010E94280325
:100330009C838B838091120190911301B9010E94DB
:1003400028037E836D838091120190911301B9017E
:100350000E94280398878F83809114019091150142
:10036000B9010E9428037A876987809114019091CE
:100370001501B9010E9428039C878B87CE01019645
:100380007C0100E010E0CC24C394D12C6EC080919D
:100390000401909105010197A1F580910C019091C4
:1003A0000D012AE030E0B9010E9428037A836983B5
:1003B00080910C0190910D01B9010E9428039C834A
:1003C0008B8380910E0190910F01B9010E94280347
:1003D0007E836D8380910E0190910F01B9010E947F
:1003E000280398878F838091100190911101B901A2
:1003F0000E9428037A8769878091100190911101EA
:10040000B8CF80910601909107012AE030E0B90150
:100410000E9428037A8369838091060190910701E5
:10042000B9010E9428039C838B83809108019091DD
:100430000901B9010E9428037E836D838091080120
:1004400090910901B9010E94280398878F838091B8
:100450000A0190910B01B9010E9428037A876987EC
:1004600080910A0190910B0184CFF70181919191C4
:100470007F010E946501C601002E01C0880F0A9409
:10048000EAF788B98FEC97E00197F1F700C0000018
:100490000F5F1F4F0630110541F72C960FB6F894E9
:1004A000DEBF0FBECDBFDF91CF911F910F91FF90A7
:1004B000EF90DF90CF9008954E9B03C04F9B3AC0C2
:1004C00044C02FEF80E792E0215080409040E1F758
:1004D00000C000004E99F2CF809104019091050177
:1004E000892B71F48091000190910101019668E1DE
:1004F00070E00E942803909301018093000113C0D3
:100500008091040190910501019789F480910C017B
:1005100090910D01019668E170E00E94280390938C
:100520000D0180930C0110921501109214014E9B45
:10053000FECFC4CF2FEF80E792E021508040904063
:10054000E1F700C000004F9B03C0189949C02EC0BE
:100550008091040190910501892B71F48091120121
:100560009091130101966CE370E00E942803909330
:1005700013018093120113C0809104019091050131
:10058000019789F480910E0190910F0101966CE31F
:1005900070E00E94280390930F0180930E01109247
:1005A0001501109214014F9BFECFCFCF2FEF80E7A4
:1005B00092E0215080409040E1F700C0000018997F
:1005C0000FC08091040190910501019663E070E0F5
:1005D0000E9428039093050180930401189BFECF8D
:1005E00019992EC02FEF80E792E021508040904073
:1005F000E1F700C00000199923C080910401909197
:100600000501029731F08091040190910501019755
:1006100071F4209102013091030181E090E0232BDD
:1006200011F080E090E0909303018093020119990A
:1006300007C08FE39CE90197F1F700C00000F7CFF6
:1006400008950E9453000E945C020E946F01FBCF3C
:1006500097FB072E16F4009407D077FD09D00E946F
:100660003C0307FC05D03EF4909581959F4F08957B
:10067000709561957F4F0895AA1BBB1B51E107C080
:10068000AA1FBB1FA617B70710F0A61BB70B881F22
:10069000991F5A95A9F780959095BC01CD010895B1
:0406A000F894FFCFFC
:0206A4000F0045
:00000001FF
