:100000000C9434000C9451000C9451000C94510049
:100010000C9451000C9451000C9451000C9451001C
:100020000C9451000C9451000C9451000C9451000C
:100030000C9451000C9451000C9451000C945100FC
:100040000C9451000C9451000C9451000C945100EC
:100050000C9451000C9451000C9451000C945100DC
:100060000C9451000C94510011241FBECFEFD8E026
:10007000DEBFCDBF11E0A0E0B1E0EEEEFCE002C0DB
:1000800005900D92AA30B107D9F721E0AAE0B1E0BE
:1000900001C01D92AC32B207E1F70E94E4030C9458
:1000A00075060C9400002F923F924F925F926F92D0
:1000B0007F928F929F92AF92BF92CF92DF92EF92F8
:1000C000FF920F931F93CF93DF932B013C016901A4
:1000D0007A0120E030E0A901C701B6010E94A40422
:1000E000882309F460C020E030E0A901C701B6010F
:1000F0000E94A4044601570187FF04C0B7FAB094D8
:10010000B7F8B094212C312CD0E8CFE302E010E016
:1001100020E030E0A901C501B4010E9403061816D1
:100120007CF5C501B4010E941B05CB01B8010E94FA
:100130000F04019751F4A3019201B1018D2F9C2F5F
:100140000E9408061B01D82FC92FA3019201C301E9
:10015000B2010E9408062B013C0120E030E040E0A3
:100160005FE3C501B4010E9408060E941B05072E2B
:10017000000C880B990B0E9453054B015C01C8CF02
:1001800020E030E0A901C701B6010E94A40487FF66
:100190000FC091014D2F5C2F60E070E080E89FE37D
:1001A0000E94A90408C060E070E080E89FE303C0FB
:1001B000B1018D2F9C2F8B019C01C901B801DF91EA
:1001C000CF911F910F91FF90EF90DF90CF90BF9054
:1001D000AF909F908F907F906F905F904F903F90E7
:1001E0002F900895BF92CF92DF92EF92FF920F93DC
:1001F0001F93CF93DF936B017C0120E030E0A901D6
:100200000E94A40487FD26C020E030E040E05FE3C8
:10021000C701B6010E9408068B01D82FC92F8AE0BA
:10022000B82E98014D2F5C2FC701B6010E94A9047A
:1002300098014D2F5C2F0E94380420E030E040E010
:100240005FE30E9408068B01D82FC92FBA94B11022
:10025000E8CF04C000E010E0D0E0C0E0B8018D2F8E
:100260009C2FDF91CF911F910F91FF90EF90DF9026
:10027000CF90BF9008954F925F926F927F92AF920E
:10028000BF92CF92DF92EF92FF920F931F93CF9383
:10029000DF938B01D82FC92F2BED3FE049E450E4C9
:1002A0000E940306181654F42BED3FE049EC50E48D
:1002B000B8018D2F9C2F0E943704EBCF2BED3FE030
:1002C00049E450ECB8018D2F9C2F0E94A40487FFB5
:1002D0000DC02BED3FE049EC50E4B8018D2F9C2F71
:1002E0000E9438048B01D82FC92FE8CF98014D2FD9
:1002F0005C2FB8018D2F9C2F0E9408065801CD2E2F
:10030000DC2E22E0E22EF12C2B013C0177FA7094D6
:1003100077F87094C70101968E9DB0018F9D700D86
:100320009E9D700D1124072E000C880B990B0E94C6
:1003300053059B01AC01C301B2010E94A9049B01BA
:10034000AC01B8018D2F9C2F0E9408068B01D82F7D
:10035000C92F9B01482F592FB501C6010E943804AF
:100360005B016C0182E0E80EF11C86E1E816F10405
:1003700089F6B501C601DF91CF911F910F91FF90D2
:10038000EF90DF90CF90BF90AF907F906F905F9095
:100390004F9008952BED3FE049EC5FE30E94380455
:1003A0000C943B014F925F926F927F92AF92BF92FB
:1003B000CF92DF92EF92FF920F931F93CF93DF9331
:1003C0008B01D82FC92F20E030E040E85FE30E9486
:1003D0000306181694F498014D2F5C2F60E070E02E
:1003E00080E89FE30E94A9040E94D2019B01AC0116
:1003F0006BED7FE089EC9FE31CC020E030E040E83B
:100400005FEBB8018D2F9C2F0E94A40498014D2F03
:100410005C2F87FF11C060E070E080E89FE30E94DE
:10042000A9040E94D2019B01AC016BED7FE089EC35
:100430009FEB0E9437043AC0B8018D2F9C2F0E9479
:1004400008066801ED2EFC2E23E0A22EB12C2B0114
:100450003C0177FA709477F87094A3019201B80187
:100460008D2F9C2F0E9408068B01D82FC92FB50114
:100470000B2C000C880B990B0E9453059B01AC01BF
:10048000B8018D2F9C2F0E94A9049B01AC01B601DD
:10049000C7010E9438046B017C0182E0A80EB11CE8
:1004A00087E1A816B104C9F6B601C7018B019C010A
:1004B000C901B801DF91CF911F910F91FF90EF908B
:1004C000DF90CF90BF90AF907F906F905F904F90F4
:1004D00008954F925F926F927F92AF92BF92CF92A8
:1004E000DF92EF92FF920F931F93CF93DF936B01F5
:1004F0007C0120E030E0A9010E94A40418160CF051
:1005000056C020E030E040E85FE3C701B6010E943A
:1005100037042B013C0120E030E040E85FE3C701F5
:10052000B6010E9438049B01AC01C301B2010E94D4
:10053000A9048B01D82FC92F9B01482F592F0E9446
:1005400008062B013C016801ED2EFC2E83E0A82E4D
:10055000B12CA3019201B8018D2F9C2F0E94080697
:100560008B01D82FC92FB5010B2C000C880B990BD0
:100570000E9453059B01AC01B8018D2F9C2F0E9456
:10058000A9049B01AC01B601C7010E9438046B01AC
:100590007C0182E0A80EB11C87E1A816B104C9F65F
:1005A0009601A701B601C7010E94380403C060E0AC
:1005B00070E0CB01DF91CF911F910F91FF90EF90F1
:1005C000DF90CF90BF90AF907F906F905F904F90F3
:1005D00008954F925F926F927F928F929F92AF9207
:1005E000BF92CF92DF92EF92FF92CF93DF932B01D6
:1005F0003C01C1E0D0E0C12CD12C80E8E82E8FE393
:10060000F82E46015701BE010D2E000C880B990BE8
:100610000E9453059B01AC01C301B2010E94A904D1
:100620009B01AC01C501B4010E9408064B015C01AD
:100630009B01AC01C701B6010E9438046B017C012B
:100640002196CB30D105F9F6DF91CF91FF90EF9055
:10065000DF90CF90BF90AF909F908F907F906F90E2
:100660005F904F9008955A989BB19F7E84FD02C081
:1006700020E001C020E1922B9BB99BB19F7D85FDBD
:1006800002C020E001C020E2922B9BB99BB19F7B6E
:1006900086FD02C020E001C020E4922B9BB99BB1F3
:1006A0009F7787FD02C020E001C020E8922B9BB914
:1006B0005B9A95E09A95F1F700005B98EFE8F1E01E
:1006C0003197F1F700C000009BB19F7E80FD02C012
:1006D00020E001C020E1922B9BB99BB19F7D81FD61
:1006E00002C020E001C020E2922B9BB99BB19F7B0E
:1006F00082FD02C020E001C020E4922B9BB99BB197
:100700009F7783FD02C080E001C080E8892B8BB910
:100710005B9AF5E0FA95F1F700005B988FE891E0BD
:100720000197F1F700C0000008955A9A8FE891E010
:100730000197F1F700C000000895CF93DF93EC011B
:100740008991882319F00E949503FACFDF91CF9108
:10075000089581E00E9433038FE39FE10197F1F751
:1007600000C0000008958AB18C608AB98AB1806F98
:100770008AB92FEF80E792E0215080409040E1F766
:1007800000C0000083E30E94330382E30E9433032E
:1007900088E20E9433038CE00E94330386E00E94CB
:1007A00033030C94A90390E4699F800D11248068A1
:1007B0000C94330380E00895089508950E94A903DE
:1007C0008CE091E00C949D030E94B303E0E0F1E023
:1007D00041E050E097B1DF019A01019002C0220F81
:1007E000331F0A94E2F7822F8095892387B928B1B5
:1007F000CA010C9002C0880F991F0A94E2F7822B5D
:1008000088B921E0EA30F20729F78FEF90E722E07C
:10081000815090402040E1F700C00000FFCF97FBDF
:10082000072E16F4009407D077FD09D00E94230408
:1008300007FC05D03EF4909581959F4F08957095E3
:1008400061957F4F0895AA1BBB1B51E107C0AA1FEA
:10085000BB1FA617B70710F0A61BB70B881F991F61
:100860005A95A9F780959095BC01CD0108955058EF
:10087000BB27AA270E944F040C94C9050E94BB0500
:1008800038F00E94C20520F039F49F3F19F426F495
:100890000C94B8050EF4E095E7FB0C94B205E92F33
:1008A0000E94DA0558F3BA176207730784079507A1
:1008B00020F079F4A6F50C94FC050EF4E0950B2ECF
:1008C000BA2FA02D0B01B90190010C01CA01A001A2
:1008D0001124FF27591B99F0593F50F4503E68F1FD
:1008E0001A16F040A22F232F342F4427585FF3CF3E
:1008F000469537952795A795F0405395C9F77EF40F
:100900001F16BA0B620B730B840BBAF09150A1F057
:10091000FF0FBB1F661F771F881FC2F70EC0BA0FDD
:10092000621F731F841F48F4879577956795B79565
:10093000F7959E3F08F0B0CF9395880F08F0992760
:10094000EE0F9795879508950E948E0508F481E033
:1009500008950E94BD040C94C9050E94C20558F078
:100960000E94BB0540F029F45F3F29F00C94B205CA
:1009700051110C94FD050C94B8050E94DA0568F33A
:100980009923B1F3552391F3951B550BBB27AA2748
:1009900062177307840738F09F5F5F4F220F331F82
:1009A000441FAA1FA9F335D00E2E3AF0E0E832D04A
:1009B00091505040E695001CCAF72BD0FE2F29D04D
:1009C000660F771F881FBB1F261737074807AB071F
:1009D000B0E809F0BB0B802DBF01FF2793585F4F94
:1009E0003AF09E3F510578F00C94B2050C94FD0549
:1009F0005F3FE4F3983ED4F3869577956795B79576
:100A0000F7959F5FC9F7880F911D9695879597F980
:100A10000895E1E0660F771F881FBB1F62177307F9
:100A20008407BA0720F0621B730B840BBA0BEE1F0E
:100A300088F7E09508950E9422056894B1110C94FE
:100A4000FD0508950E94E20588F09F5798F0B92FA0
:100A50009927B751B0F0E1F0660F771F881F991FF3
:100A60001AF0BA95C9F714C0B13091F00E94FC0594
:100A7000B1E008950C94FC05672F782F8827B85FA4
:100A800039F0B93FCCF3869577956795B395D9F74B
:100A90003EF490958095709561957F4F8F4F9F4F55
:100AA0000895E89409C097FB3EF490958095709561
:100AB00061957F4F8F4F9F4F9923A9F0F92F96E9AA
:100AC000BB279395F695879577956795B795F1111F
:100AD000F8CFFAF4BB0F11F460FF1BC06F5F7F4FBC
:100AE0008F4F9F4F16C0882311F096E911C07723CE
:100AF00021F09EE8872F762F05C0662371F096E8D7
:100B0000862F70E060E02AF09A95660F771F881FA5
:100B1000DAF7880F9695879597F90895990F000849
:100B2000550FAA0BE0E8FEEF16161706E807F907BF
:100B3000C0F012161306E407F50798F0621B730B5A
:100B4000840B950B39F40A2661F0232B242B252BDB
:100B500021F408950A2609F4A140A6958FEF811D7E
:100B6000811D089597F99F6780E870E060E008951F
:100B70009FEF80EC089500240A94161617061806B5
:100B80000906089500240A94121613061406050691
:100B90000895092E0394000C11F4882352F0BB0F22
:100BA00040F4BF2B11F460FF04C06F5F7F4F8F4F85
:100BB0009F4F089557FD9058440F551F59F05F3FC0
:100BC00071F04795880F97FB991F61F09F3F79F06F
:100BD00087950895121613061406551FF2CF4695F1
:100BE000F1DF08C0161617061806991FF1CF869573
:100BF0007105610508940895E894BB276627772757
:100C0000CB0197F908950E948E0508F48FEF08959F
:100C10000E941B060C94C9050E94BB0538F00E9477
:100C2000C20520F0952311F00C94B2050C94B80580
:100C300011240C94FD050E94DA0570F3959FC1F311
:100C4000950F50E0551F629FF001729FBB27F00D7A
:100C5000B11D639FAA27F00DB11DAA1F649F6627CF
:100C6000B00DA11D661F829F2227B00DA11D621F1E
:100C7000739FB00DA11D621F839FA00D611D221FD8
:100C8000749F3327A00D611D231F849F600D211DBC
:100C9000822F762F6A2F11249F5750409AF0F1F03F
:100CA00088234AF0EE0FFF1FBB1F661F771F881FA8
:100CB00091505040A9F79E3F510580F00C94B20529
:100CC0000C94FD055F3FE4F3983ED4F38695779549
:100CD0006795B795F795E7959F5FC1F7FE2B880F4E
:0E0CE000911D9695879597F90895F894FFCF8A
:0A0CEE0006070001020300010203E3
:00000001FF
