:100000000C9434000C9451000C9451000C94510049
:100010000C9451000C9451000C9451000C9451001C
:100020000C9451000C9451000C9451000C9451000C
:100030000C9451000C9451000C9453000C945100FA
:100040000C9451000C9451000C9451000C945100EC
:100050000C9451000C9451000C9451000C945100DC
:100060000C9451000C94510011241FBECFEFD8E026
:10007000DEBFCDBF11E0A0E0B1E0ECEFF9E002C0DF
:1000800005900D92A031B107D9F721E0A0E1B1E0D0
:1000900001C01D92AA33B207E1F70E944E040C94EE
:1000A000FC040C9400001F920F920FB60F921124C3
:1000B0008F939F93AF93BF9380911A0190911B01EF
:1000C000A0911C01B0911D010196A11DB11D80934D
:1000D0001A0190931B01A0931C01B0931D01BF91C5
:1000E000AF919F918F910F900FBE0F901F90189519
:1000F000F89460911A0170911B0180911C019091FC
:100100001D01789408958AB18C638AB98AB1806C94
:100110008AB984B18F6084B987B1807D87B988B18D
:100120008F6288B98BB1837C8BB98BB18F738BB99C
:1001300085B1807F85B982E084BD83E085BD89EF8C
:1001400087BDEEE6F0E0808182608083089580FFC5
:1001500023C05A9A81FF23C05B9A82FF23C05C9A16
:1001600083FF23C05D9A8BB18F738BB985B1807F7C
:1001700085B9623019F1633050F16430A9F108F4A7
:1001800053C06530D1F55E9A8FE39FE10197F1F797
:1001900000C000005E9808955A9881FDDDCF5B98FD
:1001A00082FDDDCF5C9883FDDDCF5D988BB18F73D1
:1001B0008BB985B1807F85B96230E9F6299A8FE3E2
:1001C0009FE10197F1F700C0000029980895662388
:1001D00011F1613091F42A9A8FE39FE10197F1F7D1
:1001E00000C000002A9808955F9A8FE39FE101976D
:1001F000F1F700C000005F9808958FE39FE1019739
:10020000F1F700C00000623001F3B8F4662351F04A
:10021000613041F308952B9A8FE39FE10197F1F745
:1002200000C000002B980895289A8FE39FE1019762
:10023000F1F700C00000289808956430E1F2D8F387
:10024000653009F4A7CF0895CF93809112018111F1
:1002500050C080910301CDEC8C9F812D112460E072
:100260008695869586950E94A700809103018C9FB4
:10027000912D112496959695969561E02AE0929F8E
:10028000801911240E94A700809102018C9F812D6A
:10029000112462E08695869586950E94A70080913C
:1002A00002018C9F912D112496959695969563E069
:1002B0002AE0929F801911240E94A70080910101D9
:1002C0008C9F812D112464E08695869586950E94E9
:1002D000A700809101018C9FC12D1124C695C69560
:1002E000C69565E09AE0C99F80191124CF910C94BE
:1002F000A70080911901CDEC8C9F812D112460E025
:100300008695869586950E94A700809119018C9FFD
:10031000912D112496959695969561E02AE0929FED
:10032000801911240E94A700809118018C9F812DB3
:10033000112462E08695869586950E94A70080919B
:1003400018018C9F912D112496959695969563E0B2
:100350002AE0929F801911240E94A7008091170122
:100360008C9F812D112464E08695869586950E9448
:10037000A70080911701AFCF0F931F93F8940091BE
:100380001A0110911B0120911C0130911D017894DC
:10039000309989C08091360190913701A091380140
:1003A000B09139010097A105B10509F0EBC10093A7
:1003B00036011093370120933801309339010093AF
:1003C0003201109333012093340130933501319B76
:1003D00089C080912E0190912F01A0913001B091A0
:1003E00031010097A105B10509F057C110922E0106
:1003F00010922F01109230011092310110922A01B7
:1004000010922B0110922C0110922D01329989C06B
:100410008091260190912701A0912801B091290196
:100420000097A105B10509F0FFC0009326011093C4
:100430002701209328013093290100932201109372
:1004400023012093240130932501339B88C08091A0
:100450001E0190911F01A0912001B09121010097F0
:10046000A105B10509F0ADC010921E0110921F0147
:10047000109220011092210186B191E0282F207264
:1004800085FF90E080910001811108C0222331F0A6
:100490002091120181E08227809312019093000144
:1004A0001F910F9108958091360190913701A0918D
:1004B0003801B09139010097A105B10509F044C197
:1004C00010923601109237011092380110923901C2
:1004D00010923201109233011092340110923501C2
:1004E000319977CF80912E0190912F01A091300109
:1004F000B09131010097A105B10509F0ECC000935E
:100500002E0110932F01209330013093310100937D
:100510002A0110932B0120932C0130932D01329B43
:1005200077CF8091260190912701A0912801B09169
:1005300029010097A105B10539F510922601109205
:100540002701109228011092290110922201109285
:1005500023011092240110922501339978CF8091C4
:100560001E0190911F01A0912001B09121010097DF
:10057000A105B105E1F500931E0110931F01209321
:1005800020013093210178CFB901A801481B590BF4
:100590006A0B7B0BDB01CA01803D9740A105B105C9
:1005A00060F680911201882309F43BC18091170104
:1005B00090E001966CE370E00E94D40480931701F0
:1005C000BCCF081B190B2A0B3B0B08381341210524
:1005D000310508F049CF80911201882309F42CC11C
:1005E0009091100181E08927809310013DCFB901DE
:1005F000A801481B590B6A0B7B0BDB01CA01883829
:100600009341A105B10508F437CF809112018823E9
:1006100009F419C1109217011092180110921901D2
:1006200081E080931001A7CFB901A801481B590BA5
:100630006A0B7B0BDB01CA01803D9740A105B10528
:1006400008F48BCF8091220190912301A091240185
:10065000B0912501B901A801481B590B6A0B7B0B0E
:10066000483C51056105710508F477CF809112016E
:100670008111F3C08091010190E001966CE370E07C
:100680000E94D4048093010100932201109323015E
:10069000209324013093250160CFB901A801481BA4
:1006A000590B6A0B7B0BDB01CA01803D9740A1050A
:1006B000B10508F09BCE80911201882309F4A6C0F1
:1006C0008091180190E001966CE370E00E94D404E0
:1006D000809318018BCEB901A801481B590B6A0BF6
:1006E0007B0BDB01CA01803D9740A105B10508F4F1
:1006F0008DCE80912A0190912B01A0912C01B09177
:100700002D01B901A801481B590B6A0B7B0B483C12
:1007100051056105710508F479CE809112018111AE
:10072000A7C08091020190E001966CE370E00E9406
:10073000D4048093020100932A0110932B0120938B
:100740002C0130932D0162CEB901A801481B590B31
:100750006A0B7B0BDB01CA01803D9740A105B10507
:1007600008F0AECE80911201882309F444C0809134
:10077000190190E0019668E170E00E94D404809332
:1007800019019ECEB901A801481B590B6A0B7B0BBE
:10079000DB01CA01803D9740A105B10508F4A0CE58
:1007A0008091320190913301A0913401B0913501D3
:1007B000B901A801481B590B6A0B7B0B483C51053A
:1007C0006105710508F48CCE8091120181115BC026
:1007D0008091030190E0019668E170E00E94D404EA
:1007E000809303010093320110933301209334016D
:1007F0003093350175CE8091030190E0019668E158
:1008000070E00E94D404809303015ACE80910201CB
:1008100090E001966CE370E00E94D40480930201A2
:10082000E5CD8091010190E001966CE370E00E94BB
:10083000D4048093010181CE9091110181E0892738
:100840008093110111CE10920101109202011092B9
:10085000030181E0809311018ECE8091170190E019
:1008600001966CE370E00E94D404809317010CCFD2
:100870008091180190E001966CE370E00E94D4042E
:100880008093180158CF8091190190E0019668E19A
:1008900070E00E94D40480931901A4CF0E948300C9
:1008A0007894CBE324C0809102018C3308F05CC0C3
:1008B00080910301883110F01092030180911001A2
:1008C00081110FC090911901911156C0209118010A
:1008D00080911701211160C0882319F08150809305
:1008E0001701809112010E94BC010E942401F8941A
:1008F00080911A0190911B01A0911C01B0911D01E2
:1009000078944091130150911401609115017091F8
:1009100016018C019D01041B150B260B370BB90129
:10092000A801483E534061057105E8F28093130128
:1009300090931401A0931501B093160180911101B9
:100940008111BCCF809101018F5F809301018C33B5
:1009500008F4A9CF10920101809102018F5F80936A
:1009600002018C3308F4A4CF10920201809103019C
:100970008F5F809303019ECF809117018111AECFCD
:10098000C09317012091180121110AC0C0931801CA
:10099000915090931901A5CF8111A0CFC093170159
:1009A0002150209318019DCF97FB072E16F4009439
:1009B00007D077FD09D00E94E80407FC05D03EF47B
:1009C000909581959F4F0895709561957F4F0895FB
:1009D000AA1BBB1B51E107C0AA1FBB1FA617B70765
:1009E00010F0A61BB70B881F991F5A95A9F7809581
:0C09F0009095BC01CD010895F894FFCF54
:1009FC000120140C88130000C8000000D007000070
:00000001FF
