:100000000C9434000C9451000C9451000C94510049
:100010000C9451000C9451000C9451000C9451001C
:100020000C9451000C9451000C9451000C9451000C
:100030000C9451000C9451000C9451000C945100FC
:100040000C9451000C9451000C9451000C945100EC
:100050000C9451000C9451000C9451000C945100DC
:100060000C9451000C94510011241FBECFEFD8E026
:10007000DEBFCDBF11E0A0E0B1E0E0E8F6E202C0F3
:1000800005900D92A638B107D9F721E0A6E8B1E0B6
:1000900001C01D92AA3AB207E1F70E9427080C940A
:1000A0000D120C94000080FF17C0429A81FF16C009
:1000B000439A82FF15C0449A83FF14C0459A2C9A34
:1000C00085E08A95F1F700002C9887EC90E0019785
:1000D000F1F700C0000008954298E8CF4398E9CFB7
:1000E0004498EACF4598EBCFCF93C82F611591F094
:1000F0002D9A8C2F82958F700E9453008C2F8F70B9
:100100000E94530087EC90E00197F1F700C00000D7
:10011000CF9108952D98EDCF60E081E00E947400AA
:100120008FE39FE10197F1F700C00000089560E0C0
:1001300082E00E9474008FE39FE10197F1F700C015
:1001400000000895CF93DF9300D0CDB7DEB720E055
:1001500030E43A832983FE01E60FF11D9181890F76
:1001600060E080680F900F90DF91CF910C94740045
:10017000259A249A3A9A3B9A3C9A3D9A2FEF80E727
:1001800092E0215080409040E1F700C000002D989F
:100190002C9883E00E9453008FE19EE40197F1F7D1
:1001A00000C0000083E00E9453008FE19EE40197AD
:1001B000F1F700C0000083E00E9453008FE99FE048
:1001C0000197F1F700C0000082E00E9453008FE920
:1001D0009FE00197F1F700C0000060E088E20E9414
:1001E000740060E08CE00E94740060E086E00E9491
:1001F00074000C948C0061E00C947400CF93DF9336
:10020000EC018991811103C0DF91CF9108950E9483
:10021000FB00F7CF569A579A209A219A399A5E9AFC
:100220005F9A289A299A419A5298539854985598C7
:1002300038985A9A5B9A5C9A5D9A409A08952F92E0
:100240003F925F926F927F928F929F92AF92BF92F6
:10025000CF92DF92EF92FF920F931F93CF93DF9392
:10026000CDB7DEB76E970FB6F894DEBF0FBECDBF29
:1002700085E0E9E1F1E0DE015A9601900D928A9560
:10028000E1F78AE0EEE1F1E0DE011B9601900D92CC
:100290008A95E1F785E0E2E3F1E0DE015596019011
:1002A0000D928A95E1F72AE0E8E2F1E0CE010196AD
:1002B000DC0101900D922A95E1F71E012BE0220E40
:1002C000311C8E01065E1F4F40E050E0782E692EF3
:1002D00088248394912CD101ED91FD911D01908191
:1002E000D8018D918D01540101C0AA0C8A95EAF7BD
:1002F0008A2D809589238083672D762D7E01B5E137
:10030000EB0EF11C80E090E0DB01CD90DD90BD01B3
:10031000D6012C91D7015D907D0130E0052C02C003
:10032000359527950A94E2F720FD3EC0BFEF20E700
:1003300032E0B15020403040E1F700C0000061E001
:1003400070E002C0660F771F5A94E2F7D6012C9135
:1003500030E026233723232BC9F320812A29208349
:1003600065E0649F9001659F300D112420503F4F40
:10037000820F931FFC0180816E960FB6F894DEBF4A
:100380000FBECDBFDF91CF911F910F91FF90EF90E6
:10039000DF90CF90BF90AF909F908F907F906F90A5
:1003A0005F903F902F90089501968530910509F058
:1003B000ABCF80818A2980834F5F5F4F45305105E5
:1003C00009F089CF80E0D8CFE0918701EF3168F460
:1003D00091E09E0F90938701F0E0E857FE4F8083F5
:1003E000E92FF0E0E857FE4F10820895CF93DF9396
:1003F000DC019D9180918701E82FF0E0E857FE4FE6
:10040000911511F08F3120F01082DF91CF91089576
:100410008F5F80938701ED018A918083EACF0C94EE
:10042000E90D2F923F924F925F926F927F928F923F
:100430009F92AF92BF92CF92DF92EF92FF920F9373
:100440001F93CF93DF93CDB7DEB7C25DD1090FB64F
:10045000F894DEBF0FBECDBFBC018E010F5F1F4FF2
:10046000C8010E94F80D65E670E0C8010E94ED0D1C
:1004700009AB1AAB892B29F0F80192E38191811124
:100480003AC067E371E089A99AA90E94FF0D00971D
:10049000B9F1BC016B5F7F4FCE0181960E94F80DD0
:1004A000CE0181960E94E90D6BAB7CAB8DAB9EAB10
:1004B0006BA97CA98DA99EA90E945C0920E030E06F
:1004C00044E353E46FAB78AF89AF9AAF6FA978ADCF
:1004D00089AD9AAD0E94CE0B2BED3FE049E450E48C
:1004E0006BAF7CAF8DAF9EAF6BAD7CAD8DAD9EAD78
:1004F0000E94B009D2C4853609F6DF019E93BECFB3
:100500006DE371E089A99AA90E94FF0DC153DF4FE5
:100510008883CF5CD040C053DF4F9883C05DD0400C
:10052000C153DF4F88819981CF5CD040009709F497
:100530004CC0BC016B5F7F4FCE0181960E94F80DCD
:10054000CE0181960E94E90D6FAF21967FAF219772
:1005500022968FAF229723969FAF239723966CAD59
:100560007DAD8EAD9FAD23970E94DE0820E030E088
:1005700044E353E424966FAF249725967FAF2597E5
:1005800026968FAF269727969FAF279727966CAD15
:100590007DAD8EAD9FAD27970E94CE0B2BED3FE03A
:1005A00049E450E428966FAF289729967FAF2997A2
:1005B0002A968FAF2A972B969FAF2B972B966CADD1
:1005C0007DAD8EAD9FAD2B9793CF63E471E089A98C
:1005D0009AA90E94FF0DCF52DF4F8883C15DD040A2
:1005E000CE52DF4F9883C25DD040CF52DF4FE881BB
:1005F000F981C15DD040309709F44EC0BF016B5FF7
:100600007F4FCE0181960E94F80DCE0181960E9407
:10061000E90D2C966FAF2C972D967FAF2D972E96C8
:100620008FAF2E972F969FAF2F972F966CAD7DADE6
:100630008EAD9FAD2F970E94770920E030E044E314
:1006400053E460966FAF609761967FAF6197629653
:100650008FAF629763969FAF639763966CAD7DADE6
:100660008EAD9FAD63970E94CE0B2BED3FE049E42A
:1006700050E464966FAF649765967FAF6597669612
:100680008FAF669767969FAF679767966CAD7DADA6
:100690008EAD9FAD67972CCF68E371E089A99AA9C9
:1006A0000E94FF0D009709F468C0BC016C5F7F4F8A
:1006B000CE0181960E94F80DCE0181960E94E90D2F
:1006C0002BED3FE049E450E468966FAF6897699678
:1006D0007FAF69976A968FAF6A976B969FAF6B975C
:1006E0006B966CAD7DAD8EAD9FAD6B970E94CE0BC2
:1006F00020E030E044E353E46C966FAF6C976D9666
:100700007FAF6D976E968FAF6E976F969FAF6F9717
:100710006F966CAD7DAD8EAD9FAD6F970E94B009A9
:10072000A0966FAFA097A1967FAFA197A2968FAF2B
:10073000A297A3969FAFA397A3966CAD7DAD8EAD08
:100740009FADA397CE52DF4F0FB6F894DEBF0FBE1A
:10075000CDBFDF91CF911F910F91FF90EF90DF9070
:10076000CF90BF90AF909F908F907F906F905F9051
:100770004F903F902F900C948B0C6EE371E089A901
:100780009AA90E94FF0D009709F468C0BC016C5F34
:100790007F4FCE0181960E94F80DCE0181960E9476
:1007A000E90D2BED3FE049E450E4A4966FAFA49728
:1007B000A5967FAFA597A6968FAFA697A7969FAF52
:1007C000A797A7966CAD7DAD8EAD9FADA7970E9404
:1007D000CE0B20E030E044E353E4A8966FAFA89737
:1007E000A9967FAFA997AA968FAFAA97AB969FAF0E
:1007F000AB97AB966CAD7DAD8EAD9FADAB970E94C8
:10080000B009AC966FAFAC97AD967FAFAD97AE9693
:100810008FAFAE97AF969FAFAF97AF966CAD7DADF4
:100820008EAD9FADAF97CE52DF4F0FB6F894DEBFBF
:100830000FBECDBFDF91CF911F910F91FF90EF9031
:10084000DF90CF90BF90AF909F908F907F906F90F0
:100850005F904F903F902F900C94AB0964E471E04F
:1008600089A99AA90E94FF0D009709F468C0BC01EC
:100870006C5F7F4FCE0181960E94F80DCE0181966C
:100880000E94E90D2BED3FE049E450E4E0966FAFA4
:10089000E097E1967FAFE197E2968FAFE297E3961C
:1008A0009FAFE397E3966CAD7DAD8EAD9FADE397C3
:1008B0000E94CE0B20E030E044E353E4E4966FAFB7
:1008C000E497E5967FAFE597E6968FAFE697E796D4
:1008D0009FAFE797E7966CAD7DAD8EAD9FADE79787
:1008E0000E94B009E8966FAFE897E9967FAFE99765
:1008F000EA968FAFEA97EB969FAFEB97EB966CADCE
:100900007DAD8EAD9FADEB97CE52DF4F0FB6F89415
:10091000DEBF0FBECDBFDF91CF911F910F91FF9032
:10092000EF90DF90CF90BF90AF909F908F907F908F
:100930006F905F904F903F902F900C94DD0C69E486
:1009400071E089A99AA90E94FF0D0097C1F1BC012D
:100950006B5F7F4FCE0181960E94F80DCE0181968C
:100960000E94E90DEC966FAFEC97ED967FAFED9797
:10097000EE968FAFEE97EF969FAFEF97EF966CAD39
:100980007DAD8EAD9FADEF97CE52DF4F0FB6F89491
:10099000DEBF0FBECDBFDF91CF911F910F91FF90B2
:1009A000EF90DF90CF90BF90AF909F908F907F900F
:1009B0006F905F904F903F902F900C94990C6FE444
:1009C00071E089A99AA90E94FF0D009709F442C01D
:1009D000BC016D5F7F4FCE0181960E94F80DCE0164
:1009E00081960E94E90DC158DF4F6883CF57D040F0
:1009F000C058DF4F7883C058D040CF57DF4F88832F
:100A0000C158D040CE57DF4F9883C258D040C1580C
:100A1000DF4F688179818A819B81CF57D040CE5248
:100A2000DF4F0FB6F894DEBF0FBECDBFDF91CF9181
:100A30001F910F91FF90EF90DF90CF90BF90AF90FC
:100A40009F908F907F906F905F904F903F902F90EE
:100A50000C94860B63E571E089A99AA90E94FF0DA9
:100A6000009709F057C049A85AA880E2782E812C37
:100A7000912CA12CB12CE12CF12C00E010E0F20122
:100A800061912F01611188C0FDE27F1609F408C24F
:100A90008EE278160CF06DC19AE2791609F43BC229
:100AA000EBE27E1609F4BFC1C553DF4FE882CB5C91
:100AB000D040C453DF4FF882CC5CD040C353DF4FEB
:100AC0000883CD5CD040C253DF4F1883CE5CD0404A
:100AD000C553DF4F688179818A819B81CB5CD0408F
:100AE000CE52DF4F0FB6F894DEBF0FBECDBFDF9101
:100AF000CF911F910F91FF90EF90DF90CF90BF901B
:100B0000AF909F908F907F906F905F904F903F90AD
:100B10002F900895BC016C5F7F4FCE0181960E949B
:100B2000F80DCE0181960E94E90DCD57DF4F688305
:100B3000C358D040CC57DF4F7883C458D040CB57F0
:100B4000DF4F8883C558D040CA57DF4F9883C658B7
:100B5000D040CD57DF4F688179818A819B81C3580E
:100B6000D040CE52DF4F0FB6F894DEBF0FBECDBFE0
:100B7000DF91CF911F910F91FF90EF90DF90CF9079
:100B8000BF90AF909F908F907F906F905F904F90AD
:100B90003F902F900C94760B80ED860F8A3018F0E2
:100BA0006E3209F0D9C0C62E660FDD08F0E220E0F3
:100BB00030E040E251E47F1268C0C957DF4FE8825D
:100BC000C758D040C857DF4FF882C858D040C757E1
:100BD000DF4F0883C958D040C657DF4F1883CA5823
:100BE000D040C957DF4F688179818A819B81C7587E
:100BF000D0400E94CE0B7B018C01B601605371097D
:100C0000072E000C880B990B0E94240AC557DF4F52
:100C1000E882CB58D040C457DF4FF882CC58D04040
:100C2000C357DF4F0883CD58D040C257DF4F1883DA
:100C3000CE58D040C557DF4F288139814A815B812A
:100C4000CB58D040C157DF4F6883CF58D040C057F2
:100C5000DF4F7883C059D040CF56DF4F8883C159CA
:100C6000D040CE56DF4F9883C259D040C157DF4F96
:100C7000688179818A819B81CF58D0400E94F00899
:100C80007B018C0160E2762EFACECD56DF4F888252
:100C9000C359D040CC56DF4F9882C459D040CB5670
:100CA000DF4FA882C559D040CA56DF4FB882C65917
:100CB000D040CD56DF4F688179818A819B81C359AD
:100CC000D0400E94CE0B4B015C01B601605371090C
:100CD000072E000C880B990B0E94240AC956DF4F7F
:100CE0008882C759D040C856DF4F9882C859D04033
:100CF000C756DF4FA882C959D040C656DF4FB882C9
:100D0000CA59D040C956DF4F288139814A815B8159
:100D1000C759D040C556DF4F6883CB59D040C45621
:100D2000DF4F7883CC59D040C356DF4F8883CD59ED
:100D3000D040C256DF4F9883CE59D040C556DF4FC2
:100D4000688179818A819B81CB59D0400E94F008CB
:100D50004B015C01672D97CF86ED860F823008F43A
:100D600092CF862F8D7F8D3209F48DCF6E3591F71E
:100D70008ACFFFE27F1609F409C18EE5781294CE7E
:100D8000CD53DF4F8882C35CD040CC53DF4F988275
:100D9000C45CD040CB53DF4FA882C55CD040CA535F
:100DA000DF4FB882C65CD040CD53DF4F28813981F8
:100DB0004A815B81C35CD040C953DF4FE882C75C86
:100DC000D040C853DF4FF882C85CD040C753DF4FD4
:100DD0000883C95CD040C653DF4F1883CA5CD0403B
:100DE000C953DF4F688179818A819B81C75CD0407C
:100DF000CE52DF4F0FB6F894DEBF0FBECDBFDF91EE
:100E0000CF911F910F91FF90EF90DF90CF90BF9007
:100E1000AF909F908F907F906F905F904F903F909A
:100E20002F900C943B0CC156DF4F8882CF59D04095
:100E3000C056DF4F9882C05AD040CF55DF4FA882AE
:100E4000C15AD040CE55DF4FB882C25AD040C156A9
:100E5000DF4F288139814A815B81CF59D040CD5500
:100E6000DF4FE882C35AD040CC55DF4FF882C45AD6
:100E7000D040CB55DF4F0883C55AD040CA55DF4F0D
:100E80001883C65AD040CD55DF4F688179818A8159
:100E90009B81C35AD0400E94F0087B018C0104CE94
:100EA000C955DF4F8882C75AD040C855DF4F988256
:100EB000C85AD040C755DF4FA882C95AD040C6553E
:100EC000DF4FB882CA5AD040C955DF4F28813981D7
:100ED0004A815B81C75AD040C555DF4FE882CB5A63
:100EE000D040C455DF4FF882CC5AD040C355DF4FB5
:100EF0000883CD5AD040C255DF4F1883CE5AD04018
:100F0000C555DF4F688179818A819B81CB5AD0405A
:100F10000E94EF08C2CFC155DF4F8882CF5AD04020
:100F2000C055DF4F9882C05BD040CF54DF4FA882BE
:100F3000C15BD040CE54DF4FB882C25BD040C155B8
:100F4000DF4F288139814A815B81CF5AD040CD540F
:100F5000DF4FE882C35BD040CC54DF4FF882C45BE4
:100F6000D040CB54DF4F0883C55BD040CA54DF4F1D
:100F70001883C65BD040CD54DF4F688179818A8168
:100F80009B81C35BD0400E94CE0B87CF20E030E036
:100F9000A901C954DF4F8882C75BD040C854DF4FD6
:100FA0009882C85BD040C754DF4FA882C95BD0404D
:100FB000C654DF4FB882CA5BD040C954DF4F688146
:100FC00079818A819B81C75BD0400E94A6098115E7
:100FD000C9F1C554DF4F8882CB5BD040C454DF4F8A
:100FE0009882CC5BD040C354DF4FA882CD5BD04009
:100FF000C254DF4FB882CE5BD040C554DF4F28814A
:1010000039814A815B81CB5BD040C154DF4FE8829C
:10101000CF5BD040C054DF4FF882C05CD040CF538C
:10102000DF4F0883C15CD040CE53DF4F1883C25CD2
:10103000D040C154DF4F688179818A819B81CF5B29
:10104000D04056CAE12CF12C00EC1FE72DCDCDB7D6
:10105000DEB764970FB6F894DEBF0FBECDBF0E9417
:10106000B8000E940A0181E691E00E94FE0088E536
:10107000282E81E0382E0E941F018115E1F3833470
:1010800059F40E948C00109287011092880181E728
:1010900091E00E94FE00EFCF8335D9F481E090917A
:1010A0008601911180E0809386010E948C0061E0AE
:1010B00080E00E94A2008AE791E00E94FE008091F9
:1010C0008601811511F0C101E4CF2CE531E0C901A1
:1010D000E0CF8D33B1F588E891E00E9411026B01F9
:1010E0007C010E948C0046015701A5019401C98A28
:1010F000DA8AEB8AFC8A69897A898B899C890E94C1
:10110000020D811519F082E891E0C3CF88E891E0E3
:101110000E94FE008DE30E94FB008E010F5F1F4FB7
:1011200022E044E026013701C301B2010E94C40D50
:10113000C8010E94FE0010928701C8010E94F601BA
:101140009ACF90918601911501F1833749F487E395
:1011500091E00E94F6010E948C0088E891E099CF0E
:10116000833619F48DE391E0F4CF843719F483E4E6
:1011700091E0EFCF8C3621F485E60E94E401EBCFBD
:101180008736D9F783E591E0E4CF833719F488E314
:1011900091E0DFCF833619F48EE391E0DACF843724
:1011A00019F484E491E0D5CF823719F489E491E011
:1011B000D0CF8C3629F78FE491E0CBCF9F939F77E8
:1011C0000E945F0A0F90002042F49058A2EA2AED94
:1011D0003FE049E450E40E9407090C94200B50586A
:1011E000BB27AA270E9407090C94200B0E94E70A3C
:1011F00038F00E94EE0A20F039F49F3F19F426F4EB
:101200000C94A90A0EF4E095E7FB0C94A30AE92FCD
:101210000E94450B58F3BA176207730784079507B6
:1012200020F079F4A6F50C94670B0EF4E0950B2EE4
:10123000BA2FA02D0B01B90190010C01CA01A00128
:101240001124FF27591B99F0593F50F4503E68F183
:101250001A16F040A22F232F342F4427585FF3CFC4
:10126000469537952795A795F0405395C9F77EF495
:101270001F16BA0B620B730B840BBAF09150A1F0DE
:10128000FF0FBB1F661F771F881FC2F70EC0BA0F64
:10129000621F731F841F48F4879577956795B795EC
:1012A000F7959E3F08F0B0CF9395880F08F09927E7
:1012B000EE0F9795879508959F939F77EEE3893773
:1012C0009E0728F4EEE1F4E20E94D30A0CC00E94CB
:1012D0005F0A9058A2EA2AED3FE049EC5FE30E94E2
:1012E00007090E94200B0F9007FC90580895DF9388
:1012F000DD27B92FBF7740E85FE3161617064807CA
:101300005B0718F4D92F0E946E0B9F938F937F93E6
:101310006F930E94D90CE2E3F4E20E94AC0A0E94AF
:10132000200B2F913F914F915F910E94E10BDD23A4
:1013300051F09058A2EA2AED3FE049EC5FE3D07803
:101340005D270E940709DF910C94200B0E947F0A01
:1013500008F481E008950E94F70AE3950C94310B9C
:101360000E94C4090C94200B0E94EE0A58F00E94BF
:10137000E70A40F029F45F3F29F00C94A30A5111C9
:101380000C94680B0C94A90A0E94450B68F39923EE
:10139000B1F3552391F3951B550BBB27AA27621771
:1013A0007307840738F09F5F5F4F220F331F441F7E
:1013B000AA1FA9F335D00E2E3AF0E0E832D09150B2
:1013C0005040E695001CCAF72BD0FE2F29D0660F9F
:1013D000771F881FBB1F261737074807AB07B0E8E2
:1013E00009F0BB0B802DBF01FF2793585F4F3AF0E8
:1013F0009E3F510578F00C94A30A0C94680B5F3F54
:10140000E4F3983ED4F3869577956795B795F7956D
:101410009F5FC9F7880F911D9695879597F9089555
:10142000E1E0660F771F881FBB1F621773078407F1
:10143000BA0720F0621B730B840BBA0BEE1F88F700
:10144000E0950895E89409C097FB3EF49095809547
:10145000709561957F4F8F4F9F4F9923A9F0F92F7A
:1014600096E9BB279395F695879577956795B795F8
:10147000F111F8CFFAF4BB0F11F460FF1BC06F5FDE
:101480007F4F8F4F9F4F16C0882311F096E911C0F0
:10149000772321F09EE8872F762F05C0662371F011
:1014A00096E8862F70E060E02AF09A95660F771F25
:1014B000881FDAF7880F9695879597F90895DF9337
:1014C000CF931F930F938B01EC01EFE5F4E20E94A1
:1014D000AC0A0E94200B9801AE018B01EC0160E088
:1014E00070E080E89FE30E94EF080E94990C980149
:1014F000AE010F911F91CF91DF910C94E10B990FE9
:101500000008550FAA0BE0E8FEEF16161706E807CD
:10151000F907C0F012161306E407F50798F0621BEE
:10152000730B840B950B39F40A2661F0232B242BC3
:10153000252B21F408950A2609F4A140A6958FEFE2
:10154000811D811D089597F99F6780E870E060E034
:1015500008959FEF80EC0895DF93CF931F930F932F
:10156000FF92EF92DF927B018C01689406C0DA2E25
:10157000EF010E94E10BFE01E894A59125913591C0
:1015800045915591A6F3EF010E940709FE019701CD
:10159000A801DA9469F7DF90EF90FF900F911F9107
:1015A000CF91DF9108959F938F937F936F93FF93D4
:1015B000EF939B01AC010E94CE0BEF91FF910E9433
:1015C000AC0A2F913F914F915F910C94CE0B002468
:1015D0000A941616170618060906089500240A9498
:1015E000121613061406050608950C94A90A0E9403
:1015F0004D0BD8F3E894E0E0BB279F57F0F02AEDBD
:101600003FE049EC06C0EE0FBB0F661F771F881F37
:1016100028F0B23A62077307840728F0B25A620BC7
:10162000730B840BE3959A9572F7803830F49A9592
:10163000BB0F661F771F881FD2F790480C94430D8D
:10164000092E0394000C11F4882352F0BB0F40F4D0
:10165000BF2B11F460FF04C06F5F7F4F8F4F9F4F10
:101660000895EF93E0FF07C0A2EA2AED3FE049ECBE
:101670005FEB0E9407090E94200B0F90039401FC6E
:101680009058E7E8F4E20C94D30A57FD9058440FC1
:10169000551F59F05F3F71F04795880F97FB991FD1
:1016A00061F09F3F79F0879508951216130614068E
:1016B000551FF2CF4695F1DF08C01616170618061B
:1016C000991FF1CF86957105610508940895E894F6
:1016D000BB2766277727CB0197F908959B01AC01BB
:1016E00060E070E080E89FE30C94B0090E94860BF4
:1016F00029ED3BE54EED5EE30C94CE0B16F00C9419
:10170000410D0C94A90A68940C94A30A0E944D0BF5
:10171000A8F39923C1F3AEF3DF93CF931F930F93F5
:10172000FF92C92FDD2788232AF02197660F771FA4
:10173000881FDAF720E030E040E85FEB9FE388396C
:1017400020F0803E38F021968F770E94F008E5EA7D
:10175000F4E204C00E94F008E2EDF4E20E94AC0A58
:101760008B01BE01EC01FB2E6F5771097595771F38
:10177000880B990B0E94240A28E132E741E35FE3DA
:101780000E94E10BAF2D9801AE01FF900F911F91C8
:10179000CF91DF910E9407090C94200B0E94E10B6E
:1017A0000C94200B0E94E70A38F00E94EE0A20F009
:1017B000952311F00C94A30A0C94A90A11240C94FB
:1017C000680B0E94450B70F3959FC1F3950F50E095
:1017D000551F629FF001729FBB27F00DB11D639FE3
:1017E000AA27F00DB11DAA1F649F6627B00DA11D89
:1017F000661F829F2227B00DA11D621F739FB00D2F
:10180000A11D621F839FA00D611D221F749F33279E
:10181000A00D611D231F849F600D211D822F762F37
:101820006A2F11249F5750409AF0F1F088234AF014
:10183000EE0FFF1FBB1F661F771F881F9150504080
:10184000A9F79E3F510580F00C94A30A0C94680BF5
:101850005F3FE4F3983ED4F3869577956795B79507
:10186000F795E7959F5FC1F7FE2B880F911D969521
:10187000879597F90895FA01EE0FFF1F309621051D
:101880003105A1F16115710561F48038BFE39B0753
:1018900049F168949038810561F08038BFEF9B076B
:1018A00041F099234AF5FF3FE1053105210519F182
:1018B000E8940894E795D901AA2329F4AB2FBE2F09
:1018C000F85FD0F310C0FF5F70F4A695E0F7F7392A
:1018D00050F019F0FF3A38F49F779F930DD00F9096
:1018E00007FC9058089546F00C94A90A60E070E057
:1018F00080E89FE308954FE79F775F934F933F936F
:101900002F930E94860B2F913F914F915F910E94E0
:10191000CE0B0C940F0D9F930E94F70A0F9007FCBB
:10192000EE5F0C94310B19F416F40C94A90A0C9484
:10193000410D0E944D0BB8F39923C9F3B6F39F579D
:10194000550B87FF0E944F0D0024A0E640EA90014E
:1019500080585695979528F4805C660F771F881FEE
:1019600020F026173707480730F4621B730B840BEF
:10197000202931294A2BA695179407942025312533
:101980004A2758F7660F771F881F20F0261737075A
:10199000480730F4620B730B840B200D311D411D81
:1019A000A09581F7B901842F9158880F9695879556
:1019B00008959B01AC010C94CE0BDF93D92F0E94AC
:1019C000F70AE695D7952AED3FE049E45FE3B33A9D
:1019D0006207730784079507D7953AF0A2EA49ECA6
:1019E00090680E9407090E94200BEFEFF4E20E942A
:1019F000D30ADD0F13F00E946E0BDD0F0BF490582D
:101A0000DF9108950E947F0A880B990B089529F4AD
:101A100016F00C94A30A0C94670B0C94A90A0E946C
:101A20004D0BA8F39638A0F707F80F92E8942BE334
:101A30003AEA48EB5FE70E94E40B0F920F920F9295
:101A40004DB75EB70F920E94900DE2E2F5E20E9460
:101A5000AC0A4F915F91EF91FF91E595EE1FFF1F4B
:101A600049F0FE57E0684427EE0F441FFA95E1F76E
:101A70004195550B0E945A0D0F9007FE0C946E0B6A
:101A800008959F3F31F0915020F4879577956795A1
:101A9000B795880F911D9695879597F90895915060
:101AA0005040660F771F881FD2F708950C94A30A41
:101AB0000C94410D0E944D0BD8F39923C9F3940F58
:101AC000511DA3F39150504094F059F0882332F007
:101AD000660F771F881F91505040C1F79E3F5105F8
:101AE0002CF7880F911D9695879597F908955F3F7C
:101AF000ACF0983E9CF0BB27869577956795B79597
:101B000008F4B1609395C1F7BB0F58F711F460FF6B
:101B1000E8CF6F5F7F4F8F4F9F4FE3CF0C94680BE1
:101B2000FA01DC01AA0FBB1F9B01AC01BF5728F4CF
:101B3000222733274427507820C0B75190F4AB2F89
:101B40000024469537952795011CA395D2F30020D4
:101B500071F0220F331F441FB395DAF30ED00C94AB
:101B6000EF0861307105A0E88A07B94630F49B019F
:101B7000AC016627772788279078309621F020835C
:101B800031834283538308958F929F92AF92BF9285
:101B9000EF920F931F93CF93322FC02F54E147FF43
:101BA00054E0242F27FD2195E52E032F4C2F512F94
:101BB0004B015C01C501B4010E94190E8C2F912FBD
:101BC000CF911F910F91EF90BF90AF909F908F900A
:101BD0000895662777270C947B0FFC018191861767
:101BE00021F08823D9F7992708953197CF010895D7
:101BF000FB01DC0101900D920020E1F70895FB014B
:101C000051915523A9F0BF01DC014D9145174111B8
:101C1000E1F759F4CD010190002049F04D914015B4
:101C20004111C9F3FB014111EFCF81E090E0019731
:101C30000895A0E1B0E0EFE1FEE00C94C7116A0165
:101C4000122FF02E202F3CE3031708F02BE32F5F19
:101C5000288B022F27E0AE014F5F5F4F6C877D8797
:101C60008E879F876C857D858E859F850E94C0109D
:101C70005C019981892F8970813039F0E0FA8827D9
:101C800085F9E1FE03C08BE201C08DE2292F2870A7
:101C9000BE2DB07193FF44C094E0811101C093E068
:101CA0009117C8F4191BB11519F1811519F0F60136
:101CB00081936F01C601039631E62EE6E2FE02C073
:101CC00031E42EE4F601208331832283212F382F43
:101CD000492F50E219C010E0E6CFF90141932F01DE
:101CE00091509F019111F9CFC10ED11C10E0DDCFB1
:101CF000912F960140E2F6CF632E742EF30151939B
:101D00003F0121503E2F472D2111F6CF810F911D0C
:101D1000FC0110828EEF9FEF6096E2E10C94E311DC
:101D2000A92FA47092FF3EC094E0811101C093E0FE
:101D3000911710F4212F291BB11529F1811519F0E4
:101D4000F60181936F01C601039659E64EE636E629
:101D5000E2FE03C059E44EE436E4F60150834183C9
:101D60003283322FAC0160E218C0832E942EF4012E
:101D700051934F0191503E2F492D9111F6CFC20E34
:101D8000D11C20E0DBCF922F3C2D4D2D50E2F5CF22
:101D9000FA0161931F013150AF013111F9CF820F68
:101DA000911DB6CF9501B7FE02C020E030E061E0A2
:101DB00070E0811102C060E070E0A9014F5F5F4FE9
:101DC000460F571F6F2D70E0FB013196F11002C0D6
:101DD000E0E0F0E04E0F5F1F4117510514F4A12F12
:101DE000A41B4E2D4871411155C0F6014A2F50E2F7
:101DF00041114DC0CA0ED11CA0E0811531F0F60191
:101E00008193A42F6F01B11108C0F6018A2F40E31E
:101E1000811145C0CA0ED11CA0E088898A0D5A8163
:101E2000B92FB07194FF03C0513309F481501816D3
:101E3000CCF5893008F088E0FE013196EA0DFB1DF3
:101E40004F01821A930A7501E81AF108719561959C
:101E500071091EE2A216B3063CF1E216F30624F560
:101E6000F401418121503109C6010196FFEF8F1A1B
:101E70009F0A26173707D4F0F60140832F3F320719
:101E800021F4C6010296F60111836C01E3CF519350
:101E90004150AECF811509F4B6CF4A2FB0CF419350
:101EA0008150B6CF81E0C8CF40E3DCCFA216B306A5
:101EB00031F4563398F4553311F4B11579F0F60135
:101EC00040832A2F382F492F50E2211109C08A0F51
:101ED000911DFC01108280E090E01ECF41E3EFCF26
:101EE0003A874B87EA85FB855193FB87EA87215028
:101EF0003A854B85EACFA0E0B0E0E1E8FFE00C9442
:101F0000C911EC016B016115710519F0FB01918399
:101F100080837E012196F7010081802F90E00E944E
:101F200098115C01892BA9F70D3291F5C701029632
:101F300008817E01EC0111E043E050E062E575E2CA
:101F4000C7010E94A111892B61F522967E0145E00F
:101F500050E06DE475E2CE010E94A111892B19F4C5
:101F600025E0E20EF11CC114D10419F0F601F18252
:101F7000E082412C512CD0E86D2E77247A941111F7
:101F800026C0412C512C80E8682E8FE7782E1FC088
:101F90000B3229F4C701029608817E01EC0110E0A2
:101FA000CBCF43E050E06AE475E2C7010E94A11183
:101FB000892BA1F4C114D10421F02296F601D1831A
:101FC000C083412C512CC0EC6C2ECFE77C2EC3017A
:101FD000B201CDB7DEB7E0E10C94E511E12CF12CB4
:101FE00060E070E0CB0100530A3058F5E12FE26069
:101FF000212F287012FF08C0211103C0FFEFEF1A34
:10200000FF0A09911E2FEFCF211519F021E0E21AE6
:10201000F108A5E0B0E09B01AC010E94BC11660F85
:10202000771F881F991F600F711D811D911D6839D1
:1020300049E97407840749E1940718F3E12FE66042
:10204000E0CF0E3F29F413FD3BC0E12FE860D9CF6C
:102050000F7D0531A9F5E881ED3241F410619E0153
:102060002E5F3F4FE98142E050E007C09E01EB3216
:10207000B9F32F5F3F4F41E050E0E053F5E0E90155
:10208000C41BD50BEA30E0F440E8A4164CE0B406DB
:1020900054F4FA9DA001FB9D500D1124440F551FCF
:1020A0005A01AE0EB11CE901E991E053EA3008F49F
:1020B00057C014FF03C0B194A194B108EA0CFB1CF3
:1020C00011FF07C0C114D10421F02197F601D1837B
:1020D000C0830E94220A2B013C011370133021F4AB
:1020E00077FA709477F8709420E030E0A901C3018A
:1020F000B2010E94A609811509F469CFCBE7D6E2A7
:10210000F7FE05C0F194E194F108C3E6D6E253016D
:1021100042016E01F8E1CF1AD10800E210E024017B
:102120003501E016F106F4F4249715950795CC15C2
:10213000DD05A9F78A2D880F8B2D881F8F3F49F069
:1021400020E030E0A901C501B4010E94A609811177
:102150003ECF82E290E09093A9018093A80137CF0F
:102160009E0192CFFE016591759185919591A50192
:1021700094010E94CE0B4B015C01E01AF10ACFCF13
:10218000283008F027E03327DA01990F311D87FD49
:10219000916000966105710539F432602E5F3D93C0
:1021A00030E32A95E1F708959F3F30F080387105BC
:1021B000610509F03C5F3C5F3D93913008F0806819
:1021C000911DDF93CF931F930F93FF92EF92192FDF
:1021D000987F9695E92F96959695E90FFF27E155FB
:1021E000FA4D99273327EE24FF24A701E701059034
:1021F0000894079428F4360FE71EF81E491F511D56
:10220000660F771F881F991F0694A1F70590079402
:1022100028F4E70EF81E491F561FC11D770F881FAF
:10222000991F661F0694A1F70590079428F4F80EED
:10223000491F561FC71FD11D880F991F661F771F83
:102240000694A1F70590079420F4490F561FC71F65
:10225000D81F990F661F771F881F0694A9F78491CE
:102260001095177041F0D695C79557954795F794F7
:10227000E7941A95C1F7E5E5F5E268941590159194
:1022800035916591959105907FE27395E118F10A7A
:10229000430B560BC90BD009C0F7E10CF11E431FCD
:1022A000561FC91FD01D7EF4703311F48A95E6CFF6
:1022B000E894015030F0080F0AF40027021708F4E0
:1022C000202F2395022F7A3328F079E37D932A95E6
:1022D000E9F710C07D932A9589F60694979567953E
:1022E000379517951794E118F10A430B560BC90B54
:1022F000D00998F023957E9173957A3308F070E3B6
:102300007C932013B8F77E9170617D9330F08395B4
:1023100071E37D9370E32A95E1F71124EF90FF902C
:102320000F911F91CF91DF91992787FD9095089587
:1023300091110C94B911803219F089508550C8F769
:102340000895FB01DC014150504088F08D918134AB
:102350001CF08B350CF4805E659161341CF06B359C
:102360000CF4605E861B611171F3990B0895881B54
:10237000FCCF9927882708950E94FE11A59F900DF4
:10238000B49F900DA49F800D911D112408952F924C
:102390003F924F925F926F927F928F929F92AF92F5
:1023A000BF92CF92DF92EF92FF920F931F93CF9342
:1023B000DF93CDB7DEB7CA1BDB0B0FB6F894DEBFD9
:1023C0000FBECDBF09942A88398848885F846E84FF
:1023D0007D848C849B84AA84B984C884DF80EE8049
:1023E000FD800C811B81AA81B981CE0FD11D0FB652
:1023F000F894DEBF0FBECDBFED010895A29FB001DE
:10240000B39FC001A39F700D811D1124911DB29F28
:10241000700D811D1124911D0895F894FFCF036E56
:10242000DB363D9A9999993DABAAAA2A3E00000055
:10243000803F084AD73B3BCE016E84BCBFFDC12F15
:102440003D6C74319ABD56833DDA3D00C77F11BEA5
:10245000D9E4BB4C3E916BAAAABE000000803F07A6
:102460002C7AA5BA6CC590DA3B9365FC8BBC53F80B
:1024700010FD3C5692834DBD879D3AB63DCBC9BFFA
:102480005BBE73DA0FC93F05A84CCDB2D44EB93844
:1024900036A9020C50B9918688083CA6AAAA2ABE81
:1024A000000000803F08000000BE922449123EABAD
:1024B000AAAA2ABECDCCCC4C3E00000080BEABAA5E
:1024C000AAAA3E00000000BF000000803F000000FC
:1024D0000000084178D3BB4387D1133D190E3CC39C
:1024E000BD4282AD2B3E68EC8276BED98FE1A93E1B
:1024F0004C80EFFFBE01C4FF7F3F000000000006DC
:1025000064EC1B3C04BC163E3BE5B93CC93C37C2FD
:102510009E5A3D660498083EEA69AAAA3E00000059
:10252000803F07634236B79BD8A71A39685618AE62
:10253000BAAB558C1D3CB7CC5763BD6DEDFD753EF8
:10254000F6177231BF000000803F4E414E494E49A0
:102550005459494E4600407A10F35A00A0724E1862
:10256000090010A5D4E80000E87648170000E40B45
:1025700054020000CA9A3B000000E1F5050000800B
:10258000969800000040420F000000A08601000065
:1025900000102700000000E80300000000640000B5
:1025A0000000000A00000000000100000000002CF4
:1025B00076D888DC674F0823DFC1DFAE59E1B1B7B9
:1025C00096E5E3E453C63AE651997696E8E6C28486
:1025D00026EB898C9B62ED407C6FFCEFBC9C9F409E
:1025E000F2BAA56FA5F490055A2AF75C936B6CF9C3
:1025F000676DC11BFCE0E40D47FEF520E6B500D099
:10260000ED902E0300943577050080841E080000AD
:10261000204E0A000000C80C333333330F986E127B
:10262000831141EF8D2114893BE65516CFFEE6DB81
:1026300018D1844B381BF77C1D901DA4BBE42420CB
:102640003284725E228100C9F124ECA1E53D27CDE0
:10265000CCCC3D0AD7233C17B7D13877CC2B329559
:1026600095E6241FB14F0A000020410000C8420037
:10267000401C4620BCBE4CCA1B0E5AAEC59D740001
:10268000313233343536373839302B2D2A2F3D5EF1
:10269000726C67537363742E4306070001012B00AD
:1026A0002B002500250028002900290029002900E9
:1026B000260002030405006173696E280061636FE0
:1026C0007328006174616E28007371727428006C45
:1026D0006E28006C6F6728004F6E20004F666620E2
:1026E000005363692043616C632052656164792102
:1026F00000436C6561726564210053686966743AD1
:0627000020004E614E00B6
:00000001FF
