:100000000C947F000C949C000C949C000C949C001D
:100010000C949C000C949C000C949C000C949C00F0
:100020000C949C000C949C000C949C000C949C00E0
:100030000C949C000C949C000C949C000C949C00D0
:100040000C949C000C949C000C949C000C949C00C0
:100050000C949C000C949C000C949C000C949C00B0
:100060000C949C000C949C0008000000BE92244953
:10007000123EABAAAA2ABECDCCCC4C3E00000080DA
:10008000BEABAAAAAA3E00000000BF000000803F4D
:100090000000000000084178D3BB4387D1133D190D
:1000A0000E3CC3BD4282AD2B3E68EC8276BED98F3A
:1000B000E1A93E4C80EFFFBE01C4FF7F3F0000007E
:1000C00000004E414E494E495459494E46CDCCCC84
:1000D0003D0AD7233C17B7D13877CC2B329595E61C
:1000E000241FB14F0A000020410000C84200401CFC
:1000F0004620BCBE4CCA1B0E5AAEC59D74001124CE
:100100001FBECFEFD8E0DEBFCDBF11E0A0E0B1E071
:10011000E8ECF4E202C005900D92AA36B107D9F7D7
:1001200021E0AAE6B1E001C01D92AE3BB207E1F7C3
:100130000E94910A0C9462120C940000CA01B90149
:1001400090580895EF92FF920F931F93CF93DF93F0
:100150009C01D62FC72F7A01062F172F862F972F96
:10016000FC01C901B7010E94C20CE69EC001E79ED6
:10017000900DF69E900D1124281B390BD901A85F14
:10018000BE4F8C918083CF0101969B01672B41F775
:1001900011820E171F0740F480813197D8019C917E
:1001A00091838D938D01F5CF8D2F9C2FDF91CF9172
:1001B0001F910F91FF90EF900895845D9E4F2FEF58
:1001C0003FEFFC0131832083089580579E4F2FEF2E
:1001D0003FEFFC01318320830895FC01E45DFE4F75
:1001E00081E090E0208131812F3F3F4F11F080E08E
:1001F00090E00895FC01E057FE4F81E090E02081FF
:1002000031812F3F3F4F11F080E090E00895FC01D5
:10021000E45DFE4F208131812F3F4FEF340741F0E5
:10022000A901440F551F240F351F820F931F0895F6
:1002300081E691E00895FC01E45DFE4F208131816B
:10024000233631056CF42F5F3F4F31832083A901A2
:10025000440F551F240F351F820F931F0C946810F5
:100260000895FC01E45DFE4F208131812F3F8FEF27
:10027000380721F021503109318320830895FC0192
:10028000E057FE4F20813181233631057CF42F5F0A
:100290003F4F31832083220F331F220F331FFC0176
:1002A000E20FF31F40835183628373830895FC013F
:1002B000E057FE4F208131812F3F4FEF340789F007
:1002C000A9014150510951834083220F331F220F4E
:1002D000331FFC01E20FF31F6081718182819381E2
:1002E000089560E070E0CB0108955C985D985E9899
:1002F0005F9880FD5C9A81FD5D9A82FD5E9A83FD28
:100300005F9A5B9A85E38A95F1F700005B9885E335
:100310008A95F1F700000895CF93C82F82958F70CA
:100320000E94750185E38A95F1F700008C2F8F708C
:10033000CF910C9475015A980E948C018FE39CE92F
:100340000197F1F700C0000008955A9A0E948C01AD
:100350008FE193E00197F1F700C00000089517B80E
:100360009FE398B98AB18C6F8AB98BB183708BB9CE
:1003700014B895B92FEF81EE94E021508040904061
:10038000E1F700C0000083E00E9475018FE39CE963
:100390000197F1F700C0000083E00E9475018FE330
:1003A0009CE90197F1F700C0000083E00E9475010D
:1003B0008FE39CE90197F1F700C0000082E00E9402
:1003C00075018FE39CE90197F1F700C0000088E216
:1003D0000E949B018FE39CE90197F1F700C00000A8
:1003E0008CE00E949B018FE39CE90197F1F700C02C
:1003F000000086E00E949B018FE39CE90197F1F7E2
:1004000000C0000081E00E949B019FEF29EF80E087
:10041000915020408040E1F700C0000082E00E943F
:100420009B019FEF29EF80E0915020408040E1F751
:1004300000C000000895CF93DF93EC0189918823D9
:1004400049F00E94A5018FE193E00197F1F700C008
:100450000000F4CFDF91CF91089581E00E949B01CD
:100460002FEF89EF90E0215080409040E1F700C0ED
:1004700000000895CF93DF93CDB7DEB728970FB66E
:10048000F894DEBF0FBECDBF98E0E0E0F1E0DE0102
:10049000119601900D929A95E1F7FE013196E60FC3
:1004A000F11DE60FF11D9081890F80680E949B016C
:1004B0008FE39CE90197F1F700C0000028960FB682
:1004C000F894DEBF0FBECDBFDF91CF91089538986D
:1004D0008FEF88B980E480937C0087E880937A006E
:1004E0008AE090917A00906490937A0090917A00DB
:1004F00096FDFCCFEFE3FFE13197F1F700C000007C
:10050000815079F7089590917C00987F8770892BAE
:1005100080937C0080917A00806480937A0080913F
:100520007A0086FDFCCF8091830190E020917800D5
:1005300030917900FC01EE0FFF1FE358FE4F31832D
:1005400020830196E3E0F0E0BF010E94C20C80939B
:10055000830120917D0130917E0180917F019091F6
:100560008001820F931F2091810130918201820FBF
:10057000931FBF010E94AE0C80917B0190917C0182
:100580009B01281B390BC9018D3E3FEF93077CF07F
:1005900044976CF480917A018F5F80937A01833065
:1005A00060F070937C0160937B01CB010895109201
:1005B0007A0170937C0160937B0180917B01909123
:1005C0007C0108952F923F924F925F926F927F929B
:1005D0008F929F92AF92BF92CF92DF92EF92FF9253
:1005E0000F931F93CF93DF93CDB7DEB7A6970FB6C8
:1005F000F894DEBF0FBECDBF9A838983498F5A8F8F
:100600006B8F7C8F3EA32DA3180146015701D801A3
:100610008D919D910D90BC91A02D898B9A8BAB8B68
:10062000BC8BF90120813181428153817C018D0194
:10063000698D7A8D8B8D9C8DE981FA8109956D8FFD
:100640007E8F8F8F98A320E030E040E05FE3C5010C
:10065000B4010E94A30F2B013C019B01AC016D8DE5
:100660007E8D8F8D98A10E94A30FD1012D913D9178
:100670004D915C910E94D70C69877A878B879C8704
:10068000A3019201698D7A8D8B8D9C8D0E94D70C70
:100690006D837E838F839887A301920169897A890C
:1006A0008B899C890E94A30FEDA1FEA1208131813D
:1006B000428153810E94D70C9B01AC01E984FA84EA
:1006C0000B851C856D817E818F819885E981FA81FA
:1006D00009956D8B7E8B8F8B988F9B01AC01C3012D
:1006E000B2010E94A30FD1012D913D914D915C91DA
:1006F0000E94D70C6D877E878F87988B29853A85D6
:100700004B855C85C301B2010E94A30FEDA1FEA140
:1007100020813181428153810E94D70C9B01AC0121
:10072000ED84FE840F8518896D817E818F81988587
:10073000E981FA8109956D837E838F8398879B0178
:10074000AC01C501B4010E94A30FD1012D913D91CF
:100750004D915C910E94D70C69A37AA38BA39CA3B3
:100760002D853E854F855889C501B4010E94A30F90
:10077000EDA1FEA120813181428153810E94D70CDD
:100780002B013C01A5019401698D7A8D8B8D9C8D87
:100790000E94D70CE9A0FAA00BA11CA1A301920111
:1007A000E981FA81099569837A838B839C8320E0B0
:1007B00030E040EC50E4C501B4010E945F0D6B01D4
:1007C0007C0129853A854B855C85CA01B9010E9467
:1007D000D70C29893A894B895C890E94D70C2B0157
:1007E0003C012D853E854F855889CA01B9010E947B
:1007F000D70C9B01AC01C301B2010E94D70C29A107
:100800003AA14BA15CA10E94D70CA70196010E94BE
:10081000A30F9B01AC01ADA1BEA16D917D918D9106
:100820009C910E94D70CEDA1FEA16083718382830D
:1008300093832D893E894F89588DCA01B9010E9441
:10084000D70C2D8D3E8D4F8D58A10E94D70C4B019A
:100850005C012D813E814F815885CA01B9010E94FA
:10086000D70C9B01AC01C501B4010E94D70C2981B2
:100870003A814B815C810E94D70CA70196010E94AE
:10088000A30F9B01AC01D1016D917D918D919C9144
:100890000E94D70CF1016083718382839383A696B3
:1008A0000FB6F894DEBF0FBECDBFDF91CF911F9181
:1008B0000F91FF90EF90DF90CF90BF90AF909F90FF
:1008C0008F907F906F905F904F903F902F90089502
:1008D0004F925F926F927F928F929F92AF92BF9250
:1008E000CF92DF92EF92FF920F931F93CF93DF93FC
:1008F000CDB7DEB72C970FB6F894DEBF0FBECDBFD5
:1009000069877A878B879C8729013A011D821E821D
:100910001F82188680E090E0A0E8BFE389839A8375
:10092000AB83BC83812C912C540129853A854B855E
:100930005C85C501B4010E945A0D87FF17C0730181
:1009400062018E010F5F1F4F9E012B5F3F4FB5016C
:10095000A4018EE990E00E94E202A3019201C50188
:10096000B4010E94D70C4B015C01DFCF6D817E8109
:100970008F8198852C960FB6F894DEBF0FBECDBF41
:10098000DF91CF911F910F91FF90EF90DF90CF906B
:10099000BF90AF909F908F907F906F905F904F909F
:1009A00008952BED3FE049E450E40E94A30F20E0BE
:1009B00030E044E353E40E945F0D0895CF92DF924C
:1009C000EF92FF926B017C0120E030E0A9010E94D0
:1009D0005A0D87FF19C0C701B6019F772BED3FE085
:1009E00049EC50E40E945F0D0E94430D2BED3FE067
:1009F00049EC50E40E94A30F9B01AC01C701B60172
:100A00000E94D70C6B017C012BED3FE049EC50E4D8
:100A1000C701B601FF90EF90DF90CF900C944F0E7E
:100A20004F925F926F927F928F929F92AF92BF92FE
:100A3000CF92DF92EF92FF922B013C0169017A0184
:100A40000E9468044B015C012BED3FE049EC5FE341
:100A5000C301B2010E94D70C0E94DE04A7019601D7
:100A60000E9468046B017C019F772FEF36EE4BEDFF
:100A70005EE20E945A0D87FD07C0A7019601C501DD
:100A8000B4010E945F0D04C060E070E080EC9FE75D
:100A9000FF90EF90DF90CF90BF90AF909F908F909E
:100AA0007F906F905F904F9008954F925F926F92FA
:100AB0007F928F929F92AF92BF92CF92DF92EF92EE
:100AC000FF920F931F93CF93DF936B017C0129015A
:100AD0003A0120E030E0A9010E945A0D18160CF0EE
:100AE00046C0C701B6010E945B0F4B015C0127E1C4
:100AF00037EB41ED58E30E945F0D0E94D10D7B0161
:100B000077FF04C0EE24FF24E61AF70AB7010F2C82
:100B1000000C880B990B0E94090E9B01AC01C501CA
:100B2000B4010E945F0D4B015C01C12CD12C00E08F
:100B300010E0D0E8CFE3CE14DF04E9F0A301920186
:100B4000B8018D2F9C2F0E94A30FA50194010E9434
:100B5000A30F9B01AC01B8018D2F9C2F0E94D70CD5
:100B60008B01D82FC92F8FEFC81AD80AE4CF00E025
:100B700010E0D0E8CFEBB8018D2F9C2FDF91CF9103
:100B80001F910F91FF90EF90DF90CF90BF90AF90AB
:100B90009F908F907F906F905F904F9008954F92AD
:100BA0005F926F927F928F929F92AF92BF92CF92FD
:100BB000DF92EF92FF920F931F93CF93DF9300D0BA
:100BC00000D0CDB7DEB72B013C0149015A019B0192
:100BD000AC01C501B4010E94D60C6B017C01B801C7
:100BE000012E000C880B990B0E94090E9B01AC0191
:100BF000C701B6010E945F0D6B017C01A301920148
:100C000060E070E080E89FE30E945F0D69837A8373
:100C10008B839C83A501940160E070E080E89FE3F2
:100C20000E945F0D9B01AC0169817A818B819C815F
:100C30000E94D70C20E030E040E05FE30E94A30F69
:100C40004B015C0121E030E03A83298329813A811C
:100C50002017310734F529813A81B901330F880B08
:100C6000990B0E94090EA70196010E94A30FA301F0
:100C700092010E94D70C9B01AC0160E070E080E81B
:100C80009FE30E945F0D9B01AC01C501B4010E946E
:100C9000D70C4B015C0189819A8101969A838983E3
:100CA000D5CFA7019601C501B4010E94A30F0F90F3
:100CB0000F900F900F90DF91CF911F910F91FF90A8
:100CC000EF90DF90CF90BF90AF909F908F907F90EC
:100CD0006F905F904F900895CF92DF92EF92FF92C6
:100CE0000F931F936B017C0120E030E0A9010E946B
:100CF0005A0D18164CF089E191E00E946F1060E0E7
:100D000070E080EC9FE70AC008EE13E0A7019601AF
:100D100060E070E080E89FE30E94CF051F910F9193
:100D2000FF90EF90DF90CF9008959B012115310542
:100D300049F0B9010E94C20C582F492FC901252F33
:100D4000342FF4CF08952F923F924F925F926F927B
:100D50007F928F929F92AF92BF92CF92DF92EF924B
:100D6000FF920F931F93CF93DF9300D000D000D05A
:100D7000CDB7DEB74B015C018A017901E1E0F0E01B
:100D8000DA01ED93FC93D901ED93FC9320E030E080
:100D9000A9010E945A0D811109C0F8011182108227
:100DA000E1E0F0E0D701ED93FC938AC020E030E071
:100DB000A901C501B4010E945A0D87FD04C0222477
:100DC0002394312C03C022242A94322CD501C4014F
:100DD000BF7789839A83AB83BC8385E0C82ED12CEF
:100DE000A1E0B0E0BE83AD83AD81BE81BD01BB0F8C
:100DF000880B990B0E94090E29813A814B815C81F5
:100E00000E94A30F2B013C010E9410104B015C01BA
:100E10009B01AC01C301B2010E94D60C9F772DEB60
:100E200037E346E855E30E944E0F1816D4F0B1019F
:100E3000330C880B990B0E94090EA50194010E94A6
:100E4000A30F0E94D10DF80171836083ED81FE81B3
:100E5000D701ED93FC93D8013C9111962C91A901F7
:100E60000FC0B1E0CB1AD10811F34AE02D813E81C9
:100E7000429FF001439FF00D1124FE83ED83B4CF18
:100E8000852F942F6D817E810E94C20C5D814E81E1
:100E9000009719F09E838D83F3CF832F922F6D815E
:100EA0007E810E94C20CF80171836083D7018D910D
:100EB0009C916D817E810E94C20CF70171836083D9
:100EC00026960FB6F894DEBF0FBECDBFDF91CF914F
:100ED0001F910F91FF90EF90DF90CF90BF90AF9058
:100EE0009F908F907F906F905F904F903F902F904A
:100EF0000895CF93DF93EC016FE371E00E945F10E0
:100F0000892B09F44DC061E471E0CE010E945F10AD
:100F1000892B09F445C063E471E0CE010E945F10A3
:100F2000892BF1F165E471E0CE010E945F10892BFD
:100F3000C9F168E471E0CE010E945F10892BA1F134
:100F40006AE471E0CE010E945F10892B69F16CE4C4
:100F500071E0CE010E945F10892B31F166E471E0EF
:100F6000CE010E945F10892B09F16EE471E0CE0181
:100F70000E945F10892BD1F060E571E0CE010E94E4
:100F80005F10892BA9F062E571E0CE010E945F102D
:100F900031E020E0892B09F030E0832F922F0AC046
:100FA00085E007C084E005C083E003C082E001C0A3
:100FB00081E090E0DF91CF9108955F926F927F92F0
:100FC0008F929F92AF92BF92CF92DF92EF92FF9259
:100FD0000F931F93CF93DF93CDB7DEB7C153D140AB
:100FE0000FB6F894DEBF0FBECDBF3C015B018FEFA3
:100FF0009FEFC35DDE4F99838883CD52D140C12CD2
:10100000D12C00E010E0E0E25E2EF301EC0DFD1DBE
:101010008081882309F4FDC0282F082E000C330B93
:10102000205331092A30310540F4D501A00FB11FFA
:10103000061917090C191D0904C08E32F9F4F5CFF1
:101040002D936F01C618D708C8018E0F9F1F2191DD
:10105000422F022E000C550B405351094A305105C6
:1010600078F32E3269F38C010F5F1F4FF501E80F03
:10107000F91F508221E0C21AD108C7C0883219F482
:1010800064E571E0BEC08932D9F5C35DDE4FE8800A
:10109000F980CD52D1403FEFE316F30661F1C7016D
:1010A000880F991FE80EF91E81E090E08C0F9D1FBC
:1010B000E80EF91E64E571E0C7010E945F10892BFC
:1010C000D1F0B701C501800F911F0E946810F70190
:1010D00001900020E9F73197EE19FF09E00FF11FA9
:1010E0008F010F5F1F4FEA0DFB1D5082CE0101964D
:1010F0000E943101CACFCE0101960E94310185C004
:10110000853619F46FE371E07CC0803719F461E42F
:1011100071E077C0833731F491819832C1F468E48B
:1011200071E06FC08C3631F49181983281F466E5BC
:1011300071E067C08C3431F49181983241F468E5F4
:1011400071E05FC0813419F463E471E05AC0C15D9D
:10115000DE4F8883CF52D140C05DDE4F1882C0532E
:10116000D140CF5CDE4F1882C153D1408A32E1F5C5
:1011700091819A32C9F5C05DDE4F8883C053D1405A
:101180009FEFC91AD90A30C0C701880F991FE80E0E
:10119000F91E21E030E02C0F3D1FE20EF31EC701C7
:1011A0000E9479074C01CE01815D9E4F0E94790714
:1011B000881699061CF1B701C501800F911F0E9486
:1011C0006810F70101900020E9F73197EE19FF0947
:1011D000E00FF11F8F010F5F1F4FEA0DFB1D5082C3
:1011E000CE0101960E943101C35DDE4FE880F98097
:1011F000CD52D140EFEFEE16FE0631F6BE01615D35
:101200007E4FCE0101960E941B013FEFC31AD30A05
:10121000FCCE50E2D52EC35DDE4FE880F980CD5282
:10122000D140C501800F911FFFEFEF16FF0611F1AE
:101230009701220F331FE20EF31EE1E0F0E0EC0F06
:10124000FD1FEE0EFF1EB7010E946810F70101900E
:101250000020E9F73197EE19FF09E00FF11F8F0128
:101260000F5F1F4FEA0DFB1DD082CE0101960E9439
:101270003101D1CFFC011082CF5CDE4F0FB6F89464
:10128000DEBF0FBECDBFDF91CF911F910F91FF90B9
:10129000EF90DF90CF90BF90AF909F908F907F9016
:1012A0006F905F9008958F929F92AF92BF92CF926E
:1012B000DF92EF92FF920F931F93CF93DF93CDB7FF
:1012C000DEB7C259D1400FB6F894DEBF0FBECDBF16
:1012D0006C018FEF9FEFCF56DE4F99838883C15902
:1012E000D140E12CF12C86010E0D1F1DF8018081EB
:1012F000882309F4FEC0282F082E000C330B20533E
:1013000031092A30310510F08E32C1F4C8010E9433
:101310005B10AB01BC01CE0101960E943F01F801B8
:101320007F01EC18FD082191822F022E000C990BF1
:10133000C0970A97A8F32E3299F3D7C0853649F49F
:10134000CE0101960E9457014DE458EF6DE270E422
:10135000C8C0803749F4CE0101960E94570140ED84
:101360005FE069E470E4BDC0833789F4CE01019683
:101370000E9457012BED3FE049E450E40E94A30F87
:1013800020E030E044E353E40E945F0D1AC083364E
:1013900009F5CE0101960E9457012BED3FE049E48B
:1013A00050E40E94A30F20E030E044E353E40E94A5
:1013B0005F0D9B01AC0160E070E084EB92E40E9461
:1013C000D60C0E94DE0427E137EB41ED58E30E9482
:1013D000680485C08437B9F4CE0101960E94570194
:1013E0002BED3FE049E450E40E94A30F20E030E001
:1013F00044E353E40E945F0D27E137EB41ED58E3EE
:101400000E9410056CC08C3639F4CE0101960E9402
:1014100057010E946C0663C08C3459F4CE010196CA
:101420000E9457010E946C0629E73DE543E150E424
:1014300054C0813469F4CE0101960E945701409155
:10144000720150917301609174017091750149C0EE
:101450008B3289F4CE0101960E9457014B015C0149
:10146000CE0101960E9457019B01AC01C501B40158
:101470000E94D70C34C08D3279F4CE0101960E94BF
:1014800057014B015C01CE0101960E945701A50155
:1014900094010E94D60C23C08A3289F4CE010196B1
:1014A0000E9457014B015C01CE0101960E94570139
:1014B0009B01AC01C501B4010E94A30F10C08F3283
:1014C000A1F4CE0101960E9457014B015C01CE01AF
:1014D00001960E945701A50194010E945F0DAB0186
:1014E000BC01CE0101960E943F018FEFE81AF80A75
:1014F000FACECE0101960E945701CE56DE4F0FB6AE
:10150000F894DEBF0FBECDBFDF91CF911F910F9139
:10151000FF90EF90DF90CF90BF90AF909F908F9013
:101520000895CF93DF93CDB7DEB7C954D1090FB675
:10153000F894DEBF0FBECDBF1092C1000E94AF0174
:101540000E9467020E942D028AE591E00E941B0220
:10155000D12C55245A9466246A94C12C00E09FE54E
:10156000B92EE12CF12C23E6A22E35E6932E40E78E
:10157000842E50E2352E69E2262E80E00E948302FE
:101580009C012E193F09283E4FEF34070CF443C04D
:10159000293131050CF03FC0D39482E08D1508F05D
:1015A0004FC095E8E91693E0F90608F049C021E23A
:1015B000E21623E0F20690F548E0E41643E0F40674
:1015C00078F58FEEE81682E0F80660F592ECE91601
:1015D00092E0F90648F525E9E21622E0F20630F538
:1015E00049E5E41642E0F40618F587E2E81682E0E1
:1015F000F80600F593ECE91691E0F906E8F42DE21F
:10160000E21621E0F206D0F44CE2E41641E0F406E2
:10161000B9F019E316C07C01D12C12C010E311C03F
:1016200011E30FC012E30DC013E30BC014E309C0B4
:1016300015E307C016E305C017E303C018E301C0B4
:101640001FE583B12A968FAF2A97011158C16826EA
:1016500065FE04C085FD53C11BE250C164FE07C096
:101660002A969FAD2A9794FD4AC11DE247C163FEA9
:1016700007C02A962FAD2A9723FD41C11AE23EC129
:1016800062FE07C02A964FAD2A9742FD38C11FE27D
:1016900035C161FE10C02A968FAD2A9781FD2FC1FA
:1016A00080917601909177010196909377018093D4
:1016B000760118E223C183E00E948302843F9140B7
:1016C00058F480917601909177010197909377017A
:1016D0008093760119E212C160FE8BC02A964FAD4D
:1016E0002A9740FD0CC12091780130917901211594
:1016F0003105C1F56091720170917301809174019F
:10170000909175019E012F5F3F4FAE01495B5F4F86
:101710000E94A3060E942D028FEF91EE24E08150DB
:1017200090402040E1F700C000004AE050E0BE01D8
:101730006D5C7F4F29968EAD9FAD29970E94A200C8
:101740000E941B028EE491E00E941B024AE050E0DE
:10175000BE016D5C7F4F89819A810E94A2000E9428
:101760001B02CCC080917601909177011816190662
:101770006CF1BE016F5F7F4F84E891E00E94DD074E
:10178000CE0101960E9453092B013C016093720126
:101790007093730180937401909375010E942D02E0
:1017A000C301B2010E94D10DDC01CB014AE050E03F
:1017B000BE016D5C7F4F0E94A2000E941B0210922E
:1017C000790110927801E4E8F1E00DC0F901EC57DD
:1017D000FE4F820F931F9F0124583140281739076D
:1017E00044F62192F8CF119241E0E63BF407D9F795
:1017F00085C089B1852581FF04C0499980C01EE25A
:101800007DC089B1582650FE10C0489978C080919B
:101810007801909179010197FC01EC57FE4F3082DD
:10182000909379018093780169C081E00E948302DE
:101830008436910580F4E0917801F0917901ED57BB
:10184000FE4F8081853611F4808258C0803709F0C0
:1018500050C0908253C082E00E948302843691057A
:10186000A8F4E0917801F0917901ED57FE4F808165
:10187000833711F4A08242C0833619F484E7808351
:101880003DC08437C1F593E7908338C084E00E945F
:1018900083028436910588F4E0917801F091790112
:1018A000ED57FE4F80818C3619F42CE4208326C03E
:1018B0008C3419F54CE6408321C085E00E948302F8
:1018C00084369105E0F40E942D02E4E8F1E01192E3
:1018D00081E0E439F807D9F7109279011092780184
:1018E00082E691E00E941B0261E080E00E943A02E1
:1018F00005C015E603C013E701C01CE60FE059B0B0
:101900001F3591F0B11681F08091780190917901A5
:10191000803191054CF4FC01EC57FE4F1083019689
:101920009093790180937801C1100AC061E080E052
:101930000E943A0284E891E00E941B0285E0C82ED2
:1019400001110150CA948FE99FE00197F1F700C09F
:1019500000002A966FAC2A97B12E0FCEAA1BBB1B94
:1019600051E107C0AA1FBB1FA617B70710F0A61B9F
:10197000B70B881F991F5A95A9F780959095BC01C0
:10198000CD01089597FB072E16F4009407D077FD3C
:1019900009D00E94AE0C07FC05D03EF490958195CD
:1019A0009F4F0895709561957F4F08955058BB27BC
:1019B000AA270E94EE0C0C94FC0E0E94EE0E38F04A
:1019C0000E94F50E20F039F49F3F19F426F40C9490
:1019D000EB0E0EF4E095E7FB0C94BC0EE92F0E9491
:1019E0000D0F58F3BA17620773078407950720F0A5
:1019F00079F4A6F50C94470F0EF4E0950B2EBA2F50
:101A0000A02D0B01B90190010C01CA01A001112404
:101A1000FF27591B99F0593F50F4503E68F11A16B0
:101A2000F040A22F232F342F4427585FF3CF469541
:101A300037952795A795F0405395C9F77EF41F1663
:101A4000BA0B620B730B840BBAF09150A1F0FF0F2D
:101A5000BB1F661F771F881FC2F70EC0BA0F621F19
:101A6000731F841F48F4879577956795B795F79509
:101A70009E3F08F0B0CF9395880F08F09927EE0F9E
:101A80009795879508950E942F0F90F09F3748F4FF
:101A9000911116F40C94480F60E070E080E89FE329
:101AA000089526F01B16611D711D811D0C94C20E38
:101AB0000C94DD0E0E94980E08F481E008950E94B7
:101AC000730D0C94FC0E0E94F50E58F00E94EE0E61
:101AD00040F029F45F3F29F00C94BC0E51110C9496
:101AE000480F0C94EB0E0E940D0F68F39923B1F38D
:101AF000552391F3951B550BBB27AA276217730734
:101B0000840738F09F5F5F4F220F331F441FAA1FC7
:101B1000A9F335D00E2E3AF0E0E832D09150504083
:101B2000E695001CCAF72BD0FE2F29D0660F771F31
:101B3000881FBB1F261737074807AB07B0E809F017
:101B4000BB0B802DBF01FF2793585F4F3AF09E3F9C
:101B5000510578F00C94BC0E0C94480F5F3FE4F3F1
:101B6000983ED4F3869577956795B795F7959F5FDF
:101B7000C9F7880F911D9695879597F90895E1E02B
:101B8000660F771F881FBB1F621773078407BA078A
:101B900020F0621B730B840BBA0BEE1F88F7E095E5
:101BA00008950E94D80D6894B1110C94480F0895BF
:101BB0000E94150F88F09F5798F0B92F9927B751B9
:101BC000B0F0E1F0660F771F881F991F1AF0BA95E1
:101BD000C9F714C0B13091F00E94470FB1E00895E9
:101BE0000C94470F672F782F8827B85F39F0B93FDB
:101BF000CCF3869577956795B395D9F73EF4909594
:101C00008095709561957F4F8F4F9F4F0895E89411
:101C100009C097FB3EF490958095709561957F4F34
:101C20008F4F9F4F9923A9F0F92F96E9BB279395E2
:101C3000F695879577956795B795F111F8CFFAF4F2
:101C4000BB0F11F460FF1BC06F5F7F4F8F4F9F4F23
:101C500016C0882311F096E911C0772321F09EE881
:101C6000872F762F05C0662371F096E8862F70E0E7
:101C700060E02AF09A95660F771F881FDAF7880FC1
:101C80009695879597F908950E94EE0E20F019F029
:101C90000E94F50E50F40C94EB0E0C94480FE92FB3
:101CA0000E940D0F88F35523B1F3E7FB621773070A
:101CB00084079507A8F189F3E92FFF2788232AF0E5
:101CC0003197660F771F881FDAF7952F5527442322
:101CD00032F091505040220F331F441FD2F7BB27E0
:101CE000E91BF50B621B730B840BB109B1F222F4F3
:101CF000620F731F841FB11D31972AF0660F771F83
:101D0000881FBB1FEFCF9150504062F041F08823F5
:101D100032F0660F771F881F91505040C1F793959E
:101D20000C94DD0E8695779567959F5FD9F7F7CF71
:101D3000990F0008550FAA0BE0E8FEEF16161706DC
:101D4000E807F907C0F012161306E407F50798F044
:101D5000621B730B840B950B39F40A2661F0232B5D
:101D6000242B252B21F408950A2609F4A140A695D9
:101D70008FEF811D811D089597F99F6780E870E0BE
:101D800060E00895882371F4772321F09850872B21
:101D9000762F07C0662311F499270DC09051862B2A
:101DA00070E060E02AF09A95660F771F881FDAF7D7
:101DB000880F9695879597F908959F3F31F0915038
:101DC00020F4879577956795B795880F911D96951F
:101DD000879597F908959FEF80EC089500240A9461
:101DE0001616170618060906089500240A941216F6
:101DF0001306140605060895092E0394000C11F429
:101E0000882352F0BB0F40F4BF2B11F460FF04C0D5
:101E10006F5F7F4F8F4F9F4F089557FD9058440F2E
:101E2000551F59F05F3F71F04795880F97FB991F39
:101E300061F09F3F79F087950895121613061406F6
:101E4000551FF2CF4695F1DF08C016161706180683
:101E5000991FF1CF869571056105089408950E9438
:101E6000150FA0F0BEE7B91788F4BB279F3860F4C0
:101E70001616B11D672F782F8827985FF7CF8695A4
:101E800077956795B11D93959639C8F30895E894B1
:101E9000BB2766277727CB0197F908950E94980EF4
:101EA00008F48FEF089516F00C94DD0E0C94EB0EF1
:101EB00068940C94BC0E0E94150FA8F39923C1F3EB
:101EC000AEF3DF93CF931F930F93FF92C92FDD27BC
:101ED00088232AF02197660F771F881FDAF720E002
:101EE00030E040E85FEB9FE3883920F0803E38F037
:101EF00021968F770E94D70CE8E6F0E004C00E949C
:101F0000D70CE5E9F0E00E9434108B01BE01EC0132
:101F1000FB2E6F5771097595771F880B990B0E94DF
:101F2000090E28E132E741E35FE30E94B60FAF2DCF
:101F30009801AE01FF900F911F91CF91DF910E9408
:101F4000EE0C0C94FC0E0E94B60F0C94FC0E0E943A
:101F5000EE0E38F00E94F50E20F0952311F00C944F
:101F6000BC0E0C94EB0E11240C94480F0E940D0F24
:101F700070F3959FC1F3950F50E0551F629FF001DC
:101F8000729FBB27F00DB11D639FAA27F00DB11DF5
:101F9000AA1F649F6627B00DA11D661F829F22277E
:101FA000B00DA11D621F739FB00DA11D621F839F05
:101FB000A00D611D221F749F3327A00D611D231FDB
:101FC000849F600D211D822F762F6A2F11249F5729
:101FD00050409AF0F1F088234AF0EE0FFF1FBB1F2C
:101FE000661F771F881F91505040A9F79E3F5105EB
:101FF00080F00C94BC0E0C94480F5F3FE4F3983EC5
:10200000D4F3869577956795B795F795E7959F5F94
:10201000C1F7FE2B880F911D9695879597F9089526
:102020000E94150FE8F09E37E8F09639B8F49E3814
:1020300048F4672F782F8827985FF9CF8695779592
:10204000679593959539D0F3B62FB1706B0F711DCD
:10205000811D20F487957795679593950C94C20E12
:102060000C94DD0E0C94480FDF93CF931F930F93C6
:10207000FF92EF92DF927B018C01689406C0DA2E0A
:10208000EF010E94B60FFE01E894A59125913591CC
:1020900045915591A6F3EF010E94EE0CFE019701C8
:1020A000A801DA9469F7DF90EF90FF900F911F91EC
:1020B000CF91DF910895662777270C949F10FB013D
:1020C000DC018D91019080190110D9F3990B0895CD
:1020D000FB01DC0101900D920020E1F708950F93C0
:1020E0001F93CF93DF93E091B801F091B901238161
:1020F00021FF1BC08C01D0E0C0E0F80181918F016D
:102100006091B8017091B901DB011896ED91FC91D5
:102110001997882331F00995892B79F3DFEFCFEFF9
:10212000ECCF8AE00995892B19F08FEF9FEF02C061
:102130008D2F9C2FDF91CF911F910F910895A0E0DB
:10214000B0E0E5EAF0E10C942212EC016B016115BC
:10215000710519F0FB01918380837E01FFEFEF1A77
:10216000FF0A0881802F90E00E94ED11892B11F069
:10217000E701F3CF0D3239F47E0182E0E80EF11C65
:10218000098111E008C00B3229F47E0192E0E90ECA
:10219000F11C098110E0E701219743E050E06AEC6F
:1021A00070E0CE010E94F611892BC1F4239645E020
:1021B00050E065EC70E0CE010E94F611892B09F425
:1021C0002596C114D10419F0F601D183C0831111F1
:1021D000F6C060E070E080E89FE7FAC043E050E0BE
:1021E00062EC70E0CE010E94F611892B59F4C11403
:1021F000D10409F4E9C0F2E0EF0EF11CF601F1821E
:10220000E082E2C020E030E0A901C0E0D0E0F701C8
:1022100080EDA82EA00E89E08A1530F1912F9260F2
:10222000B92E812F887012FF04C0811124C021961D
:1022300022C081112197A5E0B0E00E941112DC01BB
:10224000CB01880F991FAA1FBB1F9C01AD012A0D4E
:10225000311D411D511D283989E93807480789E199
:10226000580748F0166006C09EEFA9120AC013FD79
:1022700040C01860B12E8FEFE81AF80A00811B2DBC
:10228000C6CF802F8F7D8534A1F580818D3211F4EA
:10229000106106C08B3221F0319661E070E004C01D
:1022A0008181329662E070E080538A3018F0E61B3C
:1022B000F70B1FC060E070E060389CE079075CF4C9
:1022C000DB01AA0FBB1FAA0FBB1F6A0F7B1F660F84
:1022D000771F680F711D3196DF0111978C91805324
:1022E0008A3050F314FF03C0719561957109C60FD0
:1022F000D71F11FF08C0C114D10429F0CF010197E5
:10230000F60191838083CA01B9010E94070E212F33
:102310002370233019F04B015C0106C04B015C01B6
:10232000B7FAB094B7F8B09420E030E0A901C50145
:10233000B4010E945A0D882309F43EC0D7FF06C09D
:10234000D195C195D10901EE10E002C009EF10E06E
:102350006801F8E1CF1AD10890E2E92EF12CCE15F0
:10236000DF0574F0F8012591359145915491C5012F
:10237000B4010E94A30F4B015C01CE19DF09EFCF1E
:1023800004501109F594E7940C151D0541F78A2DA9
:10239000880F8B2D881F8F3F49F020E030E0A90186
:1023A000C501B4010E945A0D811106C082E290E07D
:1023B0009093BD018093BC01C501B40109C060E0E8
:1023C00070E080E89FEF04C060E070E080EC9FE781
:1023D000CDB7DEB7ECE00C943E1291110C940E12C6
:1023E000803219F089508550C8F70895FB01DC014F
:1023F0004150504088F08D9181341CF08B350CF4A5
:10240000805E659161341CF06B350CF4605E861B58
:10241000611171F3990B0895881BFCCF99278827C8
:1024200008950E945312A59F900DB49F900DA49FF4
:10243000800D911D112408952F923F924F925F922B
:102440006F927F928F929F92AF92BF92CF92DF92C4
:10245000EF92FF920F931F93CF93DF93CDB7DEB729
:10246000CA1BDB0B0FB6F894DEBF0FBECDBF0994BD
:102470002A88398848885F846E847D848C849B8414
:10248000AA84B984C884DF80EE80FD800C811B8122
:10249000AA81B981CE0FD11D0FB6F894DEBF0FBE51
:1024A000CDBFED010895A29FB001B39FC001A39FCE
:1024B000700D811D1124911DB29F700D811D11247D
:0824C000911D0895F894FFCF6F
:1024C80000004000140054003031323334353637C0
:1024D8003839616263646566004572726F723A20CA
:1024E8006C6E28782920697320756E646566696E3C
:1024F800656420666F722078203C3D20302E006590
:1025080000700041002A2A007300630074002F0045
:102518002B002D0028006C004C00456E7465723A43
:0A2528002000456E7465723A000051
:00000001FF
