:100000000C9434000C9451000C9451000C94510049
:100010000C9451000C9451000C9451000C9451001C
:100020000C9451000C9451000C9451000C9451000C
:100030000C9451000C9451000C9462000C945100EB
:100040000C9451000C9451000C9451000C945100EC
:100050000C9451000C9451000C9451000C945100DC
:100060000C9451000C94510011241FBECFEFD8E026
:10007000DEBFCDBF11E0A0E0B1E0E8E5F5E002C0F1
:1000800005900D92A430B107D9F721E0A4E0B1E0CA
:1000900001C01D92A731B207E1F70E9479020C94CA
:1000A000AA020C94000084B5826084BD85B583608B
:1000B00085BD89EF87BDEEE6F0E0808182608083B8
:1000C000789408951F920F920FB60F9211248F9378
:1000D0009F93AF93BF9380910C0190910D01A091DC
:1000E0000E01B0910F010196A11DB11D80930C016D
:1000F00090930D01A0930E01B0930F01BF91AF91AA
:100100009F918F910F900FBE0F901F901895F894AC
:1001100060910C0170910D0180910E0190910F0181
:1001200078940895861759F1682F6695782F7695FB
:100130007695982F96236827E62FE170F0E0EE0F72
:10014000FF1F682F60956170E62B672F6927462F88
:10015000417050E0440F551F440F551F4E2B86959C
:100160008695869597238927282F217030E053E0C4
:10017000220F331F5A95E1F7842F822B089580E0D8
:100180000895F89410921101109212011092130127
:100190001092140110921501109216010E9487000E
:1001A000609308017093090180930A0190930B01F9
:1001B000789408950F931F930E948700009108017F
:1001C0001091090120910A0130910B01DC01CB0152
:1001D000801B910BA20BB30B883E9340A105B10588
:1001E00008F45EC08091080190910901A0910A0174
:1001F000B0910B0188519C4FAF4FBF4F80930801C6
:1002000090930901A0930A01B0930B018091110111
:1002100069E00E9492008093110180911101811187
:100220003FC08091120165E00E949200809312010C
:1002300080911201811134C08091130169E00E9404
:1002400092008093130180911301811129C0809144
:10025000140165E00E9492008093140180911401C2
:1002600081111EC08091150169E00E949200809367
:10027000150180911501811113C08091160162E072
:100280000E9492008093160180911601823041F401
:1002900080911501843020F0109215011092160102
:1002A0001F910F9108950F931F930E948700009153
:1002B0000401109105012091060130910701DC0134
:1002C000CB01801B910BA20BB30B893C9105A105BF
:1002D000B10508F474C0319928C08091150169E016
:1002E0000E9492008093150180911501811107C031
:1002F0008091160162E00E94920080931601809125
:100300001601823041F480911501843020F0109262
:100310001501109216010E948700609304017093EA
:100320000501809306019093070132991CC08091CA
:10033000130169E00E9492008093130180911301E0
:10034000811107C08091140165E00E9492008093A2
:1003500014010E948700609304017093050180934B
:1003600006019093070130991CC08091110169E04A
:100370000E9492008093110180911101811107C0A8
:100380008091120165E00E949200809312010E9408
:100390008700609304017093050180930601909398
:1003A000070133990CC00E94C1000E94870060932E
:1003B00004017093050180930601909307011F913A
:1003C0000F9108959BB19F739BB995B1907F95B99B
:1003D0009BB1937C9BB93BB1482F417050E0440FD7
:1003E000551F440F551F282F2270220F220F422B1A
:1003F000242F232B982F9470990F990F922B88708C
:10040000880F880F892B8BB9623081F030F4662316
:1004100059F0613081F45F9A0EC0643059F040F0B9
:10042000653049F42B9A07C05E9A05C0289A03C02C
:10043000299A01C02A9A8FE39FE10197F1F700C042
:1004400000000895CF93DF9300D000D000D0CDB747
:10045000DEB7809116018983809115018A8380918E
:1004600014018B83809113018C83809112018D8301
:10047000809111018E8360911001FE01E60FF11D44
:1004800081810E94E2018091100190E0019666E076
:1004900070E00E9482028093100126960FB6F894B5
:1004A000DEBF0FBECDBFDF91CF9108958AB18C6FB3
:1004B0008AB984B18E6084B987B1807F87B988B1E9
:1004C0008F6088B90E9453000E94870060930801E2
:1004D0007093090180930A0190930B010E94870099
:1004E00060930401709305018093060190930701C6
:1004F00008950E9456020E9453010E94DA000E9451
:100500002202F9CF97FB072E16F4009407D077FD4F
:1005100009D00E94960207FC05D03EF49095819583
:100520009F4F0895709561957F4F0895AA1BBB1B3F
:1005300051E107C0AA1FBB1FA617B70710F0A61BE3
:10054000B70B881F991F5A95A9F780959095BC0104
:08055000CD010895F894FFCFDE
:04055800C8000200D5
:00000001FF
