:100000000C9434000C9451000C9451000C94510049
:100010000C9451000C9451000C9451000C9451001C
:100020000C9451000C9451000C9451000C947600E7
:100030000C9451000C9451000C9451000C945100FC
:100040000C9451000C9451000C9451000C945100EC
:100050000C9451000C9451000C9451000C945100DC
:100060000C9451000C94510011241FBECFEFD8E026
:10007000DEBFCDBF11E0A0E0B1E0E4EAF6E002C0EF
:1000800005900D92A430B107D9F721E0A4E0B1E0CA
:1000900001C01D92A631B207E1F70E9421030C9422
:1000A00050030C9400008AB18C638AB98BB1837CB5
:1000B0008BB98FEF87B918B88BB1806C8BB985B1CC
:1000C000836085B9E1E8F0E080818D60808389E01C
:1000D0009DE39093890080938800EFE6F0E08081B3
:1000E000826080833F9A4798789408951F920F9278
:1000F0000FB60F9211245F936F937F938F939F930B
:10010000AF93BF9388B1805888B9809106019091D0
:100110000701892B99F580911401909115010196A1
:100120009093150180931401809114019091150111
:10013000CC9721F5109215011092140180910201C3
:1001400090910301019690930301809302018091A5
:10015000020190910301CC9789F41092030110924F
:1001600002018091000190910101019668E170E027
:100170000E94280390930101809300018091060161
:10018000909107010197C9F58091040190910501B3
:10019000892B99F18091120190911301181619067B
:1001A00074F08091100190911101181619063CF01D
:1001B00080910E0190910F0118161906F4F48091A8
:1001C000120190911301892B09F07AC080911001DE
:1001D00090911101181619060CF05AC08091100167
:1001E00090911101019790931101809310018BE37D
:1001F00090E09093130180931201809106019091F9
:1002000007010297C9F58091040190910501892B9E
:1002100099F180910C0190910D01019690930D013F
:1002200080930C0180910C0190910D01CC9721F5E8
:1002300010920D0110920C0180910A0190910B0116
:10024000019690930B0180930A0180910A0190918D
:100250000B01CC9789F410920B0110920A01809146
:10026000080190910901019668E170E00E9428035D
:100270009093090180930801BF91AF919F918F9155
:100280007F916F915F910F900FBE0F901F90189507
:1002900080910E0190910F01181619060CF0ADCF48
:1002A00080910E0190910F01019790930F0180931F
:1002B0000E018BE390E0909311018093100199CF90
:1002C0008091120190911301019793CF2BB1880F68
:1002D000991F880F991F8C73237C822B8BB90895EB
:1002E000CF92DF92EF92FF920F931F93CF93DF9302
:1002F000CDB7DEB72C970FB6F894DEBF0FBECDBFDB
:100300008091060190910701892B09F067C08091C7
:100310000001909101012AE030E0B9010E94280318
:100320007A8369838091000190910101B9010E9453
:1003300028039C838B838091020190910301B90172
:100340000E9428037E836D838091020190910301B6
:10035000B9010E94280398878F838091140190919E
:100360001501B9010E9428037A87698780911401D9
:1003700090911501B9010E9428039C878B87CE01BB
:1003800001967C0110E000E0CC24C394D12CF7014D
:10039000819191917F010E946601C601002E01C0EA
:1003A000880F0A94EAF788B98FEC97E00197F1F784
:1003B00000C000000F5F1F4F0630110541F72C965B
:1003C0000FB6F894DEBF0FBECDBFDF91CF911F9166
:1003D0000F91FF90EF90DF90CF90089580910601EC
:1003E000909107010197A1F580910E0190910F0165
:1003F0002AE030E0B9010E9428037A836983809162
:100400000E0190910F01B9010E9428039C838B83F8
:100410008091100190911101B9010E9428037E83FF
:100420006D838091100190911101B9010E94280300
:1004300098878F838091120190911301B9010E94D6
:1004400028037A876987809112019091130192CFD6
:1004500080910801909109012AE030E0B9010E94E1
:1004600028037A8369838091080190910901B90179
:100470000E9428039C838B8380910A0190910B0139
:10048000B9010E9428037E836D8380910A019091B7
:100490000B01B9010E94280398878F8380910C017A
:1004A00090910D01B9010E9428037A876987809194
:1004B0000C0190910D015ECF4E9925C02FEF80E782
:1004C00092E0215080409040E1F700C000004E993A
:1004D0001AC08091060190910701892B09F078C01C
:1004E0008091000190910101019668E170E00E9405
:1004F000280390930101809300011092150110923E
:1005000014014E9BFECF4F9925C02FEF80E792E05C
:10051000215080409040E1F700C000004F991AC080
:100520008091060190910701892B09F066C08091A6
:1005300002019091030101966CE370E00E94280390
:1005400090930301809302011092150110921401FF
:100550004F9BFECF18991AC02FEF80E792E02150F1
:1005600080409040E1F700C0000018990FC08091D2
:10057000060190910701019663E070E00E94280354
:100580009093070180930601189BFECF199951C0E3
:100590002FEF80E792E0215080409040E1F700C0CB
:1005A0000000199946C080910601909107010297B9
:1005B000C9F5209104013091050181E090E0232BE1
:1005C00011F090E080E0909305018093040130C029
:1005D0008091060190910701019709F092CF8091D7
:1005E0000E0190910F01019668E170E00E942803CE
:1005F00090930F0180930E0180CF8091060190911E
:100600000701019709F0A4CF809110019091110189
:1006100001966CE370E00E9428039093110180938F
:10062000100192CF8091060190910701019709F284
:10063000199908958FE39CE90197F1F700C0000034
:10064000F7CF0E9453000E945C020E947001FBCF12
:1006500097FB072E16F4009407D077FD09D00E946F
:100660003C0307FC05D03EF4909581959F4F08957B
:10067000709561957F4F0895AA1BBB1B51E107C080
:10068000AA1FBB1FA617B70710F0A61BB70B881F22
:10069000991F5A95A9F780959095BC01CD010895B1
:0406A000F894FFCFFC
:0406A4000F001E0025
:00000001FF
