:100000000C9445010C9462010C9462010C94620101
:100010000C9462010C9462010C9462010C946201D4
:100020000C9462010C9462010C9462010C946201C4
:100030000C9462010C9462010C9462010C946201B4
:100040000C9462010C9462010C9462010C946201A4
:100050000C9462010C9462010C9462010C94620194
:100060000C9462010C946201036EDB363D9A9999FF
:10007000993DABAAAA2A3E000000803F084AD73B20
:100080003BCE016E84BCBFFDC12F3D6C74319ABD67
:1000900056833DDA3D00C77F11BED9E4BB4C3E918B
:1000A0006BAAAABE000000803F072C7AA5BA6CC5D7
:1000B00090DA3B9365FC8BBC53F810FD3C56928361
:1000C0004DBD879D3AB63DCBC9BF5BBE73DA0FC944
:1000D0003F07634236B79BD8A71A39685618AEBA9D
:1000E000AB558C1D3CB7CC5763BD6DEDFD753EF631
:1000F000177231BF000000803F08000000BE92244C
:1001000049123EABAAAA2ABECDCCCC4C3E00000080
:1001100080BEABAAAAAA3E00000000BF000000807B
:100120003F0000000000084178D3BB4387D1133D56
:10013000190E3CC3BD4282AD2B3E68EC8276BED91F
:100140008FE1A93E4C80EFFFBE01C4FF7F3F00005E
:10015000000000004E414E494E495459494E46CD8B
:10016000CCCC3D0AD7233C17B7D13877CC2B32956E
:1001700095E6241FB14F0A000020410000C842004C
:10018000401C4620BCBE4CCA1B0E5AAEC59D740016
:10019000407A10F35A00A0724E18090010A5D4E856
:1001A0000000E87648170000E40B54020000CA9AE9
:1001B0003B000000E1F5050000809698000000403B
:1001C000420F000000A08601000000102700000080
:1001D00000E803000000006400000000000A0000C6
:1001E0000000000100000000002C76D888DC674F7A
:1001F0000823DFC1DFAE59E1B1B796E5E3E453C6AA
:100200003AE651997696E8E6C28426EB898C9B62A1
:10021000ED407C6FFCEFBC9C9F40F2BAA56FA5F44B
:1002200090055A2AF75C936B6CF9676DC11BFCE073
:10023000E40D47FEF520E6B500D0ED902E030094C6
:100240003577050080841E080000204E0A0000005B
:10025000C80C333333330F986E12831141EF8D2165
:1002600014893BE65516CFFEE6DB18D1844B381BCC
:10027000F77C1D901DA4BBE424203284725E228191
:1002800000C9F124ECA1E53D270011241FBECFEFEA
:10029000D8E0DEBFCDBF12E0A0E0B1E0EEEDFBE2C2
:1002A00002C005900D92A432B107D9F722E0A4E272
:1002B000B2E001C01D92AD36B207E1F70E94FA0923
:1002C0000C94ED150C94000095B1937C95B980FDCC
:1002D0002A9A81FD2B9A82FD2C9A83FD2D9A299AC8
:1002E00087EC90E00197F1F700C00000299887ECB7
:1002F00090E00197F1F700C000000895CF93C82F58
:10030000662391F0289A8C2F82958F700E94640149
:100310008C2F8F700E9464018FE39FE10197F1F7AA
:1003200000C00000CF9108952898EDCFCF93DF93C0
:10033000EC018991811103C0DF91CF91089561E0B3
:100340000E947E01F6CF883058F429B130E0A9012F
:1003500002C0559547958A95E2F7CA0181700895C4
:100360008E3020F423B130E08850F1CF26B130E058
:100370008E50EDCF60E081E00E947E018FE39FE12F
:100380000197F1F700C000000895CF93DF9300D0EC
:10039000CDB7DEB7198290E49A838C0F9D2F911D03
:1003A000FC01818160E080680F900F90DF91CF9118
:1003B0000C947E01EF92FF920F931F93CF93DF93E4
:1003C0008C017C01E701F70181917F01811118C047
:1003D000C017D107D9F4E80109900020E9F7219767
:1003E000C017D10731F08A9190E00E94F712892B53
:1003F000C9F4DF91CF911F910F91FF90EF90089575
:1004000090E00E94F712892BE9F6E2CFFE010190FD
:100410000020E9F7AF014C1B5D0BBE01C8010E9433
:100420001813D9CF1882DCCFFB0101900020E9F727
:100430003197AF01461B570B0E943C1321E0892BDB
:1004400009F020E0822F0895FC0101900020E9F7D7
:100450003197E81BF90B31F0E80FF91F319781E074
:100460009081961380E081700895EF92FF920F9330
:100470001F93CF93DF938C01FC0101900020E9F7DB
:10048000AF0141505109481B590B7C01FFEFEF1A96
:10049000FF0A4230510560F0F8018081883241F452
:1004A000BA0161507109E60FF71F8081893239F076
:1004B000DF91CF911F910F91FF90EF900895F80178
:1004C00030E020E090E080E0A191A83211F50196A3
:1004D000009719F42617370758F32F5F3F4F42173D
:1004E000530791F7EA012297AE01B701C8010E94B4
:1004F0001813C00FD11F1882C8010E94DA01F80139
:1005000001900020E9F7AF0141505109401B510B08
:10051000C0CFA932E9F60197DBCF4F925F926F927D
:100520007F928F929F92AF92BF92CF92DF92EF9283
:10053000FF920F931F93CF93DF93CDB7DEB7C05CCD
:10054000D1090FB6F894DEBF0FBECDBF7E0121E802
:10055000E20EF11C40E450E0BC01C7010E944A13C6
:10056000F70117AE01900020E9F731978F010E19BE
:100570001F096701FFEFCF1ADF0A0115110509F402
:1005800053C0F7018081082E000C990B0E94F712CE
:10059000892B99F56801F1E0CF1AD108CE0CDF1C48
:1005A00001501109F6018081082E000C990B0E9460
:1005B000F712009781F5680130E020E0F701EC0DBB
:1005C000FD1D40814932A1F52F5F3F4FF1E0CF1A69
:1005D000D108A0F7680130E020E0FFEFCF16DF067A
:1005E00009F08AC00F3F100709F0F0C0BE016F5F2D
:1005F0007F4FC7010E94A71162C0A801B601C701C1
:100600000E941813F70101900020E9F731978F013C
:100610000E191F09B2CFF6011082F1E0CF1AD108EE
:100620000115110509F0BCCF60E070E0CB0147C0B7
:10063000483219F421503109C9CF2115310531F65D
:100640004B3219F04D3209F0C1CFA601B701CE01EE
:100650008F5B9F4F0E944A13E1E4F0E0EC0FFD1F17
:10066000EC0DFD1D10820FE310E00C191D09B60101
:100670006F5F7F4F6E0D7F1DA801CE0101960E9416
:100680004A13E1E0F0E0EC0FFD1FE00FF11F1082D4
:10069000CE018F5B9F4F0E9444044B015C01CE0151
:1006A00001960E9444049B01AC01EC0CFD1CF70177
:1006B00080818B32E1F4C501B4010E942E0DC0543B
:1006C000DF4F0FB6F894DEBF0FBECDBFDF91CF91E5
:1006D0001F910F91FF90EF90DF90CF90BF90AF9060
:1006E0009F908F907F906F905F904F900895C5017D
:1006F000B4010E942D0DE3CFF701EC0DFD1D4081EB
:10070000493231F42F5F3F4FE1E0CE1AD10865CF77
:10071000483219F421503109F7CF21153105A1F7DD
:100720004A3211F04F3281F7A601B701CE018F5B3B
:100730009F4F0E944A13E1E4F0E0EC0FFD1FEC0D27
:10074000FD1D10820FE310E00C191D09B6016F5F4B
:100750007F4F6E0D7F1DA801CE0101960E944A13A6
:10076000E1E0F0E0EC0FFD1FE00FF11F1082CE0181
:100770008F5B9F4F0E9444042B013C01CE010196E8
:100780000E9444044B015C01F701EC0DFD1D8081CA
:100790008A3239F4A5019401C301B2010E94380FD5
:1007A0008ECF20E030E0A901C501B4010E94E40D24
:1007B000882339F0A5019401C301B2010E94E90D1B
:1007C0007ECF60E070E080EC9FE779CFF701E00F2B
:1007D000F11F2081293221F401960150110902CF25
:1007E000283211F40197F9CF0097B9F72E35A9F700
:1007F000A801B701CE018F5B9F4F0E944A13E1E42D
:10080000F0E0EC0FFD1FE00FF11F10828FE390E08E
:100810006C01C01AD10AB8016F5F7F4F6E0D7F1D4A
:10082000A601CE0101960E944A13E1E0F0E0EC0F30
:10083000FD1FEC0DFD1D1082CE018F5B9F4F0E94AE
:1008400044046B017C01CE0101960E9444049B018B
:10085000AC01C701B601C054DF4F0FB6F894DEBF3C
:100860000FBECDBFDF91CF911F910F91FF90EF9001
:10087000DF90CF90BF90AF909F908F907F906F90C0
:100880005F904F900C94A50F4F925F926F927F9262
:100890008F929F92AF92BF92CF92DF92EF92FF9290
:1008A0000F931F93CF93DF93CDB7DEB7C854D10911
:1008B0000FB6F894DEBF0FBECDBF7C010E94DA01F7
:1008C000C7010E9435026EE671E0C7010E94140262
:1008D000882309F49CC069E2C7010E94240288238E
:1008E00009F495C0F70101900020E9F78F0101504C
:1008F00011090E191F090530110510F405E010E06B
:10090000055011090034110510F00FE310E0B70194
:100910006C5F7F4FA801CE0101960E944A13E1E06F
:10092000F0E0EC0FFD1FE00FF11F1082CE010196E9
:100930000E9444042BED3FE049E450E40E94380F4C
:1009400020E030E044E353E40E94E90D25966CAFCB
:100950007DAF8EAF9FAF2597812C912C5401412CF8
:10096000512CE0E86E2EEFE37E2E75016401259692
:100970002CAD3DAD4EAD5FAD2597C501B4010E94D4
:10098000E40D87FD1AC0C701B601C85BDF4F0FB683
:10099000F894DEBF0FBECDBFDF91CF911F910F91B5
:1009A000FF90EF90DF90CF90BF90AF909F908F908F
:1009B0007F906F905F904F900895C701B601905857
:1009C00027E137EB41ED58E30E94380F9B01AC0162
:1009D000C301B2010E942E0D2B013C0127E137EB30
:1009E00041ED58E30E94380F9B01AC01C701B601ED
:1009F0000E942E0D6B017C0127E137EB41ED58E39E
:100A0000C501B4010E942E0D4B015C01B0CF64E71B
:100A100071E0C7010E941402882309F482C069E2D0
:100A2000C7010E942402882309F47BC0F7010190CA
:100A30000020E9F78F01015011090E191F09053037
:100A4000110510F405E010E00550110900341105FE
:100A500010F00FE310E0B7016C5F7F4FA801CE01EB
:100A600001960E944A13E1E0F0E0EC0FFD1FE00F59
:100A7000F11F1082CE0101960E9444042BED3FE04D
:100A800049E450E40E94380F20E030E044E353E4AE
:100A90000E94E90D25966CAF7DAF8EAF9FAF259775
:100AA000812C912C540124013501C12CD12C70E8EA
:100AB000E72E7FE3F72E25962CAD3DAD4EAD5FAD15
:100AC0002597C501B4010E94E40D87FF5CCFC701E3
:100AD000B601905827E137EB41ED58E30E94380FFB
:100AE0009B01AC01C301B2010E942E0D2B013C0100
:100AF00027E137EB41ED58E30E94380F9B01AC0131
:100B0000C701B6010E942E0D6B017C0127E137EB76
:100B100041ED58E3C501B4010E942E0D4B015C016B
:100B2000CACF6AE771E0C7010E941402882309F462
:100B3000E5C069E2C7010E942402882309F4DEC0EF
:100B4000F70101900020E9F78F01015011090E19FA
:100B50001F090530110510F405E010E005501109DA
:100B60000034110510F00FE310E0B7016C5F7F4F08
:100B7000A801CE0101960E944A13E1E0F0E0EC0FDB
:100B8000FD1FE00FF11F1082CE0101960E94440468
:100B90002BED3FE049E450E40E94380F20E030E0C4
:100BA00044E353E40E94E90D29966CAF7DAF8EAF0C
:100BB0009FAF2997C12CD12C7601412C512C60E894
:100BC000662E6FE3762E4601570129962CAD3DAD7A
:100BD0004EAD5FAD2997C701B6010E94E40D87FDB8
:100BE00031C025961CAE1DAE1EAE1FAE2597412C02
:100BF000512C3201C12CD12C50E8E52E5FE3F52EAB
:100C000029962CAD3DAD4EAD5FAD299725966CADC7
:100C10007DAD8EAD9FAD25970E94E40D87FD3CC054
:100C200020E030E0A901C701B6010E94E40DA70150
:100C300096018111B4C2C12CD12C80ECE82E8FE733
:100C4000F82EA1CEC501B401905827E137EB41ED54
:100C500058E30E94380F9B01AC01C301B2010E940E
:100C60002E0D2B013C0127E137EB41ED58E30E94AB
:100C7000380F9B01AC01C501B4010E942E0D4B0140
:100C80005C0127E137EB41ED58E3C701B6010E9453
:100C90002E0D6B017C0199CFC701B601905827E159
:100CA00037EB41ED58E30E94380F9B01AC01C301C3
:100CB000B2010E942E0D2B013C0127E137EB41EDE3
:100CC00058E30E94380F9B01AC01C701B6010E9496
:100CD0002E0D6B017C0127E137EB41ED58E32596A2
:100CE0006CAD7DAD8EAD9FAD25970E942E0D2596E6
:100CF0006CAF7DAF8EAF9FAF259782CF64E571E07B
:100D0000C7010E941402882309F488C069E2C70160
:100D10000E942402882309F481C0F7010190002079
:100D2000E9F78F01015011090E191F09053011054E
:100D300010F405E010E0055011090034110510F021
:100D40000FE310E0B7016C5F7F4FA801CE01019661
:100D50000E944A13E1E0F0E0EC0FFD1FE00FF11FED
:100D60001082CE0101960E9444042B013C0120E038
:100D700030E0A9010E942B0F812C912C5401C12C31
:100D8000D12C40E8E42E4FE3F42E87FF3EC0A301B0
:100D90009201C501B4010E942B0F18160CF0F3CD7F
:100DA00027E137EB41ED58E3C701B6010E94380F48
:100DB0009B01AC01C701B6010E942D0D6B017C01A6
:100DC00027E137EB41ED58E3C501B4010E942D0D39
:100DD0004B015C01DCCF27E137EB41ED58E3C70164
:100DE000B6010E94380F9B01AC01C701B6010E94F9
:100DF0002E0D6B017C0127E137EB41ED58E3C50176
:100E0000B4010E942E0D4B015C01A3019201C501AA
:100E1000B4010E94E40D87FDDECFB5CD69E571E038
:100E2000C7010E941402882309F4A4C069E2C70123
:100E30000E942402882309F49DC0F701019000203C
:100E4000E9F78F01015011090E191F09043011052E
:100E500010F404E010E0045011090034110510F002
:100E60000FE310E0B7016D5F7F4FA801CE0101963F
:100E70000E944A13E1E0F0E0EC0FFD1FE00FF11FCC
:100E80001082CE0101960E9444044B015C0120E0D7
:100E900030E0A9010E94E40D18160CF0CCCE20E041
:100EA00030E040E85FE3C501B4010E942B0FC12C84
:100EB000D12C760187FD53C0412C512C30E8632E94
:100EC0003FE3732EC12CD12C760120C0A3019201E7
:100ED00060E070E080E89FE30E94E90D27E137EBD6
:100EE00041ED58E30E94380F9B01AC01C701B601E8
:100EF0000E942E0D6B017C0127E137EB41ED58E399
:100F0000C301B2010E942E0D2B013C01A5019401E9
:100F1000C301B2010E94E40D87FDD8CF34CDA501F5
:100F2000940160E070E080E89FE30E94E90D27E112
:100F300037EB41ED58E30E94380F9B01AC01C7012C
:100F4000B6010E942D0D6B017C0127E137EB41EDCD
:100F500058E3C501B4010E942E0D4B015C0120E055
:100F600030E040E85FE3C501B4010E94E40D87FD75
:100F7000D6CF09CD6DE571E0C7010E941402882328
:100F800009F45AC069E2C7010E942402882309F4C7
:100F900053C0F70101900020E9F78F0101501109BA
:100FA0000E191F090630110510F406E010E0065076
:100FB00011090034110510F00FE310E0B7016B5F69
:100FC0007F4FA801CE0101960E944A13E1E0F0E0B4
:100FD000EC0FFD1FE00FF11F1082CE0101960E9461
:100FE00044044B015C0120E030E0A9010E94E40DC3
:100FF00087FD21CE20E030E040E05FE3C501B40191
:101000000E94380F6B017C0104E610E0A7019601F5
:10101000C501B4010E94E90DA70196010E942E0DA1
:1010200020E030E040E05FE30E94380F6B017C017C
:101030000150110959F7A7CC63E671E0C7010E947E
:101040001402882309F4DDC069E2C7010E9424026A
:10105000882309F4D6C0F70101900020E9F78F0139
:10106000015011090E191F090530110510F405E092
:1010700010E0055011090034110510F00FE310E0E5
:10108000B7016C5F7F4FA801CE0101960E944A1301
:10109000E1E0F0E0EC0FFD1FE00FF11F1082CE0148
:1010A00001960E9444046B017C0120E030E0A9011C
:1010B0000E94E40D18160CF0BECD20E030E040E8B0
:1010C0005FE3C701B6010E942B0F812C912C5401C4
:1010D00087FD8CC0412C512C20E8622E2FE3722E0C
:1010E000812C912C540120C0A301920160E070E09A
:1010F00080E89FE30E94E90D27E137EB41ED58E3DB
:101100000E94380F9B01AC01C501B4010E942E0D55
:101110004B015C0127E137EB41ED58E3C301B2011C
:101120000E942E0D2B013C01A7019601C301B201C3
:101130000E94E40D87FDD8CFC12CD12C90E8E92E78
:101140009FE3F92E412C512C3201A701960160E05A
:1011500070E080E89FE30E94E90D27E137EB41ED65
:1011600058E30E94380F9B01AC01C301B2010E94F9
:101170002E0D2B013C0127E137EB41ED58E3C70170
:10118000B6010E942E0D6B017C0120E030E040E2B0
:1011900051E40E94E40D87FDD8CFA3019201C5015F
:1011A000B4010E94E90D6B017C01EDCBA701960112
:1011B00060E070E080E89FE30E94E90D27E137EBF3
:1011C00041ED58E30E94380F9B01AC01C501B40109
:1011D0000E942D0D4B015C0127E137EB41ED58E3F7
:1011E000C701B6010E942E0D6B017C0120E030E0AA
:1011F00040E85FE3C701B6010E94E40D87FDD6CF4A
:101200009BCF68E671E0C7010E9414028823E1F1D8
:1012100069E2C7010E9424028823B1F1F70101901D
:101220000020E9F78F01015011090E191F0905303F
:10123000110510F405E010E0055011090034110506
:1012400010F00FE310E0B7016C5F7F4FA801CE01F3
:1012500001960E944A13E1E0F0E0EC0FFD1FE00F61
:10126000F11F1082CE0101960E9444046B017C01A3
:1012700020E030E0A9010E94E40D87FF84CBF7FA5B
:10128000F094F7F8F0947FCB6DE671E0C7010E940F
:1012900014028823D9F169E2C7010E94240288233D
:1012A000A9F1F70101900020E9F78F010150110920
:1012B0000E191F090630110510F406E010E0065063
:1012C00011090034110510F00FE310E0B7016B5F56
:1012D0007F4FA801CE0101960E944A13E1E0F0E0A1
:1012E000EC0FFD1FE00FF11F1082CE0101960E944E
:1012F00044040E949A0D20E030E044E353E40E944D
:10130000380F2BED3FE049E450E44BCF63E771E049
:10131000C7010E941402882389F169E2C7010E9473
:101320002402882359F1F70101900020E9F78F0189
:10133000015011090E191F090630110510F406E0BD
:1013400010E0065011090034110510F00FE310E011
:10135000B7016B5F7F4FA801CE0101960E944A132F
:10136000E1E0F0E0EC0FFD1FE00FF11F1082CE0175
:1013700001960E9444040E941C0DBDCF69E771E0F4
:10138000C7010E941402882389F169E2C7010E9403
:101390002402882359F1F70101900020E9F78F0119
:1013A000015011090E191F090630110510F406E04D
:1013B00010E0065011090034110510F00FE310E0A1
:1013C000B7016B5F7F4FA801CE0101960E944A13BF
:1013D000E1E0F0E0EC0FFD1FE00FF11F1082CE0105
:1013E00001960E9444040E94B50D85CFC7010E945A
:1013F0008D02D9CECF93DF93CDB7DEB72A970FB644
:10140000F894DEBF0FBECDBF84B18F6384B92FEFD8
:1014100060E772E0215060407040E1F700C00000DA
:1014200083E00E9464018FE19EE40197F1F700C020
:10143000000083E00E946401E7E5F2E03197F1F7F4
:1014400000C0000083E00E94640182E00E94640109
:1014500060E088E20E947E0160E08CE00E947E01F4
:1014600060E086E00E947E010E94BA018FE791E071
:101470000E949601FFEF27EA61E6F15020406040AC
:10148000E1F700C000000E94BA0180E00E94C5019F
:101490008BE891E00E9496010E94BA0180E00E94D0
:1014A000C5018BE891E00E949601BAE2CB2EB1E033
:1014B000DB2E21E030E0F6018081883008F065C045
:1014C0004AB1B90102C0660F771F8A95E2F7CB01D6
:1014D000809584238AB9F6018081883008F071C034
:1014E0009BB1A90101C0440F8A95EAF7892F842B8B
:1014F0008BB9F3E0CF0ED11C6EE4C61661E0D606C0
:10150000D1F65198599A5098589AE3E0AE2EB12CE2
:1015100088248394912CA2E06A2E712C7AE2E72E23
:1015200071E0F72EF70180810E94A301811130C183
:10153000FFEF26E761E0F15020406040E1F700C096
:101540000000F70180810E94A301811121C1F701F0
:101550001281F70180810E94A301882309F449C008
:10156000133409F04DC010922B0210922A021092EF
:101570002902109228020E94BA0180E00E94C5014F
:101580008BE891E00E9496015CC08E3068F444B113
:101590008850F90102C0EE0FFF1F8A95E2F7CF01D4
:1015A0008095842384B997CF47B18E50B90102C08A
:1015B000660F771F8A95E2F7CB018095842387B960
:1015C0008ACF8E3058F495B18850A90101C0440FDC
:1015D0008A95EAF7892F842B85B98BCF98B18E50E5
:1015E000A90101C0440F8A95EAF7892F842B88B995
:1015F00080CF8FE39CE90197F1F700C00000A9CFED
:101600001D3339F50E94BA018BE292E00E94440436
:101610008E010F5F1F4F24E046E00E94891180E099
:101620000E94C501C8010E949601B8018BE292E0B8
:101630000E94351381E08093280210922A021092B2
:1016400029027FEF83EC99E0715080409040E1F7F0
:1016500041C08091290290912A02209128022223E0
:1016600031F0009721F410922B0210922802212FC2
:10167000012E000C330B205331098130910509F004
:101680000BC180912602909127022830310581F507
:101690000196B5010E94F40C9093270280932602D4
:1016A0000E94BA0180912602909127020097A9F426
:1016B00082E991E00E94960181E00E94C50187EBDA
:1016C00091E00E949601FFEF23EC69E0F150204089
:1016D0006040E1F700C000005BC08130910519F463
:1016E00082EA91E0E7CF029739F782EB91E0E2CF0F
:1016F0002930310511F40296CCCF0097D9F424306B
:1017000031050CF0B8C0220F331FF901E65FFE4F20
:10171000608171818BE292E00E942A1310922A026A
:10172000109229020E94BA0180E00E94C5018BE25A
:1017300092E028CF8130910551F4243031050CF02E
:101740009AC0220F331FF901EE5FFE4FE1CF0297DF
:1017500009F091C0232B09F08EC08BE292E0FC01CE
:1017600001900020E9F7CF018C52924021F0865D74
:101770009D4FFC01108210922A02109229020E94B1
:10178000BA0180E00E94C5018BE292E00E949601BE
:10179000E3E0EE0EF11CCE14DF0409F0C3CE80E0CE
:1017A0000E94A301811130C0FFEF26E761E0F150F4
:1017B00020406040E1F700C000000E94A3018111B9
:1017C00023C08091290290912A02019709F0D6C086
:1017D00010922A02109229020E94BA0180E00E940F
:1017E000C5018BE292E00E94960180E00E94A30175
:1017F000882309F4D7C09FEFE3ECF9E09150E04073
:10180000F040E1F700C0000081E00E94A3018111D7
:1018100085CE2FEF66E771E0215060407040E1F720
:1018200000C0000081E00E94A301811177CE809169
:10183000290290912A02029709F0BBC010922A0255
:10184000109229020E94BA0180E00E94C5018BE239
:1018500092E00E94960181E00E94A301882309F48E
:10186000BCC09FEFE3ECF9E09150E040F040E1F7BD
:1018700000C0000053CE0E94BA0180E00E94C50162
:1018800085EC91E00E949601FFEF23ED60E3F150BB
:1018900020406040E1F71ECF029709F065C0283074
:1018A0003105C1F580912402909125020196B50180
:1018B0000E94F40C90932502809324020E94BA01A6
:1018C0008091240290912502009751F480ED91E0DF
:1018D0000E94960181E00E94C5018CED91E052CEFC
:1018E0008130910551F488EE91E00E94960181E0EB
:1018F0000E94C50184EF91E045CE029709F0A1CE88
:1019000080E092E00E94960181E00E94C5018EE095
:1019100092E038CE809124029091250202962930DF
:10192000310529F2243031050CF0A5CF8091240235
:1019300090912502009731F4220F331FF901EE5DDB
:10194000FE4FE6CE8130910531F4220F331FF901AD
:10195000E65EFE4FDDCE029709F0E0CE220F331F88
:10196000F901EE5EFE4FD4CE19831A82BE016F5F7D
:101970007F4F8BE292E00E942A13D4CE90922A02EB
:101980008092290210922702109226020E94BA0128
:1019900082E991E00E94960181E00E94C50187EBF7
:1019A00091E021CF8FE39CE90197F1F700C000009F
:1019B0001CCF70922A026092290210922502109286
:1019C00024020E94BA0180ED91E00E94960181E01C
:1019D0000E94C5018CED91E03CCF8FE39CE901971B
:1019E000F1F700C0000037CF97FB072E16F40094E4
:1019F00007D077FD09D00E94080D07FC05D03EF402
:101A0000909581959F4F0895709561957F4F0895AA
:101A1000AA1BBB1B51E107C0AA1FBB1FA617B70714
:101A200010F0A61BB70B881F991F5A95A9F7809530
:101A30009095BC01CD0108959F939F770E945B0E06
:101A40000F90002042F49058A2EA2AED3FE049E4CA
:101A500050E40E94450D0C94F10E5058BB27AA2764
:101A60000E94450D0C94F10E0E94E30E38F00E9486
:101A7000EA0E20F039F49F3F19F426F40C94A50ED9
:101A80000EF4E095E7FB0C949F0EE92F0E94020FE5
:101A900058F3BA17620773078407950720F079F4A3
:101AA000A6F50C94240F0EF4E0950B2EBA2FA02D62
:101AB0000B01B90190010C01CA01A0011124FF27FB
:101AC000591B99F0593F50F4503E68F11A16F040F6
:101AD000A22F232F342F4427585FF3CF46953795F5
:101AE0002795A795F0405395C9F77EF41F16BA0BBA
:101AF000620B730B840BBAF09150A1F0FF0FBB1F68
:101B0000661F771F881FC2F70EC0BA0F621F731FB0
:101B1000841F48F4879577956795B795F7959E3F0D
:101B200008F0B0CF9395880F08F09927EE0F97959E
:101B3000879508959F939F77EEE389379E0728F452
:101B4000E8E6F0E00E94CF0E0CC00E945B0E9058B9
:101B5000A2EA2AED3FE049EC5FE30E94450D0E94B6
:101B6000F10E0F9007FC90580895DF93DD27B92FF1
:101B7000BF7740E85FE31616170648075B0718F4BF
:101B8000D92F0E94300F9F938F937F936F930E9462
:101B90003B10ECE7F0E00E94A80E0E94F10E2F919E
:101BA0003F914F915F910E944B0FDD2351F0905870
:101BB000A2EA2AED3FE049EC5FE3D0785D270E947E
:101BC000450DDF910C94F10E0E947B0E08F481E02C
:101BD00008950E94FD0D0C94F10E0E94EA0E58F03B
:101BE0000E94E30E40F029F45F3F29F00C949F0E11
:101BF00051110C94250F0C94A50E0E94020F68F34E
:101C00009923B1F3552391F3951B550BBB27AA27B5
:101C100062177307840738F09F5F5F4F220F331FEF
:101C2000441FAA1FA9F335D00E2E3AF0E0E832D0B7
:101C300091505040E695001CCAF72BD0FE2F29D0BA
:101C4000660F771F881FBB1F261737074807AB078C
:101C5000B0E809F0BB0B802DBF01FF2793585F4F01
:101C60003AF09E3F510578F00C949F0E0C94250F8E
:101C70005F3FE4F3983ED4F3869577956795B795E3
:101C8000F7959F5FC9F7880F911D9695879597F9EE
:101C90000895E1E0660F771F881FBB1F6217730767
:101CA0008407BA0720F0621B730B840BBA0BEE1F7C
:101CB00088F7E0950895DF93CF931F930F938B01DF
:101CC000EC01E9EAF0E00E94A80E0E94F10E9801F2
:101CD000AE018B01EC0160E070E080E89FE30E94C0
:101CE0002D0D0E94FB0F9801AE010F911F91CF9116
:101CF000DF910C944B0F990F0008550FAA0BE0E8E9
:101D0000FEEF16161706E807F907C0F012161306BD
:101D1000E407F50798F0621B730B840B950B39F4FD
:101D20000A2661F0232B242B252B21F408950A2663
:101D300009F4A140A6958FEF811D811D089597F9A3
:101D40009F6780E870E060E008959FEF80EC089561
:101D5000DF93CF931F930F93FF92EF92DF927B015C
:101D60008C01689406C0DA2EEF010E944B0FFE0131
:101D7000E894A5912591359145915591A6F3EF01F0
:101D80000E94450DFE019701A801DA9469F7DF90E2
:101D9000EF90FF900F911F91CF91DF9108959F9346
:101DA0008F937F936F93FF93EF939B01AC010E94FE
:101DB000380FEF91FF910E94A80E2F913F914F9104
:101DC0005F910C94380F00240A9416161706180613
:101DD0000906089500240A9412161306140605062F
:101DE0000895092E0394000C11F4882352F0BB0FC0
:101DF00040F4BF2B11F460FF04C06F5F7F4F8F4F23
:101E00009F4F089557FD9058440F551F59F05F3F5D
:101E100071F04795880F97FB991F61F09F3F79F00C
:101E200087950895121613061406551FF2CF46958E
:101E3000F1DF08C0161617061806991FF1CF869510
:101E40007105610508940895E894BB2766277727F4
:101E5000CB0197F908950E947B0E08F48FEF089547
:101E60009B01AC0160E070E080E89FE30C94E90D19
:101E70000E944B0F0C94F10E0E94E30E38F00E946A
:101E8000EA0E20F0952311F00C949F0E0C94A50EF1
:101E900011240C94250F0E94020F70F3959FC1F33B
:101EA000950F50E0551F629FF001729FBB27F00D08
:101EB000B11D639FAA27F00DB11DAA1F649F66275D
:101EC000B00DA11D661F829F2227B00DA11D621FAC
:101ED000739FB00DA11D621F839FA00D611D221F66
:101EE000749F3327A00D611D231F849F600D211D4A
:101EF000822F762F6A2F11249F5750409AF0F1F0CD
:101F000088234AF0EE0FFF1FBB1F661F771F881F35
:101F100091505040A9F79E3F510580F00C949F0EC0
:101F20000C94250F5F3FE4F3983ED4F386957795A4
:101F30006795B795F795E7959F5FC1F7FE2B880FDB
:101F4000911D9695879597F90895FA01EE0FFF1F59
:101F5000309621053105A1F16115710561F48038D4
:101F6000BFE39B0749F168949038810561F08038A0
:101F7000BFEF9B0741F099234AF5FF3FE10531058B
:101F8000210519F1E8940894E795D901AA2329F4C9
:101F9000AB2FBE2FF85FD0F310C0FF5F70F4A69593
:101FA000E0F7F73950F019F0FF3A38F49F779F9334
:101FB0000DD00F9007FC9058089546F00C94A50E94
:101FC00060E070E080E89FE308954FE79F775F93BC
:101FD0004F933F932F930E94D0102F913F914F9199
:101FE0005F910E94380F0C94471019F416F40C946A
:101FF000A50E0C9479100E940A0FB8F39923C9F327
:10200000B6F39F57550B87FF0E9487100024A0E668
:1020100040EA900180585695979528F4805C660FA9
:10202000771F881F20F026173707480730F4621BF8
:10203000730B840B202931294A2BA69517940794FA
:10204000202531254A2758F7660F771F881F20F073
:1020500026173707480730F4620B730B840B200DEB
:10206000311D411DA09581F7B901842F9158880F2A
:102070009695879508959B01AC010C94380F29F42F
:1020800016F00C949F0E0C94240F0C94A50E0E9435
:102090000A0FA8F39638A0F707F80F92E8942BE3FD
:1020A0003AEA48EB5FE70E944E0F0F920F920F92B1
:1020B0004DB75EB70F920E941811E1EDF0E00E945B
:1020C000A80E4F915F91EF91FF91E595EE1FFF1FD5
:1020D00049F0FE57E0684427EE0F441FFA95E1F7F8
:1020E0004195550B0E9492100F9007FE0C94300FF3
:1020F00008959F3F31F0915020F48795779567952B
:10210000B795880F911D9695879597F908959150E9
:102110005040660F771F881FD2F708950C949F0ECA
:102120000C9479100E940A0FD8F39923C9F3940FE5
:10213000511DA3F39150504094F059F0882332F090
:10214000660F771F881F91505040C1F79E3F510581
:102150002CF7880F911D9695879597F908955F3F05
:10216000ACF0983E9CF0BB27869577956795B79520
:1021700008F4B1609395C1F7BB0F58F711F460FFF5
:10218000E8CF6F5F7F4F8F4F9F4FE3CF0C94250FAA
:1021900016F00C9479100C94A50E68940C949F0E74
:1021A0000E940A0FA8F39923C1F3AEF3DF93CF93F4
:1021B0001F930F93FF92C92FDD2788232AF02197C1
:1021C000660F771F881FDAF720E030E040E85FEB0A
:1021D0009FE3883920F0803E38F021968F770E9467
:1021E0002E0DE9EFF0E004C00E942E0DE6E2F1E0D2
:1021F0000E94A80E8B01BE01EC01FB2E6F577109E6
:102200007595771F880B990B0E944E1128E132E7D4
:1022100041E35FE30E944B0FAF2D9801AE01FF90A9
:102220000F911F91CF91DF910E94450D0C94F10EFB
:10223000FA01DC01AA0FBB1F9B01AC01BF5728F4B8
:10224000222733274427507820C0B75190F4AB2F72
:102250000024469537952795011CA395D2F30020BD
:1022600071F0220F331F441FB395DAF30ED00C9494
:102270002D0D61307105A0E88A07B94630F49B0145
:10228000AC016627772788279078309621F0208345
:102290003183428353830895E89409C097FB3EF449
:1022A00090958095709561957F4F8F4F9F4F9923A3
:1022B000A9F0F92F96E9BB279395F6958795779521
:1022C0006795B795F111F8CFFAF4BB0F11F460FFE1
:1022D0001BC06F5F7F4F8F4F9F4F16C0882311F039
:1022E00096E911C0772321F09EE8872F762F05C04D
:1022F000662371F096E8862F70E060E02AF09A95E8
:10230000660F771F881FDAF7880F9695879597F9DC
:102310000895EF920F931F93CF93DF93E80134E07A
:1023200047FD34E1042E000C550B57FF03C05195B7
:1023300041955109E32E022F242FAE010E9459131B
:10234000CE01DF91CF911F910F91EF900895B0E0F2
:10235000A0E0EDEAF1E10C94AD155C017B016115A3
:10236000710519F0DB018D939C9385010F5F1F4F61
:10237000F501D0818D2F90E00E94F7126C01892B1E
:10238000B9F5DD32B9F50F5F1F4FD5011196DC911C
:10239000C1E05801F1E0AF1AB10843E050E06CE54C
:1023A00071E0C5010E940013892B69F5680182E084
:1023B000C80ED11C45E050E067E571E0C6010E94FF
:1023C0000013892B21F4680197E0C90ED11CE11498
:1023D000F10419F0D701CD92DC9260E070E080E862
:1023E0009FEFC111FFC060E070E080E89FE7FAC096
:1023F0005801BBCFDB3229F485010E5F1F4FF50179
:10240000D181C0E0C6CF43E050E064E571E0C50192
:102410000E940013892BE9F0F80110E000E020E0B1
:1024200030E0A9015F01B0ED8B2E8D0E89E088159B
:10243000C8F19C2E689491F88C2F8870C2FF16C04A
:10244000811102C00F5F1F4F3196D501DC91C92D5C
:10245000E9CFE114F10429F00E5F1F4FF70111835A
:10246000008360E070E080EC9FE7BCC0882311F03F
:1024700001501109A5E0B0E00E949C159B01AC0140
:10248000220F331F441F551F280D311D411D511DA3
:10249000283999E93907490799E15907A8F2C6602F
:1024A0009C2ED2CFAEEF8A1206C0C3FD3CC09C2E3C
:1024B000689493F8C9CFDF7DD534A9F580818D323A
:1024C00039F4C061DF011296818162E070E006C0DC
:1024D000DF018B32C1F3119661E070E080535D0142
:1024E000A61AB70A8A30F8F4E0E8CE16ECE0DE0669
:1024F0005CF4B601660F771F660F771FC60ED71EF6
:10250000CC0CDD1CC80ED11C5D01FFEFAF1ABF0A59
:102510008C9180538A30A8F1C4FF03C0D194C19438
:10252000D1080C0D1D1DC1FF09C0E114F10431F0EB
:1025300081E0A81AB108D701AD92BC92CA01B901D5
:102540000E944C11C370C33009F490584B015C01D8
:1025500020E030E0A9010E94E40D882309F440C086
:10256000CBE8D1E017FF05C0119501951109C3E72C
:10257000D1E06E01B8E1CB1AD10880E2E82EF12C4F
:102580000FC0D501B1CFFE012591359145915491F0
:102590000E191F09C501B4010E94380F4B015C01DF
:1025A000D501C4010E151F0574F72497F594E7941F
:1025B000CC16DD06A9F78A2F880F8B2F881F8F3F37
:1025C00049F020E030E0A901C501B4010E94E40D0A
:1025D000811106C082E290E090936C0280936B02BE
:1025E000C501B401CDB7DEB7ECE00C94C91591116B
:1025F0000C949015803219F089508550C8F70895D1
:10260000FB01DC014150504088F08D9181341CF079
:102610008B350CF4805E659161341CF06B350CF4E5
:10262000605E861B611171F3990B0895881BFCCFC6
:102630006817790768F4FB01DC01E40FF51FA40FAC
:10264000B51F02C002900E9241505040D8F7089535
:102650000C949315FB01DC010D900020E9F7119714
:1026600001900D920020E1F70895FB01DC0101903B
:102670000D920020E1F70895FB01DC01415050402C
:1026800030F08D910190801919F40020B9F7881B62
:10269000990B0895FB01DC014150504048F0019036
:1026A0000D920020C9F701C01D9241505040E0F743
:1026B0000895A9E0B0E0EFE5F3E10C94AD156A01EF
:1026C000F22EB02E102FFBE3AF2EA01608F41BE362
:1026D0001F5F012F27E0AE014F5F5F4F0E94B814CC
:1026E000BC018981982F9970913009F43FC09BE219
:1026F000E1FC04C09E2D9170E0FC3AC05E2D50714B
:10270000E82FE87083FF46C084E0911101C083E0A8
:10271000EF2DE81B8F1508F0E0E0D6018E2F20E2A8
:10272000552351F1992329F0D6019C93C6010196B6
:102730006C0196012D5F3F4FE2FE24C08EE4D6016E
:102740008C9391E411969C93119712968C93D901D6
:102750008E2F90E281111BC0E20FF32FF11D10822A
:102760008EEF9FEF2996ECE00C94C9159DE2C6CF41
:1027700090E2C4CF2D9381508111FCCFCE0ED11C9D
:10278000E0E0D0CF8EE6D6018C9391E6DBCF9D932F
:102790008150E0CF482F447082FF3DC084E091110A
:1027A00001C083E08F1510F4EF2DE81BD6018E2FAA
:1027B00020E2552309F1992329F0D6019C93C60103
:1027C00001966C0196012D5F3F4FE2FE1BC089E42C
:1027D000D6018C938EE411968C93119786E4129611
:1027E0008C93D9018E2F90E2882309F4B5CF9D9365
:1027F0008150FACF2D9381508111FCCFCE0ED11C88
:10280000E0E0D9CF89E6D6018C938EE611968C93C1
:10281000119786E6E4CF9B0177FF02C030E020E00D
:10282000A1E0B0E0911102C0B0E0A0E0F901319662
:10283000AE0FBF1F8B2C912CBB2009F461C054013B
:10284000EFEFAE1ABE0AAA0DBB1DFA161B0619F051
:1028500014F04F2D4A1B511188C0E3FC59C076017A
:10286000A42FB0E2A1114FC0C40ED11C992309F4CA
:102870005BC040E0D6011196F60190836D015523AF
:1028800009F448C0012F060F9A81582F507184FF18
:1028900003C0913309F4015010160CF047C0093001
:1028A00008F008E0EEE2FE2E5B01A01AB1088501F7
:1028B0009194819491082F3F320729F4D601FC921C
:1028C000F60131966F016217730794F1021713072F
:1028D0007CF5DB01A21BB30BAA24A394B12CAC0E94
:1028E000BD1EAA0DBB1D11968C9121503109D60138
:1028F000119628153905F4F0F60180836D01DBCFC0
:10290000B12CA12CA0CFF701B1937F01A150AACF88
:102910009111B0CFD601942F50E302C05D93915036
:102920009111FCCFC40ED11C40E0ACCF01E0BACF76
:1029300080E3DBCF6217730731F4963388F4953365
:1029400011F4552369F0F6018083FD01842F90E294
:10295000811108C0A40FB11D1C9290E080E002CF4D
:1029600081E3F1CF91938150F3CF911183CF8ACF3F
:10297000283008F027E03327DA01990F311D87FD51
:10298000916000966105710539F432602E5F3D93C8
:1029900030E32A95E1F708959F3F30F080387105C4
:1029A000610509F03C5F3C5F3D93913008F0806821
:1029B000911DDF93CF931F930F93FF92EF92192FE7
:1029C000987F9695E92F96959695E90FFF27E75101
:1029D000FE4F99273327EE24FF24A701E701059036
:1029E0000894079428F4360FE71EF81E491F511D5E
:1029F000660F771F881F991F0694A1F7059007940B
:102A000028F4E70EF81E491F561FC11D770F881FB7
:102A1000991F661F0694A1F70590079428F4F80EF5
:102A2000491F561FC71FD11D880F991F661F771F8B
:102A30000694A1F70590079420F4490F561FC71F6D
:102A4000D81F990F661F771F881F0694A9F78491D6
:102A50001095177041F0D695C79557954795F794FF
:102A6000E7941A95C1F7EFE8F1E068941590159195
:102A700035916591959105907FE27395E118F10A82
:102A8000430B560BC90BD009C0F7E10CF11E431FD5
:102A9000561FC91FD01D7EF4703311F48A95E6CFFE
:102AA000E894015030F0080F0AF40027021708F4E8
:102AB000202F2395022F7A3328F079E37D932A95EE
:102AC000E9F710C07D932A9589F606949795679546
:102AD000379517951794E118F10A430B560BC90B5C
:102AE000D00998F023957E9173957A3308F070E3BE
:102AF0007C932013B8F77E9170617D9330F08395BD
:102B000071E37D9370E32A95E1F71124EF90FF9034
:102B10000F911F91CF91DF91992787FD909508958F
:102B2000992788270895FB01DC0102C001900D92CE
:102B300041505040D8F708950E94DE15A59F900D92
:102B4000B49F900DA49F800D911D112408952F9284
:102B50003F924F925F926F927F928F929F92AF922D
:102B6000BF92CF92DF92EF92FF920F931F93CF937A
:102B7000DF93CDB7DEB7CA1BDB0B0FB6F894DEBF11
:102B80000FBECDBF09942A88398848885F846E8437
:102B90007D848C849B84AA84B984C884DF80EE8081
:102BA000FD800C811B81AA81B981CE0FD11D0FB68A
:102BB000F894DEBF0FBECDBFED010895A29FB00116
:102BC000B39FC001A39F700D811D1124911DB29F61
:0E2BD000700D811D1124911D0895F894FFCF02
:102BDE00B4011C021E026601B001200222021B0279
:102BEE00A0016D01730179011B0259015D016301A1
:102BFE0068016E0174017A01540102003003003144
:102C0E000400320500330600340700350E00360F7F
:102C1E00003710003811003912004313003D010037
:102C2E0000000C0065787028006C6E2800737172BD
:102C3E007428006C6F6728006162732800617369E5
:102C4E006E280061636F7328006174616E280053F3
:102C5E00696D706C652043616C6300456E746572BE
:102C6E003A00303A2B20313A2D20323A2A20333A8C
:102C7E002F00303A5E20313A2520323A2820333A5E
:102C8E002900303A425300383A4E65787420393A6A
:102C9E005072657600496E76616C6964204F7000E3
:102CAE00303A73696E20313A636F7300323A746151
:102CBE006E20333A65787000303A6C6E20313A737C
:102CCE0071727400323A6C6F6720333A616273002E
:102CDE00303A6173696E20313A61636F7300323A34
:102CEE006174616E20333A20202020005E002500A2
:042CFE002B002D007A
:00000001FF
