:100000000C943A000C9457000C9457000C94570031
:100010000C9457000C9457000C9457000C94570004
:100020000C9457000C9457000C9457000C945700F4
:100030000C9457000C9457000C9457000C945700E4
:100040000C9457000C9457000C9457000C945700D4
:100050000C9457000C9457000C9457000C945700C4
:100060000C9457000C9457006364696E6F7073753D
:1000700078585B0011241FBECFEFD8E0DEBFCDBFA4
:1000800011E0A0E0B1E0E2E4FDE702C005900D92CE
:10009000A234B107D9F721E0A2E4B1E001C01D927A
:1000A000A734B207E1F70E947A300C94583D0C94C3
:1000B00000002F923F924F925F926F927F928F92A9
:1000C0009F92AF92BF92CF92DF92EF92FF920F93E7
:1000D0001F93CF93DF93CDB7DEB7C05DD1090FB6C5
:1000E000F894DEBF0FBECDBF6B017C0120E030E095
:1000F000A901C701B6010E94823587FD50C52AE0DB
:1001000037ED43E25CE3C701B6010E9428342B01BE
:100110003C01C301B2010E949A34C354DF4F68838B
:10012000CD5BD040C254DF4F7883CE5BD04080E0BF
:1001300090E0A0E8BFE3C154DF4F88839983AA838E
:10014000BB83CF5BD040C354DF4FA881B981CD5B67
:10015000D0401A161B060CF05CC52AE037ED43E2CE
:100160005CE3C154DF4F688179818A819B81CF5BD9
:10017000D0400E948735CD53DF4F6883C35CD040A9
:10018000CC53DF4F7883C45CD040CB53DF4F8883A0
:10019000C55CD040CA53DF4F9883C65CD04020E096
:1001A00030E040E05FE34B015C01C501B4010E9417
:1001B0008735C953DF4F6883C75CD040C853DF4FD2
:1001C0007883C85CD040C753DF4F8883C95CD04078
:1001D000C653DF4F9883CA5CD040212C312CC754C2
:1001E000DF4F1882C95BD040C654DF4F1882CA5B0C
:1001F000D040C554DF4F1882CB5BD040C454DF4F92
:100200001882CC5BD040C153DF4F1882CF5CD04006
:1002100010E000E0C355DF4F1882CD5AD040C053E4
:10022000DF4F1883C05DD040C153DF4FB881CF5C32
:10023000D040B983C053DF4F8881C05DD0408A83EE
:100240001B830C8329813A814B815C81BD838E8322
:100250001F8308876D817E818F8198850E948735F5
:1002600069877A878B879C8729853A854B855C854A
:1002700060E070E080E89FE30E94B6336D877E8780
:100280008F87988B8D859E85AF85B889C355DF4F45
:1002900088839983AA83BB83CD5AD040C355DF4F4F
:1002A00088819981AA81BB81CD5AD040B595A79507
:1002B000979587953FED432E39E5532E37E3632E0F
:1002C0003FE5732E481A590A6A0A7B0AC953DF4F61
:1002D0009881C75CD040998BC853DF4FA881C85C18
:1002E000D040AA8BC753DF4FB881C95CD040BB8BCD
:1002F000C653DF4F8881CA5CD0408C8B29893A89EC
:100300004B895C89C153DF4F9881CF5CD0409D8B76
:10031000C053DF4FA881C05DD040AE8B1F8B088FCC
:100320006D897E898F89988D0E94B733698F7A8F06
:100330008B8F9C8F298D3A8D4B8D5C8D6D8F7E8F31
:100340008F8F98A36D8D7E8D8F8D98A10E9487359C
:1003500069A37AA38BA39CA329A13AA14BA15CA179
:1003600060E070E080E89FE30E94B6336DA37EA357
:100370008FA398A78DA19EA1AFA1B8A5CF54DF4FA1
:1003800088839983AA83BB83C15BD040CF54DF4F5E
:1003900088819981AA81BB81C15BD040B595A79521
:1003A000979587955FEDC52E59E5D52E57E3E52E38
:1003B0005FE5F52EC81AD90AEA0AFB0ACD53DF4FCA
:1003C0009881C35CD04099A7CC53DF4FA881C45C0F
:1003D000D040AAA7CB53DF4FB881C55CD040BBA7A4
:1003E000CA53DF4F8881C65CD0408CA729A53AA5A7
:1003F0004BA55CA5C153DF4F9881CF5CD0409DA732
:10040000C053DF4FA881C05DD040AEA71FA708AB87
:100410006DA57EA58FA598A90E94B733C153DF4F64
:100420006883CF5CD040C053DF4F7883C05DD0403D
:10043000182F092F69AB7AAB8BAB9CAB29A93AA9D2
:100440004BA95CA96DAB7EAB8FAB98AF6DA97EA9B4
:100450008FA998AD0E94873569AF7AAF8BAF9CAFFB
:1004600029AD3AAD4BAD5CAD60E070E080E89FE354
:100470000E94B6336DAF7EAF8FAF21969FAF2197AD
:1004800021968CAD9DADAEADBFAD2197CB54DF4F66
:1004900088839983AA83BB83C55BD040CB54DF4F4D
:1004A00088819981AA81BB81C55BD040B595A7950C
:1004B000979587957FED872E79E5972E77E3A72E81
:1004C0007FE5B72E881A990AAA0ABB0A20E030E015
:1004D00040E05FE3CF54DF4F688179818A819B815F
:1004E000C15BD0400E948735A701960122966FAF6D
:1004F000229723967FAF239724968FAF2497259634
:100500009FAF259725966CAD7DAD8EAD9FAD2597A0
:100510000E948735A701960126966FAF26972796EA
:100520007FAF279728968FAF289729969FAF299757
:1005300029966CAD7DAD8EAD9FAD29970E94873514
:100540002A966FAF2A972B967FAF2B972C968FAF5B
:100550002C972D969FAF2D972D962CAD3DAD4EAD82
:100560005FAD2D9760E070E080EC9FE30E94B633B2
:10057000A70196012E966FAF2E972F967FAF2F97DC
:1005800060968FAF609761969FAF619761966CADF3
:100590007DAD8EAD9FAD61970E9487352AE037ED26
:1005A00043E25CE362966FAF629763967FAF6397B7
:1005B00064968FAF649765969FAF659765966CADAF
:1005C0007DAD8EAD9FAD65970E94873566966FAF06
:1005D000669767967FAF679768968FAF68976996BB
:1005E0009FAF699769962CAD3DAD4EAD5FAD6997F4
:1005F0006A966FAF6A976B967FAF6B976C968FAF6B
:100600006C976D969FAF6D976D966CAD7DAD8EAD11
:100610009FAD6D970E94B7336B017C0120E030E005
:1006200040E05FE3C355DF4F688179818A819B8118
:10063000CD5AD0400E948735A30192016E966FAFCC
:100640006E976F967FAF6F97A0968FAFA097A1968A
:100650009FAFA197A1966CAD7DAD8EAD9FADA197DB
:100660000E948735A3019201A2966FAFA297A3962D
:100670007FAFA397A4968FAFA497A5969FAFA5979A
:10068000A5966CAD7DAD8EAD9FADA5970E948735CB
:10069000A6966FAFA697A7967FAFA797A8968FAF9E
:1006A000A897A9969FAFA997A9962CAD3DAD4EAD41
:1006B0005FADA99760E070E080EC9FE30E94B633E5
:1006C000A3019201AA966FAFAA97AB967FAFAB97A3
:1006D000AC968FAFAC97AD969FAFAD97AD966CAD26
:1006E0007DAD8EAD9FADAD970E9487352AE037ED89
:1006F00043E25CE3AE966FAFAE97AF967FAFAF9736
:10070000E0968FAFE097E1969FAFE197E1966CADF1
:100710007DAD8EAD9FADE1970E948735E296CFAE5D
:10072000E297E396DFAEE397E496EFAEE497E596C3
:10073000FFAEE597E5962CAD3DAD4EAD5FADE597CF
:10074000E6966FAFE697E7967FAFE797E8968FAFAD
:10075000E897E9969FAFE997E9966CAD7DAD8EADD0
:100760009FADE9970E94B733EA96CFAEEA97EB9632
:10077000DFAEEB97EC96EFAEEC97ED96FFAEED9714
:10078000ED962CAD3DAD4EAD5FADED97EE966FAFF6
:10079000EE97EF967FAFEF97C158DF4F8883CF5723
:1007A000D040C058DF4F9883C058D040C358DF4F67
:1007B000688179818A819B81CD57D0400E94B7336F
:1007C0006B017C0120E030E040E05FE3CB54DF4F81
:1007D000688179818A819B81C55BD0400E94873581
:1007E000A5019401CF57DF4F6883C158D040CE5741
:1007F000DF4F7883C258D040CD57DF4F8883C3582E
:10080000D040CC57DF4F9883C458D040CF57DF4FEC
:10081000688179818A819B81C158D0400E94873547
:10082000A5019401CB57DF4F6883C558D040CA5704
:10083000DF4F7883C658D040C957DF4F8883C758E9
:10084000D040C857DF4F9883C858D040CB57DF4FB0
:10085000688179818A819B81C558D0400E94873503
:10086000C757DF4F6883C958D040C657DF4F7883DA
:10087000CA58D040C557DF4F8883CB58D040C457A3
:10088000DF4F9883CC58D040C757DF4F288139813C
:100890004A815B81C958D04060E070E080EC9FE302
:1008A0000E94B633A5019401C357DF4F6883CD582A
:1008B000D040C257DF4F7883CE58D040C157DF4F6A
:1008C0008883CF58D040C057DF4F9883C059D0405D
:1008D000C357DF4F688179818A819B81CD58D04091
:1008E0000E9487352AE037ED43E25CE3CF56DF4FC5
:1008F0006883C159D040CE56DF4F7883C259D0406B
:10090000CD56DF4F8883C359D040CC56DF4F9883F4
:10091000C459D040CF56DF4F688179818A819B814D
:10092000C159D0400E948735CB56DF4F6883C559E7
:10093000D040CA56DF4F7883C659D040C956DF4FE2
:100940008883C759D040C856DF4F9883C859D040D4
:10095000CB56DF4F288139814A815B81C559D04010
:10096000C756DF4FC882C959D040C656DF4FD8821C
:10097000CA59D040C556DF4FE882CB59D040C45643
:10098000DF4FF882CC59D040C756DF4F688179815C
:100990008A819B81C959D0400E94B733C154DF4F2F
:1009A000288139814A815B81CF5BD040C356DF4FBC
:1009B0006883CD59D040C256DF4F7883CE59D0409E
:1009C000C156DF4F8883CF59D040C056DF4F988340
:1009D000C05AD040C356DF4F688179818A819B819C
:1009E000CD59D0400E94873520E030E040EC50E403
:1009F000CF55DF4F6883C15AD040CE55DF4F788343
:100A0000C25AD040CD55DF4F8883C35AD040CC5511
:100A1000DF4F9883C45AD040CF55DF4F688179812A
:100A20008A819B81C15AD0400E942834CB55DF4F28
:100A30006883C55AD040CA55DF4F7883C65AD04024
:100A4000C955DF4F8883C75AD040C855DF4F9883B8
:100A5000C85AD040CB55DF4F288139814A815B810C
:100A6000C55AD040C754DF4F9881C95BD040C755A5
:100A7000DF4F9883C95AD040C654DF4FA881CA5B64
:100A8000D040C655DF4FA883CA5AD040C554DF4F67
:100A9000B881CB5BD040C555DF4FB883CB5AD0402F
:100AA000C454DF4F8881CC5BD040C455DF4F88836E
:100AB000CC5AD040C755DF4F688179818A819B81AC
:100AC000C95AD0400E94B733C754DF4F6883C95B0F
:100AD000D040C654DF4F7883CA5BD040C554DF4F47
:100AE0008883CB5BD040C454DF4F9883CC5BD0402D
:100AF0009FEF291A390AC354DF4FA881B981CD5B12
:100B0000D0402A163B0609F08FCBC754DF4FB8817F
:100B1000C95BD040C553DF4FB883CB5CD040C654CF
:100B2000DF4F8881CA5BD040C453DF4F8883CC5CE1
:100B3000D040C554DF4F9881CB5BD040C353DF4FCB
:100B40009883CD5CD040C454DF4FA881CC5BD040AB
:100B5000C253DF4FA883CE5CD040C553DF4F6881BE
:100B600079818A819B81CB5CD040C053DF4F0FB627
:100B7000F894DEBF0FBECDBFDF91CF911F910F91D3
:100B8000FF90EF90DF90CF90BF90AF909F908F90AD
:100B90007F906F905F904F903F902F900895C70186
:100BA000B60190582AE037ED43E25CE30E94283416
:100BB000C355DF4F6883CD5AD040C255DF4F78838D
:100BC000CE5AD040C155DF4F8883CF5AD040C05550
:100BD000DF4F9883C05BD040C355DF4F6881798178
:100BE0008A819B81CD5AD0400E949A34C354DF4FF2
:100BF00079836883CD5BD04080E090E0A0E8BFEBD4
:100C0000C154DF4F88839983AA83BB83CF5BD040D5
:100C10009ACAC754DF4F1882C95BD040C654DF4F11
:100C20001882CA5BD040C554DF4F1882CB5BD040DE
:100C3000C454DF4F1882CC5BD04067CF2F923F92D5
:100C40004F925F926F927F928F929F92AF92BF92DC
:100C5000CF92DF92EF92FF920F931F93CF93DF9388
:100C6000CDB7DEB7CE59D1400FB6F894DEBF0FBE78
:100C7000CDBFCF52DF4F6883C15DD040CE52DF4F32
:100C80007883C25DD040CD52DF4F8883C35DD040B2
:100C9000CC52DF4F9883C45DD040CB54DF4F2883C4
:100CA000C55BD040CA54DF4F3883C65BD0404A0191
:100CB00020E030E040E85FE36B017C01C701B60152
:100CC0000E94233487FF02C00C94521220E030E0CF
:100CD00040E85FE326013701C301B2010E94B63349
:100CE000162F072FF82EE92E2AE037ED43E25CE3BA
:100CF000C355DF4F6883CD5AD040C255DF4F78834C
:100D0000CE5AD040C155DF4F8883CF5AD040C0550E
:100D1000DF4F9883C05BD040C355DF4F6881798136
:100D20008A819B81CD5AD0400E942834CF54DF4F16
:100D30006883C15BD040CE54DF4F7883C25BD04024
:100D4000CD54DF4F8883C35BD040CC54DF4F9883B2
:100D5000C45BD040CF54DF4F688179818A819B8109
:100D6000C15BD0400E949A34C154DF4F6883CF5B8F
:100D7000D040C054DF4F7883C05CD040C154DF4FB7
:100D800088819981CF5BD0401816190614F00C9415
:100D9000611200E010E0612C712C60E8262E7FE3E8
:100DA000372EC854DF4F1882C85BD040C954DF4F7C
:100DB0001882C75BD040E0E84E2EFFE35F2E90E044
:100DC000C256DE4F9883CE59D14020E0C356DE4F45
:100DD0002883CD59D140C355DF4F8882CD5AD040AA
:100DE000CF54DF4F9882C15BD0404801C256DE4FDE
:100DF0008881CE59D1408987C356DE4F9881CD591D
:100E0000D1409A874B865C8629853A854B855C85DF
:100E1000CB54DF4F8881C55BD0408D87CA54DF4FEC
:100E20009881C65BD0409E87C355DF4F8881CD5ADD
:100E3000D0408F87CF54DF4F9881C15BD040988BD3
:100E40006D857E858F8598890E94873579826A8233
:100E50002B823C8229813A814B815C816D837E8328
:100E60008F8398876D817E818F8198850E94283439
:100E70002AE037ED43E25CE3698B7A8B8B8B9C8BAA
:100E800069897A898B899C890E948735C954DF4F8B
:100E90006883C75BD040C854DF4F7883C85BD040BD
:100EA000C754DF4F8883C95BD040C654DF4F988357
:100EB000CA5BD0402AE037ED43EA5BE37D8A6E8A65
:100EC0002F8A388E6D897E898F89988D0E94B733DD
:100ED0007B018C0120E030E040E05FE3C954DF4F4C
:100EE0008881C75BD040898FC854DF4F9881C85B29
:100EF000D0409A8FC754DF4F8881C95BD0408B8F19
:100F0000C654DF4F9881CA5BD0409C8F698D7A8D23
:100F10008B8D9C8D0E948735C256DE4F2881CE591D
:100F2000D1402D8FC356DE4F2881CD59D1402E8F11
:100F30004F8E58A22D8D3E8D4F8D58A169A37AA357
:100F40008BA39CA369A17AA18BA19CA10E94B7331A
:100F5000CB54DF4F2881C55BD0402DA3CA54DF4F4F
:100F60002881C65BD0402EA3C355DF4F2881CD5AC0
:100F7000D0402FA3CF54DF4F2881C15BD04028A79A
:100F80002DA13EA14FA158A569A77AA78BA79CA721
:100F900069A57AA58BA59CA50E948735EDA6FEA61E
:100FA0000FA718AB2DA53EA54FA558A969AB7AABE5
:100FB0008BAB9CAB69A97AA98BA99CA90E94283408
:100FC0002AE037ED43E25CE36DAB7EAB8FAB98AFCD
:100FD0006DA97EA98FA998AD0E9487355B016C0130
:100FE00020E030E040E05FE369AFBAAE8BAFDCAE4B
:100FF00069AD7AAD8BAD9CAD0E948735C256DE4F90
:101000002881CE59D1402DAFC356DE4F2881CD590E
:10101000D1402EAF4FAE21965FAE219721962CADD9
:101020003DAD4EAD5FAD219722966FAF22972396CF
:101030007FAF239724968FAF249725969FAF259750
:1010400025966CAD7DAD8EAD9FAD25970E94B733D3
:10105000CB54DF4F2881C55BD04026962FAF269713
:10106000CA54DF4F2881C65BD04027962FAF279701
:10107000C355DF4F2881CD5AD04028962FAF2897EF
:10108000CF54DF4F2881C15BD04029962FAF2997DD
:1010900029962CAD3DAD4EAD5FAD29972A966FAF29
:1010A0002A972B967FAF2B972C968FAF2C972D9648
:1010B0009FAF2D972D966CAD7DAD8EAD9FAD2D97CD
:1010C0000E9487352E96EFAE2E972F96FFAE2F9764
:1010D00060960FAF609761961FAF619761962CADD8
:1010E0003DAD4EAD5FAD619762966FAF629763960F
:1010F0007FAF639764968FAF649765969FAF659750
:1011000065966CAD7DAD8EAD9FAD65970E94283420
:101110002AE037ED43E25CE366966FAF6697679629
:101120007FAF679768968FAF689769969FAF69970B
:1011300069966CAD7DAD8EAD9FAD69970E94873588
:101140007B018C012AE037ED43E25CE36A967FAED7
:101150006A976B966FAE6B976C962FAE6C976D9689
:101160003FAE6D976D966CAD7DAD8EAD9FAD6D97BD
:101170000E94B733762E672E1C01C256DE4F88813F
:10118000CE59D1406E968FAF6E97C356DE4F988181
:10119000CD59D1406F969FAF6F97A0964FAEA09755
:1011A000A1965FAEA197A1962CAD3DAD4EAD5FADC2
:1011B000A197A296EFAEA297A396FFAEA397A4968F
:1011C0000FAFA497A5961FAFA597A5966CAD7DAD63
:1011D0008EAD9FADA5970E94B733CB54DF4F2881CA
:1011E000C55BD040A6962FAFA697CA54DF4F288183
:1011F000C65BD040A7962FAFA797C355DF4F288176
:10120000CD5AD040A8962FAFA897CF54DF4F288152
:10121000C15BD040A9962FAFA997A9962CAD3DAD43
:101220004EAD5FADA997AA966FAFAA97AB967FAF69
:10123000AB97AC968FAFAC97AD969FAFAD97AD9691
:101240006CAD7DAD8EAD9FADAD970E948735AE96EE
:101250007FAEAE97AF966FAEAF97E0962FAEE097AA
:10126000E1963FAEE197E1962CAD3DAD4EAD5FAD61
:10127000E197E2966FAFE297E3967FAFE397E4964C
:101280008FAFE497E5969FAFE597E5966CAD7DADA2
:101290008EAD9FADE5970E9428342AE037ED43E2FA
:1012A0005CE3E6966FAFE697E7967FAFE797E89641
:1012B0008FAFE897E9969FAFE997E9966CAD7DAD62
:1012C0008EAD9FADE9970E948735C554DF4F688387
:1012D000CB5BD040C454DF4F7883CC5BD040C35449
:1012E000DF4F8883CD5BD040C254DF4F9883CE5B05
:1012F000D040EA96AFAEEA97EB96BFAEEB97EC968E
:10130000CFAEEC97ED96DFAEED97ED962CAD3DAD03
:101310004EAD5FADED97EE96AFAEEE97EF96BFAEEA
:10132000EF97C158DF4FC882CF57D040C058DF4F2A
:10133000D882C058D040C358DF4F688179818A81F4
:101340009B81CD57D0400E94B733C954DF4F2881CD
:10135000C75BD040CF57DF4F2883C158D040C85417
:10136000DF4F2881C85BD040CE57DF4F2883C2585B
:10137000D040C754DF4F2881C95BD040CD57DF4FE5
:101380002883C358D040C654DF4F2881CA5BD04061
:10139000CC57DF4F2883C458D040CF57DF4F288128
:1013A00039814A815B81C158D040CB57DF4F688378
:1013B000C558D040CA57DF4F7883C658D040C95768
:1013C000DF4F8883C758D040C857DF4F9883C8582D
:1013D000D040CB57DF4F688179818A819B81C55886
:1013E000D0400E94B7335B016C01C757DF4FE882E2
:1013F000C958D040C657DF4FF882CA58D040C557A9
:10140000DF4F0883CB58D040C457DF4F1883CC58E8
:10141000D040C757DF4F288139814A815B81C95845
:10142000D040C357DF4FE882CD58D040C257DF4F7E
:10143000F882CE58D040C157DF4F0883CF58D040F4
:10144000C057DF4F1883C059D040C357DF4F688162
:1014500079818A819B81CD58D0400E94B733CF5685
:10146000DF4F6883C159D040CE56DF4F7883C259D1
:10147000D040CD56DF4F8883C359D040CC56DF4F84
:101480009883C459D040CF56DF4F288139814A8193
:101490005B81C159D040CB56DF4FA882C559D0409F
:1014A000CA56DF4FB882C659D040C956DF4FC882EE
:1014B000C759D040C856DF4FD882C859D040CB5604
:1014C000DF4F688179818A819B81C559D0400E9414
:1014D000B733C756DF4F6883C959D040C656DF4F70
:1014E0007883CA59D040C556DF4F8883CB59D04046
:1014F000C456DF4F9883CC59D040C756DF4F288160
:1015000039814A815B81C959D040C554DF4F8881F8
:10151000CB5BD040C356DF4F8883CD59D040C454F5
:10152000DF4F9881CC5BD040C256DF4F9883CE59B5
:10153000D040C354DF4F8881CD5BD040C156DF4FD0
:101540008883CF59D040C254DF4F9881CE5BD040C2
:10155000C056DF4F9883C05AD040C356DF4F6881D2
:1015600079818A819B81CD59D0400E94B73320E098
:1015700030E040EC50E4CF55DF4F6883C15AD04093
:10158000CE55DF4F7883C25AD040CD55DF4F888388
:10159000C35AD040CC55DF4F9883C45AD040CF5562
:1015A000DF4F688179818A819B81C15AD0400E9436
:1015B0002834CB55DF4F6883C55AD040CA55DF4F1A
:1015C0007883C65AD040C955DF4F8883C75AD04068
:1015D000C855DF4F9883C85AD040CB55DF4F28817C
:1015E00039814A815B81C55AD040C256DE4F88811D
:1015F000CE59D140C755DF4F8883C95AD040C35612
:10160000DE4F9881CD59D140C655DF4F9883CA5AD5
:10161000D040C555DF4F4882CB5AD040C455DF4F2C
:101620005882CC5AD040C755DF4F688179818A8172
:101630009B81C95AD0400E94B733C256DE4F68839F
:10164000CE59D140C356DE4F7883CD59D1402C01BD
:101650002FEF821A920AC154DF4F88819981CF5BA4
:10166000D0408815990509F0C1CB862D672CC85448
:10167000DF4F6883C85BD040C954DF4F7883C75BB6
:10168000D040C355DF4F8880CD5AD040CF54DF4F74
:101690009880C15BD040782EC753DF4F6882C95C09
:1016A000D040C653DF4F8883CA5CD040C553DF4F5C
:1016B0002882CB5CD040C453DF4F3882CC5CD04012
:1016C000C753DF4F288139814A815B81C95CD04093
:1016D000CF52DF4F9881C15DD040C353DF4F988315
:1016E000CD5CD040CE52DF4F8881C25DD040C25326
:1016F000DF4F8883CE5CD040CD52DF4F9881C35DF1
:10170000D040C153DF4F9883CF5CD040CC52DF4FE5
:101710008881C45DD040C053DF4F8883C05DD04016
:10172000C353DF4F688179818A819B81CD5CD04032
:101730000E94B633162F072FF82EE92E20E030E056
:10174000A901CB53DF4F1883C55CD040CA53DF4F8C
:101750000883C65CD040C953DF4FF882C75CD040D5
:10176000C853DF4FE882C85CD040CB53DF4F68815D
:1017700079818A819B81C55CD0400E948235181690
:101780000CF050C6C854DF4F9881C85BD040CB5294
:10179000DF4F9883C55DD040C954DF4F2881C75BB8
:1017A000D040CA52DF4F2883C65DD040C952DF4FB8
:1017B0004882C75DD040C852DF4F5882C85DD040D4
:1017C000CB52DF4F288139814A815B81C55DD04092
:1017D000CB54DF4F8881C55BD040C752DF4F888331
:1017E000C95DD040CA54DF4F9881C65BD040C65215
:1017F000DF4F9883CA5DD040C552DF4F8882CB5DF2
:10180000D040C452DF4F9882CC5DD040C752DF4FEA
:10181000688179818A819B81C95DD0400E9487352A
:10182000C352DF4F6882CD5DD040C252DF4F788215
:10183000CE5DD040C152DF4F2882CF5DD040C05234
:10184000DF4F3882C05ED040C352DF4F28813981DC
:101850004A815B81CD5DD040CF51DF4F6883C15E4F
:10186000D040CE51DF4F7883C25ED040CD51DF4FA4
:101870008883C35ED040CC51DF4F9883C45ED04094
:10188000CF51DF4F688179818A819B81C15ED040D1
:101890000E942834CB51DF4F1883C55ED040CA5117
:1018A000DF4F0883C65ED040C951DF4FF882C75E64
:1018B000D040C851DF4FE882C85ED040CB51DF4FE7
:1018C000288139814A815B81C55ED040C751DF4F95
:1018D0006883C95ED040C651DF4F7883CA5ED0406E
:1018E000C551DF4F8883CB5ED040C451DF4F988312
:1018F000CC5ED040C751DF4F688179818A819B815E
:10190000C95ED0400E948735698F7D8F89A39DA3D2
:1019100020E030E040E05FE3C351DF4F1883CD5E4D
:10192000D040C251DF4F0883CE5ED040C151DF4F5F
:10193000F882CF5ED040C051DF4FE882C05FD04018
:10194000C351DF4F688179818A819B81CD5ED04010
:101950000E948735CF50DF4F6882C15FD040CE50A4
:10196000DF4F7882C25FD040CD50DF4F2882C35F07
:10197000D040CC50DF4F3882C45FD040CF50DF4FD3
:10198000288139814A815B81C15FD040CB50DF4FD4
:101990006883C55FD040CA50DF4F7883C65FD040B0
:1019A000C950DF4F8883C75FD040C850DF4F98834E
:1019B000C85FD040CB50DF4F688179818A819B819D
:1019C000C55FD0400E94B733B62EA72E89839D8372
:1019D00020E030E040E05FE3898DC750DF4F88832F
:1019E000C95FD0409D8DC650DF4F9883CA5FD040FD
:1019F00089A1C550DF4F8883CB5FD0409DA1C450E3
:101A0000DF4F9883CC5FD040C750DF4F688179812A
:101A10008A819B81C95FD0400E948735C854DF4FBF
:101A20002881C85BD040C350DF4F2883CD5FD040B2
:101A3000C954DF4F2881C75BD040C250DF4F288395
:101A4000CE5FD040C150DF4F4882CF5FD040C05002
:101A5000DF4F5882C050D140C350DF4F28813981B9
:101A60004A815B81CD5FD040CF5FDE4F6883C1503C
:101A7000D140CE5FDE4F7883C250D140CD5FDE4F84
:101A80008883C350D140CC5FDE4F9883C450D1408F
:101A9000CF5FDE4F688179818A819B81C150D140BF
:101AA0000E94B733CB54DF4F2881C55BD040CB5F5A
:101AB000DE4F2883C550D140CA54DF4F2881C65B12
:101AC000D040CA5FDE4F2883C650D140C95FDE4F89
:101AD0008882C750D140C85FDE4F9882C850D1403D
:101AE000CB5FDE4F288139814A815B81C550D1406F
:101AF000C75FDE4F6883C950D140C65FDE4F788331
:101B0000CA50D140C55FDE4F8883CB50D140C45FFF
:101B1000DE4F9883CC50D140C75FDE4F688179811A
:101B20008A819B81C950D1400E948735C35FDE4FB7
:101B3000B882CD50D140C25FDE4FA882CE50D14096
:101B40002981C15FDE4F2883CF50D1402D81C05FF6
:101B5000DE4F2883C051D140C35FDE4F28813981D9
:101B60004A815B81CD50D140CF5EDE4F6883C15149
:101B7000D140CE5EDE4F7883C251D140CD5EDE4F84
:101B80008883C351D140CC5EDE4F9883C451D1408D
:101B9000CF5EDE4F688179818A819B81C151D140BE
:101BA0000E942834CB5EDE4F1883C551D140CA5EF7
:101BB000DE4F0883C651D140C95EDE4FF882C7515F
:101BC000D140C85EDE4FE882C851D140CB5EDE4FC7
:101BD000288139814A815B81C551D140C75EDE4F82
:101BE0006883C951D140C65EDE4F7883CA51D14067
:101BF000C55EDE4F8883CB51D140C45EDE4F9883F3
:101C0000CC51D140C75EDE4F688179818A819B814A
:101C1000C951D1400E9487356B0189879D8720E09B
:101C200030E040E05FE3C35EDE4F6883CD51D140DA
:101C3000C25EDE4FD882CE51D140C15EDE4F888376
:101C4000CF51D140C05EDE4F9883C052D140C35EB9
:101C5000DE4F688179818A819B81CD51D1400E947C
:101C60008735C854DF4F2881C85BD040CF5DDE4F39
:101C70002883C152D140C954DF4F2881C75BD0406F
:101C8000CE5DDE4F2883C252D140CD5DDE4F48820B
:101C9000C352D140CC5DDE4F5882C452D140CF5D9B
:101CA000DE4F288139814A815B81C152D140CB5DB1
:101CB000DE4F6883C552D140CA5DDE4F7883C6527D
:101CC000D140C95DDE4F8883C752D140C85DDE4F29
:101CD0009883C852D140CB5DDE4F688179818A817B
:101CE0009B81C552D1400E94B733CB54DF4F28812E
:101CF000C55BD040C75DDE4F2883C952D140CA546E
:101D0000DF4F2881C65BD040C65DDE4F2883CA52B4
:101D1000D140C55DDE4F8882CB52D140C45DDE4FDD
:101D20009882CC52D140C75DDE4F288139814A81EB
:101D30005B81C952D140C35DDE4F6883CD52D14033
:101D4000C25DDE4F7883CE52D140C15DDE4F8883C5
:101D5000CF52D140C05DDE4F9883C053D140C35DA8
:101D6000DE4F688179818A819B81CD52D1400E946A
:101D70008735CF5CDE4FB882C153D140CE5CDE4F99
:101D8000A882C253D1402981CD5CDE4F2883C35342
:101D9000D1402D81CC5CDE4F2883C453D140CF5C31
:101DA000DE4F288139814A815B81C153D140CB5CB0
:101DB000DE4F6883C553D140CA5CDE4F7883C6537B
:101DC000D140C95CDE4F8883C753D140C85CDE4F29
:101DD0009883C853D140CB5CDE4F688179818A817A
:101DE0009B81C553D1400E942834C75CDE4F1883C5
:101DF000C953D140C65CDE4F0883CA53D140C55C8D
:101E0000DE4FF882CB53D140C45CDE4FE882CC5326
:101E1000D140C75CDE4F288139814A815B81C9533B
:101E2000D140C35CDE4F6883CD53D140C25CDE4FEE
:101E30007883CE53D140C15CDE4F8883CF53D140ED
:101E4000C05CDE4F9883C054D140C35CDE4F6881D4
:101E500079818A819B81CD53D1400E9487356983E6
:101E60007D83898B9D8BC854DF4F8881C85BD040B0
:101E7000CF5BDE4F8883C154D140C954DF4F988176
:101E8000C75BD040CE5BDE4F9883C254D140CD5B60
:101E9000DE4F4882C354D140CC5BDE4F5882C454DD
:101EA000D140CF5BDE4F288139814A815B81C154AB
:101EB000D140CB5BDE4F6883C554D140CA5BDE4F57
:101EC0007883C654D1408989C95BDE4F8883C75463
:101ED000D1409D89C85BDE4F9883C854D140CB5B0D
:101EE000DE4F688179818A819B81C554D1400E94EF
:101EF000B733CB54DF4F2881C55BD040C75BDE4F83
:101F00002883C954D140CA54DF4F2881C65BD040D2
:101F1000C65BDE4F2883CA54D140C55BDE4F888242
:101F2000CB54D140C45BDE4F9882CC54D140C75BC8
:101F3000DE4F288139814A815B81C954D140C35B1E
:101F4000DE4F6883CD54D140C25BDE4F7883CE54E0
:101F5000D140C15BDE4F8883CF54D140C05BDE4FA0
:101F60009883C055D140C35BDE4F688179818A81F7
:101F70009B81CD54D1400E9487354B015C01CF5AE3
:101F8000DE4F1883C155D140CE5ADE4F0883C2556B
:101F9000D140CD5ADE4FF882C355D140CC5ADE4FE6
:101FA000E882C455D140CF5ADE4F288139814A8119
:101FB0005B81C155D140CB5ADE4F6882C555D140B7
:101FC000CA5ADE4F7882C655D140C95ADE4F2882A0
:101FD000C755D140C85ADE4F3882C855D140CB5A78
:101FE000DE4F688179818A819B81C555D1400E94ED
:101FF000B733C75ADE4F6883C955D140C65ADE4F42
:102000007883CA55D140C55ADE4F8883CB55D1401D
:10201000C45ADE4F9883CC55D140C75ADE4F288131
:1020200039814A815B81C955D140C35ADE4F8882CC
:10203000CD55D140C25ADE4F9882CE55D140C15ABB
:10204000DE4FA882CF55D140C05ADE4FB882C0566D
:10205000D140C35ADE4F688179818A819B81CD55F9
:10206000D1400E942834CF59DE4F1883C156D14049
:10207000CE59DE4F0883C256D140CD59DE4FF8828B
:10208000C356D140CC59DE4FE882C456D140CF5917
:10209000DE4F288139814A815B81C156D140CB59BD
:1020A000DE4F6883C556D140CA59DE4F7883C65685
:1020B000D140C959DE4F8883C756D140C859DE4F39
:1020C0009883C856D140CB59DE4F688179818A8187
:1020D0009B81C556D1400E9487357B018C01C75931
:1020E000DE4FC882C956D140C659DE4FD882CA5683
:1020F000D1408985C559DE4F8883CB56D1409D8517
:10210000C459DE4F9883CC56D140C759DE4F288141
:1021100039814A815B81C956D140C359DE4FC8829B
:10212000CD56D140C259DE4FD882CE56D140C1598A
:10213000DE4F8883CF56D140C059DE4F9883C057B9
:10214000D140C359DE4F688179818A819B81CD5608
:10215000D1400E94B733298DCF58DE4F2883C15715
:10216000D1402D8DCE58DE4F2883C257D14029A1B2
:10217000CD58DE4F2883C357D1402DA1CC58DE4F18
:102180002883C457D140CF58DE4F288139814A81F6
:102190005B81C157D140CB58DE4F6883C557D140D2
:1021A000CA58DE4F7883C657D140C958DE4F88835E
:1021B000C757D140C858DE4F9883C857D140CB5835
:1021C000DE4F688179818A819B81C557D1400E9409
:1021D000B7335B016C018981C758DE4F8883C957CB
:1021E000D1409D81C658DE4F9883CA57D140298976
:1021F000C558DE4F2883CB57D1408D89C458DE4F58
:102200008883CC57D140C758DE4F288139814A8115
:102210005B81C957D1409981C358DE4F9883CD5710
:10222000D1408D81C258DE4F8883CE57D1409989E5
:10223000C158DE4F9883CF57D1408D89C058DE4FAB
:102240008883C058D140C358DE4F688179818A8124
:102250009B81CD57D1400E94B733CF57DE4F688363
:10226000C158D140CE57DE4F7883C258D140CD57A8
:10227000DE4F8883C358D140CC57DE4F9883C45873
:10228000D140CF57DE4F288139814A815B81C158C7
:10229000D140CB57DE4FA882C558D140CA57DE4F38
:1022A000B882C658D140C957DE4FC882C758D140FE
:1022B000C857DE4FD882C858D140CB57DE4F68810F
:1022C00079818A819B81C558D1400E94B733C75715
:1022D000DE4F6883C958D140C657DE4F7883CA584D
:1022E000D140C557DE4F8883CB58D140C457DE4F0D
:1022F0009883CC58D140C757DE4F288139814A8115
:102300005B81C958D140C357DE4FE882CD58D140D8
:10231000C257DE4FF882CE58D140C157DE4F0883F6
:10232000CF58D140C057DE4F1883C059D140C35752
:10233000DE4F688179818A819B81CD58D1400E948E
:10234000B73320E030E040EC50E4CF56DE4F6883F6
:10235000C159D140CE56DE4F7883C259D140CD56B7
:10236000DE4F8883C359D140CC56DE4F9883C45981
:10237000D140CF56DE4F688179818A819B81C159D6
:10238000D1400E942834CB56DE4F6883C559D140D6
:10239000CA56DE4F7883C659D140C956DE4F88836E
:1023A000C759D140C856DE4F9883C859D140CB5643
:1023B000DE4F288139814A815B81C559D140C8549B
:1023C000DF4F9881C85BD040C756DE4F9883C9590C
:1023D000D140C954DF4F8881C75BD040C656DE4F1D
:1023E0008883CA59D140C556DE4F4882CB59D14067
:1023F000C456DE4F5882CC59D140C756DE4F688153
:1024000079818A819B81C959D1400E94B733C854D0
:10241000DF4F6883C85BD040C954DF4F7883C75B08
:10242000D0402C01C854DF4F9881C85BD040CF53B7
:10243000DF4F9883C15CD040C954DF4F2881C75B10
:10244000D040CE53DF4F2883C25CD040CD53DF4F06
:102450004882C35CD040CC53DF4F5882C45CD0402C
:10246000CF53DF4F688179818A819B81C15CD040E5
:10247000C256DE4F0FB6F894DEBF0FBECDBFDF9160
:10248000CF911F910F91FF90EF90DF90CF90BF9071
:10249000AF909F908F907F906F905F904F903F9004
:1024A0002F900895C854DF4F1882C85BD040C9549C
:1024B000DF4F1882C75BD04080E8482E9FE3592E3B
:1024C000B1CF612C712C20E8222E3FE3332EC8546B
:1024D000DF4F1882C85BD040C954DF4F1882C75BFA
:1024E000D04040E8442E5FE3552E28C94F925F92BA
:1024F0006F927F928F929F92AF92BF92CF92DF9214
:10250000EF92FF920F931F93CF93DF93CDB7DEB778
:102510002E970FB6F894DEBF0FBECDBF6D877E87B6
:10252000182F092F20E030E040E85FE32B01682EF0
:10253000792EC301B2010E948235412C512C90E8C2
:10254000692E2FE3722E18168CF5CD84DE84E12ED1
:10255000F02EA701960149825A826B827C826981A2
:102560007A818B819C810E9487352B013C0120E080
:1025700030E040E85FE3CD82DE821F8308876D8113
:102580007E818F8198850E94B6336D877E87182F54
:10259000092F20E030E040E85FE34B01A82EB92E80
:1025A000C501B4010E94823518167CF249865A860C
:1025B0006B867C8669857A858B859C852E960FB681
:1025C000F894DEBF0FBECDBFDF91CF911F910F9169
:1025D000FF90EF90DF90CF90BF90AF909F908F9043
:1025E0007F906F905F904F9008954F925F926F929F
:1025F0007F928F929F92AF92BF92CF92DF92EF9293
:10260000FF920F931F93CF93DF93CDB7DEB72C9735
:102610000FB6F894DEBF0FBECDBF8B019C01C90180
:10262000B8018B019C0135952795179507955FEDAE
:10263000C52E59E5D52E57E3E52E5FE5F52EC01AD8
:10264000D10AE20AF30A20E030E040E05FE30E94B2
:102650008735A701960169837A838B839C8369817F
:102660007A818B819C810E948735A70196012B017D
:102670003C01C301B2010E9487354B015C01A501F9
:10268000940160E070E080EC9FE30E94B633A70104
:1026900096016D837E838F8398876D817E818F8184
:1026A00098850E94873569877A878B879C8769859B
:1026B0007A858B859C852C960FB6F894DEBF0FBE6D
:1026C000CDBFDF91CF911F910F91FF90EF90DF90E1
:1026D000CF90BF90AF909F908F907F906F905F90C2
:1026E0004F9008952F923F924F925F926F927F92F8
:1026F0008F929F92AF92BF92CF92DF92EF92FF9212
:102700000F931F93CF93DF93CDB7DEB7C058D10996
:102710000FB6F894DEBF0FBECDBF6B017C0120E089
:1027200030E0A901C701B6010E94823587FD7CC255
:102730002AE037ED43E25CE3C701B6010E9428348A
:102740004B015C01C501B4010E949A34E2966FAF5F
:10275000E297E3967FAFE39780E090E0A0E8BFE3E5
:10276000E7968CAF9DAFAEAFBFAFE797E396AEAD48
:10277000BFADE3971A161B060CF07BC22AE037EDBB
:1027800043E25CE3E7966CAD7DAD8EAD9FADE79720
:102790000E948735E8966FAFE897E9967FAFE99793
:1027A000EA968FAFEA97EB969FAFEB97A12CB12CEF
:1027B000212C312C412C512C00E010E0C058DF4F6F
:1027C0001882C058D040C158DF4F1882CF57D04030
:1027D0002AE037ED43EA5BE309831A83C058DF4FF1
:1027E000B881C058D040BB83C158DF4F8881CF57D4
:1027F000D0408C8369817A818B819C810E94B73320
:102800003B014C012AE037ED43E25CE30D831E837C
:10281000C058DF4F9881C058D0409F83C158DF4FC8
:10282000A881CF57D040A8876D817E818F81988500
:102830000E94B7336B017C0169867A868B869C8601
:1028400029853A854B855C856D867E868F86988A3C
:102850006D857E858F8598890E94873520E030E0E0
:1028600040E85FE3698B7A8B8B8B9C8B69897A89D3
:102870008B899C890E94B7336D8B7E8B8F8B988F51
:102880002D893E894F89588D6AE077ED83E29CE37C
:102890000E942834698F7A8F8B8F9C8F298D3A8D77
:1028A0004B8D5C8D6D8F7E8F8F8F98A36D8D7E8D00
:1028B0008F8D98A10E94B7333B014C0109A31AA345
:1028C000C058DF4FB881C058D040BBA3C158DF4FBC
:1028D0008881CF57D0408CA329A13AA14BA15CA1FC
:1028E0000DA31EA3BFA388A76DA17EA18FA198A54C
:1028F0000E94873520E030E040E85FE369A77AA7CF
:102900008BA79CA769A57AA58BA59CA50E94B73328
:102910006DA77EA78FA798AB2DA53EA54FA558A95B
:102920006AE077ED83E29CE30E94283469AA7AAAE0
:102930008BAA9CAA29A93AA94BA95CA96DAB7EAB2D
:102940008FAB98AF6DA97EA98FA998AD0E94B733C0
:1029500069AE7AAE8BAE9CAE29AD3AAD4BAD5CADF7
:102960006DAF7EAF8FAF21969FAF219721966CAD53
:102970007DAD8EAD9FAD21970E94B7333B014C01D9
:102980002296CFAE22972396DFAE23972496EFAE02
:1029900024972596FFAE259725962CAD3DAD4EADDF
:1029A0005FAD25972696CFAE26972796DFAE279761
:1029B0002896EFAE28972996FFAE299729966CADF9
:1029C0007DAD8EAD9FAD29970E94873520E030E028
:1029D00040E85FE32A966FAF2A972B967FAF2B973D
:1029E0002C968FAF2C972D969FAF2D972D966CAD73
:1029F0007DAD8EAD9FAD2D970E94B7332E966FAFF4
:102A00002E972F967FAF2F9760968FAF6097619626
:102A10009FAF619761962CAD3DAD4EAD5FAD6197B7
:102A20006AE077ED83E29CE30E94283462966FAF00
:102A3000629763967FAF639764968FAF649765964E
:102A40009FAF659765962CAD3DAD4EAD5FAD65977B
:102A500066966FAE669767967FAE679768968FAEFD
:102A6000689769969FAE699769966CAD7DAD8EAD9E
:102A70009FAD69970E94B733E7962CAD3DAD4EAD43
:102A80005FADE7976A966FAF6A976B967FAF6B976C
:102A90006C968FAF6C976D969FAF6D976D966CAD82
:102AA0007DAD8EAD9FAD6D970E94873520E030E003
:102AB00040EC50E46E966FAF6E976F967FAF6F9756
:102AC000A0968FAFA097A1969FAFA197A1966CAD4E
:102AD0007DAD8EAD9FADA1970E942834A2966FAFB9
:102AE000A297A3967FAFA397A4968FAFA497A5961E
:102AF0009FAFA597A5962CAD3DAD4EAD5FADA5970B
:102B0000A6962FAEA697A7963FAEA797A8964FAECC
:102B1000A897A9965FAEA997A9966CAD7DAD8EAD2D
:102B20009FADA9970E94B7331B012C01E8969FAD7A
:102B3000E897AA969FAFAA97E996AFADE997AB96AB
:102B4000AFAFAB97EA96BFADEA97AC96BFAFAC9785
:102B5000EB968FADEB97AD968FAFAD97AD962CAD55
:102B60003DAD4EAD5FADAD97AE960FAFAE97AF96A4
:102B70001FAFAF97C058DF4F9881C058D040E09644
:102B80009FAFE097C158DF4FA881CF57D040E19663
:102B9000AFAFE197E1966CAD7DAD8EAD9FADE197A6
:102BA0000E94B7338B01C058DF4F8883C058D04094
:102BB000C158DF4F9883CF57D040BFEFAB1ABB0A45
:102BC000E3968EAD9FADE397A816B90609F000CE47
:102BD000EC962FAEEC97ED963FAEED97EE964FAE9E
:102BE000EE97EF965FAEEF97EF966CAD7DAD8EAD45
:102BF0009FADEF97C058DF4F0FB6F894DEBF0FBE02
:102C0000CDBFDF91CF911F910F91FF90EF90DF909B
:102C1000CF90BF90AF909F908F907F906F905F907C
:102C20004F903F902F900895C701B60190582AE029
:102C300037ED43E25CE30E9428342B013C01C301E1
:102C4000B2010E949A34E3967FAF6EAFE39780E0C3
:102C500090E0A0E8BFEBE7968CAF9DAFAEAFBFAF03
:102C6000E797E396AEADBFADE3971A161B060CF4DB
:102C700085CD212C312C412C512CAACF4F925F9223
:102C80006F927F928F929F92AF92BF92CF92DF927C
:102C9000EF92FF920F931F93CF93DF938B01D82F67
:102CA000C92F20E030E040E85FEB2B01682E792E41
:102CB000C301B2010E94233487FD24C020E030E02C
:102CC00040E85FE36801ED2EFC2EC701B6010E94CB
:102CD00082351816BCF04801AD2EBC2EC501B401DA
:102CE000DF91CF911F910F91FF90EF90DF90CF90E8
:102CF000BF90AF909F908F907F906F905F904F901C
:102D00000C94590060E070E0CB01DF91CF911F91EE
:102D10000F91FF90EF90DF90CF90BF90AF909F907A
:102D20008F907F906F905F904F9008954F925F9239
:102D30006F927F928F929F92AF92BF92CF92DF92CB
:102D4000EF92FF920F931F93CF93DF93CDB7DEB730
:102D50002A970FB6F894DEBF0FBECDBF6A8779877A
:102D6000182F092F20E030E040E85FEB4B01A82E40
:102D7000B92EC501B4010E94233487FD25C020E08F
:102D800030E040E85FE389829A821B830C8369818B
:102D90007A818B819C810E9482351816ACF08D82DD
:102DA0009E821F8308876D817E818F8198850E9416
:102DB00059002B013C01A30192016BED7FE089ECEE
:102DC0009FE30E94B63304C06BED7FE089EC9FE384
:102DD0006B017C01C701B6012A960FB6F894DEBFDD
:102DE0000FBECDBFDF91CF911F910F91FF90EF905C
:102DF000DF90CF90BF90AF909F908F907F906F901B
:102E00005F904F9008952F923F924F925F926F92F2
:102E10007F928F929F92AF92BF92CF92DF92EF926A
:102E2000FF920F931F93CF93DF93CDB7DEB7C358B5
:102E3000D1400FB6F894DEBF0FBECDBFCB51DF4FF0
:102E40006883C55ED040CA51DF4F7883C65ED040EC
:102E5000182F092F2BED3FE049EC50E469837A836A
:102E60008B839C8369817A818B819C810E94283429
:102E70002B013C01C301B2010E949A34072E000CC1
:102E8000880B990B0E94D2342BED3FE049EC50E4C3
:102E90004B015C01C501B4010E9487356B017C01C7
:102EA000A7019601CB51DF4F7881C55ED0407D836D
:102EB000CA51DF4F8881C65ED0408E831F8308874A
:102EC0006D817E818F8198850E94B633C651DF4F18
:102ED0006883CA5ED040C551DF4F7883CB5ED04057
:102EE000C451DF4F8883CC5ED040C351DF4F9883FD
:102EF000CD5ED04020E030E0A9016D8B7E8B8F8BC2
:102F0000988F6D897E898F89988D0E94233487FFE1
:102F10004AC02BED3FE049EC50E4C651DF4F8881B9
:102F2000CA5ED040CF51DF4F8883C15ED040C551CB
:102F3000DF4F7881CB5ED040CE51DF4F7883C25EC9
:102F4000D040C451DF4F8881CC5ED040CD51DF4F9F
:102F50008883C35ED040C351DF4F7881CD5ED040BF
:102F6000CC51DF4F7883C45ED040CF51DF4F6881B2
:102F700079818A819B81C15ED0400E94B733C6515E
:102F8000DF4F6883CA5ED040C551DF4F7883CB5E88
:102F9000D040C451DF4F8883CC5ED040C351DF4F57
:102FA0009883CD5ED04020E030E0A901C651DF4FCC
:102FB0008881CA5ED040898FC551DF4F7881CB5E52
:102FC000D0407A8FC451DF4F8881CC5ED0408B8F48
:102FD000C351DF4F7881CD5ED0407C8F698D7A8D73
:102FE0008B8D9C8D0E948235181614F00C94A722AC
:102FF000412C512C80E889832FE32D83612C712C87
:10300000212C312C1D8A198ECF51DF4F1882C15EC1
:10301000D040CB51DF4F1882C55ED040B42CA52CD8
:10302000962C872C0D89198DCF51DF4F7881C15E89
:10303000D040C951DF4F7883C75ED0402AE037EDDA
:1030400043E25CE3872FCB51DF4F7881C55ED040F0
:10305000CA51DF4F7883C65ED04009871A878B87B5
:103060007C8769857A858B859C850E94B7336D8BBB
:10307000798FCF51DF4F8883C15ED040CB51DF4F76
:103080009883C55ED040C651DF4F8881CA5ED0406C
:103090008D87C551DF4F2881CB5ED0402E87C4512C
:1030A000DF4F7881CC5ED0407F87C351DF4F88816E
:1030B000CD5ED040888B2D853E854F855889762FF3
:1030C000698DCF51DF4F9881C15ED040CB51DF4F2A
:1030D0008881C55ED040798B6A8B9B8B8C8B69898C
:1030E0007A898B899C890E94823518160CF05CC401
:1030F000C951DF4F2881C75ED0402D874B2C5A2CF9
:10310000692C782CCA51DF4F7881C65ED040798710
:103110009D85CA50DF4F0883C65FD040C950DF4F3E
:103120001883C75FD040C850DF4F9883C85FD04036
:10313000C750DF4F7883C95FD040CA50DF4F288126
:1031400039814A815B81C65FD040C651DF4F88819B
:10315000CA5ED040C650DF4F8883CA5FD040C55199
:10316000DF4F7881CB5ED040C550DF4F7883CB5F97
:10317000D040C451DF4F8881CC5ED040C450DF4F77
:103180008883CC5FD040C351DF4F7881CD5ED04083
:10319000C350DF4F7883CD5FD040C650DF4F68818A
:1031A00079818A819B81CA5FD0400E94B633C25028
:1031B000DF4F6883CE5FD040C150DF4F7883CF5F51
:1031C000D040C050DF4F8883C050D140CF5FDE4F2A
:1031D0009883C150D140C250DF4F88809980AA8027
:1031E000BB80CE5FD040CE5FDE4F4882C250D14020
:1031F000CD5FDE4F5882C350D1408981CC5FDE4F16
:103200008883C450D1402D81CB5FDE4F2883C550C9
:10321000D140CE5FDE4F288139814A815B81C25027
:10322000D140C501B4010E9487358B018D879987F4
:10323000C501B4019058CA5FDE4F6882C650D140C4
:10324000C95FDE4F7882C750D140C85FDE4F288209
:10325000C850D140C75FDE4F3882C950D140CA5FE5
:10326000DE4F288139814A815B81C650D1400E945E
:10327000873520E030E040E05FE3C65FDE4F6883E3
:10328000CA50D140C55FDE4F7883CB50D140C45F78
:10329000DE4F8883CC50D140C35FDE4F9883CD5042
:1032A000D140C65FDE4F688179818A819B81CA5097
:1032B000D1400E948735C25FDE4F0883CE50D14097
:1032C000C15FDE4F1883CF50D1402D85C05FDE4FE8
:1032D0002883C051D1402985CF5EDE4F2883C1515C
:1032E000D140C25FDE4F288139814A815B81CE5057
:1032F000D140CE5EDE4F6883C251D140CD5EDE4FFD
:103300007883C351D140CC5EDE4F8883C451D14015
:10331000CB5EDE4F9883C551D140CE5EDE4F6881D3
:1033200079818A819B81C251D1400E94B7336B0160
:103330007C0120E030E040E05FE3CA5EDE4F0883BE
:10334000C651D140C95EDE4F1883C751D1407D853B
:10335000C85EDE4F7883C851D1408985C75EDE4F95
:103360008883C951D140CA5EDE4F688179818A81E4
:103370009B81C651D1400E948735C65EDE4F688270
:10338000CA51D140C55EDE4F7882CB51D140C45E78
:10339000DE4F2882CC51D140C35EDE4F3882CD5102
:1033A000D140C65EDE4F288139814A815B81CA5196
:1033B000D140C25EDE4F6883CE51D140C15EDE4F48
:1033C0007883CF51D140C05EDE4F8883C052D14058
:1033D000CF5DDE4F9883C152D140C25EDE4F68811F
:1033E00079818A819B81CE51D1400E94B733A5015A
:1033F0009401CE5DDE4F6883C252D140CD5DDE4F79
:103400007883C352D140CC5DDE4F8883C452D14013
:10341000CB5DDE4F9883C552D140CE5DDE4F6881D3
:1034200079818A819B81C252D1400E948735905810
:1034300020E030E040E05FE30E948735CA5DDE4F68
:103440000883C652D140C95DDE4F1883C752D140B0
:103450002D85C85DDE4F2883C852D1402985C75DC0
:10346000DE4F2883C952D140CA5DDE4F28813981A1
:103470004A815B81C652D140C65DDE4F6883CA5225
:10348000D140C55DDE4F7883CB52D140C45DDE4F65
:103490008883CC52D140C35DDE4F9883CD52D1405A
:1034A000C65DDE4F688179818A819B81CA52D14095
:1034B0000E94B733C25DDE4F6883CE52D140C15DFA
:1034C000DE4F7883CF52D140C05DDE4F8883C0533A
:1034D000D140CF5CDE4F9883C153D140C25DDE4FF7
:1034E000288139814A815B81CE52D140CE5CDE4F4A
:1034F0006883C253D140CD5CDE4F7883C353D14043
:10350000CC5CDE4F8883C453D140CB5CDE4F9883C4
:10351000C553D140CE5CDE4F688179818A819B8121
:10352000C253D1400E94B7332B0189839D83CA5C6B
:10353000DE4FC882C653D140C95CDE4FD882C75324
:10354000D140C85CDE4FE882C853D140C75CDE4F33
:10355000F882C953D140CA5CDE4F288139814A8143
:103560005B81C653D140C65CDE4FC882CA53D1408E
:10357000C55CDE4FD882CB53D140C45CDE4FE882BD
:10358000CC53D140C35CDE4FF882CD53D140C65CF2
:10359000DE4F688179818A819B81CA53D1400E9424
:1035A000B733C25CDE4F0883CE53D140C15CDE4FDF
:1035B0001883CF53D1402D85C05CDE4F2883C05483
:1035C000D1402985CF5BDE4F2883C154D140C25CF6
:1035D000DE4F288139814A815B81CE53D140CE5B59
:1035E000DE4F6883C254D140CD5BDE4F7883C35435
:1035F000D140CC5BDE4F8883C454D140CB5BDE4FDF
:103600009883C554D140CE5BDE4F688179818A8131
:103610009B81C254D1400E94B733CA5BDE4F68839E
:10362000C654D140C95BDE4F7883C754D140C85BD4
:10363000DE4F8883C854D140C75BDE4F9883C9549E
:10364000D140CA5BDE4F288139814A815B81C654F3
:10365000D140C65BDE4F4882CA54D140C55BDE4FC5
:103660005882CB54D1407981C45BDE4F7883CC54EF
:10367000D1408D81C35BDE4F8883CD54D140C65B82
:10368000DE4F688179818A819B81CA54D1400E9432
:10369000B7332B0189839D8320E030E040E05FE376
:1036A000C25BDE4FC882CE54D140C15BDE4FD882B0
:1036B000CF54D140C05BDE4FE882C055D140CF5AD5
:1036C000DE4FF882C155D140C25BDE4F68817981FF
:1036D0008A819B81CE54D1400E948735CE5ADE4FDD
:1036E0006882C255D140CD5ADE4F7882C355D14051
:1036F000CC5ADE4F2882C455D140CB5ADE4F388297
:10370000C555D140CE5ADE4F288139814A815B812F
:10371000C255D140CA5ADE4F6883C655D140C95AF6
:10372000DE4F7883C755D140C85ADE4F8883C855CD
:10373000D140C75ADE4F9883C955D140CA5ADE4F8F
:10374000688179818A819B81C655D1400E94B733B7
:10375000A5019401C65ADE4F6883CA55D140C55AA7
:10376000DE4F7883CB55D140C45ADE4F8883CC5589
:10377000D140C35ADE4F9883CD55D140C65ADE4F53
:10378000688179818A819B81CA55D1400E948735A1
:10379000C25ADE4F6883CE55D140C15ADE4F78837E
:1037A000CF55D140C05ADE4F8883C056D140CF5943
:1037B000DE4F9883C156D140C25ADE4F28813981ED
:1037C0004A815B81CE55D140CE59DE4F0883C25627
:1037D000D140CD59DE4F1883C356D1407D85CC5999
:1037E000DE4F7883C456D1408985CB59DE4F88831C
:1037F000C556D140CE59DE4F688179818A819B813F
:10380000C256D1400E94B633CA59DE4F6883C656AD
:10381000D140C959DE4F7883C756D140C859DE4FD1
:103820008883C856D140C759DE4F9883C956D140C6
:10383000CA59DE4F288139814A815B81C656D14001
:10384000C659DE4F4882CA56D140C559DE4F58820C
:10385000CB56D1407981C459DE4F7883CC56D140C4
:103860008D81C359DE4F8883CD56D140C659DE4F76
:10387000688179818A819B81CA56D1400E94B73381
:1038800020E030E040EC50E4C259DE4F6883CE5671
:10389000D140C159DE4F7883CF56D140C059DE4F59
:1038A0008883C057D140CF58DE4F9883C157D1404D
:1038B000C259DE4F688179818A819B81CE56D14081
:1038C0000E942834CE58DE4F6883C257D140CD586D
:1038D000DE4F7883C357D140CC58DE4F8883C4571E
:1038E000D140CB58DE4F9883C557D140CE58DE4FDC
:1038F000288139814A815B81C257D140CA58DE4F45
:103900006882C657D140C958DE4F7882C757D14028
:10391000C858DE4F2882C857D140C758DE4F38827A
:10392000C957D140CA58DE4F688179818A819B810D
:10393000C657D1400E94B7333B011C01C258DE4F2D
:103940006882CE57D140C158DE4F7882CF57D140E0
:10395000C058DE4F2882C058D140CF57DE4F388242
:10396000C158D140C258DE4F688179818A819B81DC
:10397000CE57D140CD57DE4F0FB6F894DEBF0FBE05
:10398000CDBFDF91CF911F910F91FF90EF90DF900E
:10399000CF90BF90AF909F908F907F906F905F90EF
:1039A0004F903F902F9008952AE037ED43E25CE37B
:1039B000BD8EAE8E79817F8F8D8188A36D8D7E8D3A
:1039C0008F8D98A10E948735C251DF4F6883CE5EEC
:1039D000D040C151DF4F7883CF5ED040C051DF4F20
:1039E0008883C05FD040CF50DF4F9883C15FD04005
:1039F0002AE037ED43E25CEB99A28AA22BA23CA21B
:103A000069A17AA18BA19CA10E948735CE50DF4F7E
:103A10006883C25FD040CD50DF4F7883C35FD04012
:103A2000CC50DF4F8883C45FD040CB50DF4F9883AA
:103A3000C55FD04020E030E040E05FE36DA37EA3AF
:103A40008FA398A76DA17EA18FA198A50E9487350D
:103A5000B9A6AAA629812BA72D812CA729A53AA50D
:103A60004BA55CA56DA77EA78FA798AB6DA57EA57E
:103A70008FA598A90E94B7332AE037ED43E25CE3B3
:103A800069AB7AAB8BAB9CAB69A97AA98BA99CA9D2
:103A90000E9487352B013C0120E030E040E05FE3ED
:103AA000C251DF4F7881CE5ED0407DABC151DF4F38
:103AB0008881CF5ED0408EABC051DF4F7881C05F30
:103AC000D0407FABCF50DF4F8881C15FD04088AFFF
:103AD0006DA97EA98FA998AD0E94873599AE8AAE4F
:103AE0002BAE3CAE29AD3AAD4BAD5CAD6DAF7EAF0C
:103AF0008FAF21969FAF219721966CAD7DAD8EAD96
:103B00009FAD21970E94B7332AE037ED43E25CE393
:103B100022966FAF229723967FAF239724968FAF7D
:103B2000249725969FAF259725966CAD7DAD8EADDC
:103B30009FAD25970E9487356B017C01F7FAF094C1
:103B4000F7F8F09420E030E040E05FE3C701B60111
:103B50000E9487352696BFAE26972796AFAE279749
:103B6000298128962FAF28972D8129962FAF299745
:103B700029962CAD3DAD4EAD5FAD29972A966FAF1E
:103B80002A972B967FAF2B972C968FAF2C972D963D
:103B90009FAF2D972D966CAD7DAD8EAD9FAD2D97C2
:103BA0000E94B7332AE037ED43E25CE32E966FAF15
:103BB0002E972F967FAF2F9760968FAF6097619665
:103BC0009FAF619761966CAD7DAD8EAD9FAD6197F6
:103BD0000E948735CA51DF4F6883C65ED040C95105
:103BE000DF4F7883C75ED040C851DF4F8883C85EFF
:103BF000D040C751DF4F9883C95ED04020E030E00D
:103C000040E05FE362964FAE629763965FAE639764
:103C100064966FAE649765967FAE659765966CAD5A
:103C20007DAD8EAD9FAD65970E94873566969FAE40
:103C3000669767968FAE679768962FAE6897699676
:103C40003FAE699769962CAD3DAD4EAD5FAD6997BE
:103C50006A966FAF6A976B967FAF6B976C968FAFD4
:103C60006C976D969FAF6D976D966CAD7DAD8EAD7B
:103C70009FAD6D970E94B7332AE037ED43E25CEBCE
:103C80006E966FAF6E976F967FAF6F97A0968FAF60
:103C9000A097A1969FAFA197A1966CAD7DAD8EAD7B
:103CA0009FADA1970E9487358B01CD57DE4F88834A
:103CB000C358D140CE57DE4F9883C258D140A29608
:103CC0009FAEA297A3968FAEA397A4962FAEA4976C
:103CD000A5963FAEA597A5962CAD3DAD4EAD5FAD7B
:103CE000A597CA51DF4F7881C65ED040A6967FAFB8
:103CF000A697C951DF4F8881C75ED040A7968FAF86
:103D0000A797C851DF4F7881C85ED040A8967FAF93
:103D1000A897C751DF4F8881C95ED040A9968FAF61
:103D2000A997A9966CAD7DAD8EAD9FADA9970E9468
:103D3000B7332AE037ED43E25CEBAA966FAFAA9760
:103D4000AB967FAFAB97AC968FAFAC97AD969FAF6E
:103D5000AD97AD966CAD7DAD8EAD9FADAD970E942C
:103D60008735C658DE4F6883CA57D140C558DE4FE5
:103D70007883CB57D140C458DE4F8883CC57D1408D
:103D8000C358DE4F9883CD57D140AE964FAEAE9715
:103D9000AF965FAEAF97E0966FAEE097E1967FAEDD
:103DA000E197E1962CAD3DAD4EAD5FADE197E2966A
:103DB0004FAEE297E3965FAEE397E4966FAEE4977B
:103DC000E5967FAEE597E5966CAD7DAD8EAD9FAD8A
:103DD000E5970E94B733C251DF4F2881CE5ED040B5
:103DE000E6962FAFE697C151DF4F2881CF5ED040D6
:103DF000E7962FAFE797C051DF4F2881C05FD040D3
:103E0000E8962FAFE897CF50DF4F2881C15FD040B1
:103E1000E9962FAFE997E9962CAD3DAD4EAD5FAD7C
:103E2000E997EA966FAFEA97EB967FAFEB97EC9640
:103E30008FAFEC97ED969FAFED97ED966CAD7DADA6
:103E40008EAD9FADED970E94B7332B013C01CA5157
:103E5000DF4F7881C65ED040EE967FAFEE97C951B6
:103E6000DF4F8881C75ED040EF968FAFEF97C85184
:103E7000DF4F2881C85ED040C158DF4F2883CF571D
:103E8000D040C751DF4F7881C95ED040C058DF4F66
:103E90007883C058D040C358DF4F288139814A8188
:103EA0005B81CD57D040CA51DF4F8881C65ED0407C
:103EB000CF57DF4F8883C158D040C951DF4F788139
:103EC000C75ED040CE57DF4F7883C258D040C8512C
:103ED000DF4F8881C85ED040CD57DF4F8883C358FD
:103EE000D040C751DF4F7881C95ED040CC57DF4FFB
:103EF0007883C458D040CF57DF4F688179818A8159
:103F00009B81C158D0400E94B733CB57DF4F6883A5
:103F1000C558D040CA57DF4F7883C658D040C957DC
:103F2000DF4F8883C758D040C857DF4F9883C858A1
:103F3000D040CB57DF4F288139814A815B81C558FA
:103F4000D040C757DF4F4882C958D040C657DF4FCF
:103F50005882CA58D040C557DF4F6882CB58D040EE
:103F6000C457DF4F7882CC58D040C757DF4F6881A5
:103F700079818A819B81C958D0400E94B7332B0137
:103F80003C01C357DF4FB882CD58D040C257DF4FF6
:103F9000A882CE58D0408981C157DF4F8883CF583F
:103FA000D0402D81C057DF4F2883C059D040C35720
:103FB000DF4F288139814A815B81CD58D040CF566F
:103FC000DF4F0883C159D040CE56DF4F1883C25906
:103FD000D040CD57DE4F7881C358D140CD56DF4F0A
:103FE0007883C359D040CE57DE4F8881C258D14024
:103FF000CC56DF4F8883C459D040CF56DF4F6881FD
:1040000079818A819B81C159D0400E94B7332AE0CF
:1040100037ED43E25CE3CB56DF4F6883C559D040B0
:10402000CA56DF4F7883C659D040C956DF4F8883C0
:10403000C759D040C856DF4F9883C859D040CB5697
:10404000DF4F688179818A819B81C559D0400E9468
:104050008735C756DF4F6883C959D040C656DF4FF2
:104060007883CA59D040C556DF4F8883CB59D0409A
:10407000C456DF4F9883CC59D040C756DF4F2881B4
:1040800039814A815B81C959D040C356DF4F48828C
:10409000CD59D040C256DF4F5882CE59D040C1567C
:1040A000DF4F6882CF59D040C056DF4F7882C05A68
:1040B000D040C356DF4F688179818A819B81CD5979
:1040C000D0400E94B73320E030E040EC50E4CF55C0
:1040D000DF4F6883C15AD040CE55DF4F7883C25A34
:1040E000D040CD55DF4F8883C35AD040CC55DF4FE9
:1040F0009883C45AD040CF55DF4F688179818A8137
:104100009B81C15AD0400E942834CB55DF4F688331
:10411000C55AD040CA55DF4F7883C65AD040C955DA
:10412000DF4F8883C75AD040C855DF4F9883C85A9D
:10413000D040CB55DF4F288139814A815B81C55AF8
:10414000D040C755DF4F9882C95AD040C655DF4F7F
:104150008882CA5AD040C555DF4F2882CB5AD040FA
:10416000C455DF4F3882CC5AD040C755DF4F6881E5
:1041700079818A819B81C95AD0400E94B733962E9B
:10418000872E1C01A7019601C701B6010E94B73313
:10419000CE50DF4F2881C25FD040C355DF4F288308
:1041A000CD5AD040CD50DF4F2881C35FD040C2559B
:1041B000DF4F2883CE5AD040CC50DF4F2881C45FD8
:1041C000D040C155DF4F2883CF5AD040CB50DF4F6E
:1041D0002881C55FD040C055DF4F2883C05BD040E9
:1041E000C355DF4F288139814A815B81CD5AD04048
:1041F000CF54DF4F6883C15BD040CE54DF4F78830C
:10420000C25BD040CD54DF4F8883C35BD040CC54D9
:10421000DF4F9883C45BD040CF54DF4F68817981F2
:104220008A819B81C15BD0400E94B7336B017C01C6
:10423000CB54DF4F0883C55BD040CA54DF4F18838F
:10424000C65BD040CD57DE4F7881C358D140C954AA
:10425000DF4F7883C75BD040CE57DE4F8881C2588E
:10426000D140C854DF4F8883C85BD040CB54DF4F68
:10427000288139814A815B81C55BD040C754DF4FBB
:104280000883C95BD040C654DF4F1883CA5BD04057
:10429000C554DF4F7883CB5BD040C454DF4F888355
:1042A000CC5BD040C754DF4F688179818A819B8184
:1042B000C95BD0400E94B733C354DF4F6883CD5BE6
:1042C000D040C254DF4F7883CE5BD040C154DF4F23
:1042D0008883CF5BD040C054DF4F9883C05CD04010
:1042E000C354DF4F288139814A815B81CD5BD04047
:1042F000CF53DF4FC882C15CD040CE53DF4FD8824E
:10430000C25CD040CD53DF4FE882C35CD040CC5379
:10431000DF4FF882C45CD040CF53DF4F6881798192
:104320008A819B81C15CD0400E94B733C658DE4F62
:104330002881CA57D140CB53DF4F2883C55CD0407A
:10434000C558DE4F2881CB57D140CA53DF4F288351
:10435000C65CD040C458DE4F2881CC57D140C953E9
:10436000DF4F2883C75CD040C358DE4F2881CD572C
:10437000D140C853DF4F2883C85CD040CB53DF4FB8
:10438000288139814A815B81C55CD040C753DF4FAA
:104390006883C95CD040C653DF4F7883CA5CD04085
:1043A000C553DF4F8883CB5CD040C453DF4F988325
:1043B000CC5CD040C753DF4F688179818A819B8173
:1043C000C95CD0400E94B73320E030E040EC50E4BC
:1043D000C353DF4F6883CD5CD040C253DF4F788337
:1043E000CE5CD040C153DF4F8883CF5CD040C053F8
:1043F000DF4F9883C05DD040C353DF4F6881798120
:104400008A819B81CD5CD0400E942834CF52DF4FFF
:104410006883C15DD040CE52DF4F7883C25DD0400B
:10442000CD52DF4F8883C35DD040CC52DF4F98839D
:10443000C45DD040CF52DF4F288139814A815B81F2
:10444000C15DD040CB52DF4FB882C55DD040CA526B
:10445000DF4FA882C65DD0407981C952DF4F788393
:10446000C75DD0408D81C852DF4F8883C85DD04082
:10447000CB52DF4F688179818A819B81C55DD040B5
:104480000E94B733B62EA72E89839D83C651DF4F76
:104490002881CA5ED040C752DF4F2883C95DD04013
:1044A000C551DF4F7881CB5ED040C652DF4F788355
:1044B000CA5DD040C451DF4F8881CC5ED040C55228
:1044C000DF4F8883CB5DD040C351DF4F2881CD5E65
:1044D000D040C452DF4F2883CC5DD040C752DF4F5D
:1044E000288139814A815B81C95DD0407D89698D90
:1044F000CF51DF4F9881C15ED040CB51DF4F8881D3
:10450000C55ED040C352DF4F7883CD5DD040C252EC
:10451000DF4F6883CE5DD040C152DF4F9883CF5DBF
:10452000D040C052DF4F8883C05ED040C352DF4FBF
:10453000688179818A819B81CD5DD0400E9423343E
:1045400087FF02C00C941218692C782CF7C9612CD3
:10455000712C212C312CF2C9CF92DF92EF92FF9275
:104560009B01AC016BED7FE089EC9FE30E94B633C9
:104570006B017C01C701B601FF90EF90DF90CF90F7
:104580000C9403172F923F924F925F926F927F92FB
:104590008F929F92AF92BF92CF92DF92EF92FF9253
:1045A0000F931F93CF93DF93CDB7DEB72C970FB642
:1045B000F894DEBF0FBECDBF6C877B87182F092F05
:1045C0009B01482F592FCA01B9010E940317362EAB
:1045D000272E89879A87CC84DB84E12EF02EA701D1
:1045E00096016BED7FE089EC9FE30E94B63369830F
:1045F0007A838B839C8369817A818B819C810E94E1
:1046000003172B013C01A3019201832C922CA98456
:10461000BA84C501B4010E9428346D837E838F83E0
:1046200098876D817E818F8198852C960FB6F8943E
:10463000DEBF0FBECDBFDF91CF911F910F91FF90D5
:10464000EF90DF90CF90BF90AF909F908F907F9032
:104650006F905F904F903F902F9008952F923F92D0
:104660004F925F926F927F928F929F92AF92BF9282
:10467000CF92DF92EF92FF920F931F93CF93DF932E
:10468000CDB7DEB728970FB6F894DEBF0FBECDBF0B
:1046900068877F83182F092F322E232E4D835E8348
:1046A00020E030E0A9016B01E82EF92EC701B60128
:1046B0000E942334811509F451C020E030E0A901A3
:1046C000832C922CAD80BE80C501B4010E9423349E
:1046D000811539F1432C522C3501A3019201C98275
:1046E000DA821B830C8369817A818B819C81289675
:1046F0000FB6F894DEBF0FBECDBFDF91CF911F91F3
:104700000F91FF90EF90DF90CF90BF90AF909F9070
:104710008F907F906F905F904F903F902F900C9470
:104720001E0660E070E080E89FE328960FB6F894DC
:10473000DEBF0FBECDBFDF91CF911F910F91FF90D4
:10474000EF90DF90CF90BF90AF909F908F907F9031
:104750006F905F904F903F902F90089560E070E0D1
:10476000CB01E3CF2F923F924F925F926F927F9255
:104770008F929F92AF92BF92CF92DF92EF92FF9271
:104780000F931F93CF93DF93CDB7DEB7C45DD109ED
:104790000FB6F894DEBF0FBECDBFA0966FAFA09747
:1047A000A1967FAFA197A2968FAFA297A3969FAF36
:1047B000A39720E030E0A9016B017C01C701B6019D
:1047C0000E94233418160CF03CC520E030E040E88D
:1047D0005FE346015701C501B4010E942334181656
:1047E0000CF036C520E030E040E85FE3A0968FADE6
:1047F000A0972A968FAF2A97A1969FADA1972B9647
:104800009FAF2B97A296AFADA2972C96AFAF2C97E8
:10481000A396BFADA3972D96BFAF2D972D966CADE8
:104820007DAD8EAD9FAD2D970E94B633162F072F0D
:10483000F82EE92E2AE037ED43E25CE32E966FAFC7
:104840002E972F967FAF2F9760968FAF60976196C8
:104850009FAF619761966CAD7DAD8EAD9FAD619759
:104860000E94283462966FAF629763967FAF63971A
:1048700064968FAF649765969FAF659765966CADAC
:104880007DAD8EAD9FAD65970E949A346E966FAFE9
:104890006E976F967FAF6F976F962EAD3FAD6F9708
:1048A000121613060CF00AC5C12CD12C2D961CAE85
:1048B0001DAE1EAE1FAE2D9762961FAE62972E964E
:1048C0001FAE2E9720E8822E3FE3932E212C312C11
:1048D00029823A828B829C8229813A814B815C8138
:1048E00060E070E080E89FE30E9428342AE037ED22
:1048F00043E25CE36D837E838F8398876D817E8145
:104900008F8198850E9487352E966FAF2E9762967D
:104910007FAF629766968FAF66976A969FAF6A97EA
:104920002AE037ED43EA5BE329863A868B869C864C
:1049300069857A858B859C850E94B7336D877E87D4
:104940008F87988B2D853E854F85588960E070E074
:1049500080E89FE30E9428342AE037ED43E25CE3DD
:10496000698B7A8B8B8B9C8B69897A898B899C89E3
:104970000E9487358B01CC52DF4F8883C45DD040C5
:10498000CD52DF4F9883C35DD0402AE037ED43E23C
:104990005CE32D8A3E8A8F8A988E6D897E898F8905
:1049A000988D0E94B7331B014C01098F1A8FCC528E
:1049B000DF4F3881C45DD0403B8FCD52DF4F4881FF
:1049C000C35DD0404C8F298D3A8D4B8D5C8D0D8F02
:1049D0001E8FCC52DF4F8881C45DD0408F8FCD5267
:1049E000DF4F9881C35DD04098A36D8D7E8D8F8DF4
:1049F00098A10E94B7338B01CC52DF4F8883C45DEE
:104A0000D040CD52DF4F9883C35DD04029A23AA257
:104A10008BA29CA229A13AA14BA15CA160E070E00D
:104A200080E89FE30E9428342AE037ED43E25CE30C
:104A30006DA37EA38FA398A76DA17EA18FA198A53A
:104A40000E9487355B017C0109A71AA7CC52DF4F72
:104A5000A881C45DD040ABA7CD52DF4FB881C35D04
:104A6000D040BCA729A53AA54BA55CA52E968FAD35
:104A70002E978DA762969FAD62979EA76696AFAD63
:104A80006697AFA76A96BFAD6A97B8AB6DA57EA5CE
:104A90008FA598A90E94B73309AB1AABCC52DF4F50
:104AA0002881C45DD0402BABCD52DF4F3881C35D30
:104AB000D0403CAB29A93AA94BA95CA96DAB7EAB10
:104AC0008FAB98AF6DA97EA98FA998AD0E94B7331F
:104AD00069AF7AAF8BAF9CAF29AD3AAD4BAD5CAD52
:104AE000ADAEBEAEEFAE2196FFAE219721966CAD76
:104AF0007DAD8EAD9FAD21970E94B73320E030E0B1
:104B000040EC50E422966FAF229723967FAF239715
:104B100024968FAF249725969FAF259725966CAD49
:104B20007DAD8EAD9FAD25970E94283426966FAF40
:104B3000269727967FAF279728968FAF2897299695
:104B40009FAF299729962CAD3DAD4EAD5FAD29970E
:104B50002D966CAD7DAD8EAD9FAD2D970E94B73378
:104B60002B013C012D964CAE5DAE6EAE7FAE2D9707
:104B70004FEFC41AD40A6F968EAD9FAD6F978C1508
:104B80009D0509F0A5CE62962FAE62972E963FAE98
:104B90002E97A8962FAEA897A9963FAEA997AA964A
:104BA0008FAEAA97AB969FAEAB97AB962CAD3DADB3
:104BB0004EAD5FADAB97A096AFADA097AC96AFAF43
:104BC000AC97A196BFADA197AD96BFAFAD97A2969A
:104BD0008FADA297AE968FAFAE97A3969FADA397DA
:104BE000AF969FAFAF97AF966CAD7DAD8EAD9FADDD
:104BF000AF970E94B633162F072FF82EE92E20E02C
:104C000030E0A901A4961FAFA497A5960FAFA59772
:104C1000A696FFAEA697A796EFAEA797A7966CAD00
:104C20007DAD8EAD9FADA7970E94823518160CF012
:104C3000E8C220E030E040E05FE3E0961FAFE0979D
:104C4000E1960FAFE197E296FFAEE297E396EFAE03
:104C5000E397E3966CAD7DAD8EAD9FADE3970E947B
:104C600087356296AFAD6297E496AFAFE4972E9624
:104C7000BFAD2E97E596BFAFE597E6968FAEE69768
:104C8000E7969FAEE797E7962CAD3DAD4EAD5FAD95
:104C9000E797E8966FAFE897E9967FAFE997EA96CE
:104CA0008FAFEA97EB969FAFEB97EB966CAD7DAD30
:104CB0008EAD9FADEB970E94B733EC966FAFEC973C
:104CC000ED967FAFED97EE968FAFEE97EF969FAF95
:104CD000EF97EF962CAD3DAD4EAD5FADEF9760E039
:104CE00070E080E89FE30E942834C158DF4F1883AA
:104CF000CF57D040C058DF4F0883C058D040CF575F
:104D0000DF4FF882C158D040CE57DF4FE882C258FB
:104D1000D040C158DF4F288139814A815B81CF570C
:104D2000D040CD57DF4F6883C358D040CC57DF4FBA
:104D30007883C458D040CB57DF4F8883C558D040C4
:104D4000CA57DF4F9883C658D040CD57DF4F688190
:104D500079818A819B81C358D0400E948735C95789
:104D6000DF4F6883C758D040C857DF4F7883C85893
:104D7000D040C757DF4F8883C958D040C657DF4F50
:104D80009883CA58D040C957DF4F288139814A815A
:104D90005B81C758D040C557DF4F6883CB58D040A0
:104DA000C457DF4F7883CC58D040C357DF4F888338
:104DB000CD58D040C257DF4F9883CE58D040C5570A
:104DC000DF4F688179818A819B81CB58D0400E94D6
:104DD000B7335B016C0162962FAD6297C157DF4F0D
:104DE0002883CF58D0402E963FAD2E97C057DF4F27
:104DF0003883C059D040CF56DF4F8882C159D04048
:104E0000CE56DF4F9882C259D040C157DF4F28811C
:104E100039814A815B81CF58D04060E070E080E802
:104E20009FE30E942834CD56DF4F1883C359D040EA
:104E3000CC56DF4F0883C459D040CB56DF4FF882A1
:104E4000C559D040CA56DF4FE882C659D040CD562A
:104E5000DF4F288139814A815B81C359D040C956CF
:104E6000DF4F6883C759D040C856DF4F7883C85991
:104E7000D040C756DF4F8883C959D040C656DF4F50
:104E80009883CA59D040C956DF4F688179818A8199
:104E90009B81C759D0400E948735C556DF4FA882F5
:104EA000CB59D040C456DF4FB882CC59D040C356FE
:104EB000DF4FC882CD59D040C256DF4FD882CE597D
:104EC000D040C556DF4F288139814A815B81CB595B
:104ED000D040C156DF4F6883CF59D040C056DF4F16
:104EE0007883C05AD040CF55DF4F8883C15AD04015
:104EF000CE55DF4F9883C25AD040C156DF4F6881EC
:104F000079818A819B81CF59D0400E94B733CD559A
:104F1000DF4FA882C35AD040CC55DF4FB882C45A65
:104F2000D040CB55DF4FC882C55AD040CA55DF4F5D
:104F3000D882C65AD040CD55DF4F288139814A8169
:104F40005B81C35AD040C955DF4F6883C75AD040F0
:104F5000C855DF4F7883C85AD040C755DF4F888384
:104F6000C95AD040C655DF4F9883CA5AD040C95558
:104F7000DF4F688179818A819B81C75AD0400E9426
:104F8000B7335B016C01C555DF4F1883CB5AD04056
:104F9000C455DF4F0883CC5AD040C355DF4FF88249
:104FA000CD5AD040C255DF4FE882CE5AD040C555C9
:104FB000DF4F288139814A815B81CB5AD04062968C
:104FC0008FAD6297C155DF4F8883CF5AD0402E9660
:104FD0009FAD2E97C055DF4F9883C05BD040CF5414
:104FE000DF4F8882C15BD040CE54DF4F9882C25BD6
:104FF000D040C155DF4F688179818A819B81CF5A2A
:10500000D0400E94B733CD54DF4F6883C35BD0409C
:10501000CC54DF4F7883C45BD040CB54DF4F8883C0
:10502000C55BD040CA54DF4F9883C65BD040CD5497
:10503000DF4F288139814A815B81C35BD04060E0CA
:1050400070E080E89FE30E942834C954DF4F188342
:10505000C75BD040C854DF4F0883C85BD040C754FB
:10506000DF4FF882C95BD040C654DF4FE882CA5B8D
:10507000D040C954DF4F288139814A815B81C75BA9
:10508000D040C554DF4F6883CB5BD040C454DF4F62
:105090007883CC5BD040C354DF4F8883CD5BD04056
:1050A000C254DF4F9883CE5BD040C554DF4F688138
:1050B00079818A819B81CB5BD0400E948735C15426
:1050C000DF4F6883CF5BD040C054DF4F7883C05C34
:1050D000D040CF53DF4F8883C15CD040CE53DF4FE9
:1050E0009883C25CD040C154DF4F288139814A8106
:1050F0005B81CF5BD040CD53DF4FA882C35CD040F3
:10510000CC53DF4FB882C45CD040CB53DF4FC88252
:10511000C55CD040CA53DF4FD882C65CD040CD5367
:10512000DF4F688179818A819B81C35CD0400E9476
:10513000B73320E030E040EC50E4C953DF4F6883E0
:10514000C75CD040C853DF4F7883C85CD040C7539A
:10515000DF4F8883C95CD040C653DF4F9883CA5C59
:10516000D040C953DF4F688179818A819B81C75CB8
:10517000D0400E942834C553DF4F6883CB5CD040B9
:10518000C453DF4F7883CC5CD040C353DF4F888358
:10519000CD5CD040C253DF4F9883CE5CD040C55326
:1051A000DF4F288139814A815B81CB5CD0402D96CD
:1051B0006CAD7DAD8EAD9FAD2D970E94B733C153C1
:1051C000DF4F6883CF5CD040C053DF4F7883C05D32
:1051D000D040CF52DF4F8883C15DD040CE52DF4FE9
:1051E0009883C25DD040C153DF4F288139814A8105
:1051F0005B81CF5CD0402D962CAF3DAF4EAF5FAF03
:105200002D972D966CAD7DAD8EAD9FAD2D97CC526B
:10521000DF4F0FB6F894DEBF0FBECDBFDF91CF9149
:105220001F910F91FF90EF90DF90CF90BF90AF90C4
:105230009F908F907F906F905F904F903F902F90B6
:1052400008952D961CAE1DAE1EAE1FAE2D97D9CF64
:105250006696CFAE669767969FAE67976896EFAEF5
:1052600068976996BFAE699769962CAD3DAD4EAD16
:105270005FAD699760E070E080E89FE30E942834AA
:105280006A966FAF6A976B967FAF6B976C968FAF8E
:105290006C976D969FAF6D976D966CAD7DAD8EAD35
:1052A0009FAD6D970E94B2239B01AC0150582D9683
:1052B0002CAF3DAF4EAF5FAF2D97A3CF2D961CAE59
:1052C0001DAE1EAE1FAE2D9762961FAE62972E9634
:1052D0001FAE2E9780E8882E9FE3992E90CC8F9258
:1052E0009F92AF92BF92CF92DF92EF92FF920F9375
:1052F0001F93CF93DF938B01D82FC92F20E030E08D
:10530000A9016B01E82EF92EC701B6010E942334D2
:105310008115B9F04801AD2EBC2EA501940164E5BC
:1053200078EF8DE290E4DF91CF911F910F91FF9084
:10533000EF90DF90CF90BF90AF909F908F900C94A4
:105340001E0660E070E080E89FE3DF91CF911F913F
:105350000F91FF90EF90DF90CF90BF90AF909F9014
:105360008F9008959C01FC01EC59FF4F8081918141
:10537000833691053CF4019691838083280F391F71
:10538000F901608308959C01FC01EC59FF4F808175
:10539000918197FD0AC0AC0141505109518340836E
:1053A000280F391FF9018081089580E008959C013C
:1053B000FC01EC59FF4F8081918197FD05C0280FBA
:1053C000391FF9018081089580E008958F32B9F086
:1053D0008CF48B3261F08D3251F021E030E08A3272
:1053E00011F020E030E0C901880F991F089581E095
:1053F00090E008958E3531F483E090E0089582E0E6
:1054000090E0089580E090E008959DE8980F923034
:1054100088F0833679F0853669F08C3659F098E853
:10542000980F933038F091E0813709F090E0892FA0
:1054300090E0089581E090E008952F923F924F927E
:105440005F926F927F928F929F92AF92BF92CF9214
:10545000DF92EF92FF920F931F93CF93DF93CDB71D
:10546000DEB7CB56D1090FB6F894DEBF0FBECDBF65
:105470002C011B019E012F5F3F4F490186E6D90198
:105480001D928A95E9F7F201F081A896FFAFA897DF
:10549000F11509F481C08201CC24CA94DC2C612C62
:1054A000712CE12CF12C1BC0B3E6CB16D1040CF00F
:1054B0004CC0EFEFCE1ADE0AF401EC0DFD1DA896EC
:1054C0002FADA8972083AB960EAD1FADAB97D8013B
:1054D000BC91A896BFAFA897B11509F441C0A89692
:1054E0002FADA897A22E220FBB08C501C0970A971F
:1054F00008F46EC0A8963FADA8973E3209F468C084
:10550000A8968FADA8970E94052A3FEF631A730AE9
:10551000D201A60DB71DAB96BFAFAEAFAB97892B2F
:1055200019F6A8963FADA897383209F478C0A89626
:10553000AFADA897A93209F406C1B50182E391E0A5
:105540000E942336892B09F07FC0AB960EAD1FADAC
:10555000AB97D801BC91A896BFAFA897B111BFCFA8
:10556000EFEFCE16DE0609F46EC1F101EE0DFF1D60
:1055700040E202C0FC016901D7FC74C196012150D0
:105580003109D401AC0DBD1D8C9180834183CF01C5
:105590000296CD2879F71C01D1011C92C559DF4F25
:1055A0000FB6F894DEBF0FBECDBFDF91CF911F9134
:1055B0000F91FF90EF90DF90CF90BF90AF909F90B2
:1055C0008F907F906F905F904F903F902F900895B5
:1055D0009201260D371DA701F101EE0DFF1D04C03C
:1055E0008FEFE81AF80A61938901D9016C912F5F56
:1055F0003F4F862F062E000C990BC0970A9780F319
:105600006E3271F3F701641A750A6E0C7F1CE20D9D
:10561000F31DBFEFEB1AFB0A20E2208358CF83E68D
:10562000C816D1043CF49FEFC91AD90AF401EC0D55
:10563000FD1D3083809144018F5F80934401AB96C0
:105640000EAD1FADAB9743CF2FEFC216D20609F4B4
:10565000F5C0F101EE0DFF1D20E2D8018C91D7FCC1
:1056600025C0D401AC0DBD1D9C919F3259F00CF0AA
:1056700047C09B3209F4ADC09D3209F4AAC09A32EA
:1056800009F04EC08F3201F10CF04EC08B32E1F0C8
:105690008D32D1F08A32C1F4D7FE16C09083B2E0C9
:1056A000EB0EF11C21833296D8018C918F3291F14F
:1056B0007CF58A32E1F190E08A3284F38B3251F149
:1056C0008D3241F1D7FCEACFB1E0CB1AD1089083FB
:1056D00032E0E30EF11C218332968FEFC816D80614
:1056E00009F0BBCFD8018C91EFEFCE1ADE0AF4019E
:1056F000EC0DFD1D8083AB960EAD1FADAB97E7CED5
:105700009E3571F48F3201F30CF28E3529F2DCCF25
:105710008E3579F4B3E6CB16D1040CF016CFE4CF76
:105720008F32C1F30CF45EC08E35A1F3CDCF8AE287
:10573000F1CF1082B2E0EB0EF11C80E28183329651
:10574000D8018C91B3CF5701BFEFAB1ABB0A8101CF
:105750000E0D1F1D90E20CC0F80180839183F2E0D2
:10576000AF0EB11C0E5F1F4FA996CEACDFACA99750
:105770007501B1E0EB1AF108F401EC0DFD1D80811B
:10578000D7FC64C0F6013197A996FFAFEEAFA99799
:10579000883211F780914401815080934401C114F3
:1057A000D10431F1E80DF91D2081AC962FAFAC97F3
:1057B000822F0E94052A32E0C31AD108892B19F5DD
:1057C000AB960EAD1FADAB97A996CEACDFACA9974B
:1057D0007ECE8D3209F478CF0CF040C08A3209F0C9
:1057E00073CF98CF8A3209F4A2CF0CF46DCF66CF75
:1057F00080E00E94052A892BC9F0AC961FAEAC97B9
:10580000CC24CA94DC2CAC96EFADAC97D801EC93C9
:105810007501FFEFEF1AFF0AF101EA0DFB1D80E2AF
:105820008083AB960EAD1FADAB9751CEAB960EAD50
:105830001FADAB97CC24CA94DC2C49CED8018C91F7
:10584000C12CD12C54CF2E0C3F1CA6CE80E2D80107
:105850001C9211968C930E5F1F4FF9CF8F3209F473
:1058600059CF62CF80E2108281833296FCCF2F9293
:105870003F924F925F926F927F928F929F92AF92E0
:10588000BF92CF92DF92EF92FF920F931F93CF932D
:10589000DF93CDB7DEB7C85CD1400FB6F894DEBF5A
:1058A0000FBECDBF4C01DC011C9122242A94322C66
:1058B000FE0131965F01111509F486C06E01FFE605
:1058C000CF1AFEEFDF0A0CC031E0231A3108F401D1
:1058D0004F01BFEF8B1A9B0A1181111509F474C097
:1058E000E12E012E000CFF08C701C0970A9708F4AB
:1058F00090C01E3209F48DC0B70187E391E00E9489
:105900002336892B09F7B7018CE391E00E942336F7
:10591000892B09F4B1C0710181E0E81AF108F101A5
:10592000EE0FFF1FEE0FFF1FEA0DFB1D40805180A1
:1059300062807380D701AA0FBB1FAA0FBB1FCB5574
:10594000DE4FB983A883C55AD140AA0DBB1DC555EA
:10595000DE4FB983A883CB5AD1408D919D910D9094
:10596000BC91A02DC355DE4F88839983AA83BB8346
:10597000CD5AD1401D3209F409C10CF097C01A323A
:1059800009F4F7C01B3209F00EC1C355DE4F288160
:1059900039814A815B81CD5AD140C301B2010E9455
:1059A000B733C555DE4FE881F981CB5AD1406083CA
:1059B0007183828393831701F4014F01BFEF8B1A28
:1059C0009B0A118111118CCFF101EE0FFF1FEE0F19
:1059D000FF1FEA0DFB1D6081718182819381C85395
:1059E000DE4F0FB6F894DEBF0FBECDBFDF91CF9173
:1059F0001F910F91FF90EF90DF90CF90BF90AF90ED
:105A00009F908F907F906F905F904F903F902F90DE
:105A10000895DF92CF9229E331E03F932F939F9235
:105A20008F920E942E369FEF291A390AC6010E94D2
:105A30001F36F101EE0FFF1FEE0FFF1FEA0DFB1DDA
:105A40006083718382839383D4018C910F900F9034
:105A50000F900F900F900F90811561F0982FF40127
:105A6000818194012F5F3F4F4901903209F430CF7B
:105A70008111F4CFF4012CCF812F0E94052A892BAC
:105A8000C9F37101EE0CFF1CEE0CFF1CF501EE0DCD
:105A9000FF1D40805180628073801356183108F4D6
:105AA00087C091E0291A3108F40112CF1F3251F159
:105AB0001E3509F078C020E030E0A901C355DE4F63
:105AC000688179818A819B81CD5AD1400E9423349B
:105AD000811509F474C020E030E0A901C301B201CE
