:100000000C9443020C9460020C9460020C94600205
:100010000C9460020C9460020C9460020C946002D8
:100020000C9460020C9460020C9460020C946002C8
:100030000C9460020C9460020C9460020C946002B8
:100040000C9460020C9460020C9460020C946002A8
:100050000C9460020C9460020C9460020C94600298
:100060000C9460020C946002F30CB20C7B0CB20C8A
:10007000B20CB20CB20CB20CB20C2C0DB20CB20C15
:10008000B20C9E0DB20C650DD70DBB0C4E414E4906
:100090004E495459494E46CDCCCC3D0AD7233C1746
:1000A000B7D13877CC2B329595E6241FB14F0A0093
:1000B0000020410000C84200401C4620BCBE4CCA83
:1000C0001B0E5AAEC59D7400407A10F35A00A07200
:1000D0004E18090010A5D4E80000E8764817000083
:1000E000E40B54020000CA9A3B000000E1F5050051
:1000F0000080969800000040420F000000A086019A
:10010000000000102700000000E803000000006469
:1001100000000000000A00000000000100000000D4
:10012000002C76D888DC674F0823DFC1DFAE59E1A9
:10013000B1B796E5E3E453C63AE651997696E8E618
:10014000C28426EB898C9B62ED407C6FFCEFBC9CEB
:100150009F40F2BAA56FA5F490055A2AF75C936BFD
:100160006CF9676DC11BFCE0E40D47FEF520E6B5B8
:1001700000D0ED902E0300943577050080841E0892
:100180000000204E0A000000C80C333333330F98B0
:100190006E12831141EF8D2114893BE65516CFFE77
:1001A000E6DB18D1844B381BF77C1D901DA4BBE403
:1001B00024203284725E228100C9F124ECA1E53D45
:1001C00027496E66696E697479004572726F7200B4
:1001D0004D6F64206279207A65726F206572726F4C
:1001E0007200446976206279207A65726F206572A8
:1001F000726F72007371727428006C6F672800321E
:100200002E373138323800332E31343135390074DD
:10021000616E2800636F73280073696E28004D5269
:1002200000456E7465722065787072657373696FCE
:100230006E3A00537562747261637465642066720D
:100240006F6D206D656D004D2D00456E74657220DB
:1002500065787072657373696F6E3A0041646465A6
:100260006420746F206D656D6F7279004D2B0041B5
:100270004E5300455850002900312F2800312F7867
:10028000005E330078C2B3005E320078C2B2003341
:100290002E313431353900CF8000280073717274EB
:1002A0002800E2889A00655E2800655E006C6E2872
:1002B000006C6E006C6F6728006C6F670042530023
:1002C0005E0074616E280074616E00636F732800B5
:1002D000636F730073696E280073696E00456E74F6
:1002E00065722065787072657373696F6E3A004D40
:1002F000656D6F727920636C6561726564004D4352
:10030000004F43540042494E00444543004845587D
:10031000005D0066616374280066616374006D6F40
:10032000640072616428007261640064656728007B
:10033000646567005B0063627274280063627274B4
:1003400000616273280061627300322E37313832E7
:1003500038313800650031305E0031305E00456E66
:100360007465722065787072657373696F6E3A0098
:10037000434C5200795E78006174616E28006174AC
:10038000616E0061636F73280061636F7300617356
:10039000696E28006173696E00456E746572206530
:1003A000787072657373696F6E3A00526573756C1D
:1003B000743A0020202020202020202020202020EF
:1003C00020202000456E7465722065787072657318
:1003D00073696F6E3A00456E74657220657870724D
:1003E000657373696F6E3A00416C706861206D6F60
:1003F0006465204F464600416C706861206D6F64F3
:1004000065204F4E005368696674204F464600537E
:1004100068696674204F4E0057656C636F6D652088
:100420002100530158015D01620166012E016A013C
:100430006C017001750177017B017F0183018801E7
:100440008A018E01920196019A01540159015E01BF
:1004500030019D01A001A401A701AA012C01AE0158
:10046000B101B501B901BD01BF01C301C701CA0195
:10047000CD013738392B443435362D533132332AB8
:1004800041302E3D2F4311241FBECFEFD8E0DEBFF9
:10049000CDBF11E0A0E0B1E0ECEAF1E502C00590CB
:1004A0000D92A03DB107D9F722E0A0EDB1E001C067
:1004B0001D92A430B207E1F70E94771D0C94D42856
:1004C0000C940000CA01B9010895EF92FF920F93B6
:1004D0001F93C801B7011F910F91FF90EF900895EE
:1004E000CA01B90190580895CA01B9010E94781F44
:1004F0009B01AC0160E070E080E89FE30E94E91F8F
:1005000008959B01AC010E94482120E030E040E8C2
:100510005FE30E94781F9B01AC0160E070E080E81F
:100520009FE30E94E91F0895EF92FF920F931F939C
:10053000C801B7011F910F91FF90EF900895CA0174
:10054000B901905808954F925F926F927F928F9267
:100550009F92AF92BF92CF92DF92EF92FF920F9352
:100560001F93CF93DF93CDB7DEB762970FB6F894A2
:10057000DEBF0FBECDBF2B013C0129833A834B83E5
:100580005C83ED86FE860F87188BDE82CD82DA8A49
:10059000C98AB2C029813A814B815C81C301B20111
:1005A000E989FA8909952AE037ED43E25CE30E9484
:1005B00048216D837E838F8398872AE037ED43EA55
:1005C0005BE3C301B2010E94781F6B017C0120E054
:1005D00030E040E05FE36D817E818F8198850E94ED
:1005E000482129813A814B815C810E94781F9B01BF
:1005F000AC01C701B601E989FA8909952AE037ED0E
:1006000043E25CE30E9448214B015C0120E030E0C2
:1006100040E05FE30E94482129813A814B815C815F
:100620000E94781F9B01AC01C701B601E989FA89D4
:1006300009952AE037ED43E25CE30E9448216B0113
:100640007C012AE037ED43E25CE3C301B2010E9482
:10065000781F2B013C01A701960169817A818B816A
:100660009C810E94781F9B01AC01C301B201E98902
:10067000FA89099569877A878B879C87A5019401F8
:10068000C501B4010E94781F2D813E814F8158859C
:100690000E94781F4B015C01A7019601C701B601BA
:1006A0000E94781F9B01AC01C501B4010E94781F14
:1006B0004B015C012AE037ED43E25CE369857A8512
:1006C0008B859C850E9448219B01AC01C501B4012A
:1006D0000E94781F20E030E040EC50E40E94E91FC7
:1006E0009B01AC0169817A818B819C810E94781F7A
:1006F00069837A838B839C832D853E854F855889BA
:10070000C301B2010E94771F6B017C012CEA35EC1A
:1007100047E257E30E94432118160CF43BCF2CEA22
:1007200035EC47E257EBC701B6010E94E41F87FD95
:1007300031CF69817A818B819C8162960FB6F89462
:10074000DEBF0FBECDBFDF91CF911F910F91FF9004
:10075000EF90DF90CF90BF90AF909F908F907F9061
:100760006F905F904F9008952F923F924F925F92BB
:100770006F927F928F929F92AF92BF92CF92DF92B1
:10078000EF92FF920F931F93CF93DF93CDB7DEB716
:10079000AC970FB6F894DEBF0FBECDBF2B013C0166
:1007A0002D833E834F835887E986FA860B871C8703
:1007B000A9A6BAA6CBA6DCA6140198C1E984FA843E
:1007C0000B851C852D813E814F815885C301B20167
:1007D000F10109952AE037ED43E25CE30E944821EC
:1007E0006D8F7E8F8F8F98A3E984FA840B851C858B
:1007F0002D813E814F815885C301B2012396EEAD14
:10080000FFAD239709952AE037ED43E25CE30E94B0
:10081000482169A37AA38BA39CA320E030E040E0A9
:100820005FE30E94482129853A854B855C850E94BB
:10083000781F6D877E878F87988B20E030E040E0BF
:100840005FE36D8D7E8D8F8D98A10E9448212D8153
:100850003E814F8158850E94781F4B015C012AE040
:1008600037ED43EA5BE3C301B2010E94781F69835D
:100870007A838B839C83ED84FE840F851889A50180
:100880009401F10109952AE037ED43E25CE30E940F
:1008900048216D8B7E8B8F8B988FED84FE840F8526
:1008A0001889A501940169817A818B819C812396A5
:1008B000EEADFFAD239709952AE037ED43E25CE307
:1008C0000E9448216D877E878F87988B20E030E0DB
:1008D00040E05FE30E94482129853A854B855C858D
:1008E0000E94781F698B7A8B8B8B9C8B20E030E089
:1008F00040E05FE36D897E898F89988D0E94482151
:100900002D813E814F8158850E94781F4B015C01EB
:10091000E988FA880B891C899B01AC0169817A817D
:100920008B819C81F10109952AE037ED43E25CE37C
:100930000E944821698F7A8F8B8F9C8FE988FA8873
:100940000B891C89A501940169817A818B819C8125
:100950002396EEADFFAD239709952AE037ED43E2EC
:100960005CE30E94482169837A838B839C839B018B
:10097000AC0169857A858B859C850E94781F698B7F
:100980007A8B8B8B9C8B298D3A8D4B8D5C8D6D81F9
:100990007E818F8198850E94781F4B015C012AE03F
:1009A00037ED43E25CE3C301B2010E94781F2B01E3
:1009B0003C01E988FA880B891C89A5019401F101A1
:1009C00009956DA37EA38FA398A7E988FA880B8960
:1009D0001C89A5019401C301B2012396EEADFFADC0
:1009E000239709954B015C012D893E894F89588DCC
:1009F000CA01B9010E94781F2D8D3E8D4F8D58A1DF
:100A00000E94781F6B017C01298D3A8D4B8D5C8D86
:100A1000CA01B9010E94781F9B01AC01C701B60150
:100A20000E94781F6B017C012AE037ED43E25CE312
:100A30006DA17EA18FA198A50E9448219B01AC01C8
:100A4000C701B6010E94781F20E030E040EC50E47E
:100A50000E94E91F9B01AC016D817E818F81988589
:100A60000E94781F6D837E838F8398872D853E85B6
:100A70004F855889CA01B9010E94781F29A13AA15E
:100A80004BA15CA10E94781F6B017C0129813A81F6
:100A90004B815C81CA01B9010E94781F9B01AC01A6
:100AA000C701B6010E94781F6B017C012AE037ED77
:100AB00043E25CE3C501B4010E9448219B01AC0103
:100AC000C701B6010E94781F20E030E040EC50E4FE
:100AD0000E94E91F9B01AC0169857A858B859C8505
:100AE0000E94781F69877A878B879C8729A53AA5FA
:100AF0004BA55CA5C301B2010E94771F6B017C016D
:100B00002FE632E143E85AE30E94432118160CF421
:100B100055CE2FE632E143E85AEBC701B6010E94F9
:100B2000E41F87FD4BCE6D817E818F819885AC96C9
:100B30000FB6F894DEBF0FBECDBFDF91CF911F91EE
:100B40000F91FF90EF90DF90CF90BF90AF909F906C
:100B50008F907F906F905F904F903F902F9008956F
:100B60008F929F92AF92BF92CF92DF92EF92FF92BD
:100B70004B015C0120E030E0A9010E94E41F18163F
:100B8000BCF5D501C401B595A795979587953FED1F
:100B9000C32E39E5D32E37E3E32E3FE5F32EC81AF3
:100BA000D90AEA0AFB0A20E030E040E05FE3C50131
:100BB000B4010E944821A70196010E944821A70183
:100BC00096010E9448219B01AC0160E070E080EC3E
:100BD0009FE30E94771FA70196010E944821FF9082
:100BE000EF90DF90CF90BF90AF909F908F9008953F
:100BF00060E070E0CB01F3CF2F923F924F925F9273
:100C00006F927F928F929F92AF92BF92CF92DF921C
:100C1000EF92FF920F931F93CF93DF93CDB7DEB781
:100C20006F970FB6F894DEBF0FBECDBF2B013C010E
:100C30004130510509F4E4C14230510509F447C07F
:100C40004330510509F47AC04430510509F4EDC12F
:100C50004530510509F4C9C04630510509F4C8C3EF
:100C60004730510509F4A1C04830510509F05AC177
:100C700020E030E040E85FEB0E94E41F87FD0BC0FE
:100C800020E030E040E85FE3C301B2010E9443216D
:100C900018160CF006C260E070E0CB016F960FB63C
:100CA000F894DEBF0FBECDBFDF91CF911F910F91A2
:100CB000FF90EF90DF90CF90BF90AF909F908F907C
:100CC0007F906F905F904F903F902F90089520E01D
:100CD00030E0A9010E94E41F8823E9F220E030E01F
:100CE000A901C301B2010E94432118160CF4B6C138
:100CF00020E030E0A901C301B2010E94E41F87FF98
:100D0000CACF63015201D7FAD094D7F8D0948FE9B3
:100D100092E09F938F9314E9812E12E0912EE12CA3
:100D2000F12C00E81FE320E030E0A901CA01B9017D
:100D30000E94B40390580F900F90B0CF20E030E0A5
:100D4000A9010E94E41F882309F46AC120E030E071
:100D5000A901C301B2010E94432118160CF43DC33E
:100D600020E030E0A901C301B2010E94E41F87FF27
:100D700092CF63015201D7FAD094D7F8D09480E78C
:100D800092E09F938F93A5E68A2EA2E09A2EE12C03
:100D9000F12C870120E030E040E85FE3C801B701B3
:100DA0000E94B4030F900F9079CF20E030E0A901AA
:100DB0000E94E41F87FD82C320E030E0A901C30147
:100DC000B2010E94E41F882309F465CFE4E7CE2E28
:100DD000E2E0DE2E8301720120E030E040E85FE3D4
:100DE000CA01B9010E94A30259CF20E030E0A90155
:100DF0000E94E41F18160CF04ECF20E030E040E8CF
:100E00005FE3C301B2010E94E41F87FD2AC320E013
:100E100030E040E85FE3C301B2010E94771F2AE09F
:100E200037ED43E25CE30E94E91F0E945B208B01E7
:100E3000161617060CF02FCF1D861C86312C212C80
:100E400019821D82C12CD12CF0E8EF2EFFE3FF2E7A
:100E5000A70196016AE077ED83E29CE30E94E91F17
:100E60002B013C012AE037ED43EA5BE3C701B60101
:100E70000E94781F9B01AC016AE077ED83E29CE35E
:100E80000E94E91F4B015C012AE037ED43E25CE37D
:100E9000C701B6010E94781F6B017C01A501940176
:100EA000C501B4010E94781F4B015C019B01AC019C
:100EB000C301B2010E94781FA50194010E94781F0E
:100EC0004B015C01A70196016AE077ED83E29CE3A8
:100ED0000E94E91F9B01AC01C501B4010E94781F6B
:100EE00020E030E040EC50E40E94E91F9B01AC019F
:100EF000632D722D89819D810E94781F362E272EA9
:100F000089839D838C859D8501969D878C87081795
:100F1000190709F09DCF832D922DA981BD81BC01B8
:100F2000CD01BCCE4930510509F473C24A30510598
:100F300009F47CC24B30510509F0ADCE20E030E021
:100F4000A9010E94E41F882309F4A5CE20E030E027
:100F5000A901C301B2010E94432118160CF074C20A
:100F600080E090E0A0E8BFE389839A83AB83BC83F1
:100F700020E030E040E450E4C301B2010E94E91FE8
:100F80006B017C01A5E0B0E0BD87AC87A7019601AD
:100F9000C701B6010E944821A70196010E9448217D
:100FA000A30192010E94771F4B015C0120E030E019
:100FB00040E450E4C701B6010E944821A701960110
:100FC0000E9448219B01AC01C501B4010E94E91FA8
:100FD0009B01AC01C701B6010E94771F6B017C0128
:100FE0008C859D8501979D878C87892B79F6298132
:100FF0003A814B815C81C701B6010E9448214ECEE7
:1010000032E6C32E32E0D32E7B018C0120E030E0AB
:1010100040E85FE360E070E0CB010E94A3023ECEB7
:1010200060E070E080E89FE339CE43E050E00E944A
:10103000FC056B017C0120E030E0A9010E94E41F67
:10104000811124C080E091E09F938F930E943A2207
:101050000F900F9060E070E0CB0120CE8FE992E01E
:101060009F938F9394E9892E92E0992E6301520108
:10107000E12CF12C00E81FE320E030E0A901CA01D7
:10108000B9010E94B4030F900F9008CE42E050E0E7
:10109000C301B2010E94FC05A70196010E94E91F4D
:1010A000FDCD20E030E0A901C301B2010E9443213F
:1010B00087FDE5C12AE037ED43E25CE3C301B201FD
:1010C0000E94E91F0E945B20798B688B80E090E092
:1010D000A0E8BFE38A8B9B8BAC8BBD8BA889B989B9
:1010E0001A161B060CF0D7CD2AE037ED43E25CE37D
:1010F0006A897B898C899D890E9448216E8B7F8BB0
:10110000888F998F20E030E040E05FE30E94482123
:101110006A8F7B8F8C8F9D8F212C312C19821D82A1
:101120001E821F82412C512C32012DC1D701C601D4
:10113000B595A795979587957FED872E79E5972E9D
:1011400077E3A72E7FE5B72E881A990AAA0ABB0A69
:1011500020E030E040E05FE3C701B6010E94482193
:10116000A50194010E944821A50194010E944821F3
:101170009B01AC0160E070E080EC9FE30E94771F70
:10118000A50194010E9448212AE037ED43E25CE387
:101190000E9448216C877D878E879F872A8D3B8D93
:1011A0004C8D5D8DC301B2010E94781F9B01AC0183
:1011B0000E9448219B01AC0160E070E080E89FE361
:1011C0000E94771F6B017C0120E030E0A9010E94A2
:1011D000E41F18160CF0F8C0D701C601B595A79505
:1011E000979587955FED852E59E5952E57E3A52EAA
:1011F0005FE5B52E881A990AAA0ABB0A20E030E0FA
:1012000040E05FE3C701B6010E944821A5019401B7
:101210000E944821A50194010E9448219B01AC0134
:1012200060E070E080EC9FE30E94771FA5019401CD
:101230000E9448212AE037ED43E25CE30E94482106
:101240004B015C0120E030E0A901C701B6010E941A
:10125000E41FA501940118160CF038C1C501B401B2
:101260000E94781F8B018F8F9E8F688719878A87CE
:101270009B872E893F89488D598DC301B2010E94F9
:10128000781F2B013C019B01AC010E9448219B016E
:10129000AC0160E070E080E89FE30E94771F6B0183
:1012A0007C0120E030E0A9010E94E41F18160CF038
:1012B00087C0D701C601B595A795979587953FED4E
:1012C000832E39E5932E37E3A32E3FE5B32E881AFC
:1012D000990AAA0ABB0A20E030E040E05FE3C701B8
:1012E000B6010E944821A50194010E944821A50150
:1012F00094010E9448219B01AC0160E070E080EC09
:101300009FE30E94771FA50194010E9448212AE0D3
:1013100037ED43E25CE30E9448216B017C019801B8
:101320004F8D5E8D6C857D858E859F850E94781F93
:10133000288539854A855B850E94781FA70196011B
:101340000E94781F2A893B894C895D890E94482127
:1013500020E030E040EC50E40E94E91F9B01AC012A
:1013600069817D818E819F810E94781F69837D8341
:101370008E839F83BFEF2B1A3B0A88899989281691
:10138000390609F440C0A3019201C301B2010E94D1
:1013900048219B01AC0160E070E080E89FE30E947F
:1013A000771F6B017C0120E030E0A9010E94E41F5F
:1013B00018160CF4BBCE1C861D861E861F86EECE2C
:1013C000C12CD12C7601ABCF188619861A861B86C4
:1013D00000E010E01F8E1E8E4CCF80E792E09F93BE
:1013E0008F93B5E68B2EB2E09B2E63015201CFCCDA
:1013F00045E050E00E94FC0523EF3DE54EED5EE345
:101400000E9448214BCCCB01AE81BF81BC01CD01F4
:1014100045CC48E050E00E94FC059B01AC016BED1F
:101420007FE089EC9FE30E94771F38CC81E8C82ECB
:1014300082E0D82E8301720120E030E0A901CA01C8
:10144000B9010E94A3022ACC77FA709477F87094BD
:1014500080E090E0A0E8BFEB89839A83AB83BC83F4
:1014600087CDA301920160E070E080E89FE30E94D5
:10147000E91F45E050E00E94FC0590580FCCC301E5
:10148000B20190582AE037ED43E25CE30E94E91F85
:101490000E945B20798B688B20E030E0A901C301BA
:1014A000B2010E94432187FF1DC080E090E0A0E8C8
:1014B000BFEB8A8B9B8BAC8BBD8B10CE83E290E015
:1014C0000E94502260E070E0CB01E8CBC501B4017E
:1014D0000E94781F8B018F8F9E8F188619861A861F
:1014E0001B86C7CE80E090E0A0E8BFE38A8B9B8B91
:1014F000AC8BBD8BF3CDCF92DF92EF92FF920F9327
:101500001F93CF93DF9397FD28C08230910554F14C
:101510007C01C12CD12C00E81FE3C2E0D0E0BE0169
:101520000D2E000C880B990B0E9493209B01AC019F
:10153000B601C8010E9448216B018C012196EC166E
:10154000FD066CF7B601C801DF91CF911F910F9195
:10155000FF90EF90DF90CF900895C12CD12C00EC3C
:101560001FE7F0CFC12CD12C00E81FE3EBCFCF92C7
:10157000DF92EF92FF920F931F93CF93DF936B0154
:101580007C018A0157FD19C0452B29F1C0E0D0E04C
:1015900060E070E080E89FE3A70196010E94482187
:1015A0002196C017D107C1F7DF91CF911F910F91FD
:1015B000FF90EF90DF90CF9008959B01AC0160E029
:1015C00070E080E89FE30E94E91F6B017C011195A8
:1015D00001951109DBCF60E070E080E89FE3E4CF84
:1015E000CF93DF93EC019881FA0120813181992317
:1015F000E1F02F333105CCF42196A0E0B0E007C034
:10160000208131812A0F3B1F2F33310574F4FB01F8
:10161000E20FF31F908311969991FA019111F0CF87
:10162000808191819D01280F391FFA013183208328
:10163000FB01E20FF31F1082DF91CF91089522E7A3
:1016400034E080E090E0009709F43FC0409A813098
:10165000910509F442C0419A8230910509F43AC0DB
:10166000429A439845E34A95F1F70000189925C03E
:10167000F9014491199903C0F901319644911A99DD
:1016800003C0F901329644914E9903C0F901339693
:1016900044914F9903C0F9013496449141110FC010
:1016A00001962B5F3F4F8430910509F0CCCF409AD3
:1016B000419A429A439A80E0089540E0DBCF409AF5
:1016C000419A429A439A842F08954098419A429AA7
:1016D000439AC8CF4298439AC5CF4198429A439AB9
:1016E000C1CF2C9887FD42C05A9886FF2FC05B9AC5
:1016F00085FF2FC05C9A84FF2FC05D9A2B9A95E0DE
:101700009A95F1F700002B98EFE1F3E03197F1F7AC
:1017100000C0000083FF28C05A9A82FF23C05B9A52
:1017200081FF1EC05C9A80FF19C05D9A2B9AF5E07C
:10173000FA95F1F700002B9881508230C8F0E7EC61
:10174000F0E03197F1F700C0000008955B9885FD47
:10175000D1CF5C9884FDD1CF5D98D0CF5D98E6CF96
:101760005C98E1CF5B98DCCF5A98D7CF5A9ABDCF1F
:101770008FE39FE10197F1F700C000000895249ADC
:10178000239A559A549A539A529A2FEF80E792E0EF
:10179000215080409040E1F700C000002C985D98F7
:1017A0005C985B9A5A9A2B9A25E02A95F1F70000EB
:1017B0002B988FE19EE40197F1F700C000002B9A6F
:1017C00095E09A95F1F700002B988FE99FE001973B
:1017D000F1F700C000002B9A95E09A95F1F7000010
:1017E0002B988FE99FE00197F1F700C000005A980D
:1017F0002B9A95E09A95F1F700002B988FE99FE0DE
:101800000197F1F700C0000088E20E94710B8CE0A4
:101810000E94710B86E00E94710B81E00E94710BA7
:1018200082E00E94710B8FE39FE10197F1F700C006
:10183000000008952C9A87FD40C05A9886FF2CC05E
:101840005B9A85FF2CC05C9A84FF2CC05D9A2B9A12
:1018500095E09A95F1F700002B98EFE1F3E03197CE
:10186000F1F700C0000083FF26C05A9A82FF21C012
:101870005B9A81FF19C05C9A80FD19C05D982B9A14
:10188000F5E0FA95F1F700002B9887EC90E00197CE
:10189000F1F700C0000008955B9885FDD4CF5C98F7
:1018A00084FDD4CF5D98D3CF5C9880FFE7CF5D9A5D
:1018B000E6CF5B98DECF5A98D9CF5A9ABFCFCF9256
:1018C000DF92EF92FF920F931F93CF93DF93DC0190
:1018D000EC91CE2EEE0FDD08EE08FF08F601E35680
:1018E000F109E231F105F0F5EA018B017C01EC5CD4
:1018F000FF4F0C94CE216FEF71E08CED91E00E94D0
:101900001E228091DC01688179818823C1F06F33C8
:101910007105ACF4EDEDF1E020E030E003C06F3391
:1019200071056CF4D801A60FB71F8C932F5F3F4F42
:10193000819168817981620F731F8111F0CF798362
:101940006883F801E60FF71F10828091DC0188237D
:1019500039F0CDEDD1E00E941A0C89918111FBCFB5
:10196000F7011082DF91CF911F910F91FF90EF90BF
:10197000DF90CF9008956FE072E08CED91E00E94CF
:101980001E228091DC01688179818823C1F06F3348
:101990007105ACF4EDEDF1E020E030E003C06F3311
:1019A00071056CF4D801A60FB71F8C932F5F3F4FC2
:1019B000819168817981620F731F8111F0CF7983E2
:1019C0006883F801E60FF71F10828091DC018823FD
:1019D00039F2CDEDD1E00E941A0C89918111FBCF33
:1019E000F7011082BFCF64E172E08CED91E00E94BC
:1019F0001E228091DC01688179818823C1F06F33D8
:101A00007105ACF4EDEDF1E020E030E003C06F33A0
:101A100071056CF4D801A60FB71F8C932F5F3F4F51
:101A2000819168817981620F731F8111F0CF798371
:101A30006883F801E60FF71F10828091DC0188238C
:101A400009F48ECFCDEDD1E00E941A0C899181115D
:101A5000FBCFF701108286CF6AEF71E08CED91E049
:101A60000E941E228091DC01688179818823C1F067
:101A70006F337105ACF4EDEDF1E020E030E003C030
:101A80006F3371056CF4D801A60FB71F8C932F5FCD
:101A90003F4F819168817981620F731F8111F0CF6F
:101AA00079836883F801E60FF71F10828091DC01CB
:101AB000882309F455CFCDEDD1E00E941A0C89910D
:101AC0008111FBCFF70110824DCF64EF71E08CEDF7
:101AD00091E00E941E228091DC0168817981882337
:101AE000C1F06F337105ACF4EDEDF1E020E030E0D2
:101AF00003C06F3371056CF4D801A60FB71F8C9328
:101B00002F5F3F4F819168817981620F731F81112F
:101B1000F0CF79836883F801E60FF71F1082809178
:101B2000DC01882309F41CCFCDEDD1E00E941A0C12
:101B300089918111FBCFF701108214CF67E072E029
:101B40008CED91E00E941E228091DC0168817981F8
:101B50008823C1F06F337105ACF4EDEDF1E020E0C6
:101B600030E003C06F3371056CF4D801A60FB71FC6
:101B70008C932F5F3F4F819168817981620F731F32
:101B80008111F0CF79836883F801E60FF71F108287
:101B90008091DC01882309F4E3CECDEDD1E00E94F1
:101BA0001A0C89918111FBCFF7011082DBCE69E11C
:101BB00072E08CED91E00E941E228091DC01688130
:101BC00079818823C1F06F337105ACF4EDEDF1E05C
:101BD00020E030E003C06F3371056CF4D801A60F2C
:101BE000B71F8C932F5F3F4F819168817981620F7E
:101BF000731F8111F0CF79836883F801E60FF71F17
:101C000010828091DC01882309F4AACECDEDD1E0C9
:101C10000E941A0C89918111FBCFF7011082A2CE8C
:101C20002F923F924F925F926F927F928F929F92EC
:101C3000AF92BF92CF92DF92EF92FF920F931F93DA
:101C4000CF93DF93CDB7DEB728970FB6F894DEBFFA
:101C50000FBECDBF98878F8344E050E069E171E00B
:101C60000E942C22892B09F424C144E050E06FE14A
:101C700071E08F8198850E942C22892B09F4DAC1AA
:101C800044E050E065E271E08F8198850E942C224B
:101C9000892B09F4FBC144E050E069E071E08F81D9
:101CA00098850E942C22892B09F43CC243E050E025
:101CB0006EE071E08F8198850E942C22892B09F4B7
:101CC00011C245E050E062E171E08F8198850E9489
:101CD0002C22892B09F467C245E050E068E171E0ED
:101CE0008F8198850E942C22892B09F4A8C245E097
:101CF00050E06EE171E08F8198850E942C22892B43
:101D000009F4B9C245E050E064E271E08F81988542
:101D10000E942C22892B09F466C243E050E06AE25B
:101D200071E08F8198850E942C22892B09F4BFC213
:101D300043E050E06EE271E08F8198850E942C2292
:101D4000892B09F407C344E050E062E371E08F811E
:101D500098850E942C22892B09F44AC345E050E063
:101D600067E371E08F8198850E942C22892B09F40A
:101D700069C345E050E06DE371E08F8198850E9472
:101D80002C22892B09F4F7C342E050E063E471E0B0
:101D90008F8198850E942C22892B09F44FC442E040
:101DA00050E066E471E08F8198850E942C22892B97
:101DB00009F4B3C444E050E069E471E08F81988590
:101DC0000E942C22892B09F478C444E050E06EE490
:101DD00071E08F8198850E942C22892B09F4D3C44D
:101DE000412C512C3201FBE2F98373016201EF8136
:101DF000F885A080A1100BC087C02F8138852F5F88
:101E00003F4F38872F83F901A080AA2071F10A2D56
:101E10000A2C000C110BC8010E940C22892B69F7B7
:101E2000005311090A30110508F0C0C28F8198854E
:101E30000E9408222B013C01EF81F885208122239A
:101E4000A1F0822F022E000C990BC0970A9718F070
:101E50002E3209F0AFC22F8138852F5F3F4F388770
:101E60002F83F90120812111ECCF99819B3209F454
:101E700048C30CF45FC2E981EF3209F42EC3EE359A
:101E800009F400C3ED3209F0B2CFA12CA3019201F5
:101E9000C701B6010E94771F6B017C01AA2009F4DB
:101EA000A6CF2F8138852F5F3F4F38872F83A98298
:101EB0009ECF8F81988504960E940822EF81F88535
:101EC0002481222379F0293269F03596FC83EB8353
:101ED00002C0293239F0EB81FC812191FC83EB8334
:101EE0002111F7CF2BED3FE049E450E40E94482157
:101EF00020E030E044E353E40E94E91F42E050E078
:101F00000E94FC056B017C01C092D001D092D101EE
:101F1000E092D201F092D301A7019601C701B60168
:101F20000E94B52181112AC146015701E894B7F8F2
:101F30002FEF3FEF4FE75FE7C501B4010E94B521E6
:101F4000811145C02FEF3FEF4FE75FE7C501B401B7
:101F50000E94E41F18160CF03AC0E1ECF1E0849105
:101F6000882371F022EC31E03C832B830E941A0C11
:101F7000EB81FC8184913196FC83EB838111F6CF58
:101F800028960FB6F894DEBF0FBECDBFDF91CF917C
:101F90001F910F91FF90EF90DF90CF90BF90AF9087
:101FA0009F908F907F906F905F904F903F902F9079
:101FB000089580E090E0A0E8BFE38093D001909383
:101FC000D101A093D201B093D3016C017D010CED3E
:101FD00011E024E048E0C701B6010E94E821F801C1
:101FE00001900020E9F732978081803369F40E1761
:101FF0001F0728F00CC031E0EC3DF30741F03197AA
:10200000118280818033B9F38E3209F4108280917D
:10201000DC01882309F4B4CFEDEDF1E0FC83EB8320
:102020000E941A0CEB81FC818191FC83EB8381116E
:10203000F7CFA6CF8F81988504960E940822EF8162
:10204000F8852481222379F0293269F03596FC83C2
:10205000EB8302C0293239F0EB81FC812191FC83B2
:10206000EB832111F7CF2BED3FE049E450E40E94D0
:10207000482120E030E044E353E40E94E91F43E0BC
:1020800050E00E94FC056B017C013ECF8F8198855A
:1020900004960E940822EF81F8852481222379F09A
:1020A000293269F03596FC83EB8302C0293239F07E
:1020B000EB81FC812191FC83EB832111F7CF2BED88
:1020C0003FE049E450E40E94482120E030E044E34E
:1020D00053E40E94E91F44E050E00E94FC056B01BC
:1020E0007C0112CF8F81988503960E940822EF8190
:1020F000F8852381222379F0293269F03496FC8314
:10210000EB8302C0293239F0EB81FC812191FC8301
:10211000EB832111F7CF45E050E00E94FC056B01F5
:102120007C01F2CE8F81988504960E940822EF816F
:10213000F8852481222379F0293269F03596FC83D1
:10214000EB8302C0293239F0EB81FC812191FC83C1
:10215000EB832111F7CF46E050E00E94FC056B01B4
:102160007C01D2CE80E090E0A0ECBFE78093D0016C
:102170009093D101A093D201B093D301EAECF1E0A6
:102180008491882309F4FCCE2BEC31E03C832B8333
:102190000E941A0CEB81FC8184913196FC83EB83C5
:1021A0008111F6CFEDCE8F81988505960E94082289
:1021B000EF81F8852581222379F0293269F036965E
:1021C000FC83EB8302C0293239F0EB81FC81219141
:1021D000FC83EB832111F7CF47E050E00E94FC0520
:1021E0006B017C0191CE8F81988505960E94082213
:1021F000EF81F8852581222379F0293269F036961E
:10220000FC83EB8302C0293239F0EB81FC81219100
:10221000FC83EB832111F7CF4AE050E00E94FC05DC
:1022200020E030E044E353E40E9448212BED3FE0FE
:1022300049E450E40E94E91F6B017C0165CE8F8167
:10224000988505960E940822EF81F8852581222332
:1022500079F0293269F03696FC83EB8302C029328B
:1022600039F0EB81FC812191FC83EB832111F7CFC5
:1022700048E050E0D3CF8F81988505960E940822D0
:10228000EF81F8852581222379F0293269F036968D
:10229000FC83EB8302C0293239F0EB81FC81219170
:1022A000FC83EB832111F7CF49E050E0B7CF8F815A
:1022B000988503960E940822EF81F88523812223C6
:1022C00079F0293269F03496FC83EB8302C029321D
:1022D00039F0EB81FC812191FC83EB832111F7CF55
:1022E0000E945B208B0177FD39C1672B09F461CE19
:1022F00074E5872E78EF972E7DE2A72E70E4B72E37
:102300001C821B82C12CD12C60E8E62E6FE3F62ED6
:10231000A5019401C701B6010E9448216B017C010F
:102320002B813C812F5F3F4F3C832B83201731074C
:1023300079F7EACD953209F4EEC09A3209F057CD1B
:10234000A12CA3019201C701B6010E9448216B0193
:102350007C01A4CD8F81988503960E9408220E945B
:102360005B208B0177FD4DC1672B09F422CE812CB8
:10237000912C40E2A42E41E4B42E1C821B82C12C7D
:10238000D12C30E8E32E3FE3F32EA5019401C701E1
:10239000B6010E9448216B017C018B819C810196D2
:1023A0009C838B838017910781F7AECDFEE2AF1639
:1023B00009F43CCDEF81F885A08086ED8A0D82304E
:1023C00008F42BC1FFE2AF1609F427C12EE5A216CF
:1023D00009F423C18A2D877F853209F41EC1AA2002
:1023E00009F42BC28F819885019698878F83FFCC43
:1023F0008F81988504960E9408226B017C01EF81F1
:10240000F8858481882379F0893269F03596FC83D8
:10241000EB8302C0893239F0EB81FC818191FC832E
:10242000EB838111F7CF20E030E0A901C701B601AD
:102430000E94432118160CF467CDF7FAF094F7F8D0
:10244000F09462CD8F81988505960E940822EF81D5
:10245000F8852581222379F0293269F03696FC83AC
:10246000EB8302C0293239F0EB81FC812191FC839E
:10247000EB832111F7CF4BE050E00E94FC056B018C
:102480007C0142CDA12CC301B2010E945B206B8371
:102490007C838D839E838B809C8097FCFFC08114FE
:1024A000910409F462C1BC2CDA82170100E010E04B
:1024B000C12CD12C90E8E92E9FE3F92E2B2D3A81E7
:1024C000A101C701B6010E9448216B017C010F5F89
:1024D0001F4F8016910691F7E1CCA12C20E030E04F
:1024E000A901C301B2010E94E41F882309F490C12D
:1024F000A3019201C701B6010E94E91F6B017C0193
:10250000CDCCA12CA3019201C701B6010E94781F76
:102510006B017C01C3CCA12C20E030E0A901C301F8
:10252000B2010E94E41F882309F45DC1C701B6010E
:102530000E945B208B01C301B2010E945B20AB01B2
:10254000BC01C801BA010E94BA21BC01990F880BD5
:10255000990B0E9493206B017C01A0CC00271127CE
:10256000061B170BE2EB8E2EEAE59E2EECEBAE2E51
:10257000EEE3BE2EC5CE8F81988505960E94082277
:102580000E945B208B01EF81F8858581882379F09B
:10259000893269F03696FC83EB8302C0893239F0C8
:1025A000EB81FC818191FC83EB838111F7CF17FDD7
:1025B000D9CD023011050CF4FCCCC12CD12C20E873
:1025C000E22E2FE3F22E22E030E03C832B83EB81DE
:1025D000FC81BF01FF0F880B990B0E9493209B0188
:1025E000AC01C701B6010E9448216B017C012B811F
:1025F0003C812F5F3F4F3C832B83021713073CF72F
:1026000083CC00271127061B170B5DEC852E5CEC95
:10261000952EA92C5DE3B52EB0CEF981FB3209F4DD
:1026200071CF0CF4A9C029812F3209F457CF2E3570
:1026300009F429CF2D3209F034CC28CC8F8198852C
:1026400002960E9408220E945B20EF81F885228179
:10265000222379F0293269F03396FC83EB8302C0A0
:10266000293239F0EB81FC812191FC83EB8321112C
:10267000F7CF072E000C880B990B0E9493206B015B
:102680007C019B01AC010E9448219B01AC01C70168
:10269000B6010E9448216B017C0136CCA70196014E
:1026A00060E070E080E89FE30E94E91FB62E7A8325
:1026B0001C01919481949108F9CE8F81988504969C
:1026C0000E9408220E945B20EF81F885248122234A
:1026D00079F0293269F03596FC83EB8302C0293208
:1026E00039F0EB81FC812191FC83EB832111F7CF41
:1026F00024EB269FA001279F500D1124BA01550FEE
:10270000880B990B0E9493202BED3FE049E450E4A5
:102710000E94E91F6B017C01F7CB8F81988502969F
:102720000E9408220E945B20EF81F88522812223EB
:1027300079F0293269F03396FC83EB8302C02932A9
:1027400039F0EB81FC812191FC83EB832111F7CFE0
:10275000072E000C880B990B0E9493209B01AC0163
:102760000E9448216B017C01CFCBC12CD12C80E889
:10277000E82E8FE3F82E92CBF53209F4CDCEFA3263
:1027800009F4DFCD8ECB8F81988504960E940822B4
:102790000E945B20EF81F8852481222379F0293281
:1027A00069F03596FC83EB8302C0293239F0EB8166
:1027B000FC812191FC83EB832111F7CF072E000CC4
:1027C000880B990B0E9493202BED3FE049E450E4E5
:1027D0000E94482120E030E044E353E40E94E91FD6
:1027E0006B017C0191CBE0EDF1E08491882309F449
:1027F000C7CB21ED31E03C832B830E941A0CEB8187
:10280000FC8184913196FC83EB838111F6CFB8CBA8
:10281000E2EEF1E08491882309F4B2CBE3EEF1E03B
:10282000FC83EB830E941A0CEB81FC81849131962E
:10283000FC83EB838111F6CFA3CB39813B3209F4C2
:1028400061CE5CF089818F3209F448CE8E3509F46F
:102850001ACE8D3209F0CBCA19CB353209F45CCED1
:102860003A3209F46ECDC3CACF92DF92EF92FF9253
:102870000F931F93CF93DF93FC01C0810C2E000CAC
:10288000DD0BA0E0B0E000E010E020E030E0F90176
:10289000EA0FFB1FEE58FB4FE491F0E0EC17FD0749
:1028A000C1F02F5F3F4F2530310589F70F5F1F4F74
:1028B00015960430110549F71092DB011092DA01E8
:1028C000DF91CF911F910F91FF90EF90DF90CF900C
:1028D0000895EA017B016C01F801EE0FFF1FEE0F76
:1028E000FF1FE00FF11FE20FF31FEE0FFF1FEE5D62
:1028F000FB4F0591149164E973E0C8010E94152211
:10290000892B09F418C169E873E0C8010E941522F7
:10291000892B09F4D4C06EE773E0C8010E94152228
:10292000892B09F441C164E773E0C8010E941522B4
:10293000892B09F4FCC060E773E0C8010E941522EE
:10294000892B09F49FC16AE573E0C8010E94152232
:10295000892B09F4B1C164E573E0C8010E94152216
:10296000892B09F4E0C166E473E0C8010E941522D6
:10297000892B09F450C16CE373E0C8010E94152251
:10298000892B09F407C264E373E0C8010E94152291
:10299000892B09F436C260E373E0C8010E94152256
:1029A000892B09F432C267E273E0C8010E94152244
:1029B000892B09F461C26EE173E0C8010E941522FF
:1029C000892B09F490C269E173E0C8010E941522C5
:1029D000892B09F48CC261E173E0C8010E941522C1
:1029E000892B09F4BBC26DE073E0C8010E94152277
:1029F000892B09F461C069E073E0C8010E941522C7
:102A0000892B09F459C065E073E0C8010E941522C2
:102A1000892B09F451C061E073E0C8010E941522BE
:102A2000892B09F449C06EEF72E0C8010E9415229B
:102A3000892B09F041CF1092D4011092D501109248
:102A4000D6011092D70181E00E94710BEFEEF2E007
:102A50008491882349F0C0EFD2E00E941A0CFE0155
:102A6000849121968111F9CFFFEF23ED80E3F1509E
:102A700020408040E1F700C0000081E00E94710B1F
:102A8000EDEDF2E08491882349F0CEEDD2E00E9492
:102A90001A0CFE01849121968111F9CF80EC0E94DD
:102AA000710BF7018081882339F0E70121960E949C
:102AB0001A0C89918111FBCFF6011082FDCE63E8DB
:102AC00073E08CED91E00E941E228091DC01688110
:102AD00079818823C1F06F337105ACF4EDEDF1E03D
:102AE00020E030E003C06F3371056CF4D701A60F0E
:102AF000B71F8C932F5F3F4F819168817981620F5F
:102B0000731F8111F0CF79836883F701E60FF71FF8
:102B100010828091DC01882379F2CDEDD1E00E9412
:102B20001A0C89918111FBCFF6011082C5CE8EE57A
:102B3000F6018083C1CE6EE873E08CED91E00E94D7
:102B40001E228091DC01688179818823C1F06F3376
:102B50007105ACF4EDEDF1E020E030E003C06F333F
:102B600071056CF4D701A60FB71F8C932F5F3F4FF1
:102B7000819168817981620F731F8111F0CF798310
:102B80006883F701E60FF71F10828091DC0188232C
:102B900009F492CFCDEDD1E00E941A0C89918111F8
:102BA000FBCFF601108288CE68E773E08CED91E0F0
:102BB0000E941E228091DC01688179818823C1F006
:102BC0006F337105ACF4EDEDF1E020E030E003C0CF
:102BD0006F3371056CF4D701A60FB71F8C932F5F6D
:102BE0003F4F819168817981620F731F8111F0CF0E
:102BF00079836883F701E60FF71F10828091DC016B
:102C0000882309F459CFCDEDD1E00E941A0C8991A7
:102C10008111FBCF51CF61E473E08CED91E00E9414
:102C20001E224091DC01888199814423C1F08F33B9
:102C30009105ACF4EDEDF1E020E030E003C08F331E
:102C400091056CF4D701A80FB91F4C932F5F3F4F2C
:102C5000419188819981820F931F4111F0CF99830F
:102C60008883F701E80FF91F10828091DC01882327
:102C700009F422CFCDEDD1E00E941A0C8991811187
:102C8000FBCF1ACF81E00E94710BEEE5F3E0849157
:102C9000882351F00FE513E00E941A0CF80184918B
:102CA0000F5F1F4F8111F8CF80EC0E94710B1982CA
:102CB0001882F701108200CF66E573E08CED91E099
:102CC0000E941E224091DC01888199814423C1F039
:102CD0008F339105ACF4EDEDF1E020E030E003C07E
:102CE0008F3391056CF4D701A80FB91F4C932F5F58
:102CF0003F4F419188819981820F931F4111F0CFFD
:102D000099838883F701E80FF91F10828091DC0115
:102D1000882309F4D1CECDEDD1E00E941A0C89911F
:102D20008111FBCFC9CE6AE473E08CED91E00E9483
:102D30001E222091DC01888199812223C1F08F33EA
:102D40009105ACF4EDEDF1E040E050E003C08F33CD
:102D500091056CF4D701A80FB91F2C934F5F5F4FFB
:102D6000219188819981840F951F2111F0CF99833A
:102D70008883F701E80FF91F10828091DC01882316
:102D800009F49ACECDEDD1E00E941A0C89918111FF
:102D9000FBCF92CE66E373E08CED91E00E941E22A1
:102DA0004091DC01888199814423C1F08F339105E2
:102DB000ACF4EDEDF1E020E030E003C08F3391059D
:102DC0006CF4D701A80FB91F4C932F5F3F4F41916F
:102DD00088819981820F931F4111F0CF9983888355
:102DE000F701E80FF91F10828091DC01882309F4B4
:102DF00063CECDEDD1E00E941A0C89918111FBCFF9
:102E00005BCE8BE5F601808357CD6BE273E08CEDF2
:102E100091E00E941E224091DC0188819981442327
:102E2000C1F08F339105ACF4EDEDF1E020E030E03E
:102E300003C08F3391056CF4D701A80FB91F4C93D1
:102E40002F5F3F4F419188819981820F931F4111DC
:102E5000F0CF99838883F701E80FF91F10828091E2
:102E6000DC01882309F428CECDEDD1E00E941A0CB4
:102E700089918111FBCF20CE62E273E08CED91E06D
:102E80000E941E224091DC01888199814423C1F077
:102E90008F339105ACF4EDEDF1E020E030E003C0BC
:102EA0008F3391056CF4D701A80FB91F4C932F5F96
:102EB0003F4F419188819981820F931F4111F0CF3B
:102EC00099838883F701E80FF91F10828091DC0154
:102ED000882309F4F1CDCDEDD1E00E941A0C89913F
:102EE0008111FBCFE9CD85E2F6018083E5CC63E17A
:102EF00073E08CED91E00E941E224091DC018881FC
:102F000099814423C1F08F339105ACF4EDEDF1E0EC
:102F100020E030E003C08F3391056CF4D701A80F97
:102F2000B91F4C932F5F3F4F419188819981820F48
:102F3000931F4111F0CF99838883F701E80FF91FA0
:102F400010828091DC01882309F4B6CDCDEDD1E06B
:102F50000E941A0C89918111FBCFAECD8DE5F6014F
:102F60008083AACC8F929F92AF92BF92CF92DF9232
:102F7000EF92FF920F931F93CF93DF93CDB7DEB7FE
:102F8000C054D1090FB6F894DEBF0FBECDBFDC012F
:102F90000C91002E000C110BA0E0B0E0E12CF12C04
:102FA00020E030E0F901EA0FFB1FEE58FB4FE491FF
:102FB000F0E0E017F10729F12F5F3F4F2530310591
:102FC00089F7EFEFEE1AFE0A1596F4E0EF16F1041A
:102FD00039F71092D9011092D801C05CDF4F0FB6BB
:102FE000F894DEBF0FBECDBFDF91CF911F910F913F
:102FF000FF90EF90DF90CF90BF90AF909F908F9019
:1030000008956A015B014C01F701EE0FFF1FEE0FFF
:10301000FF1FEE0DFF1DE20FF31FEE0FFF1FE65B1C
:10302000FB4F0591149169ED72E0C8010E941522D1
:10303000892B09F438C160ED72E0C8010E941522A5
:10304000892B09F4EEC067EC72E0C8010E941522DA
:10305000892B09F46CC160EC72E0C8010E94152252
:10306000892B09F41CC16DEB72E0C8010E94152286
:10307000892B09F49EC169EB72E0C8010E941522F8
:10308000892B09F4DCC161EB72E0C8010E941522B2
:10309000892B09F492C16AEA72E0C8010E941522E4
:1030A000892B09F40EC262EA72E0C8010E9415225F
:1030B000892B09F448C26AE972E0C8010E9415220E
:1030C000892B09F482C267E972E0C8010E941522C7
:1030D000892B09F48AC26BE872E0C8010E941522AC
:1030E000892B09F4BFC264E872E0C8010E9415226E
:1030F000892B09F4FDC26DE772E0C8010E94152218
:10310000892B09F43BC367E772E0C8010E941522CE
:10311000892B09F42FC363E772E0C8010E941522CE
:10312000892B09F4E1C26FE672E0C8010E94152202
:10313000892B09F470C36CE672E0C8010E94152265
:10314000892B09F41FC467E472E0C8010E941522AC
:10315000892B09F4BAC36EE172E0C8010E941522FE
:10316000892B09F036CF6091D4017091D5018091FF
:10317000D6019091D7010CED11E022E048E00E94C9
:10318000E821F80101900020E9F73297808180332F
:1031900069F40E171F0728F00CC081E0EC3DF8071A
:1031A00041F03197118280818033B9F38E3209F476
:1031B00010824091DC01442309F45EC4F601808151
:1031C00091818F339105B4F4EDEDF1E020E030E032
:1031D00003C08F33910574F4D501A80FB91F4C9328
:1031E0002F5F3F4F4191D6018D919C91820F931F8C
:1031F0004111EFCFF60191838083F501E80FF91FAC
:1032000010828091DC01882349F00DED11E00E94CD
:103210001A0CD8018D918D018111F9CFD4011C9226
:10322000D8CE6BEC72E08CED91E00E941E22809172
:10323000DC01882309F4D1C1F601608171816F330B
:103240007105B4F4EDEDF1E020E030E003C06F3340
:10325000710574F4D501A60FB71F8C932F5F3F4FF4
:103260008191D6016D917C91620F731F8111EFCF17
:10327000F60171836083F501E60FF71F10828091DC
:10328000DC01882359F20DED11E00E941A0CD801DF
:103290008D918D018111F9CFD4011C929ACE8EE5CA
:1032A000F401808396CE64ED72E08CED91E00E9493
:1032B0001E228091DC01882309F48BC1D6016D9117
:1032C0007C916F337105DCF4EDEDF1E020E030E04E
:1032D00008C0D6016D917C91620F731F6F33710529
:1032E00074F4D501A60FB71F8C932F5F3F4F8191C8
:1032F0008111EFCFF60160817181620F731FF601BA
:1033000071836083F501E60FF71F10828091DC0165
:10331000882309F483CF0DED11E00E941A0CF80107
:1033200081918F018111F9CFD4011C9252CE62ECB0
:1033300072E08CED91E00E941E228091DC018823D6
:1033400009F44FC1D6016D917C916F337105DCF4A6
:10335000EDEDF1E020E030E008C0D6016D917C9108
:10336000620F731F6F33710574F4D501A60FB71F79
:103370008C932F5F3F4F81918111EFCFF6016081D8
:103380007181620F731FF60171836083F501E60F8F
:10339000F71F10828091DC01882309F43FCF0DEDE7
:1033A00011E00E941A0CD8018D918D018111F9CF85
:1033B00035CF84E4D4018C930CCE6DEA72E08CEDB1
:1033C00091E00E941E224091DC01442309F440C395
:1033D000D6018D919C918F339105DCF4EDEDF1E0F8
:1033E00020E030E008C0D6018D919C91820F931FA0
:1033F0008F33910574F4D501A80FB91F4C932F5F3B
:103400003F4F41914111EFCFF60180819181820FB1
:10341000931FF60191838083F501E80FF91F108255
:103420008091DC01882309F4F9CE0DED11E00E94B2
:103430001A0CD8018D918D018111F9CFEFCE64EB7B
:1034400072E08CED91E00E941E222091DC0122238B
:1034500009F4D5C1D6018D919C918F339105DCF48F
:10346000EDEDF1E040E050E008C0D6018D919C9177
:10347000840F951F8F33910574F4D501A80FB91FE0
:103480002C934F5F5F4F21912111EFCFF601808187
:103490009181840F951FF60191838083F501E80FD8
:1034A000F91F10828091DC01882309F4B7CE0DED5D
:1034B00011E00E941A0CD8018D918D018111F9CF74
:1034C000ADCE66EA72E08CED91E00E941E22209162
:1034D000DC01222309F4C4C2D6018D919C918F3363
:1034E0009105DCF4EDEDF1E040E050E008C0D601DC
:1034F0008D919C91840F951F8F33910574F4D501A4
:10350000A80FB91F2C934F5F5F4F21912111EFCF6F
:10351000F60180819181840F951FF601918380834C
:10352000F501E80FF91F10828091DC01882309F46E
:1035300075CE0DED11E00E941A0CD8018D918D0110
:103540008111F9CF6BCE6CE972E08CED91E00E94B5
:103550001E224091DC01442309F47EC2D6018D91E4
:103560009C918F339105DCF4EDEDF1E020E030E04B
:1035700008C0D6018D919C91820F931F8F339105C6
:1035800074F4D501A80FB91F4C932F5F3F4F4191A1
:103590004111EFCFF60180819181820F931FF601D7
:1035A00091838083F501E80FF91F10828091DC017F
:1035B000882309F433CE0DED11E00E941A0CD801D6
:1035C0008D918D018111F9CF29CE88E2F40180839C
:1035D00000CDF6016081718192CED6016D917C9112
:1035E00047CEF60160817181CECE6FE872E08CED3E
:1035F00091E00E941E224091DC01442309F438C26C
:10360000F601808191818F339105B4F4EDEDF1E005
:1036100020E030E003C08F33910574F4D501A80F8A
:10362000B91F4C932F5F3F4F4191D6018D919C91D3
:10363000820F931F4111EFCFF60191838083F50133
:10364000E80FF91F10828091DC01882309F4E6CD90
:103650000DED11E00E941A0CD8018D918D018111A0
:10366000F9CFDCCD68E872E08CED91E00E941E227B
:103670004091DC01442309F4CAC0D6018D919C918C
:103680008F339105DCF4EDEDF1E020E030E008C08F
:10369000D6018D919C91820F931F8F33910574F405
:1036A000D501A80FB91F4C932F5F3F4F4191411196
:1036B000EFCFF60180819181820F931FF6019183F4
:1036C0008083F501E80FF91F10828091DC018823C7
:1036D00009F4A4CD0DED11E00E941A0CD8018D91D2
:1036E0008D018111F9CF9ACD85E4D4018C9371CCF1
:1036F00061E872E08CED91E00E941E224091DC01B5
:10370000442309F4B1C1D6018D919C918F33910569
:10371000DCF4EDEDF1E020E030E008C0D6018D9161
:103720009C91820F931F8F33910574F4D501A80FDC
:10373000B91F4C932F5F3F4F41914111EFCFF601DD
:1037400080819181820F931FF60191838083F5011F
:10375000E80FF91F10828091DC01882309F45ECD07
:103760000DED11E00E941A0CD8018D918D0181118F
:10377000F9CF54CD89E2F40180832BCC69E772E064
:103780008CED91E00E941E224091DC014423D9F18E
:10379000D6018D919C918F339105DCF4EDEDF1E034
:1037A00020E030E008C0D6018D919C91820F931FDC
:1037B0008F33910574F4D501A80FB91F4C932F5F77
:1037C0003F4F41914111EFCFF60180819181820FEE
:1037D000931FF60191838083F501E80FF91F108292
:1037E0008091DC01882309F419CD0DED11E00E94D0
:1037F0001A0CD8018D918D018111F9CF0FCDF601F1
:103800008081918148CEF60180819181E2CFF601DD
:103810008081918153CF6091D0017091D1018091CD
:10382000D2019091D3010CED11E022E048E00E941A
:10383000E821F80101900020E9F732978081803378
:1038400009F0FDC00E171F0750F4319711828081D7
:10385000803309F0F4C021E0EC3DF207B1F740916C
:10386000DC01442309F4F0C0F601808191818F339B
:103870009105ACF4EDEDF1E020E030E0D501A80FCA
:10388000B91F4C932F5F3F4F4191D6018D919C9171
:10389000820F931F442319F08F3391057CF3F601B7
:1038A00091838083F501E80FF91F10828091DC017C
:1038B000882309F4B3CC0DED11E00E941A0CD80155
:1038C0008D918D018111F9CFA9CCB501CE01019661
:1038D0000E942522CE0101960E9408229B01AC0184
:1038E0006091D4017091D5018091D6019091D7015A
:1038F0000E94771F6093D4017093D5018093D60105
:103900009093D70181E00E94710BE3E3F2E0849190
:10391000882351F004E312E00E941A0CF80184910C
:103920000F5F1F4F8111F8CFFFEF23ED80E3F150C0
:1039300020408040E1F700C0000081E00E94710B50
:10394000E1E2F2E08491882351F002E212E00E9469
:103950001A0CF80184910F5F1F4F8111F8CF80EC92
:103960000E94710BD5018C91882309F457CCBFEFCD
:10397000AB1ABB0A0E941A0CF50181915F018111FB
:10398000F9CF4CCCB501CE0101960E942522CE0183
:1039900001960E9408229B01AC016091D4017091B4
:1039A000D5018091D6019091D7010E94781F609334
:1039B000D4017093D5018093D6019093D70181E013
:1039C0000E94710BECE5F2E08491882351F00DE543
:1039D00012E00E941A0CF80184910F5F1F4F8111B1
:1039E000F8CFBFEFE3EDF0E3B150E040F040E1F796
:1039F00000C0000081E00E94710BEAE4F2E08491D3
:103A0000882351F00BE412E00E941A0CF801849113
:103A10000F5F1F4F8111F8CF80EC0E94710BD50111
:103A20008C91882309F4FACBBFEFAB1ABB0A0E9432
:103A30001A0CF50181915F018111F9CFEFCB8E3224
:103A400009F00DCF10820BCFD6018D919C9127CF1D
:103A5000F60180819181DDCCF601808191819FCD3D
:103A6000F6018081918159CDF601808191816CCEE2
:103A7000D6018D919C91E0CDD6018D919C91BACBD0
:103A8000CF93DF93EC018881882331F021960E9447
:103A90001A0C89918111FBCFDF91CF910895CF93BB
:103AA000DF93EC012196FC018491882339F00E9478
:103AB0001A0CFE01849121968111F9CFDF91CF91EB
:103AC000089581E00C94710B389A399A3A9A3B9A8E
:103AD000409A419A429A439A20982198229856985F
:103AE0005798289A299A2A9A5E9A5F9A0895CF93AE
:103AF000DF93CDB7DEB7C354D1090FB6F894DEBF5C
:103B00000FBECDBF1A821982FE0133968EE3DF010C
:103B10001D928A95E9F723961FAE1EAE23970E9449
:103B2000BF0B0E94641DE8E1F4E08491882351F00A
:103B300009E114E00E941A0CF80184910F5F1F4FF5
:103B40008111F8CFBFEFE7EAF1E6B150E040F04075
:103B5000E1F700C0000081E00E94710B80EC0E9440
:103B6000710B86EDE82E83E0F82E94ECC92E93E0DD
:103B7000D92E23EBA22E23E0B22E3BEA832E33E094
:103B8000932E49E9642E43E0742E0E941F0B249665
:103B90008FAF24978823C9F3833529F1813409F441
:103BA000DDC0833409F42EC1843409F49DC08D3303
:103BB00009F448C123968EAD9FAD2397CF970CF49F
:103BC00058C0FFEF25EA8EE0F15020408040E1F739
:103BD00000C000000E941F0B24968FAF24978823FB
:103BE000A1F28335D9F681E090E02091DA0130919D
:103BF000DB01232B11F080E090E09093DB018093B8
:103C0000DA0181E00E94710B8091DA019091DB0171
:103C1000892B09F4A0C0EFE0F4E08F010F5F1F4F84
:103C20008491882341F00E941A0CF80184910F5F5F
:103C30001F4F8111F8CFFFEF23ED80E3F1502040BB
:103C40008040E1F700C0000081E00E94710B80EC31
:103C50000E94710B8981882309F4B3CF8E010E5F16
:103C60001F4F0E941A0CD8018D918D018111F9CF3F
:103C7000A8CF8091DA019091DB01892B09F028C14E
:103C80008091D8019091D901AE014F5B5F4FBE0189
:103C90006F5F7F4F892B09F4CFC0CE018D5B9F4FA3
:103CA0000E94B21724968FAD2497882309F489CFF8
:103CB00023964EAD5FAD23979A012F5F3F4F23961A
:103CC0003FAF2EAF2397E1E0F0E0EC0FFD1FE40FD4
:103CD000F51F8083E1E0F0E0EC0FFD1FE20FF31F22
:103CE00010820E941A0C6DCF23968EAD9FAD239744
:103CF000181619060CF0BDCF019723969FAF8EAF13
:103D00002397E1E0F0E0EC0FFD1FE80FF91F1082B0
:103D100080EC0E94710BF5018491882351F004EB33
:103D200013E00E941A0CF80184910F5F1F4F81115C
:103D3000F8CF80EC0E94710B8981882309F441CF70
:103D40008E010E5F1F4F0E941A0CD8018D918D01BC
:103D50008111F9CF36CFE5E0F4E05FCF81E090E06C
:103D60002091D8013091D901232B11F080E090E00F
:103D70009093D9018093D80181E00E94710B8091CA
:103D8000D8019091D901892B09F4AEC0E7EFF3E097
:103D90008F010F5F1F4F8491882341F00E941A0CFE
:103DA000F80184910F5F1F4F8111F8CFBFEFE3ED52
:103DB000F0E3B150E040F040E1F700C0000081E0E6
:103DC0000E94710BF7018491882351F007ED13E0F5
:103DD0000E941A0CF80184910F5F1F4F8111F8CFD8
:103DE00080EC0E94710B8981882309F4EACE8E0150
:103DF0000E5F1F4F0E941A0CD8018D918D01811109
:103E0000F9CFDFCE81E00E94710BF6018491882307
:103E100051F005EC13E00E941A0CF80184910F5F39
:103E20001F4F8111F8CF80EC0E94710B23961FAEBB
:103E30001EAE23971982C5CECE018D5B9F4F0E9487
:103E40005F0C30CF2396EEADFFAD239781E090E07D
:103E50008C0F9D1FE80FF91F108281E00E94710BEB
:103E6000F4018491882351F00CEA13E00E941A0CAB
:103E7000F80184910F5F1F4F8111F8CF80EC0E94F1
:103E8000710BCE0101960E94100E23961FAE1EAE3E
:103E900023971982FFEF2BE782E9F1502040804001
:103EA000E1F700C0000081E00E94710BF3018491F2
:103EB000882351F00AE913E00E941A0CF80184915A
:103EC0000F5F1F4F8111F8CF80EC0E94710B79CEEC
:103ED000AE014F5B5F4FBE016F5F7F4FCE018D5BC9
:103EE0009F4F0E943414DECEE8EEF3E051CF5058DD
:103EF000BB27AA270E948F1F0C9409210E94FB2038
:103F000038F00E94022120F039F49F3F19F426F482
:103F10000C94F8200EF4E095E7FB0C94F220E92FC6
:103F20000E941A2158F3BA1762077307840795078E
:103F300020F079F4A6F50C943C210EF4E0950B2EBC
:103F4000BA2FA02D0B01B90190010C01CA01A001EB
:103F50001124FF27591B99F0593F50F4503E68F146
:103F60001A16F040A22F232F342F4427585FF3CF87
:103F7000469537952795A795F0405395C9F77EF458
:103F80001F16BA0B620B730B840BBAF09150A1F0A1
:103F9000FF0FBB1F661F771F881FC2F70EC0BA0F27
:103FA000621F731F841F48F4879577956795B795AF
:103FB000F7959E3F08F0B0CF9395880F08F09927AA
:103FC000EE0F9795879508950E94CE2008F481E022
:103FD00008950E94FD1F0C9409210E94022158F0AF
:103FE0000E94FB2040F029F45F3F29F00C94F2205E
:103FF00051110C943D210C94F8200E941A2168F371
:104000009923B1F3552391F3951B550BBB27AA2791
:1040100062177307840738F09F5F5F4F220F331FCB
:10402000441FAA1FA9F335D00E2E3AF0E0E832D093
:1040300091505040E695001CCAF72BD0FE2F29D096
:10404000660F771F881FBB1F261737074807AB0768
:10405000B0E809F0BB0B802DBF01FF2793585F4FDD
:104060003AF09E3F510578F00C94F2200C943D21DB
:104070005F3FE4F3983ED4F3869577956795B795BF
:10408000F7959F5FC9F7880F911D9695879597F9CA
:104090000895E1E0660F771F881FBB1F6217730743
:1040A0008407BA0720F0621B730B840BBA0BEE1F58
:1040B00088F7E09508950E9462206894B1110C94ED
:1040C0003D2108950E94222188F09F5798F0B92F32
:1040D0009927B751B0F0E1F0660F771F881F991F3D
:1040E0001AF0BA95C9F714C0B13091F00E943C2182
:1040F000B1E008950C943C21672F782F8827B85F92
:1041000039F0B93FCCF3869577956795B395D9F794
:104110003EF490958095709561957F4F8F4F9F4F9E
:104120000895E89409C097FB3EF4909580957095AA
:1041300061957F4F8F4F9F4F9923A9F0F92F96E9F3
:10414000BB279395F695879577956795B795F11168
:10415000F8CFFAF4BB0F11F460FF1BC06F5F7F4F05
:104160008F4F9F4F16C0882311F096E911C0772317
:1041700021F09EE8872F762F05C0662371F096E820
:10418000862F70E060E02AF09A95660F771F881FEF
:10419000DAF7880F9695879597F90895990F000893
:1041A000550FAA0BE0E8FEEF16161706E807F90709
:1041B000C0F012161306E407F50798F0621B730BA4
:1041C000840B950B39F40A2661F0232B242B252B25
:1041D00021F408950A2609F4A140A6958FEF811DC8
:1041E000811D089597F99F6780E870E060E0089569
:1041F0009FEF80EC089500240A94161617061806FF
:104200000906089500240A941216130614060506DA
:104210000895092E0394000C11F4882352F0BB0F6B
:1042200040F4BF2B11F460FF04C06F5F7F4F8F4FCE
:104230009F4F089557FD9058440F551F59F05F3F09
:1042400071F04795880F97FB991F61F09F3F79F0B8
:1042500087950895121613061406551FF2CF46953A
:10426000F1DF08C0161617061806991FF1CF8695BC
:104270007105610508940895E894BB2766277727A0
:10428000CB0197F908950E94CE2008F48FEF08958E
:104290000E945B210C9409210E94FB2038F00E94AF
:1042A000022120F0952311F00C94F2200C94F820B8
:1042B00011240C943D210E941A2170F3959FC1F3A3
:1042C000950F50E0551F629FF001729FBB27F00DC4
:1042D000B11D639FAA27F00DB11DAA1F649F662719
:1042E000B00DA11D661F829F2227B00DA11D621F68
:1042F000739FB00DA11D621F839FA00D611D221F22
:10430000749F3327A00D611D231F849F600D211D05
:10431000822F762F6A2F11249F5750409AF0F1F088
:1043200088234AF0EE0FFF1FBB1F661F771F881FF1
:1043300091505040A9F79E3F510580F00C94F22017
:104340000C943D215F3FE4F3983ED4F38695779536
:104350006795B795F795E7959F5FC1F7FE2B880F97
:10436000911D9695879597F908950E94CE20880B08
:10437000990B089597FB072E16F4009407D077FD4C
:1043800009D00E94D42107FC05D03EF49095819578
:104390009F4F0895709561957F4F0895EE0FFF1F11
:1043A0000590F491E02D0994AA1BBB1B51E107C0B5
:1043B000AA1FBB1FA617B70710F0A61BB70B881FB5
:1043C000991F5A95A9F780959095BC01CD01089544
:1043D000EF920F931F93CF93DF93E80147FD02C045
:1043E00034E001C034E1042E000C550B57FF03C02C
:1043F000519541955109E32E022F242FAE010E94C1
:104400003824CE01DF91CF911F910F91EF90089545
:10441000662777270C94922591110C94B827803247
:1044200019F089508550C8F70895FB01DC018D9182
:10443000059080190110D9F3990B0895FB01DC0157
:1044400005900D920020E1F70895FB01DC01019039
:104450000D920020E1F70895FB01DC01415050402E
:1044600030F08D910190801919F40020B9F7881B64
:10447000990B0895A0E0B0E0E0E4F2E20C949E28ED
:10448000AE014B5F5F4FFA0161917191AF01809175
:10449000FE019091FF010E945722E2E00C94BA289D
:1044A0006091FE017091FF010E94E9270895ABE041
:1044B000B0E0EDE5F2E20C948E286C017B018A01FC
:1044C000FC0117821682838181FFCCC1CE01019647
:1044D0003C01F6019381F70193FD859193FF819152
:1044E0007F01882309F4BAC1853239F493FD85919F
:1044F00093FF81917F01853229F4B60190E00E94FB
:10450000E927E7CF912C212C312CFFE1F315D8F0CE
:104510008B3279F038F4803279F08332A1F4232D94
:1045200020611DC08D3261F0803369F4232D21603C
:1045300016C0832D8260382EE32DE4603E2E2AC003
:10454000F32DF8601DC037FC2DC020ED280F2A3058
:1045500040F08E32B9F436FC81C1232D2064322E16
:1045600019C036FE06C08AE0989E200D1124922EB6
:1045700011C0EAE02E9E200D1124222EF32DF062B0
:104580003F2E08C08C3621F4832D8068382E02C05F
:10459000883641F4F70193FD859193FF81917F0166
:1045A0008111B3CF982F9F7D9554933028F40C5FE1
:1045B0001F4F9FE399830DC0833631F0833771F02D
:1045C000833509F059C021C0F801808189830E5FCD
:1045D0001F4F88248394912C530113C02801F2E0CB
:1045E0004F0E511CF801A080B18036FE03C0692D2A
:1045F00070E002C06FEF7FEFC5010E94DE274C0123
:104600008201F32DFF773F2E16C0280122E0420ED3
:10461000511CF801A080B18036FE03C0692D70E006
:1046200002C06FEF7FEFC5010E94D3274C01F32D2D
:10463000F0683F2E820133FC1BC0822D90E088166B
:104640009906B0F4B60180E290E00E94E9272A942E
:10465000F4CFF50137FC859137FE81915F01B601FA
:1046600090E00E94E92721102A9421E0821A910803
:104670008114910471F7E8C0843611F0893641F550
:10468000F80137FE07C060817181828193810C5FE0
:104690001F4F08C060817181072E000C880B990B99
:1046A0000E5F1F4FF32DFF763F2E97FF09C09095A9
:1046B0008095709561957F4F8F4F9F4FF0683F2E8B
:1046C0002AE030E0A3010E942528882E861845C0E4
:1046D000853731F4232D2F7EB22E2AE030E025C01D
:1046E000932D997FB92E8F36C1F018F4883579F063
:1046F000B5C0803719F0883721F0B0C0E92FE061EC
:10470000BE2EB4FE0DC0FB2DF460BF2E09C034FEDA
:104710000AC0292F2660B22E06C028E030E005C06E
:1047200020E130E002C020E132E0F801B7FE07C02E
:1047300060817181828193810C5F1F4F06C060810F
:10474000718180E090E00E5F1F4FA3010E94252839
:10475000882E8618FB2DFF773F2E36FE0DC0232DA9
:104760002E7FA22E891458F434FE0BC032FC09C0EF
:10477000832D8E7EA82E05C0B82CA32C03C0B82C88
:1047800001C0B92CA4FE0FC0FE01E80DF11D80810F
:10479000803321F49A2D997EA92E09C0A2FE06C06D
:1047A000B394B39404C08A2D867809F0B394A3FC23
:1047B00011C0A0FE06C0B21488F4280C922C9B18DD
:1047C0000EC0B21460F4B60180E290E00E94E927C6
:1047D000B394F7CFB21418F42B1802C0982C212CE4
:1047E000A4FE10C0B60180E390E00E94E927A2FE7B
:1047F00017C0A1FC03C088E790E002C088E590E004
:10480000B6010CC08A2D867859F0A1FE02C08BE259
:1048100001C080E2A7FC8DE2B60190E00E94E9278A
:10482000891438F4B60180E390E00E94E9279A9455
:10483000F7CF8A94F301E80DF11D8081B60190E075
:104840000E94E9278110F5CF222009F442CEB6015B
:1048500080E290E00E94E9272A94F6CFF601868153
:10486000978102C08FEF9FEF2B96E2E10C94AA286C
:10487000A9E0B0E0EEE3F4E20C9494286A01122F70
:10488000B02E2BE3201720F0FF24F394F00E02C08B
:104890002CE3F22E0F2D27E0AE014F5F5F4F0E94F9
:1048A000E026BC014981842F8970813031F0E1FC20
:1048B00006C0E0FE06C090E205C09DE203C09BE298
:1048C00001C090E05E2D507143FF3CC0911102C0C9
:1048D00083E001C084E0811718F4212F281B01C058
:1048E00020E051110BC0F601822F30E2882319F02D
:1048F00031938150FBCFC20ED11C20E0992329F0C7
:10490000D6019C93F60131966F01C6010396E2FE33
:104910000AC03EE4D6013C9341E411964C931197B2
:1049200012963C9306C03EE6F601308341E6418391
:104930003283FC01322F40E2332309F442C0419319
:104940003150FACF42FF44C0911102C083E001C050
:1049500084E0811718F4212F281B01C020E0511199
:104960000BC0F601822F30E2882319F03193815079
:10497000FBCFC20ED11C20E0992329F0D6019C93D5
:10498000F60131966F01C6010396E2FE0BC039E4D1
:10499000D6013C933EE411963C93119736E412966F
:1049A0003C9307C039E6F60130833EE6318336E6B4
:1049B0003283FC01322F40E2332319F0419331500E
:1049C000FBCFFC01E20FF11D10828EEF9FEFA6C01E
:1049D00021E030E0911102C020E030E01616170609
:1049E0001CF4FB01319602C0E1E0F0E02E0F3F1F06
:1049F000BB2021F0EB2DF0E0319602C0E0E0F0E0CA
:104A00002E0F3F1FE12FF0E02E173F071CF4121B63
:104A1000212F01C020E08E2D887159F4F601822FDC
:104A200030E2882319F031938150FBCFC20ED11CA4
:104A300020E0992329F0D6019C93F60131966F016D
:104A400051110BC0F601822F90E3882319F0919346
:104A50008150FBCFC20ED11C20E00F2D060F9A8192
:104A6000342F307144FF03C0913309F40150101604
:104A700024F4093018F008E001C001E0AB0177FF31
:104A800002C040E050E0FB01E41BF50BA1E0B0E008
:104A9000AC0FBD1FEA0FFB1F8EE2A82E4B01801A40
:104AA00091080B2D10E01195019511094F3FBFEFB3
:104AB0005B0721F4D601AC9211966D01641775075E
:104AC0002CF08416950614F4818101C080E34150D6
:104AD00051093196D60111967D014017510724F0F6
:104AE000D6018C936701E2CF6417750739F49633CA
:104AF00020F4953319F4311101C081E3F60180836C
:104B0000F701822F90E2882319F091938150FBCF17
:104B1000F701E20FF11D108280E090E02996ECE0B1
:104B20000C94B028A0E0B0E0E8E9F5E20C949428F9
:104B3000EC016B016115710519F0FB019183808314
:104B40007E01FFEFEF1AFF0A0881802F90E00E949C
:104B50000C22892B11F0E701F3CF0D3239F47E01DD
:104B600082E0E80EF11C098111E008C00B3229F443
:104B70007E0192E0E90EF11C098110E0E701219726
:104B800043E050E064E970E0CE010E94BB27892B2E
:104B9000C1F4239645E050E06FE870E0CE010E943A
:104BA000BB27892B09F42596C114D10419F0F6010D
:104BB000D183C0831111F6C060E070E080E89FE708
:104BC000FAC043E050E06CE870E0CE010E94BB27E1
:104BD000892B59F4C114D10409F4E9C0F2E0EF0EB5
:104BE000F11CF601F182E082E2C020E030E0A90190
:104BF000C0E0D0E0F70180EDA82EA00E89E08A1574
:104C000030F1912F9260B92E812F887012FF04C06D
:104C1000811124C0219622C081112197A5E0B0E026
:104C20000E948328DC01CB01880F991FAA1FBB1F9C
:104C30009C01AD012A0D311D411D511D283989E905
:104C40003807480789E1580748F0166006C09EEF0C
:104C5000A9120AC013FD40C01860B12E8FEFE81AE8
:104C6000F80A00811B2DC6CF802F8F7D8534A1F5DA
:104C700080818D3211F4106106C08B3221F03196A3
:104C800061E070E004C08181329662E070E08053A0
:104C90008A3018F0E61BF70B1FC060E070E0603848
:104CA0009CE079075CF4DB01AA0FBB1FAA0FBB1FB6
:104CB0006A0F7B1F660F771F680F711D3196DF012A
:104CC00011978C9180538A3050F314FF03C0719573
:104CD00061957109C60FD71F11FF08C0C114D10417
:104CE00029F0CF010197F60191838083CA01B901B0
:104CF0000E949120212F2370233019F04B015C0179
:104D000006C04B015C01B7FAB094B7F8B09420E04C
:104D100030E0A901C501B4010E94E41F882309F411
:104D20003EC0D7FF06C0D195C195D1090BEA10E06E
:104D300002C003EC10E06801F8E1CF1AD10890E25C
:104D4000E92EF12CCE15DF0574F0F801259135918F
:104D500045915491C501B4010E9448214B015C0169
:104D6000CE19DF09EFCF04501109F594E7940C1523
:104D70001D0541F78A2D880F8B2D881F8F3F49F025
:104D800020E030E0A901C501B4010E94E41F8111B7
:104D900006C082E290E09093030280930202C50174
:104DA000B40109C060E070E080E89FEF04C060E0FB
:104DB00070E080EC9FE7CDB7DEB7ECE00C94B02854
:104DC000283008F027E03327DA01990F311D87FDDD
:104DD000916000966105710539F432602E5F3D9354
:104DE00030E32A95E1F708959F3F30F08038710550
:104DF000610509F03C5F3C5F3D93913008F08068AD
:104E0000911DDF93CF931F930F93FF92EF92192F72
:104E1000987F9695E92F96959695E90FFF27EF5D78
:104E2000FE4F99273327EE24FF24A701E7010590C1
:104E30000894079428F4360FE71EF81E491F511DE9
:104E4000660F771F881F991F0694A1F70590079496
:104E500028F4E70EF81E491F561FC11D770F881F43
:104E6000991F661F0694A1F70590079428F4F80E81
:104E7000491F561FC71FD11D880F991F661F771F17
:104E80000694A1F70590079420F4490F561FC71FF9
:104E9000D81F990F661F771F881F0694A9F7849162
:104EA0001095177041F0D695C79557954795F7948B
:104EB000E7941A95C1F7E7ECF0E068941590159126
:104EC00035916591959105907FE27395E118F10A0E
:104ED000430B560BC90BD009C0F7E10CF11E431F61
:104EE000561FC91FD01D7EF4703311F48A95E6CF8A
:104EF000E894015030F0080F0AF40027021708F474
:104F0000202F2395022F7A3328F079E37D932A9579
:104F1000E9F710C07D932A9589F6069497956795D1
:104F2000379517951794E118F10A430B560BC90BE7
:104F3000D00998F023957E9173957A3308F070E349
:104F40007C932013B8F77E9170617D9330F0839548
:104F500071E37D9370E32A95E1F71124EF90FF90C0
:104F60000F911F91CF91DF91992787FD909508951B
:104F7000992788270895FB01DC014150504088F0B3
:104F80008D9181341CF08B350CF4805E6591613419
:104F90001CF06B350CF4605E861B611171F3990B8C
:104FA0000895881BFCCFFC010590615070400110F2
:104FB000D8F7809590958E0F9F1F0895FC01615042
:104FC000704001900110D8F7809590958E0F9F1F2B
:104FD00008950F931F93CF93DF93FB01238121FD4E
:104FE00003C08FEF9FEF2CC022FF16C04681578170
:104FF000248135814217530744F4A081B1819D017A
:105000002F5F3F4F318320838C93268137812F5F21
:105010003F4F3783268314C08B01EC01FB010084D2
:10502000F185E02D0995892BE1F6D80116968D9131
:105030009C911797019617969C938E931697CE0185
:10504000DF91CF911F910F910895FA01AA2728307F
:1050500051F1203181F1E8946F936E7F6E5F7F4F45
:105060008F4F9F4FAF4FB1E03ED0B4E03CD0670FC1
:10507000781F891F9A1FA11D680F791F8A1F911D14
:10508000A11D6A0F711D811D911DA11D20D009F464
:1050900068943F912AE0269F11243019305D3193A6
:1050A000DEF6CF010895462F4770405D4193B3E08F
:1050B0000FD0C9F7F6CF462F4F70405D4A3318F036
:1050C000495D31FD4052419302D0A9F7EACFB4E0E7
:1050D000A6959795879577956795BA95C9F700979F
:1050E0006105710508959B01AC010A2E0694579540
:1050F000479537952795BA95C9F7620F731F841F97
:10510000951FA01D08950E94C528A59F900DB49FCE
:10511000900DA49F800D911D112408952F923F9210
:105120004F925F926F927F928F929F92AF92BF92B7
:10513000CF92DF92EF92FF920F931F93CF93DF9363
:10514000CDB7DEB7CA1BDB0B0FB6F894DEBF0FBEC0
:10515000CDBF09942A88398848885F846E847D840D
:105160008C849B84AA84B984C884DF80EE80FD800F
:105170000C811B81AA81B981CE0FD11D0FB6F89485
:10518000DEBF0FBECDBFED010895A29FB001B39F5A
:10519000C001A39F700D811D1124911DB29F700D40
:0C51A000811D1124911D0895F894FFCF8B
:1051AC00496E66696E697479006C6F6728006C6E65
:1051BC0028007371727428006173696E2800616332
:1051CC006F7328006174616E2800655E28003130B1
:1051DC005E0061627328006362727428006661630A
:1051EC007428005E33005E320064656728007261CB
:1051FC006428006173696E0061636F730061746190
:10520C006E00795E7800434C520065006162730059
:10521C0063627274005B0064656700726164006DA8
:10522C006F640066616374005D0048455800444536
:10523C00430042494E004F4354004D43004253003B
:10524C006C6F67006C6E00655E00E2889A00CF8020
:10525C000078C2B20078C2B300312F780029004523
:10526C00585000414E53004D2B004D2D004D520017
:00000001FF
