:100000000C9434000C9451000C9451000C94510049
:100010000C9451000C9451000C9451000C9451001C
:100020000C9451000C9451000C9451000C9451000C
:100030000C9451000C9451000C9462000C945100EB
:100040000C9451000C9451000C9451000C945100EC
:100050000C9451000C9451000C9451000C945100DC
:100060000C9451000C94510011241FBECFEFD8E026
:10007000DEBFCDBF11E0A0E0B1E0E6EDF5E002C0EB
:1000800005900D92A430B107D9F721E0A4E0B1E0CA
:1000900001C01D92A731B207E1F70E94B8020C948B
:1000A000E9020C94000084B5826084BD85B583604C
:1000B00085BD89EF87BDEEE6F0E0808182608083B8
:1000C000789408951F921FB61F9211248F939F93C7
:1000D000AF93BF9380910C0190910D01A0910E01FF
:1000E000B0910F010196A11DB11D80930C01909359
:1000F0000D01A0930E01B0930F01BF91AF919F919D
:100100008F911F901FBE1F901895CF93DF9300D043
:1001100000D0CDB7DEB7F89480910C0190910D011D
:10012000A0910E01B0910F0189839A83AB83BC83A8
:10013000789469817A818B819C810F900F900F90C8
:100140000F90DF91CF910895861711F08F5F08957A
:1001500080E00895F894109211011092120110920B
:100160001301109214011092150110921601F894C7
:1001700080910C0190910D01A0910E01B0910F01A1
:1001800078948093080190930901A0930A01B09399
:100190000B0178940895F89480910C0190910D01D1
:1001A000A0910E01B0910F017894409108015091F7
:1001B000090160910A0170910B01841B950BA60B3C
:1001C000B70B883E9340A105B10508F464C0809147
:1001D000080190910901A0910A01B0910B01885189
:1001E0009C4FAF4FBF4F8093080190930901A0939C
:1001F0000A01B0930B0180911101893009F44CC0C0
:100200008F5F8093110180911101811144C0909101
:100210001201953011F081E0890F809312018091D5
:100220001201811138C090911301993011F081E0D1
:10023000890F809313018091130181112CC090913B
:100240001401953011F081E0890F809314018091A1
:100250001401811120C090911501993011F081E0B5
:10026000890F8093150180911501811114C090911F
:100270001601923011F081E0890F80931601809170
:100280001601823041F480911501843020F01092E3
:10029000150110921601089580E0B3CFF894809173
:1002A0000C0190910D01A0910E01B0910F01789475
:1002B0004091040150910501609106017091070180
:1002C000841B950BA60BB70B893C9105A105B105C5
:1002D00008F484C086B1982F927081FD19C0809176
:1002E0001501893011F091E0980F909315018091DC
:1002F0001501811108C090911601923011F081E032
:10030000890F8093160180911601823009F467C02D
:1003100086B1982F947082FD14C0809113018930AA
:1003200011F091E0980F90931301809113018111C6
:1003300008C090911401953011F081E0890F8093ED
:10034000140186B1982F917080FD14C08091110125
:10035000893011F091E0980F909311018091110173
:10036000811108C090911201953011F081E0890F40
:1003700080931201339920C0F894109211011092C9
:100380001201109213011092140110921501109293
:100390001601F89480910C0190910D01A0910E012D
:1003A000B0910F0178948093080190930901A09374
:1003B0000A01B0930B017894F89480910C0190910C
:1003C0000D01A0910E01B0910F017894809304016A
:1003D00090930501A0930601B093070108958091C1
:1003E0001501843008F494CF109215011092160173
:1003F0008FCF9BB19F739BB995B1907F95B99BB1FE
:10040000937C9BB99BB1880F880F8C73892B8BB918
:10041000633019F1B0F4613041F1623041F4289A4F
:100420008FE39FE10197F1F700C00000089561118B
:10043000F7CF5E9A8FE39FE10197F1F700C00000CC
:1004400008956430D1F0653059F72B9A8FE39FE11E
:100450000197F1F700C000000895299A8FE39FE10A
:100460000197F1F700C0000008955F9A8FE39FE1C4
:100470000197F1F700C0000008952A9A8FE39FE1E9
:100480000197F1F700C000000895CF93DF9300D0EB
:1004900000D000D0CDB7DEB780911601898380915E
:1004A00015018A83809114018B83809113018C83C1
:1004B000809112018D83809111018E8360911001D2
:1004C000FE01E60FF11D81810E94F901809110016A
:1004D00090E0019666E070E00E94C10280931001F6
:1004E00026960FB6F894DEBF0FBECDBFDF91CF9139
:1004F00008958AB18C6F8AB984B18F6084B987B14D
:10050000807F87B988B18F6088B984B5826084BDE7
:1005100085B5836085BD89EF87BDEEE6F0E080811B
:10052000826080837894F89480910C0190910D0101
:10053000A0910E01B0910F017894809308019093DF
:100540000901A0930A01B0930B01F89480910C016A
:1005500090910D01A0910E01B0910F0178948093BC
:10056000040190930501A0930601B093070108953B
:100570000E9479020E944E010E94CB000E94450217
:10058000F9CF97FB072E16F4009407D077FD09D01A
:100590000E94D50207FC05D03EF4909581959F4FAF
:1005A0000895709561957F4F0895AA1BBB1B51E17B
:1005B00007C0AA1FBB1FA617B70710F0A61BB70BD3
:1005C000881F991F5A95A9F780959095BC01CD0178
:0605D0000895F894FFCF2E
:0405D600C800020057
:00000001FF
