:100000000C9434000C9451000C9451000C94510049
:100010000C9451000C9451000C9451000C9451001C
:100020000C9451000C9451000C9451000C94BC01A0
:100030000C9451000C9451000C940D010C9451003F
:100040000C9451000C9451000C9451000C945100EC
:100050000C9451000C9451000C9451000C945100DC
:100060000C9451000C94510011241FBECFEFD8E026
:10007000DEBFCDBF11E0A0E0B1E0E6E1F9E002C0F3
:1000800005900D92A63BB107D9F721E0A6EBB1E0B0
:1000900001C01D92AF3BB207E1F70E94F3030C943D
:1000A00089040C940000299A85ED8A95F1F70000E7
:1000B0002998089595B1937C95B984FD2A9A85FD78
:1000C0002B9A86FD2C9A87FD2D9A299A85ED8A9583
:1000D000F1F7000029980895CF93C82F0E945A0085
:1000E0008C2F8295807F0E945A002D98CF91089581
:1000F00028980C946C00289A0C946C00289883E340
:100100000E946C00289882E30E946C00289888E284
:100110000E946C0028988CE00E946C00289886E071
:100120000E946C00289881E00E946C008FED9EE296
:100130000197F1F700C000000895289881E00E941F
:100140006C008FED9EE20197F1F700C0000008956A
:10015000CF93DF93EC018881882339F02196289A88
:100160000E946C0089918111FACFDF91CF9108959F
:100170000F931F93CF93DF93CDB7DEB728970FB6BA
:10018000F894DEBF0FBECDBF1A821982FE013396EE
:1001900026E0DF011D922A95E9F74AE0BE016F5F74
:1001A0007F4F0E9454048981882359F08E010E5F8D
:1001B0001F4F289A0E946C00F80181918F018111D4
:1001C000F8CF28960FB6F894DEBF0FBECDBFDF91F3
:1001D000CF911F910F910895962F6BB1262F2F70FD
:1001E00030E1939FB0011124622B6BB948B121E03B
:1001F00030E0B90102C0660F771F8A95E2F7CB01A4
:10020000462B48B9EFECF7E03197F1F700C000005A
:1002100098B18095892388B908951F920F920FB6DF
:100220000F9211242F933F934F935F936F937F937C
:100230008F939F93AF93BF93EF93FF93CF93DF93EE
:10024000CDB7DEB72C97DEBFCDBF8091BC019091BA
:10025000BD012AE030E0B9010E942C046F83809137
:10026000BC019091BD01B9010E942C048887809146
:10027000BA019091BB01B9010E942C046987809159
:10028000BA019091BB01B9010E942C048A87809128
:10029000B8019091B901B9010E942C046B8780913B
:1002A000B8019091B901B9010E942C048C8786E0B5
:1002B000E0E2F1E0DE01119601900D928A95E1F7FE
:1002C0008091BE0190E0E1E0F0E0EC0FFD1FE80F4F
:1002D000F91F30812BB1FE01E80FF91F978140E132
:1002E000949FC0011124922F9F70892B8BB928B144
:1002F00081E090E001C0880F3A95EAF7922F982BA1
:1003000098B9EFECF7E03197F1F700C0000098B131
:100310008095892388B98091BE0190E0019666E0BE
:1003200070E00E942C048093BE012C960FB6F894C6
:10033000DEBF0FBECDBFDF91CF91FF91EF91BF9197
:10034000AF919F918F917F916F915F914F913F916D
:100350002F910F900FBE0F901F90189584B582605B
:1003600084BD85B5836085BD8AEF87BDEEE6F0E08C
:1003700080818260808308951F920F920FB60F9242
:1003800011248F939F938091B8019091B9010196A8
:100390009093B9018093B8018091B8019091B9010F
:1003A000CC976CF01092B9011092B8018091BA010B
:1003B0009091BB0101969093BB018093BA0180910B
:1003C000BA019091BB01CC976CF01092BB011092D6
:1003D000BA018091BC019091BD0101969093BD013D
:1003E0008093BC018091BC019091BD01489724F09D
:1003F0001092BD011092BC019F918F910F900FBE82
:100400000F901F901895E1E8F0E080818C60808368
:1004100084E294EF9093890080938800EFE6F0E007
:100420008081826080837894089529B130E0082E1D
:1004300002C0359527950A94E2F720FF02C080E0BC
:1004400008952FEF33EC49E0215030404040E1F770
:1004500000C0000029B130E0A90102C055954795C0
:100460008A95E2F7CA018170992751E0852781704A
:100470000895289881E00E946C008FED9EE201971C
:10048000F1F700C00000F12C00E010E0289881E0B6
:100490000E946C008FED9EE20197F1F700C0000012
:1004A000C7E3D1E084E5289A0E946C00899181110C
:1004B000FACF6801CC0CDD1CF601E05FFE4F019025
:1004C000F081E02D8081882341F0EF012196289A68
:1004D0000E946C0089918111FACFF601EA5DFE4F0E
:1004E000E080E7FC88C0CCE3D1E088E2289A0E9453
:1004F0006C0089918111FACF8E2DEE0C990B0E9420
:10050000B800C8E4D1E088E6289A0E946C0089917E
:100510008111FACF289880EC0E946C00CBE4D1E0E6
:1005200083E4289A0E946C0089918111FACFE60138
:10053000C050DF4F0990D881C02D8881882339F0C1
:100540002196289A0E946C0089918111FACF4A9BCA
:100550000AC05FEF89E698E1515080409040E1F792
:1005600000C0000093CF9FEF23EC49E09150204062
:100570004040E1F700C000004A99EBCF81E08F0DC9
:100580008770F82E289880EC0E946C00CFE3D1E0B1
:1005900083E4289A0E946C0089918111FACF80919E
:1005A000BC019091BD010F2D10E0E091B601F091DA
:1005B000B701EE0FFF1FEA5DFE4F20813181AC01D4
:1005C000421B530B9A01F801EE0FFF1FEA5DFE4F2D
:1005D00080819181820F931F97FD12C08831910510
:1005E0000CF048979093BD018093BC011093B70124
:1005F0000093B601AECF289A88E20E946C007CCFAF
:100600004896F0CFDF92EF92FF920F931F93CF9314
:10061000DF93289881E00E946C008FED9EE20197A5
:10062000F1F700C00000C4E6D1E085E4289A0E94FA
:100630006C0089918111FACF9FEF23ED80E39150F7
:1006400020408040E1F700C0000000E0DD24D394AA
:10065000AAE0EA2EF12C10E0289880EC0E946C00B1
:10066000023008F46DC0043008F067C0C4E5D1E082
:100670008881882339F02196289A0E946C008991FC
:100680008111FACFC12FD0E0CE010E94B8004A9B61
:1006900041C04B99E1CF9FEF23EC89E0915020407E
:1006A0008040E1F700C000004B99D6CF033009F439
:1006B0004AC008F453C00430A9F0053009F068C0FE
:1006C0008091B8019091B901C80FD91FD093B90199
:1006D000C093B801DF91CF911F910F91FF90EF90E0
:1006E000DF9008958091B8019091B9019E01220F89
:1006F000331FCC0FDD1FCC0FDD1FCC0FDD1F2C0FE8
:100700003D1F820F931F9093B9018093B801D3943A
:100710000F5FA1CF9FEF23EC89E0915020408040F4
:10072000E1F700C000004A99B4CFCE010196B701AD
:100730000E942C04EC01182FACCFC9E5D1E098CF72
:10074000CEE5D1E095CF8091BA019091BB01C80F61
:10075000D91FD093BB01C093BA01D9CF0130C1F1E9
:100760000230B1F48091BA019091BB019E01220F39
:10077000331FCC0FDD1FCC0FDD1FCC0FDD1F2C0F67
:100780003D1F820F931F9093BB018093BA01BFCF8F
:100790002091BC013091BD01CE01880F991FCC0F73
:1007A000DD1FCC0FDD1FCC0FDD1F8C0F9D1F820FB7
:1007B000931F9093BD018093BC0196E0D912A7CFFF
:1007C000DF91CF911F910F91FF90EF90DF900895EF
:1007D0008091BC019091BD01C80FD91FD093BD017C
:1007E000C093BC0194CF9FEF94B980EF8AB98BB1CD
:1007F0008C608BB997B90E947E000E94020384B579
:10080000826084BD85B5836085BD8AEF87BD809198
:100810006E00826080936E00809181008C60809376
:10082000810084E294EF9093890080938800809106
:100830006F00826080936F0078944B99FECF2FEF0A
:1008400083EC99E0215080409040E1F700C0000027
:100850004B99F3CF0E94390297FB072E16F40094B0
:1008600007D077FD09D00E94400407FC05D03EF474
:10087000909581959F4F0895709561957F4F08954C
:10088000AA1BBB1B51E107C0AA1FBB1FA617B707B6
:1008900010F0A61BB70B881F991F5A95A9F78095D2
:1008A0009095BC01CD010895BB274A3031F49923BE
:1008B00022F4BDE2909581959F4F0C946004BB2774
:1008C000FB015527AA27880F991FAA1FA41710F00C
:1008D000A41B83955051B9F7A05DAA3308F0A95D18
:1008E000A193009779F7B111B1931192CB010C94B8
:1008F0007904DC01FC01672F71917723E1F73297CE
:1009000004C07C916D9370836291AE17BF07C8F3EA
:060910000895F894FFCFEA
:100916006F017301730177017B017F01730183010D
:1009260087018B01910198019E01A401AA01B001E2
:100936000001020304050000FBFFF6FF03000400AC
:100946000900F9FF0100545A3A2000282B00436899
:10095600616E6765642100682900436F756E747265
:10096600793A20004D4D3A200053533A200048482A
:100976003A2000456E7465722054696D653A0049E7
:100986004E44005553410052555300554145004AC7
:10099600504E0045555200495354005554432D3589
:1009A600005554432D3130005554432B33005554D4
:1009B600432B34005554432B39005554432D3700EF
:0609C6005554432B3100E3
:00000001FF
