:100000000C9434000C9451000C9451000C94510049
:100010000C9451000C9451000C9451000C9451001C
:100020000C9451000C9451000C9451000C94BD00A0
:100030000C9451000C9451000C9451000C945100FC
:100040000C9451000C9451000C9451000C945100EC
:100050000C9451000C9451000C9451000C945100DC
:100060000C9451000C94510011241FBECFEFD8E026
:10007000DEBFCDBF11E0A0E0B1E0EAE5F2E002C0F2
:1000800005900D92A230B107D9F721E0A2E0B1E0CE
:1000900001C01D92A430B207E1F70E941D010C942B
:1000A0002B010C9400009BB1937C44E0849F900151
:1000B0001124922B9BB90895FF920F931F93CF9316
:1000C000DF9380910001F0900001009103011091F5
:1000D0000301D0910201C09102015E9A82958F7056
:1000E0000E9453008FE19EE40197F1F700C00000E9
:1000F0005E985F9A8F2D8F700E9453008FE19EE46F
:100100000197F1F700C000005F98289A802F829530
:100110008F700E9453008FE19EE40197F1F700C0B9
:1001200000002898299A812F8F700E9453008FE138
:100130009EE40197F1F700C0000029982A9A8D2FBC
:1001400082958F700E9453008FE19EE40197F1F732
:1001500000C000002A982B9A8C2F8F700E945300A9
:100160008FE19EE40197F1F700C000002B98DF912A
:10017000CF911F910F91FF9008951F920F920FB68C
:100180000F9211248F93809102018F5F809302015F
:10019000809102018F708A3030F080910201807F5F
:1001A000805F8093020180910201803638F01092C6
:1001B0000201809103018F5F80930301809103010D
:1001C0008F708A3030F080910301807F805F809350
:1001D000030180910301803638F010920301809171
:1001E00000018F5F80930001809100018F708A3041
:1001F00030F080910001807F805F809300018091CA
:100200000001803210F0109200018F910F900FBE0C
:100210000F901F901895E1E8F0E080818D60808359
:1002200088EF9CE39093890080938800EFE6F0E0EC
:10023000808182608083789408958AB18C638AB9C2
:100240008AB1806C8AB984B18F6084B90E940B0135
:0A0250000E945C00FDCFF894FFCF80
:02025A00120090
:00000001FF
