:100000000C9434000C9446000C9446000C9446006A
:100010000C9446000C9446000C9446000C94460048
:100020000C9446000C9446000C9446000C945D0021
:100030000C9446000C9446000C9446000C94460028
:100040000C9446000C9446000C9446000C94460018
:100050000C9446000C9446000C9446000C94460008
:100060000C9446000C94460011241FBECFEFD8E03C
:10007000DEBFCDBF21E0A0E0B1E001C01D92A23003
:10008000B207E1F70E94D9000C944A010C940000D9
:10009000E1E8F0E0808188608083808185608083F2
:1000A00088E09DE39093890080938800EFE6F0E07C
:1000B000808182608083789408958F939F9381E0FC
:1000C00090E090930101809300019F918F9118958A
:1000D0009C0180FF0BC05A9A21FF0AC05B9A22FF45
:1000E00009C05C9A23FF08C05D9A08955A98F4CF1E
:1000F0005B98F5CF5C98F6CF5D980895AF92BF926C
:10010000CF92DF92EF92FF920F931F93CF93DF93E3
:100110005B016A01D22FC32F0E9468002D9A87EEDF
:1001200093E00197F1F700C000002D98C5010E94EF
:1001300068002C9A87EE93E00197F1F700C0000069
:100140002C98C6010E9468002B9A87EE93E00197D5
:10015000F1F700C000002B988D2F9C2F0E946800A3
:100160002A9A87EE93E00197F1F700C000002A98E1
:10017000C8010E946800299A87EE93E00197F1F781
:1001800000C000002998C7010E946800289A87EEE5
:1001900093E00197F1F700C000002898DF91CF911C
:1001A0001F910F91FF90EF90DF90CF90BF90AF9095
:1001B000089580917A008F7780937A0017B88FEF37
:1001C00088B984B98AB90E94480086E0682E712CEB
:1001D00095E0892E912C29E0A22EB12C32E0C32E7D
:1001E000D12CC1E0D0E0412C512C809100019091A4
:1001F0000101892B99F189E068167104C1F18FEF33
:10020000681A780A86E08816910429F48FEFA81AF4
:10021000B80A812C912C8AE0A816B10429F48FEF3A
:10022000C81AD80AA12CB12C86E0C816D10419F43A
:100230002196C12CD12C82E04816510419F4C53006
:10024000D105D9F0CA30D10529F48FEF481A580AE0
:10025000C0E0D0E01092010110920001730184010E
:100260009501A601BE01C2010E947E00BECF8FEFA4
:10027000881A980A612C712CC5CF612C712C812CA5
:10028000912CA12CB12CC12CD12CC0E0D0E0412C60
:08029000512CE0CFF894FFCFE0
:00000001FF
