:100000000C9438000C9455000C9455000C94550039
:100010000C9455000C9455000C9455000C9455000C
:100020000C9455000C9455000C9455000C945500FC
:100030000C9455000C9455000C9455000C945500EC
:100040000C9455000C9455000C9455000C945500DC
:100050000C9455000C9455000C9455000C945500CC
:100060000C9455000C9455006E616E00696E66002C
:1000700011241FBECFEFD8E0DEBFCDBF11E0A0E05E
:10008000B1E0E2E5F5E202C005900D92A230B107C1
:10009000D9F721E0A2E0B1E001C01D92A636B20777
:1000A000E1F70E94730C0C942A120C940000CF9379
:1000B000DF93FC01DB01EA0181E085B921303105E4
:1000C00069F45C9A219761F45D9A119759F45E9AEC
:1000D000319751F45F9ADF91CF9108955C98F2CFF8
:1000E0005D98F3CF5E98F4CF5F98F5CFCF93DF9311
:1000F000FC01DB01EA0182E085B92130310569F4B8
:100100005C9A219761F45D9A119759F45E9A319740
:1001100051F45F9ADF91CF9108955C98F2CF5D988A
:10012000F3CF5E98F4CF5F98F5CFCF93DF93FC01C8
:10013000DB01EA0184E085B92130310569F45C9A7C
:10014000219761F45D9A119759F45E9A319751F4B1
:100150005F9ADF91CF9108955C98F2CF5D98F3CFCD
:100160005E98F4CF5F98F5CFCF93DF93FC01DB016E
:10017000EA0188E085B92130310569F45C9A21975C
:1001800061F45D9A119759F45E9A319751F45F9A30
:10019000DF91CF9108955C98F2CF5D98F3CF5E9890
:1001A000F4CF5F98F5CFCF93DF93FC01DB01EA0139
:1001B00080E185B92130310569F45C9A219761F4B9
:1001C0005D9A119759F45E9A319751F45F9ADF91D5
:1001D000CF9108955C98F2CF5D98F3CF5E98F4CFFD
:1001E0005F98F5CFCF93DF93FC01DB01EA0180E25A
:1001F00085B92130310569F45C9A219761F45D9AE3
:10020000119759F45E9A319751F45F9ADF91CF912B
:1002100008955C98F2CF5D98F3CF5E98F4CF5F9825
:10022000F5CFCF93409164015091650181E090E05A
:100230004115510511F080E090E0909335018093D5
:10024000340120916201309163014115510559F04B
:1002500060915E0170915F01622B732B81E0672BCF
:1002600031F080E004C081E021153105D1F390E048
:1002700090933301809332018091600190916101EC
:100280002115310521F04115510509F043C0892B95
:1002900009F04EC0452B09F0D0C0109231011092E8
:1002A000300180915E0190915F01892BD1F5109210
:1002B0002F0110922E0180E090E012C010923101C7
:1002C0001092300110922F0110922E0121E08091A6
:1002D0005E0190915F01892B09F420E0822F90E06C
:1002E00040915C0150915D01A0915801B09159017C
:1002F000E0915A01F0915B01BD016E2B7F2B6115DE
:10030000710511F521E030E04115510599F520E026
:1003100030E025C0892B09F493C01092310110926E
:10032000300181E090E090932F0180932E01C3CFA4
:1003300081E090E09093310180933001452B09F4E6
:10034000B0CF232B71F782C04115510501F721E091
:10035000309709F420E030E0109709F06AC060E0BF
:1003600070E0309739F0C1E04115510509F4C0E063
:100370006C2F70E0892BD9F0C1E04115510509F0CF
:10038000C0E08C2F90E090932D0180932C0120935E
:100390002A0130932B017093290160932801109258
:1003A000270110922601452B91F580E03BC021E00A
:1003B000452B09F420E0822F90E090932D0180934B
:1003C0002C0181E090E0EF2B11F480E090E090931D
:1003D0002B0180932A0181E090E0AB2B11F480E0A7
:1003E00090E090932901809328018091560190918B
:1003F0005701892B39F081E090E090932701809399
:100400002601D3CF1092270110922601CECFAB2B1D
:1004100061F220915601309157012E2B3F2B81E044
:10042000232B19F690E08093040190930501CF915E
:100430000895009711F2BC01A6CF232B09F43ECFFB
:1004400081E090E0909331018093300180E090E072
:100450006ACFCF93DF936091540170915501209141
:10046000520130915301A0915001B0915101611599
:10047000710561F02115310501F580914E019091D2
:100480004F0141E0892B31F040E004C041E02115EB
:100490003105D1F3109799F490E061157105C9F019
:1004A00090E0E0E021153105E1F091E0109709F0CE
:1004B00090E0E0E081E0109713C040E0F6CF91E0DB
:1004C0006115710531F02115310509F44BC091E03A
:1004D000F0CFE0E081E0C0914E01D0914F01CD2BF3
:1004E00009F480E0F0E0C0910401D0910501CD2B2A
:1004F000F1F1C1E0D0E06115710511F0C0E0D0E08C
:10050000D0932501C093240150E0509323014093E0
:10051000220190932001E093210180931E01F0932A
:100520001F01672B09F053C080E090E040914C011F
:1005300050914D01A0914801B0914901E0914A01CB
:10054000F0914B01BD016E2B7F2B6115710509F0F8
:100550004EC021E030E04115510509F05FC020E0B8
:1005600030E051C080E0F0E091E0E0E0BCCF81E01D
:1005700090E0672B11F480E090E090932501809348
:10058000240181E090E0232B11F480E090E090932F
:1005900023018093220181E090E0AB2B11F480E0F5
:1005A00090E0909321018093200180914E019091E1
:1005B0004F01892B29F410921F0110921E01B4CF14
:1005C00081E090E090931F0180931E01ADCF2A2B14
:1005D0003B2B232B09F0A8CF21E080914E01909175
:1005E0004F01892B09F420E0822F90E09FCF411525
:1005F000510509F0B4CF21E0309709F420E030E054
:10060000109709F06BC060E070E0309739F0C1E0FE
:100610004115510509F4C0E06C2F70E0892BD9F029
:10062000C1E04115510509F0C0E08C2F90E0909396
:100630001D0180931C0120931A0130931B017093BC
:100640001901609318011092170110921601452BA1
:1006500091F580E03BC021E0452B09F420E0822F9A
:1006600090E090931D0180931C0181E090E0EF2BBE
:1006700011F480E090E090931B0180931A0181E0D7
:1006800090E0AB2B11F480E090E0909319018093FF
:1006900018018091460190914701892B39F081E042
:1006A00090E09093170180931601D3CF1092170119
:1006B00010921601CECFAB2B61F220914601309102
:1006C00047012E2B3F2B81E0232B19F690E08093DE
:1006D000040190930501DF91CF910895009709F2ED
:1006E000BC01A5CFCF93DF93609144017091450188
:1006F0002091420130914301A0914001B09141010C
:100700006115710561F02115310501F580913E01FA
:1007100090913F0141E0892B31F040E004C041E07D
:1007200021153105D1F3109799F490E06115710509
:10073000C9F090E0E0E021153105E1F091E010977B
:1007400009F090E0E0E081E0109713C040E0F6CFC0
:1007500091E06115710531F02115310509F451C0A1
:1007600091E0F0CFE0E081E0C0913E01D0913F0107
:10077000CD2B09F480E0F0E0C0910401D091050197
:10078000CD2B09F443C0C1E0D0E06115710511F033
:10079000C0E0D0E0D0931501C093140150E0509315
:1007A00013014093120190931001E0931101809383
:1007B0000E01F0930F01672B09F058C020E030E0E4
:1007C000309305012093040140913C0150913D017B
:1007D000E0913A01F0913B01A0913801B0913901CB
:1007E0004115510509F452C0309709F06CC0609171
:1007F00036017091370191E0672B09F44BC090E00E
:1008000049C080E0F0E091E0E0E0B6CF81E090E028
:10081000672B11F480E090E0909315018093140110
:1008200081E090E0232B11F480E090E0909313019D
:100830008093120181E090E0AB2B11F480E090E016
:10084000909311018093100180913E0190913F019E
:10085000892B29F410920F0110920E01AFCF81E085
:1008600090E090930F0180930E01A8CF2A2B3B2B91
:10087000232B09F0A3CF81E020913E0130913F016D
:10088000232B09F480E0282F30E09ACF91E03097B5
:1008900009F4B5CF1097C9F441155105D9F060E0BE
:1008A000C0E0309741F061E0109709F060E0C0E0EF
:1008B00081E0109709F480E070E0232B09F051C02B
:1008C00021E030E00AC090E0EECF4115510539F546
:1008D00041E050E02115310531F530930D012093B1
:1008E0000C0181E090E0EF2B11F480E090E0909318
:1008F0000B0180930A0181E090E0AB2B11F480E0C2
:1009000090E0909309018093080181E020913601E5
:1009100030913701232B09F480E070E01BC0309741
:1009200049F161E0C4CF81E06091360170913701F7
:10093000672B09F480E070E030930D0120930C01E7
:10094000292F30E030930B0120930A0150930901C5
:10095000409308018093060170930701DF91CF91C6
:100960000895E1E0452B09F0E0E02E2F30E0462F1E
:100970005C2FE2CF80E070E061E0C0E09ECFCF92DC
:10098000DF92EF92FF920F931F93CF93DF93E0914B
:100990003401F09135016091320170913301409141
:1009A00030015091310120912E0130912F01E090C2
:1009B0002C01F0902D0100912A0110912B01C09182
:1009C0002801D0912901A0912601B0912701C09062
:1009D0003A01D0903B01CD2809F4E1C0C090440118
:1009E000D0904501CD2809F4DAC0C0904201D090E2
:1009F0004301CD2809F4D3C0C0904C01D0904D01E3
:100A0000CD2809F4CCC0C0904801D0904901CD2830
:100A100009F4C5C0C0905401D0905501CD2809F407
:100A2000BEC0CF01862B972B842B952B822B932B2B
:100A30008E299F29802B912B8C2B9D2B8A2B9B2BD6
:100A4000C0903C01D0903D018C299D29C090380177
:100A5000D09039018C299D29C0903601D090370162
:100A60008C299D29C0904001D09041018C299D295D
:100A7000C0903E01D0903F018C299D29C0904A0131
:100A8000D0904B018C299D29C0904601D090470100
:100A90008C299D29C0905201D09053018C299D2909
:100AA000C0905001D09051018C299D29009709F0E8
:100AB00076C0C0904E01D0904F01CD2809F46FC090
:100AC00021E030E0309305012093040110920D01E4
:100AD00010920C0110920B0110920A011092090160
:100AE0001092080110920701109206011092150150
:100AF0001092140110921301109212011092110120
:100B00001092100110920F0110920E0110921D010F
:100B100010921C0110921B0110921A0110921901DF
:100B200010921801109217011092160110922501CF
:100B3000109224011092230110922201109221019F
:100B40001092200110921F0110921E0110922D018F
:100B500010922C0110922B0110922A01109229015F
:100B6000109228011092270110922601109235014F
:100B7000109234011092330110923201109231011F
:100B80001092300190932F0180932E01DF91CF912D
:100B90001F910F91FF90EF90DF90CF9008951092EA
:100BA000050110920401C0900C01D0900D01CD28D8
:100BB00039F0CC24C394D12CD0920D01C0920C01F9
:100BC000C0900A01D0900B01CD2839F0CC24C394F9
:100BD000D12CD0920B01C0920A01C0900801D09094
:100BE0000901CD2839F0CC24C394D12CD09209012D
:100BF000C0920801C0900601D0900701CD2839F0BD
:100C0000CC24C394D12CD0920701C0920601C0908D
:100C10001401D0901501CD2839F0CC24C394D12CE7
:100C2000D0921501C0921401C0901201D09013010E
:100C3000CD2839F0CC24C394D12CD0921301C0928A
:100C40001201C0901001D0901101CD2839F0CC24B0
:100C5000C394D12CD0921101C0921001C0900E010A
:100C6000D0900F01CD2839F0CC24C394D12CD09250
:100C70000F01C0920E01C0901C01D0901D01CD2823
:100C800039F0CC24C394D12CD0921D01C0921C0108
:100C9000C0901A01D0901B01CD2839F0CC24C39408
:100CA000D12CD0921B01C0921A01C0901801D09093
:100CB0001901CD2839F0CC24C394D12CD09219013C
:100CC000C0921801C0901601D0901701CD2839F0BC
:100CD000CC24C394D12CD0921701C0921601C0909D
:100CE0002401D0902501CD2839F0CC24C394D12CF7
:100CF000D0922501C0922401C0902201D0902301FE
:100D0000CD2839F0CC24C394D12CD0922301C092A9
:100D10002201C0902001D0902101CD2839F0CC24AF
:100D2000C394D12CD0922101C0922001C0901E0109
:100D3000D0901F01CD2839F0CC24C394D12CD0926F
:100D40001F01C0921E01EF2839F0EE24E394F12C2C
:100D5000F0922D01E0922C01012B31F001E010E026
:100D600010932B0100932A01CD2B31F0C1E0D0E08C
:100D7000D0932901C0932801AB2B31F0A1E0B0E062
:100D8000B0932701A0932601A1E0B0E0EF2B11F46E
:100D9000A0E0B0E0B0933501A0933401672B31F0AF
:100DA00061E070E07093330160933201452B31F0C4
:100DB00041E050E0509331014093300141E0232B5A
:100DC00009F440E0842F90E0DDCE0E9411010E94E2
:100DD00029020E9472030C94BF0480913401909107
:100DE0003501909365018093640180913201909167
:100DF000330190936301809362018091300190915F
:100E00003101909361018093600180912E01909156
:100E10002F0190935F0180935E0180912C0190914E
:100E20002D0190935D0180935C0180912A01909146
:100E30002B0190935B0180935A018091280190913E
:100E40002901909359018093580180912601909136
:100E5000270190935701809356018091240190912E
:100E60002501909355018093540180912201909126
:100E7000230190935301809352018091200190911E
:100E80002101909351018093500180911E01909116
:100E90001F0190934F0180934E0180911C0190910E
:100EA0001D0190934D0180934C0180911A01909106
:100EB0001B0190934B0180934A01809118019091FE
:100EC00019019093490180934801809116019091F6
:100ED00017019093470180934601809114019091EE
:100EE00015019093450180934401809112019091E6
:100EF00013019093430180934201809110019091DE
:100F00001101909341018093400180910E019091D5
:100F10000F0190933F0180933E0180910C019091CD
:100F20000D0190933D0180933C0180910A019091C5
:100F30000B0190933B0180933A01809108019091BD
:100F400009019093390180933801809106019091B5
:100F500007019093370180933601089560916401F1
:100F60007091650180E090E00E9402126091620140
:100F70007091630182E090E00E9402126091600132
:100F80007091610184E090E00E94021260915E0124
:100F900070915F0186E090E00E940212609134013E
:100FA0007091350188E090E00E9402126091320158
:100FB000709133018AE090E00E940212609130014A
:100FC000709131018CE090E00E94021260912E013C
:100FD00070912F018EE090E00E94021260915C01FE
:100FE00070915D0180E190E00E94021260915A01CF
:100FF00070915B0182E190E00E94021260915801C1
:101000007091590184E190E00E94021260915601B2
:101010007091570186E190E00E94021260912C01CC
:1010200070912D0188E190E00E94021260912A01E6
:1010300070912B018AE190E00E94021260912801D8
:10104000709129018CE190E00E94021260912601CA
:10105000709127018EE190E00E940212609154018C
:101060007091550180E290E00E940212609152015D
:101070007091530182E290E00E940212609150014F
:101080007091510184E290E00E94021260914E0141
:1010900070914F0186E290E00E940212609124015B
:1010A0007091250188E290E00E9402126091220175
:1010B000709123018AE290E00E9402126091200167
:1010C000709121018CE290E00E94021260911E0159
:1010D00070911F018EE290E00E94021260914C011B
:1010E00070914D0180E390E00E94021260914A01EC
:1010F00070914B0182E390E00E94021260914801DE
:101100007091490184E390E00E94021260914601CF
:101110007091470186E390E00E94021260911C01E9
:1011200070911D0188E390E00E94021260911A0103
:1011300070911B018AE390E00E94021260911801F5
:10114000709119018CE390E00E94021260911601E7
:10115000709117018EE390E00E94021260914401A9
:101160007091450180E490E00E940212609142017A
:101170007091430182E490E00E940212609140016C
:101180007091410184E490E00E94021260913E015E
:1011900070913F0186E490E00E9402126091140178
:1011A0007091150188E490E00E9402126091120192
:1011B000709113018AE490E00E9402126091100184
:1011C000709111018CE490E00E94021260910E0176
:1011D00070910F018EE490E00E94021260913C0138
:1011E00070913D0180E590E00E94021260913A0109
:1011F00070913B0182E590E00E94021260913801FB
:101200007091390184E590E00E94021260913601EC
:101210007091370186E590E00E94021260910C0106
:1012200070910D0188E590E00E94021260910A0120
:1012300070910B018AE590E00E9402126091080112
:10124000709109018CE590E00E9402126091060104
:10125000709107018EE590E00C94021280E090E01E
:101260000E94FC11909365018093640182E090E0FC
:101270000E94FC11909363018093620184E090E0EE
:101280000E94FC11909361018093600186E090E0E0
:101290000E94FC1190935F0180935E0188E090E0D2
:1012A0000E94FC1190933501809334018AE090E014
:1012B0000E94FC1190933301809332018CE090E006
:1012C0000E94FC1190933101809330018EE090E0F8
:1012D0000E94FC1190932F0180932E0180E190E0F9
:1012E0000E94FC1190935D0180935C0182E190E08B
:1012F0000E94FC1190935B0180935A0184E190E07D
:101300000E94FC11909359018093580186E190E06E
:101310000E94FC11909357018093560188E190E060
:101320000E94FC1190932D0180932C018AE190E0A2
:101330000E94FC1190932B0180932A018CE190E094
:101340000E94FC1190932901809328018EE190E086
:101350000E94FC11909327018093260180E290E087
:101360000E94FC11909355018093540182E290E019
:101370000E94FC11909353018093520184E290E00B
:101380000E94FC11909351018093500186E290E0FD
:101390000E94FC1190934F0180934E0188E290E0EF
:1013A0000E94FC1190932501809324018AE290E031
:1013B0000E94FC1190932301809322018CE290E023
:1013C0000E94FC1190932101809320018EE290E015
:1013D0000E94FC1190931F0180931E0180E390E016
:1013E0000E94FC1190934D0180934C0182E390E0A8
:1013F0000E94FC1190934B0180934A0184E390E09A
:101400000E94FC11909349018093480186E390E08B
:101410000E94FC11909347018093460188E390E07D
:101420000E94FC1190931D0180931C018AE390E0BF
:101430000E94FC1190931B0180931A018CE390E0B1
:101440000E94FC1190931901809318018EE390E0A3
:101450000E94FC11909317018093160180E490E0A4
:101460000E94FC11909345018093440182E490E036
:101470000E94FC11909343018093420184E490E028
:101480000E94FC11909341018093400186E490E01A
:101490000E94FC1190933F0180933E0188E490E00C
:1014A0000E94FC1190931501809314018AE490E04E
:1014B0000E94FC1190931301809312018CE490E040
:1014C0000E94FC1190931101809310018EE490E032
:1014D0000E94FC1190930F0180930E0180E590E033
:1014E0000E94FC1190933D0180933C0182E590E0C5
:1014F0000E94FC1190933B0180933A0184E590E0B7
:101500000E94FC11909339018093380186E590E0A8
:101510000E94FC11909337018093360188E590E09A
:101520000E94FC1190930D0180930C018AE590E0DC
:101530000E94FC1190930B0180930A018CE590E0CE
:101540000E94FC1190930901809308018EE590E0C0
:101550000E94FC119093070180930601089580E595
:1015600090E00E94FC11019609F0C2C01092650142
:101570001092640110926301109262011092610155
:101580001092600110925F0110925E01109235017D
:1015900010923401109233011092320110923101F5
:1015A0001092300110922F0110922E0110925D01C5
:1015B00010925C0110925B0110925A011092590135
:1015C00010925801109257011092560110922D015D
:1015D00010922C0110922B0110922A0110922901D5
:1015E00010922801109227011092260110925501A5
:1015F0001092540110925301109252011092510115
:101600001092500110924F0110924E01109225013C
:1016100010922401109223011092220110922101B4
:101620001092200110921F0110921E0110924D0184
:1016300010924C0110924B0110924A0110924901F4
:1016400010924801109247011092460110921D011C
:1016500010921C0110921B0110921A011092190194
:101660001092180110921701109216011092450164
:1016700010924401109243011092420110924101D4
:101680001092400110923F0110923E0110921501FC
:101690001092140110921301109212011092110174
:1016A0001092100110920F0110920E0110923D0144
:1016B00010923C0110923B0110923A0110923901B4
:1016C00010923801109237011092360110920D01DC
:1016D00010920C0110920B0110920A011092090154
:1016E0001092080110920701109206010C94AE07A7
:1016F00008950F931F93CF93DF936CE070E00E94E7
:1017000021108B01C0E0D0E0C017D1072CF0DF9191
:10171000CF911F910F91089520913401309135019F
:10172000409132015091330160913001709131014B
:1017300080912E0190912F010E9457008FE39FE12D
:101740000197F1F700C0000020912C0130912D018C
:1017500040912A0150912B0160912801709129013B
:1017600080912601909127010E9476008FE39FE1EE
:101770000197F1F700C0000020912401309125016C
:10178000409122015091230160912001709121012B
:1017900080911E0190911F010E9495008FE39FE1AF
:1017A0000197F1F700C0000020911C0130911D014C
:1017B00040911A0150911B0160911801709119011B
:1017C00080911601909117010E94B4008FE39FE170
:1017D0000197F1F700C0000020911401309115012C
:1017E000409112015091130160911001709111010B
:1017F00080910E0190910F010E94D3008FE39FE131
:101800000197F1F700C0000020910C0130910D010B
:1018100040910A0150910B016091080170910901FA
:1018200080910601909107010E94F2008FE39FE1F1
:101830000197F1F700C00000219666CF0F931F9328
:10184000CF93DF938091000190910101CAE0D0E035
:1018500001E010E0019779F588E790E00E94790BAC
:101860004A990DC0CCE3D0E00E94E5060E94ED0647
:101870002197D1F7DF91CF911F910F9108954B9947
:1018800009C0C0E1DEE00E94E5060E94ED06219756
:10189000D1F7F0CF499908C00E94E506DF91CF91BA
:1018A0001F910F910C94ED064899E4CF109201011D
:1018B00010920001DFCF84E690E00E94790B4899F6
:1018C00004C010930101009300012197A1F7E4CF18
:1018D00030E405B312E00123E1F315BB3A95C9F7F3
:1018E00008950895089585E085BD0E94AF0A0E947D
:1018F0002E098FEF84B980EF8AB98BB18F608BB9D5
:101900000E941E0C0E94AE07FBCFA2E1B0E0EBE804
:10191000FCE00C9435107C013B018A01FC0117822C
:101920001682838181FF68C3F7012381F30123FDC0
:10193000859123FF81913F01811509F443C08532D0
:1019400039F423FD959123FF91913F01953239F4AC
:10195000B70190E00E946E1168018601E5CF30E08A
:10196000512C912C812CF0E28F1608F03DC09B3257
:1019700081F160F4903279F1933299F19E3209F05D
:101980004AC086FC1FC0689486F806C09D3231F1BB
:10199000903361F5689480F8F30123FD959123FF5E
:1019A00091913F019111DFCF882D897F482E90378B
:1019B00009F494C208F08AC2983509F494C29F369B
:1019C00009F499C2F701868197816296E2E10C944D
:1019D0005110689481F8689482F8DECF689483F897
:1019E000DBCF689484F8D8CF87FC1FC080ED890FC7
:1019F0008A3008F0C3CF86FE06C04AE0549E800DB0
:101A00001124582EC9CF5AE0959E800D1124982E8E
:101A1000689485F8C1CF9C3619F4689487F8BCCFD8
:101A20009C3401F1983609F4B7CF3115E9F0892FCC
:101A30008F7D8554833008F0A5C1085F1F4F680172
:101A40008FE3898322242394312C8E010F5F1F4F53
:101A5000E89487F883FC04C02914310408F4F9C120
:101A6000492C0DC231E098CF8BEB890F8330A8F45D
:101A7000689484F8905E86FC02C026E0522EE82D21
:101A8000EF738E2E953689F4689486F828E0521606
:101A900008F044C0252D1E8614C08BE9890F8330C1
:101AA00008F070C1E89484F8E6CF963689F568941A
:101AB00087F8852DFCE35F1608F08BE38F5F8E8738
:101AC00027E0F80161917191819191916F010E85EB
:101AD000AE014F5F5F4F0E9480105C01F981F88B6F
:101AE000F0FF03C01DE2F3FF05C082FA112715F9CC
:101AF00081FC1BE228892C70422E211549F111111D
:101B00007EC224E0412C921608F490C283E07CC28D
:101B100020E0511409F4BFCF5A94B8CF27E097E0E2
:101B2000592EB9CF81108052B70190E00E946E11FA
:101B30000F5F1F4FF80184918111F4CF411409F414
:101B40000CCFB70180E290E00E946E114A94F6CF6C
:101B500087FE2FC08E858A0DF889F4FF04C09A8114
:101B6000913309F4815018160CF048C08E878930E3
:101B700010F028E02E87C501B7FE02C080E090E09B
:101B8000019611110196511431F0252D30E02F5F8F
:101B90003F4F820F931F8915910514F4492C481A61
:101BA000882D8970811139C0411030C01115F1F1B3
:101BB00036C086FC28C0E52DF0E05A141B043CF02A
:101BC0003CEFA3163FEFB30614F0689487F8329603
:101BD000AE014F5F5F4FE40FF51F01C05A945114DF
:101BE00019F082918033D1F387FE0DC051E0550D7D
:101BF0005E87A514B1042CF45A18BDCF81E08E87FE
:101C0000BACF512CB8CF85E090E0BBCFB70180E2CE
:101C100090E00E946E114A94C7CF111529F0B701C8
:101C2000812F90E00E946E1183FC02C0411040C0E1
:101C300087FE59C04501B7FE02C0812C912CCE0110
:101C400001968A0D9B1DFC01E819F909FA8BE98BB5
:101C500095014E85241B31093F872E87052D10E005
:101C6000119501951109A814B9044CF18E859F8531
:101C70008815990524F5E989FA898181F1E08F1A9F
:101C8000910829893A892F5F3F4F3A8B298B80161B
:101C90009106BCF0B70190E00E946E113FEF8316F1
:101CA000930609F7B7018EE290E00E946E11DBCF38
:101CB000B70180E390E00E946E114A94B7CF80E3B1
:101CC000DDCFA814B90441F49A81963350F49533CA
:101CD00019F4488944FF05C0B70190E00E946E11D5
:101CE0002DCF81E3F9CF8A81813319F058895F7E46
:101CF000588BB70190E00E946E11511026C085E408
:101D000090E084FC02C085E690E0B7010E946E116D
:101D1000B7FC06C0A114B10471F5888984FF2BC0FB
:101D2000B194A194B1088DE2B70190E00E946E11C8
:101D300080E3EAE0AE16B10404F5B70190E00E943A
:101D40006E11B701C501C096C9CFB7018EE290E010
:101D50000E946E115394539412E0812F1F5FFE0175
:101D60003196E80FF11D8081B70190E00E946E115D
:101D70001511F3CFC4CF8BE2D7CF8F5F9AE0A91AAA
:101D8000B108D7CF9336F1F1933709F442C09335B8
:101D900009F44EC0943619F0993609F07CC0F80168
:101DA00087FE71C061917191819191916F01082DB0
:101DB0000F7697FF08C090958095709561957F4F3D
:101DC0008F4F9F4F00682AE030E0AE014F5F5F4FBA
:101DD0005D874C870E949E11182F5C85151B06FF9E
:101DE00094C0802F8E7F151508F08EC004FFE1C0CF
:101DF00002FDD5C00E7E452C802F8678811509F412
:101E00008FC0D2C06801F2E0CF0ED11CF8018081F2
:101E100018CEF801019111916F01652D70E086FCDB
:101E200002C06FEF7FEFC8010E9463111C0110CE4A
:101E3000F801019111916F01652D70E086FC02C0DF
:101E40006FEF7FEFC8010E9458111C01689487F85A
:101E500001CEB70180E290E00E946E119A94FCCD11
:101E6000F80187FC859187FE81918F01B70190E091
:101E70000E946E1141104A94F1E02F1A310821148A
:101E8000310471F75BCE619171916F01072E000CE7
:101E9000880B990B8CCF482CE89444F82AE030E06A
:101EA000953709F081CDF80147FE28C06191719105
:101EB000819191916F018E010F5F1F4FA8010E94C8
:101EC0009E11182F101B042D0F7789CF983709F01A
:101ED00079CD84FC05C020E130E0E5CF689444F87A
:101EE000689442F8F8CF84FE03C0982D9660492E7E
:101EF00020E132E0D8CF28E030E0D5CF6191719178
:101F00006F0180E090E0D7CF082F412E04FF74CFFF
:101F1000FE01E10FF11D8081803309F043C0097E8D
:101F200003FD0EC000FF51C0512E491418F4590C86
:101F30005418492C892D8419941408F480E0480E13
:101F4000491408F044C09418492C04FF42C0B7015A
:101F500080E390E00E946E1102FF09C088E590E0E6
:101F600001FD02C088E790E0B7010E946E111515CF
:101F7000E0F11150012F10E00F5F1F4F9E012F5F06
:101F80003F4F4901020F131FF80182918F01B701E2
:101F900090E00E946E1180169106B1F7CFCD452CCE
:101FA000082FB6CF02FD02C04394BACF43944394A6
:101FB000B7CF452C082F20CFB70180E290E00E94D8
:101FC0006E1183948914C0F3B5CF842CFBCF412CC0
:101FD000BCCF802F8678811551F280E201FD8BE223
:101FE00007FD8DE2B70190E0C0CFB70180E390E03C
:101FF0000E946E115A94BBCF8FEF9FEFE6CCF5E0B5
:10200000412C9F1670F084E0492C481A83FC07C0CD
:10201000B70180E290E00E946E114A94C9F7111551
:1020200029F0B701812F90E00E946E11388908E6EF
:1020300010E033FD02C00CE610E0482D4071842E04
:1020400079CD97FB072E16F4009407D077FD09D0C1
:102050000E946C1007FC05D03EF4909581959F4F2F
:102060000895709561957F4F08952F923F924F92FA
:102070005F926F927F928F929F92AF92BF92CF9218
:10208000DF92EF92FF920F931F93CF93DF93CDB721
:10209000DEB7CA1BDB0B0FB6F894DEBF0FBECDBF99
:1020A00009942A88398848885F846E847D848C846A
:1020B0009B84AA84B984C884DF80EE80FD800C8173
:1020C0001B81AA81B981CE0FD11D0FB6F894DEBF56
:1020D0000FBECDBFED010895AA1BBB1B51E107C088
:1020E000AA1FBB1FA617B70710F0A61BB70B881FA8
:1020F000991F5A95A9F780959095BC01CD01089537
:10210000283008F027E03327DA01990F311D87FDC9
:10211000916000966105710539F432602E5F3D9340
:1021200030E32A95E1F708959F3F30F0803871053C
:10213000610509F03C5F3C5F3D93913008F0806899
:10214000911DDF93CF931F930F93FF92EF92192F5F
:10215000987F9695E92F96959695E90FFF27EE546F
:10216000FB4D99273327EE24FF24A701E7010590B3
:102170000894079428F4360FE71EF81E491F511DD6
:10218000660F771F881F991F0694A1F70590079483
:1021900028F4E70EF81E491F561FC11D770F881F30
:1021A000991F661F0694A1F70590079428F4F80E6E
:1021B000491F561FC71FD11D880F991F661F771F04
:1021C0000694A1F70590079420F4490F561FC71FE6
:1021D000D81F990F661F771F881F0694A9F784914F
:1021E0001095177041F0D695C79557954795F79478
:1021F000E7941A95C1F7E8E5F4E268941590159113
:1022000035916591959105907FE27395E118F10AFA
:10221000430B560BC90BD009C0F7E10CF11E431F4D
:10222000561FC91FD01D7EF4703311F48A95E6CF76
:10223000E894015030F0080F0AF40027021708F460
:10224000202F2395022F7A3328F079E37D932A9566
:10225000E9F710C07D932A9589F6069497956795BE
:10226000379517951794E118F10A430B560BC90BD4
:10227000D00998F023957E9173957A3308F070E336
:102280007C932013B8F77E9170617D9330F0839535
:1022900071E37D9370E32A95E1F71124EF90FF90AD
:1022A0000F911F91CF91DF91992787FD9095089508
:1022B000FC010590615070400110D8F78095909511
:1022C0008E0F9F1F0895FC01615070400190011016
:1022D000D8F7809590958E0F9F1F08950F931F93A9
:1022E000CF93DF93182F092FEB018B8181FD09C05C
:1022F0001FEF0FEF812F902FDF91CF911F910F9143
:10230000089582FF14C02E813F818C819D81281702
:1023100039073CF4E881F981CF01019699838883DC
:1023200010838E819F8101969F838E83E3CFE88502
:10233000F985812F0995892BA1F3DACFFA01AA2714
:10234000283051F1203181F1E8946F936E7F6E5FF8
:102350007F4F8F4F9F4FAF4FB1E03ED0B4E03CD0A6
:10236000670F781F891F9A1FA11D680F791F8A1F89
:10237000911DA11D6A0F711D811D911DA11D20D0F0
:1023800009F468943F912AE0269F11243019305DAA
:102390003193DEF6CF010895462F4770405D41939B
:1023A000B3E00FD0C9F7F6CF462F4F70405D4A33E8
:1023B00018F0495D31FD4052419302D0A9F7EACFB0
:1023C000B4E0A6959795879577956795BA95C9F7DF
:1023D00000976105710508959B01AC010A2E0694D2
:1023E0005795479537952795BA95C9F7620F731F8B
:1023F000841F951FA01D0895A8E1B0E042E050E0C1
:102400000C940A120196272F0E9419120C9418128C
:10241000DC01CB01FC01F999FECF06C0F2BDE1BDA4
:10242000F89A319600B40D9241505040B8F7089593
:10243000262FF999FECF92BD81BDF89A019700B47D
:10244000021639F01FBA20BD0FB6F894FA9AF99A1D
:102450000FBE0895F894FFCF00407A10F35A00A001
:10246000724E18090010A5D4E80000E8764817005D
:1024700000E40B54020000CA9A3B000000E1F5059D
:10248000000080969800000040420F000000A086E7
:1024900001000000102700000000E8030000000019
:1024A0006400000000000A000000000001000000BD
:1024B00000002C76D888DC674F0823DFC1DFAE59D7
:1024C000E1B1B796E5E3E453C63AE651997696E86A
:1024D000E6C28426EB898C9B62ED407C6FFCEFBCEE
:1024E0009C9F40F2BAA56FA5F490055A2AF75C9319
:1024F0006B6CF9676DC11BFCE0E40D47FEF520E64F
:10250000B500D0ED902E0300943577050080841E31
:10251000080000204E0A000000C80C333333330F8C
:10252000986E12831141EF8D2114893BE65516CF29
:10253000FEE6DB18D1844B381BF77C1D901DA4BB35
:10254000E424203284725E228100C9F124ECA1E5EA
:022550003D2725
:02255200010086
:00000001FF
