:100000000C9434000C9446000C9446000C9446006A
:100010000C9446000C9446000C9446000C94460048
:100020000C9446000C9446000C9446000C94480036
:100030000C9446000C9446000C9446000C94460028
:100040000C9446000C9446000C9446000C94460018
:100050000C9446000C9446000C9446000C94460008
:100060000C9446000C94460011241FBECFEFD8E03C
:10007000DEBFCDBF21E0A0E0B1E001C01D92AE30F7
:10008000B207E1F70E9485010C94D9010C9400009D
:100090001F920F920FB60F9211248F939F9380910E
:1000A0000001882379F0809108019091090101965F
:1000B00090930901809308018091080190910901B2
:1000C000CC97DCF480910101882381F080910201BA
:1000D0009091030118161906E4F5809102019091A0
:1000E0000301019790930301809302019F918F91E7
:1000F0000F900FBE0F901F9018951092090110924B
:10010000080180910A0190910B01019690930B01D7
:1001100080930A0180910A0190910B01CC9794F28F
:1001200010920B0110920A0180910C0190910D0127
:10013000019690930D0180930C0180910C01909198
:100140000D0148970CF4BECF10920D0110920C01D6
:10015000B9CF809104019091050118161906B4F4E5
:10016000809104019091050101979093050180937E
:1001700004018BE390E090930301809302019F912F
:100180008F910F900FBE0F901F90189580910601D0
:100190009091070118161906A4F480910601909118
:1001A0000701019790930701809306018BE390E08C
:1001B00090930501809304019093030180930201C1
:1001C00095CF1092010192CF8FE084B98FE387B968
:1001D0008AB1837E8AB98BB18C618BB9E1E8F0E09A
:1001E00080818860808380818560808388E09DE352
:1001F0009093890080938800EFE6F0E08081826030
:100200008083789408956F7065B948B121E030E03B
:10021000B90102C0660F771F8A95E2F7CB01462B22
:1002200048B9EFE9FFE03197F1F700C0000098B15D
:100230008095892388B9089580910C0190910D01D2
:100240002AE030E0B9010E94B1016F7065B9409AAF
:100250008FE99FE00197F1F700C00000409880917E
:100260000C0190910D01B9010E94B1018F7085B907
:10027000419A8FE99FE00197F1F700C00000419893
:1002800080910A0190910B01B9010E94B1016F7038
:1002900065B9429A8FE99FE00197F1F700C000002D
:1002A000429880910A0190910B01B9010E94B1011D
:1002B0008F7085B9439A8FE99FE00197F1F700C0ED
:1002C000000043988091080190910901B9010E94B2
:1002D000B1016F7065B9449A8FE99FE00197F1F71A
:1002E00000C0000044988091080190910901B90173
:1002F0000E94B1018F7085B9459A8FE99FE00197FF
:10030000F1F700C00000459808950E94E40018C06D
:100310004A9909C02FEF83EC99E02150804090402A
:10032000E1F700C000004B9909C02FEF83EC99E082
:10033000215080409040E1F700C000004C9B07C076
:1003400080910001882321F30E941C01E1CF2FEF4F
:1003500083EC99E0215080409040E1F700C000001C
:10036000EFCF97FB072E16F4009407D077FD09D046
:100370000E94C50107FC05D03EF4909581959F4FE2
:100380000895709561957F4F0895AA1BBB1B51E19D
:1003900007C0AA1FBB1FA617B70710F0A61BB70BF5
:1003A000881F991F5A95A9F780959095BC01CD019A
:0603B0000895F894FFCF50
:00000001FF
